:020000040800F2
:10000000E80600202902000815250008551D0008F3
:1000100011250008210400089D26000800000000AA
:10002000000000000000000000000000892500081A
:10003000250400080000000085250008E1250008CF
:10004000430200084302000843020008430200087C
:10005000430200084302000843020008430200086C
:10006000430200084302000843020008430200085C
:10007000430200084302000843020008430200084C
:10008000430200084302000843020008430200083C
:10009000430200084302000843020008430200082C
:1000A000430200084302000843020008430200081C
:1000B000430200084302000843020008430200080C
:1000C00043020008430200084302000843020008FC
:1000D00043020008430200084302000843020008EC
:1000E00043020008430200084302000843020008DC
:1000F00043020008430200084302000843020008CC
:1001000043020008430200084302000843020008BB
:1001100043020008430200084302000843020008AB
:10012000430200084302000843020008430200089B
:10013000430200084302000843020008430200088B
:10014000430200084302000843020008430200087B
:10015000430200084302000843020008430200086B
:10016000430200084302000843020008430200085B
:100170004302000843020008430200080000000098
:10018000430200084302000800F002F800F03CF8C7
:100190000AA090E8000C82448344AAF10107DA45E2
:1001A00001D100F031F8AFF2090EBAE80F0013F0F8
:1001B000010F18BFFB1A43F001031847342A00004F
:1001C000542A0000103A24BF78C878C1FAD85207E0
:1001D00024BF30C830C144BF04680C6070470000C1
:1001E0000023002400250026103A28BF78C1FBD840
:1001F000520728BF30C148BF0B6070471FB502F0DF
:10020000DDFC1FBD10B510BD00F0D0F81146FFF7A2
:10021000F5FF02F0B1FA00F0EEF803B4FFF7F2FFD9
:1002200003BC00F0F5F80000094880470948004782
:10023000FEE7FEE7FEE7FEE7FEE7FEE7FEE7FEE796
:10024000FEE7FEE704480549054A064B70470000F3
:100250008926000889010008E8000020E80600203F
:10026000E8020020E802002053EA020C00F0698056
:100270002DE9F04B4FF00006002B1FBFB3FA83F5BA
:1002800003FA05F424FA05F65E4012BF1643B2FAEB
:1002900082F502FA05F4C5F120051EBF22FA05FC1D
:1002A00044EA0C04203556EA044C4FEA144418BFC3
:1002B000641C4FF000084FF00009904271EB030CF2
:1002C00039D3002919BFB1FA81F701FA07F6B0FA5C
:1002D00080F700FA07F6C7F120071EBF20FA07FCD7
:1002E00046EA0C062037B6FBF4FCA7EB0507103FE7
:1002F00007F01F0BCBF120062CFA06F60CFA0BFBCD
:1003000044BFB3460026202FA4BF5E464FF0000B2B
:100310005BEA060C08BF4FF0010B19EB0B0948EB29
:100320000608ABFB027C06FB02CC0BFB03CCC01B1C
:1003300071EB0C01C1E70B46024641464846BDE859
:10034000F08B13B5084318BF4FF0FF300146AFF3F1
:100350000080BDE81C4070474FF0000200B5134616
:1003600094469646203922BFA0E80C50A0E80C50D5
:10037000B1F12001BFF4F7AF090728BFA0E80C5086
:1003800048BF0CC05DF804EB890028BF40F8042B7F
:1003900008BF704748BF20F8022B11F0804F18BFEC
:1003A00000F8012B7047704770477047754600F0A2
:1003B0002BF8AE4605006946534620F007008546F7
:1003C00018B020B5FFF73EFFBDE820404FF0000613
:1003D0004FF000074FF000084FF0000BAC46ACE8C0
:1003E000C009ACE8C009ACE8C009ACE8C00921F01C
:1003F00007018D46704710B50446AFF300802046D4
:10040000BDE81040FFF709BF00487047100000200A
:1004100001491820ABBEFEE726000200704700002D
:10042000FFE7FEE77047000081B0EFF3108072B67F
:100430000090FFE7FEE7000080B584B0039000F075
:10044000F9F90290039801900198013048B1FFE753
:1004500040F20400C2F200000178019808440190C3
:10046000FFE7FFE700F0E6F90299401A0199884298
:1004700001D2FFE7F6E704B080BD00008EB00D901A
:100480000C9100200A90099008900B90FFE70B98C0
:100490000F2800F2CC81FFE70B99012088400A90D9
:1004A0000C9800680A990840099009980A998842AE
:1004B00040F0B881FFE70C98406800F00300012885
:1004C00007D0FFE70C98406800F0030002282FD106
:1004D000FFE70D98806808900B984100032000FA10
:1004E00001F10898884308900C98C0680B9949005E
:1004F00000FA01F108980843089008980D9988605F
:100500000D98406808900B99012000FA01F10898B5
:10051000884308900C984068C0F300100B9900FACB
:1005200001F108980843089008980D994860FFE782
:100530000C98406800F00300032818D0FFE70D98DE
:10054000C06808900B984100032000FA01F1089858
:10055000884308900C9880680B99490000FA01F1D3
:1005600008980843089008980D99C860FFE70C9810
:10057000406800F00300022826D1FFE70D980B9990
:100580006FF0030202EA51010844006A08900B98D8
:1005900000F0070081000F2000FA01F1089888435D
:1005A00008900C9800690B9901F00701890000FA86
:1005B00001F108980843089008980D990B9B02EAEE
:1005C000530211440862FFE70D98006808900B98E9
:1005D0004100032000FA01F10898884308900C9824
:1005E000406800F003000B99490000FA01F10898F7
:1005F0000843089008980D9908600C988079800746
:10060000002800F00E81FFE7FFE70020079043F687
:100610004400C4F20200016841F4804101600068B6
:1006200000F4804007900798FFE70B9820F0030044
:1006300043F60801C4F20101405808900B9800F0FD
:10064000030081000F2000FA01F108988843089008
:100650000D980021C4F20201884203D1FFE7002077
:1006600006905EE00D9840F20041C4F2020188421B
:1006700003D1FFE70120059050E00D9840F60001FE
:10068000C4F20201884203D1FFE70220049042E055
:100690000D9840F60041C4F20201884203D1FFE701
:1006A0000320039034E00D9841F20001C4F20201EE
:1006B000884203D1FFE70420029026E00D9841F222
:1006C0000041C4F20201884203D1FFE705200190F6
:1006D00018E00D9841F60001C4F20201884203D1EE
:1006E000FFE7062000900AE00D9941F60042C4F2AF
:1006F00002020820914208BF07200090FFE70098FF
:100700000190FFE701980290FFE702980390FFE74E
:1007100003980490FFE704980590FFE7059806907A
:10072000FFE70698C0B20B9901F00301890000FAB7
:1007300001F108980843089008980B9921F00301EB
:1007400043F60802C4F20102885043F60840C4F29E
:1007500001000068089009990898884308900C984F
:100760008079C006002805D5FFE709990898084355
:100770000890FFE7089843F60841C4F201010860B9
:1007800043F60C40C4F201000068089009990898EB
:10079000884308900C9880798006002805D5FFE7EB
:1007A0000999089808430890FFE7089843F60C4118
:1007B000C4F20101086043F60440C4F2010000687D
:1007C000089009990898884308900C9880798007C8
:1007D000002805D5FFE70999089808430890FFE726
:1007E000089843F60441C4F20101086043F6004052
:1007F000C4F201000068089009990898884308909D
:100800000C988079C00728B1FFE709990898084338
:100810000890FFE7089843F60041C4F20101086020
:10082000FFE7FFE7FFE70B9801300B902FE60EB0D4
:100830007047000040F2E000C2F20000006870471C
:1008400080B58EB00C900C9820B9FFE701208DF890
:10085000370043E10C9890F83D0040B9FFE70C9950
:10086000002081F83C000C9800F05AFCFFE70C993E
:10087000242081F83D000C980168086820F00100F0
:1008800008600C980168086840F4004008600C9803
:100890000168086820F40040086000F06DFE0A90CE
:1008A0000C98406848F2A061C0F2010188420BD860
:1008B000FFE70A9948F28042C0F21E0200209142EE
:1008C00038BF012009900AE00A9940F60012C0F2F0
:1008D0003D020020914238BF01200990FFE70998AE
:1008E000012804D1FFE701208DF83700F6E00A98CF
:1008F0004DF68361C4F21B31A0FB0110800C0B90FC
:100900000C980068406820F03F000B9908430C9950
:10091000096848600C980068006A20F03F00089061
:100920000C98406848F2A061C0F20101884204D8E6
:10093000FFE70B98013007900EE00B984FF496718B
:10094000484344F6D351C1F26201A0FB01010120EA
:1009500000EB91100790FFE70898079908430C995E
:10096000096808620C980068C0694CF6FF718843FA
:1009700006900C98406848F2A061C0F201018842DC
:100980001FD8FFE70A9801380C9949684900B0FB65
:10099000F1F001306FF31F30032803D8FFE7042084
:1009A00005900BE00A9801380C9949684900B0FBA2
:1009B000F1F001306FF31F300590FFE705980490C8
:1009C0004CE00C98806868B9FFE70A9801380C99E8
:1009D000496801EB4101B0FBF1F001306FF31F30CA
:1009E00003900DE00A9801380C9949681922514387
:1009F000B0FBF1F00130042161F31F300390FFE7F9
:100A00000398000518B9FFE70120029023E00C9835
:100A1000806868B9FFE70A9801380C99496801EBCA
:100A20004101B0FBF1F001306FF31F3001900DE098
:100A30000A9801380C99496819225143B0FBF1F02A
:100A40000130042161F31F300190FFE7019840F469
:100A500000400290FFE702980490FFE7069804998F
:100A600008430C990968C8610C980068006820F078
:100A7000C0000C9B1968DA691B6A1A4310430860AE
:100A80000C980068806848F2FF3188430C9A11681E
:100A9000D36812691A43104388600C980068C068D4
:100AA00020F0FF000C9B19685A699B691A43104398
:100AB000C8600C980168086840F0010008600C9953
:100AC000002008640C9A202182F83D100C990863DC
:100AD0000C9981F83E008DF83700FFE79DF837004C
:100AE0000EB080BD10B58CB0844610980F98DDF81C
:100AF00038E0CDF828C0ADF82610ADF82420ADF8C8
:100B00002230ADF82000FFF795FE07900A9890F884
:100B10003D00202840F0F481FFE70A9807996A46D3
:100B200011600221C0F210010122192301F022FB01
:100B300020B1FFE702208DF82F00E5E1FFE70A98DA
:100B400090F83C00012804D1FFE702208DF82F0027
:100B5000DAE10A99012081F83C00FFE7FFE70A98F3
:100B600000680068C00738B9FFE70A98016808689C
:100B700040F001000860FFE70A980168086820F467
:100B8000006008600A99222081F83D000A994020FF
:100B900081F83E000A99002008640E980A9948627C
:100BA000BDF820000A9948850A98408D0A99088561
:100BB0000A990020CFF6FF70C8620A98BDF8261087
:100BC000BDF82420BDF82230DDF840C0079CEE4679
:100BD000CEF80440CEF800C001F0F0F820B1FFE7F5
:100BE00001208DF82F008FE10A98008DA0B9FFE752
:100BF000FFE7002006900A980068406906900A986E
:100C00000068806906900698FFE70A9801680868FE
:100C100040F4007008604DE00A98008D01281AD158
:100C2000FFE70A980168086820F480600860FFE721
:100C3000002005900A980068406905900A980068AD
:100C4000806905900598FFE70A980168086840F4F4
:100C5000007008602DE00A98008D02281AD1FFE785
:100C60000A980168086820F4806008600A980168A2
:100C7000086840F400600860FFE7002004900A98CC
:100C80000068406904900A9800688069049004989C
:100C9000FFE70DE0FFE7002003900A980068406935
:100CA00003900A980068806903900398FFE7FFE7C4
:100CB000FFE7FFE7FFE70A98008D002800F00E81AC
:100CC000FFE70A98008D032800F2CC80FFE70A981E
:100CD000008D01281ED1FFE70A981099079A01F0AC
:100CE00031FB20B1FFE701208DF82F000CE10A98BD
:100CF000006800690A99496A08700A99486A0130CF
:100D000048620A99088D013808850A99488D01388A
:100D10004885A6E00A98008D02283CD1FFE70A9892
:100D2000109B07996A4611600421C0F2010100225C
:100D300001F020FA20B1FFE701208DF82F00E3E059
:100D40000A980168086840F4007008600A98006812
:100D500000690A99496A08700A99486A013048622C
:100D60000A99088D013808850A99488D0138488507
:100D70000A98006800690A99496A08700A99486ADD
:100D8000013048620A99088D013808850A99488D12
:100D90000138488564E00A98109B07996A461160FB
:100DA0000421C0F20101002201F0E4F920B1FFE7C3
:100DB00001208DF82F00A7E00A980168086820F448
:100DC000806008600A98006800690A99496A08709A
:100DD0000A99486A013048620A99088D01380885E5
:100DE0000A99488D013848850A98109B07996A46E8
:100DF00011600421C0F20101002201F0BBF920B111
:100E0000FFE701208DF82F007EE00A98016808684E
:100E100040F4007008600A98006800690A99496AFD
:100E200008700A99486A013048620A99088D0138A9
:100E300008850A99488D013848850A980068006934
:100E40000A99496A08700A99486A013048620A9901
:100E5000088D013808850A99488D01384885FFE7D3
:100E6000FFE73AE00A981099079A01F06BFA20B16F
:100E7000FFE701208DF82F0046E00A98006800691E
:100E80000A99496A08700A99486A013048620A99C1
:100E9000088D013808850A99488D013848850A98D7
:100EA0000068406900F004010120B0EB910F13D1FC
:100EB000FFE70A98006800690A99496A08700A9968
:100EC000486A013048620A99088D013808850A99F4
:100ED000488D01384885FFE7FFE7ECE60A992020B6
:100EE00081F83D000A99002081F83E00FFE70A9949
:100EF000002081F83C00FFE700208DF82F0003E080
:100F000002208DF82F00FFE79DF82F000CB010BDD8
:100F100010B588B084460C980B98DDF828E0CDF821
:100F200018C0ADF81610ADF81420ADF81230ADF8B9
:100F30001000FFF77FFC0390069890F83D002028F2
:100F400040F0E680FFE7069803996A4611600221A7
:100F5000C0F210010122192301F00CF920B1FFE7C2
:100F600002208DF81F00D7E0FFE7069890F83C00BC
:100F7000012804D1FFE702208DF81F00CCE006997C
:100F8000012081F83C00FFE7FFE706980068006851
:100F9000C00738B9FFE706980168086840F001000B
:100FA0000860FFE706980168086820F400600860A0
:100FB0000699212081F83D000699402081F83E00E5
:100FC0000699002008640A9806994862BDF8100046
:100FD000069948850698408D06990885069900204F
:100FE000CFF6FF70C8620698BDF81610BDF8142041
:100FF000BDF81230DDF830C0039CEE46CEF8044058
:10100000CEF800C000F0CCFF20B1FFE701208DF842
:101010001F0081E0FFE70698008D002849D0FFE718
:1010200006980C99039A01F0F1F980B1FFE7069850
:10103000006C042807D1FFE706980168086840F4AF
:1010400000700860FFE701208DF81F0064E006983B
:101050000168406A007808610699486A0130486270
:101060000699088D013808850699488D013848850C
:1010700006980068406900F004010120B0EB910F70
:1010800016D1FFE70698008D90B1FFE7069801683A
:10109000406A007808610699486A013048620699FA
:1010A000088D013808850699488D01384885FFE785
:1010B000B1E706980C99039A01F010F880B1FFE7A8
:1010C0000698006C042807D1FFE7069801680868B5
:1010D00040F400700860FFE701208DF81F001BE05E
:1010E00006980168086840F400700860069920209E
:1010F00081F83D000699002081F83E00FFE706993F
:10110000002081F83C00FFE700208DF81F0003E07D
:1011100002208DF81F00FFE79DF81F0008B010BDEA
:1011200080B588B007900020069005900490039049
:1011300002900798006845F20041C4F2000188421D
:1011400035D1FFE7FFE70020019043F63000C4F2FD
:101150000200016841F002010160006800F0020035
:1011600001900198FFE74FF4407002901220039025
:1011700000200490032005900420069040F20040D7
:10118000C4F2020002A9FFF779F9FFE700200090FE
:1011900043F64000C4F20200016841F4001101600E
:1011A000006800F4001000900098FFE7FFE708B027
:1011B00080BD000040F20400C2F20000027840F25C
:1011C000E001C2F2000108681044086070470000A6
:1011D00080B543F60041C4F20201086840F4007093
:1011E0000860086840F480600860086840F4807017
:1011F0000860032000F080F80F2000F005F800F0F0
:101200003BF8002080BD000080B582B0009040F225
:101210000000C2F20000006840F20401C2F20001C6
:101220000A784FF47A71B1FBF2F1B0FBF1F000F003
:1012300089FD20B1FFE701208DF8070018E0009834
:101240000F280DD8FFE700994FF0FF30002200F083
:1012500039F8009840F20801C2F20001086003E08A
:1012600001208DF8070003E000208DF80700FFE75C
:101270009DF8070002B080BD82B0FFE7002001901A
:1012800043F64400C4F20200016841F48041016069
:10129000006800F4804001900198FFE7FFE700201C
:1012A000009043F64000C4F20200016841F0805112
:1012B0000160006800F0805000900098FFE702B0E5
:1012C0007047000080B586B08DF817000491039236
:1012D0000020029001F0E4F902909DF917000190BE
:1012E00002980499039A01F017F90146019801F058
:1012F000DFF906B080BD000080B582B00190019892
:1013000001F0F8F902B080BD80B584B0029001917F
:10131000029820B9FFE701208DF80F0021E1019824
:1013200043F60041C4F20201096801F00701884256
:1013300012D9FFE7019943F60040C4F202000170A0
:10134000006800F007000199884204D0FFE70120FF
:101350008DF80F0005E1FFE702980078800700286C
:101360002AD5FFE7029800784007002809D5FFE753
:1013700043F60801C4F20201086840F4E050086036
:10138000FFE7029800780007002809D5FFE743F639
:101390000801C4F20201086840F460400860FFE7F9
:1013A00043F60801C4F20201086820F0F000029A36
:1013B000926810430860FFE702980078C007002891
:1013C0006ED0FFE702984068012811D1FFE743F68D
:1013D0000000C4F20200006800F400310020B0EB0D
:1013E000514F04D1FFE701208DF80F00B9E02CE048
:1013F00002984068022805D0FFE702984068032859
:1014000011D1FFE743F60000C4F20200006800F0CB
:1014100000710020B0EB516F04D1FFE701208DF87F
:101420000F009EE010E043F60000C4F202000068E6
:1014300000F002010020B0EB510F04D1FFE70120C2
:101440008DF80F008DE0FFE7FFE743F60801C4F2D7
:101450000201086820F00300029A526810430860F5
:10146000FFF7E8F90090FFE743F60800C4F2020036
:10147000006800F00C0002994968B0EB810F0ED0B3
:10148000FFE7FFF7D7F90099401A41F28931884206
:1014900004D3FFE703208DF80F0062E0E4E7FFE7E5
:1014A000019843F60041C4F20201096801F0070106
:1014B000884212D2FFE7019943F60040C4F20200CD
:1014C0000170006800F007000199884204D0FFE72E
:1014D00001208DF80F0044E0FFE7029800784007F4
:1014E00000280CD5FFE743F60801C4F202010868A2
:1014F00020F4E050029AD26810430860FFE7029897
:101500000078000700280DD5FFE743F60801C4F274
:101510000201086820F46040029A126940EAC200A1
:101520000860FFE700F03AF843F60801C4F2020150
:101530000968C9B20A0942F6D631C0F60001895CD1
:10154000C84040F20001C2F20001086040F2080009
:10155000C2F200000068FFF757FE00208DF80F0070
:10156000FFE79DF80F0004B080BD000040F20000CE
:10157000C2F200000068704780B5FFF7F7FF43F63E
:101580000801C4F202010968C1F3822242F6E63181
:10159000C0F60001895CC84080BD000080B586B0FF
:1015A0000020059004900390029043F60800C4F2D6
:1015B0000200006800F00C000146019140B1FFE715
:1015C000019804280AD0FFE7019808280CD04FE0C2
:1015D00042F20040C0F2F40002904FE047F64000B3
:1015E000C0F27D10029049E043F60400C4F202000C
:1015F000016801F03F01059100684002002813D501
:10160000FFE743F60400C4F202000068C0F388104C
:1016100047F64001C0F27D11A0FB0101059A0023AD
:10162000FEF722FE049012E043F60400C4F202002A
:101630000068C0F3881042F20041C0F2F401A0FB40
:101640000101059A0023FEF70FFE0490FFE743F621
:101650000400C4F20200006800F44031022000EBF4
:10166000D130039004980399B0FBF1F0029005E0AB
:1016700042F20040C0F2F4000290FFE7029806B088
:1016800080BD000080B586B00490049820B9FFE7C3
:1016900001208DF8170050E304980078C007002857
:1016A00000F0A580FFE743F60800C4F202000068DE
:1016B00000F00C00042813D0FFE743F60800C4F242
:1016C0000200006800F00C0008281ED1FFE743F676
:1016D0000400C4F2020000684002002815D5FFE7AC
:1016E00043F60000C4F20200006800F4003100205C
:1016F000B0EB514F08D0FFE70498406820B9FFE7EE
:1017000001208DF8170018E370E0FFE704984068A7
:10171000B0F5803F09D1FFE743F60001C4F20201B2
:10172000086840F48030086020E004984068B0F514
:10173000A02F0DD1FFE743F60001C4F202010868B3
:1017400040F480200860086840F4803008600CE0B5
:1017500043F60001C4F20201086820F480300860FA
:10176000086820F480200860FFE7FFE7FFE704989F
:101770004068E8B1FFE7FFF75DF80390FFE743F645
:101780000000C4F20200006800F400310020B0EB59
:10179000514F0CD1FFE7FFF74DF80399401A652828
:1017A00004D3FFE703208DF81700C6E2E7E71CE04B
:1017B000FFF740F80390FFE743F60000C4F2020091
:1017C000006800F400310020B0EB514F0CD0FFE76F
:1017D000FFF730F80399401A652804D3FFE7032088
:1017E0008DF81700A9E2E7E7FFE7FFE7FFE70498B6
:1017F00000788007002840F19680FFE743F6080054
:10180000C4F20200006810F00C0F13D0FFE743F69B
:101810000800C4F20200006800F00C0008282CD177
:10182000FFE743F60400C4F202000068400200280B
:1018300023D4FFE743F60000C4F20200006800F082
:1018400002010020B0EB510F09D0FFE70498C068F7
:10185000012804D0FFE701208DF817006DE243F660
:101860000001C4F20201086820F0F800049A12692D
:1018700040EAC2000860FFE754E00498C06870B313
:10188000FFE70021C4F2472101200860FEF7D2FFE4
:101890000390FFE743F60000C4F20200006800F086
:1018A00002010020B0EB510F0CD1FFE7FEF7C2FFA1
:1018B0000399401A032804D3FFE703208DF817008B
:1018C0003BE2E7E743F60001C4F20201086820F0BA
:1018D000F800049A126940EAC200086021E0002181
:1018E000C4F2472100200860FEF7A4FF0390FFE741
:1018F00043F60000C4F20200006800F0020100207C
:10190000B0EB510F0CD0FFE7FEF794FF0399401A9C
:10191000032804D3FFE703208DF817000DE2E7E763
:10192000FFE7FFE7FFE704980078000700284BD5A2
:10193000FFE70498406918B3FFE740F68061C4F2FE
:10194000472101200860FEF775FF0390FFE743F68B
:101950007400C4F20200006800F002010020B0EB45
:10196000510F0CD1FFE7FEF765FF0399401A0328DA
:1019700004D3FFE703208DF81700DEE1E7E722E05C
:1019800040F68061C4F2472100200860FEF752FF54
:101990000390FFE743F67400C4F20200006800F011
:1019A00002010020B0EB510F0CD0FFE7FEF742FF21
:1019B0000399401A032804D3FFE703208DF817008A
:1019C000BBE1E7E7FFE7FFE704980078400700285E
:1019D00040F1CE80FFE700208DF8070043F640007D
:1019E000C4F202000068C000002815D4FFE7FFE73A
:1019F0000020009043F64000C4F20200016841F06C
:101A000080510160006800F0805000900098FFE76E
:101A100001208DF80700FFE747F20000C4F2000044
:101A20000068C005002822D4FFE747F20001C4F295
:101A30000001086840F480700860FEF7FBFE039028
:101A4000FFE747F20000C4F200000068C00500286C
:101A50000CD4FFE7FEF7EEFE0399401A032804D3E7
:101A6000FFE703208DF8170067E1EAE7FFE7FFE7EC
:101A700004988068012809D1FFE743F67001C4F299
:101A80000201086840F0010008601FE004988068C7
:101A900005280DD1FFE743F67001C4F20201086882
:101AA00040F004000860086840F0010008600CE0A5
:101AB00043F67001C4F20201086820F001000860DA
:101AC000086820F004000860FFE7FFE7FFE70498DC
:101AD0008068F8B1FFE7FEF7ADFE0390FFE743F63D
:101AE0007000C4F20200006800F002010020B0EBB8
:101AF000510F0ED1FFE7FEF79DFE0399401A41F208
:101B00008931884204D3FFE703208DF8170014E1E0
:101B1000E5E71EE0FEF78EFE0390FFE743F6700058
:101B2000C4F20200006800F002010020B0EB510F87
:101B30000ED0FFE7FEF77EFE0399401A41F289318D
:101B4000884204D3FFE703208DF81700F5E0E5E7AE
:101B5000FFE79DF80700012809D1FFE743F64001A0
:101B6000C4F20201086820F080500860FFE7FFE738
:101B700004988069002800F0DC80FFE743F6080045
:101B8000C4F20200006800F00C00082800F0858014
:101B9000FFE70498806902285CD1FFE76021C4F266
:101BA000472100200860FEF745FE0390FFE743F65B
:101BB0000000C4F20200006800F000710020B0EBE9
:101BC000516F0CD0FFE7FEF735FE0399401A03284A
:101BD00004D3FFE703208DF81700AEE0E7E7049990
:101BE000C869D1F820C04B6A8A6A40EA0C0040EA12
:101BF0008310D2034FF6FF739A43A2F5803210434D
:101C0000C96A40EA016043F60401C4F202010860B7
:101C10006021C4F2472101200860FEF70BFE03900B
:101C2000FFE743F60000C4F20200006800F0007114
:101C30000020B0EB516F0CD1FFE7FEF7FBFD0399DD
:101C4000401A032804D3FFE703208DF8170074E03F
:101C5000E7E721E06021C4F2472100200860FEF799
:101C6000E9FD0390FFE743F60000C4F202000068BC
:101C700000F000710020B0EB516F0CD0FFE7FEF7D1
:101C8000D9FD0399401A032804D3FFE703208DF8F8
:101C9000170052E0E7E7FFE74AE00498806901286F
:101CA00004D1FFE701208DF8170046E043F6040059
:101CB000C4F202000068029004988069012831D0C3
:101CC000FFE7029800F480000499C969884229D18D
:101CD000FFE7029800F03F000499096A884221D189
:101CE000FFE7029847F6C07108400499496AB0EBD3
:101CF000811F17D1FFE7029800F440300499896AE8
:101D0000C9034FF6FF729143A1F58031884209D192
:101D1000FFE7029800F070600499C96AB0EB016FA8
:101D200004D0FFE701208DF8170006E0FFE7FFE78A
:101D3000FFE700208DF81700FFE79DF8170006B0B9
:101D400080BD000080B582B00190019800F01EFCBB
:101D500002B080BDFFE7FEE782B000900098006807
:101D6000406900F480610120B0EB912F1ED1FFE7A4
:101D7000009801686FF48060486100990020086352
:101D8000009A202182F83D10009981F83E000099C8
:101D9000086C40F004000864FFE70099002081F817
:101DA0003C00FFE701208DF8070003E000208DF8DC
:101DB0000700FFE79DF8070002B0704780B586B0C6
:101DC000DDF824C0DDF820C00490ADF80E10ADF8A9
:101DD0000C20ADF80A3004980168086840F480606F
:101DE000086004980168086840F4807008600498EE
:101DF000089B09996A4611604FF00111002200F01A
:101E0000B9F980B1FFE7049800680068C0050028B0
:101E100005D5FFE704994FF400700864FFE703203D
:101E20008DF81700B7E0BDF80E0000F0FE00049931
:101E3000096808610498089A099B0221C0F201010F
:101E400000F0F8F920B1FFE701208DF81700A2E0BB
:101E5000FFE7002001900498006840690190049811
:101E60000068806901900198FFE704980899099A31
:101E700000F0CCFA80B1FFE70498006C042807D189
:101E8000FFE704980168086840F400700860FFE705
:101E900001208DF817007EE0BDF80A00012806D168
:101EA000FFE79DF80C0004990968086121E09DF89E
:101EB0000D0004990968086104980899099A00F0CE
:101EC000A5FA80B1FFE70498006C042807D1FFE76A
:101ED00004980168086840F400700860FFE701207A
:101EE0008DF8170057E09DF80C0004990968086107
:101EF000FFE704980899099A00F088FA80B1FFE793
:101F00000498006C042807D1FFE70498016808686A
:101F100040F400700860FFE701208DF817003AE0F8
:101F200004980168086840F4807008600498089B71
:101F300009996A4611604FF00111002200F01AF968
:101F400080B1FFE7049800680068C005002805D547
:101F5000FFE704994FF400700864FFE703208DF851
:101F6000170018E09DF80E0040F001000499096880
:101F700008610498089A099B0221C0F2010100F04F
:101F800059F920B1FFE701208DF8170003E0002088
:101F90008DF81700FFE79DF8170006B080BD000020
:101FA00080B586B0DDF824C0DDF820C00490ADF81F
:101FB0000E10ADF80C20ADF80A30049801680868DE
:101FC00040F4807008600498089B09996A46116083
:101FD0004FF00111002200F0CDF880B1FFE7049826
:101FE00000680068C005002805D5FFE704994FF494
:101FF00000700864FFE703208DF8170069E0BDF862
:102000000E0000F0FE000499096808610498089A1F
:10201000099B0221C0F2010100F00CF920B1FFE799
:1020200001208DF8170054E0FFE70020019004988C
:1020300000684069019004980068806901900198E7
:10204000FFE704980899099A00F0E0F980B1FFE7EA
:102050000498006C042807D1FFE704980168086819
:1020600040F400700860FFE701208DF8170030E0B1
:10207000BDF80A00012806D1FFE79DF80C0004997D
:102080000968086121E09DF80D000499096808615C
:1020900004980899099A00F0B9F980B1FFE704980B
:1020A000006C042807D1FFE704980168086840F431
:1020B00000700860FFE701208DF8170009E09DF827
:1020C0000C00049909680861FFE700208DF81700EB
:1020D000FFE79DF8170006B080BD000080B584B012
:1020E000029001910092FFE702980068406900F0B9
:1020F00004010020B0EB910F33D1FFE70298FFF706
:102100002BFE20B1FFE701208DF80F002DE0019894
:10211000013028B3FFE7FEF78DFB0099401A0199C3
:10212000884203D8FFE70198C8B9FFE70299002069
:102130000863029A202182F83D10029981F83E003E
:102140000299086C40F020000864FFE70299002023
:1021500081F83C00FFE701208DF80F0005E0FFE764
:10216000C2E700208DF80F00FFE79DF80F0004B0D4
:1021700080BD000080B586B0DDF820C004900391DA
:102180008DF80B200193FFE79DF80E0001280CD17C
:10219000FFE7049800684069BDF80C100840401A39
:1021A000B0FA80F0400900900BE004980068806964
:1021B000BDF80C100840401AB0FA80F040090090B9
:1021C000FFE700989DF80B1088422AD1FFE701989D
:1021D000013028B3FFE7FEF72DFB0899401A01995B
:1021E000884203D8FFE70198C8B9FFE704990020A7
:1021F0000863049A202182F83D10049981F83E007A
:102200000499086C40F020000864FFE7049900205E
:1022100081F83C00FFE701208DF8170005E0FFE79B
:10222000B2E700208DF81700FFE79DF8170006B011
:1022300080BD000080B586B00490039102920193A6
:10224000FFE79DF80E0001280CD1FFE70498006815
:102250004069BDF80C100840401AB0FA80F04009FF
:1022600000900BE0049800688069BDF80C100840ED
:10227000401AB0FA80F040090090FFE7009800286B
:1022800058D1FFE704980068406900F4806101209C
:10229000B0EB912F24D1FFE704980168086840F45F
:1022A00000700860049801686FF4806048610499C8
:1022B00000200863049A202182F83D10049981F8D7
:1022C0003E000499086C40F004000864FFE704999C
:1022D000002081F83C00FFE701208DF817002DE079
:1022E0000298013028B3FFE7FEF7A4FA0199401ADB
:1022F0000299884203D8FFE70298C8B9FFE704991A
:1023000000200863049A202182F83D10049981F886
:102310003E000499086C40F020000864FFE704992F
:10232000002081F83C00FFE701208DF8170005E050
:10233000FFE786E700208DF81700FFE79DF81700FC
:1023400006B080BD80B584B0029001910092FFE795
:1023500002980068406900F040010020B0EB911F36
:102360004BD1FFE702980068406900F0100101209E
:10237000B0EB111F1CD1FFE7029801686FF010004D
:102380004861029900200863029A202182F83D10DA
:10239000029981F83E000299086C0864FFE70299EF
:1023A000002081F83C00FFE701208DF80F0028E0B5
:1023B000FEF740FA0099401A0199884203D8FFE7D6
:1023C0000198C8B9FFE7029900200863029A20210A
:1023D00082F83D10029981F83E000299086C40F0A5
:1023E00020000864FFE70299002081F83C00FFE725
:1023F00001208DF80F0004E0AAE700208DF80F00FF
:10240000FFE79DF80F0004B080BD000080B584B0E8
:10241000029001910092FFE7029800684069C1B202
:102420000020B0EBD11F33D1FFE70298FFF794FCF7
:1024300020B1FFE701208DF80F002DE00198013059
:1024400028B3FFE7FEF7F6F90099401A0199884290
:1024500003D8FFE70198C8B9FFE702990020086395
:10246000029A202182F83D10029981F83E000299DB
:10247000086C40F020000864FFE70299002081F812
:102480003C00FFE701208DF80F0005E0FFE7C3E700
:1024900000208DF80F00FFE79DF80F0004B080BD0D
:1024A00081B0FFE70020009043F63000C4F2020044
:1024B000016841F002010160006800F00200009034
:1024C0000098FFE701B0704780B582B040F27C0011
:1024D000C2F20000019045F20041C4F20001016027
:1024E00048F2A061C0F20101416000218160C16039
:1024F0004FF48042026141618161C1610162FEF776
:102500009FF918B1FFE7FDF78FFFFFE702B080BD2D
:10251000FFE7FEE7FFE7FEE788B007900691059228
:10252000079800F0070004900498C0F10700052800
:1025300003D3FFE70420019004E00498C0F10700F2
:102540000190FFE70198039004980430062803D80F
:10255000FFE70020009003E0049803380090FFE7B5
:102560000098029006980399012202FA01F10139BC
:102570000840029B984005999A40013A114008434F
:1025800008B07047704700007047000080B582B007
:10259000009000980138B0F1807F03D3FFE701205D
:1025A000019019E0009801384EF21401CEF20001BA
:1025B00008604FF0FF300F2100F07AF84EF218015A
:1025C000CEF20001002008604EF21002CEF20002AE
:1025D000072111600190FFE7019802B080BD000063
:1025E00080B5FEF7E7FD80BD80B594B008A8302126
:1025F000FDF7B2FE0020079006900590049003902E
:10260000FFE70020029043F64000C4F20200016898
:1026100041F080510160006800F080500290029803
:10262000FFE7FFE70020019047F20000C4F200003E
:10263000016841F480410160006800F4804001902D
:102640000198FFE70220089001200B9010200C90C9
:1026500000200E9008A8FFF715F818B1FFE7FDF766
:10266000E3FEFFE70F2003900021049105910691FE
:10267000079103A8FEF748FE18B1FFE7FDF7D4FE67
:10268000FFE714B080BD00004EF68851CEF2000185
:10269000086840F47000086070470000FFE7FEE73C
:1026A0004EF60C50CEF200000068C0F302207047D6
:1026B00082B08DF8070000919DF9070000280AD428
:1026C000FFE7009800019DF907104EF20042CEF29C
:1026D000000288540BE0009800019DF8071001F0FB
:1026E0000F014EF61452CEF200028854FFE702B0FA
:1026F0007047000083B00290029800F0070000903D
:102700004EF60C51CEF200010868019001984FF688
:10271000FF02104001900198009A40EA0220002236
:10272000C0F2FA52104301900198086003B070475C
:1027300080B586B0059049F27430C3F6D870039026
:1027400047F6FA60CBF66A400290059800F021F94E
:1027500041EC100B9DED021B53EC112B51EC100BB7
:1027600000F02EF941EC100B8DED000B0098019953
:1027700000F0E0F806B080BD80B584B00020039082
:10278000FEF726FDFFF730FFFFF78AFEFFF79CFEFE
:10279000FFE700F04BF818B9FFE7002004B080BD58
:1027A000002002904FF47A7100F098F8029840F2FD
:1027B0007401C2F2000100F067F8FFE79620FDF710
:1027C0003BFE40F2D201C2F200010191052000F06F
:1027D0005BF840F2D001C2F20001087040F27801CB
:1027E000C2F20001062000F04FF840F27601C2F27A
:1027F0000001087040F27201C2F20001072000F0EF
:1028000043F80146019840F27002C2F200021170D2
:102810000088FFF78DFF00F0BCF841EC100B40F290
:10282000D800C2F2000080ED000BC7E780B582B08F
:1028300040F27C00C2F20000FEF702F88DF80600BC
:102840009DF8060020B1FFE700208DF8070016E094
:102850000C20694600F018F88DF80500BDF800005E
:102860008DF803009DF80300282804D0FFE700201E
:102870008DF8070003E001208DF80700FFE79DF8C1
:10288000070002B080BD000080B586B08DF816004C
:1028900004919DF816200498694664238B600223F6
:1028A0004B60086040F27C00C2F20000202101234E
:1028B000FEF718F98DF80F009DF80F0028B1FFE71B
:1028C0009DF80F008DF8170004E09DF80F008DF8BB
:1028D0001700FFE79DF8170006B080BD80B586B0F1
:1028E0008DF81600ADF814109DF816206946642086
:1028F00088600220486005A8086040F27C00C2F2AF
:10290000000020210123FEF703FB8DF813009DF842
:10291000130028B1FFE79DF813008DF8170004E0BD
:102920009DF813008DF81700FFE79DF8170006B01B
:1029300080BD00004FEA41034FEA5353A3F5806383
:10294000D3F11E03C8BFD3F1210C0CDD4FF00042C0
:1029500042EAC12242EA505232FA03FC8CEAE17C9C
:10296000ACEBE1707047102BC4BF0020704703F53B
:10297000787CBCF1FF3F04D06FF0004282EA210076
:10298000704770B500F0C6F8499224800020704767
:10299000F2E710F0004248BF4042B0FA80F310FA6C
:1029A00003F10AD0C3F11D0303F5806302EB035268
:1029B0004FEA415002EBD12170474FF000007047C1
:1029C00070B5DFF848C11CEA111E1EBF1CEA1315C2
:1029D0009EEA0C0F95EA0C0F00F06F8081EA030469
:1029E0004EEAD47EAE4421EA4C1123EA4C1341F462
:1029F000801143F48013AEF17F7EA1FB024CA0FB5B
:102A00000365361955EB0C05A1FB034C4CF1000393
:102A1000A0FB021C16EB0C06654153F100030942B2
:102A200018BF46F0010613F4007F0BD14FEA0331C3
:102A30004FEA053041EA155140EA165034036FF071
:102A400003020AE04FEAC3214FEAC52041EA55518B
:102A500040EA5650F4026FF0020202EB2E4201EB04
:102A6000025585EACE710AD05FEA440C18BF24F003
:102A7000004450F1000041F1000120EAD47040F21E
:102A8000FE7C624500D270BDA84214BF4FF0804466
:102A90004FF04044002E08BF0024BEF1806FA8BF55
:102AA000A1F1C041BDE8704080F2828001F1C041D7
:102AB00001F000414FF0000070470CEA13159EEA48
:102AC0000C0F18BF95EA0C0F06D081EA030E4FF0E9
:102AD00000000EF0004170BD00F01CF88900013EBE
:102AE00000F007B800F009B84FEA430C5FEA5C5CFD
:102AF00008D081EA030100F05BB84FEA410C5FEABD
:102B00005C5CF6D102494FF0000070470000FF07FF
:102B10000000F87F0EF1020E2EF0030E5EF8046B3B
:102B2000364205D4012A43EB030515F5001F12D8E0
:102B3000012841EB010C1CF5001F0CD80ED14FEA07
:102B4000D17C0CEB4C0C0CF1020C15F5001F08BFEE
:102B50004CEBD37C04E04FF0080C01E04FEAD37C4F
:102B60000CEB4C0526FA05F606F00706B6F1040C48
:102B700006D20EEB860CBDE870404CF0010C6047AD
:102B8000DFE80CF0090B02024FF00041A1F5002133
:102B90004FF0000070BD19461046012851EB0104AA
:102BA00018BFD4F5001484BF002001F0004170BDAF
:102BB0000808A0F500114FEA31017047F1EE100A44
:102BC0004FF6FF71C0F2C03120EA010040F04070C2
:102BD000E1EE100A70470000000000000000010252
:102BE00003040607080900000000010203040000B6
:102BF000102C00080000002010000000C401000894
:102C0000202C000810000020D8060000E001000879
:102C10000024F4000100000010000000000000008B
:040000050800018965
:00000001FF
