:020000040800F2
:100000000050002005180008CD110008D511000887
:10001000DD110008E5110008ED11000800000000E6
:10002000000000000000000000000000F5110008C2
:1000300001120008000000000D120008191200084B
:100040004D1800084D1800084D1800084D180008FC
:100050004D1800084D1800084D1800084D180008EC
:100060004D1800084D1800084D1800084D180008DC
:100070004D1800084D1800084D1800084D180008CC
:10008000251200084D1800084D1800084D180008EA
:100090004D1800084D1800084D1800084D180008AC
:1000A0004D1800084D1800084D1800084D1800089C
:1000B0004D1800084D1800084D1800084D1800088C
:1000C0004D1800084D1800084D1800084D1800087C
:1000D0004D1800084D1800084D1800084D1800086C
:1000E0004D1800084D1800084D18000800000000C9
:1000F0000000000000000000000000000000000000
:0C01000000000000000000005FF808F1A3
:10010C0010B5054C237833B9044B13B10448AFF345
:10011C0000800123237010BD94000020000000001B
:10012C00745D000808B5034B1BB103490348AFF3DA
:10013C00008008BD0000000098000020745D0008DD
:10014C00034613F8012B002AFBD1181A013870470B
:10015C00F0B58BB006AF78603960402200212148A1
:10016C0004F0DAFC4FF47A7340221E49786804F0EC
:10017C0072FA0346002B30D156211A4804F0D4FCF5
:10018C00F860FB68002B28D03E683B6803F1020C3A
:10019C003B6804333A6806323968083138680A30EB
:1001AC003C680C343D680E3505950494039002911F
:1001BC0001920093634632460B49F86804F080FCC8
:1001CC000346082B09D1FB68064A9B1ADBB21A4678
:1001DC00064B1A60064B01221A7000BF1437BD463D
:1001EC00F0BD00BFB00000208C5D0008F4000020C2
:1001FC00F000002080B483B000AF00237B6007E0E8
:10020C00084A7B68002122F813107B6801337B605D
:10021C007B68B3F5107FF3DB00BF00BF0C37BD4626
:10022C0080BC7047F800002080B489B000AFF86043
:10023C00B9607A603B600723FB6118E07A68FB6960
:10024C0042FA03F303F00103002B01D0022100E07A
:10025C000121FA6813465B001344DB00DA1DFB69CD
:10026C00D31A274A22F81310FB69013BFB61FB6987
:10027C00002BE3DA0723BB6119E0BA68BB6942FAC9
:10028C0003F303F00103002B01D0022100E0012154
:10029C00FA6813465B001344DB0003F10F02BB69E1
:1002AC00D31A174A22F81310BB69013BBB61BB6917
:1002BC00002BE2DA07237B6119E03A687B6942FA8A
:1002CC0003F303F00103002B01D0022100E0012114
:1002DC00FA6813465B001344DB0003F117027B69D9
:1002EC00D31A074A22F813107B69013B7B617B69A7
:1002FC00002BE2DA00BF00BF2437BD4680BC70473C
:10030C00F800002080B586B000AFF860B9607A6064
:10031C0000237B6108E07B68BA68F9687869FFF7AD
:10032C0083FF7B6901337B617B69172BF3DD00BF96
:10033C0000BF1837BD4680BD80B582B000AF786075
:10034C0039604FF41073044A3968786803F022FA64
:10035C0000BF0837BD4680BDF800002080B582B0D4
:10036C0000AF78600021786803F0B6FB7B681B68EF
:10037C0000225A6300BF0837BD4680BD80B586B0E9
:10038C0004AF01F05FFA00F083F800F0BFF900F061
:10039C009FF900F0F1F800F0C1F800F045F900F019
:1003AC006DF900F0E7F9FFF725FF2B4A2B492C4894
:1003BC0000F078FF2B492C48FFF7CAFE2B4B1B781B
:1003CC0018462B4B1B7819462A4B1B781A46FFF7FD
:1003DC0099FF00212848FFF7AFFF244B1B781946E3
:1003EC00234B1B781A46234B1B78019300920B4628
:1003FC00224A23491B4800F0E3F901F07BFA7860AC
:10040C00204B1B687A68D31A43F69822934206D382
:10041C001449134800F0F2FF1A4A7B68136001F08C
:10042C0069FA0246184B1B68D31A44F620629342B1
:10043C00C0D3124B0293124B01930E4B00930C4BF7
:10044C000A4A1249064801F0D7F801F053FA03465C
:10045C000D4A1360AEE700BFBC5D0008C85D000824
:10046C0058060020E8060020A006002010000020FE
:10047C00F8060020F9060020CC05002024000020FE
:10048C0014000020FC06002000070020340000208F
:10049C0080B590B000AF07F1180328220021184650
:1004AC0004F03AFB3B1D00221A605A609A60DA6035
:1004BC001A610123BB614FF48033FB6100233B6263
:1004CC000123BB6202237B634FF48033BB634FF485
:1004DC00E013FB6307F11803184602F0FBFC03461C
:1004EC00002B01D000F040F90F237B600223BB608E
:1004FC000023FB604FF480633B6100237B613B1D59
:10050C000221184602F068FF0346002B01D000F0D0
:10051C002BF900BF4037BD4680BD000080B500AF51
:10052C00124B134A1A60114B124A5A600F4B00229D
:10053C009A600E4B0022DA600C4B4FF480421A6129
:10054C000A4B00225A61094B00229A61074B002288
:10055C00DA61064B00221A62044801F0F1FE0346F0
:10056C00002B01D000F000F900BF80BD7805002001
:10057C0000540040801A060080B58AB000AF07F125
:10058C00200300221A605A603B1D00221A605A6038
:10059C009A60DA601A615A619A61214B214A1A6099
:1005AC001F4B1D225A601E4B00229A601C4B0222CC
:1005BC00DA601B4B00221A61194B00229A61184811
:1005CC0003F098F80346002B01D000F0CDF800237F
:1005DC003B6200237B6207F120031946104803F0AD
:1005EC0001FF0346002B01D000F0BEF860237B60B6
:1005FC000023BB600023FB6000237B613B1D0022BA
:10060C001946074803F02EFB0346002B01D000F0DF
:10061C00ABF8034800F01EFD00BF2837BD4680BD77
:10062C00CC0500200004004080B500AF114B124AED
:10063C001A60104B4FF4E1325A600E4B00229A6054
:10064C000C4B0022DA600B4B00221A61094B0C2276
:10065C005A61084B00229A61064B0022DA61054868
:10066C0003F01EFF0346002B01D000F07DF800BF05
:10067C0080BD00BF580600200038014080B500AF97
:10068C00114B124A1A60104B4FF4E1325A600E4B68
:10069C0000229A600C4B0022DA600B4B00221A618C
:1006AC00094B0C225A61084B00229A61064B00221E
:1006BC00DA61054803F0F4FE0346002B01D000F08C
:1006CC0053F800BF80BD00BFA006002000440040CE
:1006DC0080B582B000AF0C4B5B690B4A43F0010351
:1006EC005361094B5B6903F001037B607B6800225B
:1006FC000021102001F003FA102001F01CFA00BFB9
:10070C000837BD4680BD00BF0010024080B485B0E4
:10071C0000AF144B9B69134A43F020039361114BB8
:10072C009B6903F02003FB60FB680E4B9B690D4A31
:10073C0043F0040393610B4B9B6903F00403BB6010
:10074C00BB68084B9B69074A43F008039361054B50
:10075C009B6903F008037B607B6800BF1437BD46C0
:10076C0080BC70470010024080B400AF72B600BF6E
:10077C0000BFFDE780B500AF00F0EAF800210020D3
:10078C0000F04EFA01220B490B4800F0DDFA1E2155
:10079C00002000F045FA01220649084800F0D4FA7E
:1007AC0000F09AF94FF47A7001F0AEF800F0C6F848
:1007BC0000BF80BD08000020D05D0008D85D000897
:1007CC0080B590B002AFF860B9607A603B6001F020
:1007DC0091F878634D4B1B687A6BD31A4FF4FA621D
:1007EC009342C0F08F80494A7B6B1360484B1B6867
:1007FC000133474A136000F0CCFA454B1B68013BB0
:10080C00032B7AD801A252F823F000BF2908000864
:10081C006108000887080008C108000800210020B2
:10082C0000F0FEF901223B493B4800F08DFA07F13C
:10083C001400BB68394A202104F0EEF81421002082
:10084C0000F0EEF907F1140301223249184600F0CA
:10085C007BFA55E00021002000F0E2F901222D493D
:10086C002F4800F071FA1421002000F0D9F9012270
:10087C0028492C4800F068FA42E00021002000F0E2
:10088C00CFF901222849294800F05EFAFB689B89C0
:10089C0007F11400264A202104F0BEF8192100208B
:1008AC0000F0BEF907F1140301221A49184600F0B2
:1008BC004BFA25E00021002000F0B2F90122154985
:1008CC001C4800F041FA07F114003B6C01937B6C5F
:1008DC0000933B68184A202104F09EF8192100204F
:1008EC0000F09EF907F1140301220A49184600F0A2
:1008FC002BFA074B00221A6002E0054B00221A600B
:10090C0000F0EAF800BF3837BD4680BD0407002070
:10091C000807002008000020E45D0008F05D0008D6
:10092C00F45D0008FC5D000800000020085E000873
:10093C00185E0008285E0008345E000880B500AF21
:10094C002E220021782000F0A7FA00BF80BD000005
:10095C0080B582B000AF00F025FA44F62063012286
:10096C0078215B4801F02EFF0346002B01D00023B9
:10097C00A9E040F6C4137B6002E07B68013B7B601E
:10098C007B68002BF9D1AE220021782000F084FA8C
:10099C0020220021782000F07FFA102200217820FC
:1009AC0000F07AFAB0220021782000F075FAC82203
:1009BC000021782000F070FA00220021782000F04D
:1009CC006BFA10220021782000F066FA40220021F8
:1009DC00782000F061FA81220021782000F05CFA86
:1009EC00FF220021782000F057FAA1220021782064
:1009FC0000F052FAA6220021782000F04DFAA8222D
:100A0C000021782000F048FA3F220021782000F0E5
:100A1C0043FAA4220021782000F03EFAD3220021D0
:100A2C00782000F039FA00220021782000F034FA06
:100A3C00D5220021782000F02FFAF0220021782016
:100A4C0000F02AFAD9220021782000F025FA22227F
:100A5C000021782000F020FADA220021782000F022
:100A6C001BFA12220021782000F016FADB2200215A
:100A7C00782000F011FA20220021782000F00CFAE6
:100A8C008D220021782000F007FA14220021782012
:100A9C0000F002FAAF220021782000F0FDF92E229E
:100AAC000021782000F0F8F9002000F043F800F065
:100ABC0013F8084B00221A80064B00225A80054B73
:100ACC0001225A71012318460837BD4680BD00BF6C
:100ADC00780500200C0B002080B582B000AF0023FD
:100AEC00FB711DE0FB79503BDBB21A4600217820EC
:100AFC0000F0D2F900220021782000F0CDF910226C
:100B0C000021782000F0C8F9FB79DB01084A1A446F
:100B1C0080234021782000F059F9FB790133FB71D7
:100B2C00FB79072BDED900BF00BF0837BD4680BD5F
:100B3C000C07002080B582B000AF0346FB71FB7937
:100B4C00002B01D1002300E0FF234FF480621946F3
:100B5C00034803F0E1FF00BF0837BD4680BD00BF6E
:100B6C000C07002080B483B000AF0346FB800B461B
:100B7C00BB801346FB70FB887F2B48D8BB883F2B70
:100B8C0045D8254B1B79002B06D0FB78002B0CBFCE
:100B9C0001230023DBB2FB70FB78012B1AD1FA88FE
:100BAC00BB88DB0898B20346DB0113441B4AD35CB9
:100BBC005AB2BB8803F00703012101FA03F35BB2BD
:100BCC00134359B2FA880346DB011344C9B2134AE2
:100BDC00D1541DE0FA88BB88DB0898B20346DB01D0
:100BEC0013440E4AD35C5AB2BB8803F007030121AD
:100BFC0001FA03F35BB2DB435BB2134059B2FA88E0
:100C0C000346DB011344C9B2044AD15400E000BFCF
:100C1C000C37BD4680BC70470C0B00200C07002025
:100C2C0080B483B000AF03460A46FB801346BB80FA
:100C3C00054AFB881380044ABB88538000BF0C37DD
:100C4C00BD4680BC704700BF0C0B002080B586B041
:100C5C0000AF03463960FB711346BB71394B1B88DF
:100C6C001A463B681B7813447F2B07DC354B5B889B
:100C7C001A463B685B7813443F2B01DD00235DE093
:100C8C0000237B614BE03B685A68FB79203B396859
:100C9C00497801FB03F319467B690B445B00134451
:100CAC001B88FB6000233B6130E0FA683B6902FA69
:100CBC0003F303F40043002B10D0224B1A883B693A
:100CCC009BB2134498B21F4B5A887B699BB2134456
:100CDC009BB2BA791946FFF745FF14E0194B1A88F5
:100CEC003B699BB2134498B2164B5A887B699BB2F2
:100CFC00134499B2BB79002B0CBF01230023DBB248
:100D0C001A46FFF72FFF3B6901333B613B681B78A9
:100D1C001A463B699342C8D37B6901337B613B68BC
:100D2C005B781A467B699342ADD3064B1B883A68B5
:100D3C00127813449AB2034B1A80FB791846183771
:100D4C00BD4680BD0C0B002080B584B000AFF860B0
:100D5C00B9601346FB7112E0FB681B78FA79B9682D
:100D6C001846FFF773FF03461A46FB681B789A4236
:100D7C0002D0FB681B7808E0FB680133FB60FB6862
:100D8C001B78002BE8D1FB681B7818461037BD4642
:100D9C0080BD80B500AF0020FFF7CCFEFFF79CFEB6
:100DAC0000BF80BD80B483B000AF074B7B6002E016
:100DBC007B68013B7B607B68002BF9D100BF00BFD7
:100DCC000C37BD4680BC704790D0030090B5C7B0BF
:100DDC0002AF0446084607F58871A1F588710A60D0
:100DEC00194607F58873A3F2091322461A7007F502
:100DFC008873A3F5857302461A7007F58873A3F5FB
:100E0C0086730A461A8007F58873A3F5827307F573
:100E1C008872A2F5857212781A70002387F80F3148
:100E2C0015E097F80F3107F58872A2F588721268F1
:100E3C001A4497F80F310133117807F58872A2F52F
:100E4C008272D15497F80F31013387F80F3197F82C
:100E5C000F319BB207F58872A2F5867212889A42FE
:100E6C00DFD807F58873A3F209131B7899B207F53D
:100E7C008873A3F586731B8801339BB207F10C02B0
:100E8C000A200090034801F09FFB00BF07F58A770A
:100E9C00BD4690BD7805002080B586B002AF0346F4
:100EAC00FB710B46BB7113467B71BB793B737B7932
:100EBC007B73FB7999B207F10C020A23009302238E
:100ECC00034801F081FB00BF1037BD4680BD00BF59
:100EDC007805002080B485B000AF154B9B69144A8F
:100EEC0043F001039361124B9B6903F00103BB6058
:100EFC00BB680F4BDB690E4A43F08053D3610C4B3C
:100F0C00DB6903F080537B607B680A4B5B68FB609A
:100F1C00FB6823F0E063FB60FB6843F08063FB60DD
:100F2C00044AFB68536000BF1437BD4680BC704751
:100F3C00001002400000014080B588B000AF78601E
:100F4C0007F1100300221A605A609A60DA607B681D
:100F5C001B68154A934223D1144B9B69134A43F0E7
:100F6C0008039361114B9B6903F00803FB60FB685A
:100F7C00C0233B6112237B610323FB6107F1100348
:100F8C0019460B4801F058F8084BDB69074A43F443
:100F9C000013D361054BDB6903F40013BB60BB6822
:100FAC0000BF2037BD4680BD0054004000100240F9
:100FBC00000C014080B584B000AF78607B681B6882
:100FCC00204A934239D1204BDB691F4A43F002037C
:100FDC00D3611D4BDB6903F00203FB60FB681B4B09
:100FEC001B4A1A60194B10225A60184B00229A6047
:100FFC00164B8022DA60154B4FF480721A61134B3A
:10100C004FF480625A61114B00229A610F4B0022FF
:10101C00DA610E4800F0AAFD0346002B01D0FFF761
:10102C00A3FB7B68094A5A62084A7B6853627B6857
:10103C00064A9A63054A7B68536200BF1037BD4667
:10104C0080BD00BF000400400010024014060020C8
:10105C006C00024080B588B000AF786007F11003D7
:10106C0000221A605A609A60DA607B681B680F4A2B
:10107C00934217D10E4B9B690D4A43F004039361C5
:10108C000B4B9B6903F00403FB60FB6840233B6143
:10109C0002237B610223FB6107F11003194605480B
:1010AC0000F0CAFF00BF2037BD4680BD00040040E1
:1010BC00001002400008014080B58AB000AF786093
:1010CC0007F1180300221A605A609A60DA607B6894
:1010DC001B68374A934232D1364B9B69354A43F4ED
:1010EC0080439361334B9B6903F480437B617B6941
:1010FC00304B9B692F4A43F0040393612D4B9B6942
:10110C0003F004033B613B694FF40073BB610223A2
:10111C00FB6103237B6207F118031946264800F094
:10112C008BFF4FF48063BB610023FB6100233B62A8
:10113C0007F118031946204800F07EFF34E07B6865
:10114C001B681E4A93422FD11A4BDB69194A43F490
:10115C000033D361174BDB6903F40033FB60FB688E
:10116C00144B9B69134A43F004039361114B9B6925
:10117C0003F00403BB60BB680423BB610223FB6167
:10118C0003237B6207F1180319460B4800F054FF48
:10119C000823BB610023FB6100233B6207F11803AA
:1011AC001946054800F048FF00BF2837BD4680BDF2
:1011BC00003801400010024000080140004400408B
:1011CC0080B400AF00BFFDE780B400AF00BFFDE707
:1011DC0080B400AF00BFFDE780B400AF00BFFDE7F7
:1011EC0080B400AF00BFFDE780B400AF00BFBD46C8
:1011FC0080BC704780B400AF00BFBD4680BC704758
:10120C0080B400AF00BFBD4680BC704780B500AF56
:10121C0000F05EFB00BF80BD80B500AF024800F05F
:10122C00D7FD00BF80BD00BF1406002080B586B07E
:10123C0000AF7860144A154BD31A7B617B693B6114
:10124C00134B1B68002B02D1114B124A1A60104B26
:10125C001A687B6813443A699A4207D203F088FCF7
:10126C0003460C221A604FF0FF3309E0084B1B6851
:10127C00FB60074B1A687B681344054A1360FB68D4
:10128C0018461837BD4680BD0050002000040000F1
:10129C00140B00206810002080B400AF00BFBD46C6
:1012AC0080BC704780B586B000AFF860B9607A60DA
:1012BC000023FB754FF47A7308224949F86803F050
:1012CC003FF94FF47A7000F01FFB21E04FF47A7372
:1012DC0011224449F86803F033F94FF400720021ED
:1012EC00414803F019FC4FF47A734FF400723E49F5
:1012FC00F86803F0B0F93D493B4803F022FC034683
:10130C00002B01D00123FB754FF4FA7000F0FCFAAE
:10131C00FB7D002BDAD00023FB7529E034493548DE
:10132C0003F0AEFB4FF4007200212F4803F0F4FBE6
:10133C003048FEF705FF03469AB24FF47A732D49F5
:10134C00F86803F0FDF844F620634FF40072264968
:10135C00F86803F080F92549234803F0F2FB0346B3
:10136C00002B01D00123FB754FF4FA7000F0CCFA7E
:10137C00FB7D002BD2D00023FB7529E01E491D48B4
:10138C0003F07EFB4FF400720021174803F0C4FBFE
:10139C001848FEF7D5FE03469AB24FF47A731549F6
:1013AC00F86803F0CDF84FF47A734FF400720E49DD
:1013BC00F86803F050F90D490B4803F0C2FB0346E3
:1013CC00002B01D00123FB754FF4FA7000F09CFA4E
:1013DC00FB7D002BD2D000BF00BF1837BD4680BDAF
:1013EC004C5E0008DC5E0008180B0020485E00080C
:1013FC00F05E0008180D0020145F0008F0B5EFB087
:10140C0008AF07F5CC73A3F5C673186007F5CC735A
:10141C00A3F5C8731960624B07F5C0741D460FCD58
:10142C000FC42B68237007F114035E49184603F0B0
:10143C0027FB07F114031846FEF782FE03469AB207
:10144C0007F1140107F5CC73A3F5C6704FF47A734A
:10145C00006803F075F84FF4FA7000F055FA07F5D0
:10146C00CC73A3F5C8731B681B88194607F5CC739E
:10147C00A3F5C8731B689B891C4607F5CC73A3F5B1
:10148C00C8731B685B881D4607F5CC73A3F5C8733E
:10149C001B68DB881E4607F5CC73A3F5C8731B6865
:1014AC001B897B6007F5CC73A3F5C8731B689B7B0A
:1014BC00412B0CBF01230023DBB21A4607F5C07386
:1014CC0007F154000692192205927A680492039649
:1014DC00029501940091344A4FF4967103F09CFAF2
:1014EC00C7F8940107F11403D7F894212F49184633
:1014FC0003F0C6FA4FF4007200212D4803F00CFBE8
:10150C0007F114031846FEF71BFE03469AB207F1C7
:10151C00140107F5CC73A3F5C6704FF47A73006809
:10152C0003F00EF807F5CC73A3F5C6704FF4FA73FD
:10153C004FF400721E49006803F08DF83E211C48E0
:10154C0003F0F2FA0346002B19D0D7F894319AB273
:10155C0007F1540107F5CC73A3F5C6704FF47A73F9
:10156C00006802F0EDFF07F5CC73A3F5C6704FF4DD
:10157C007A734FF400720E49006803F06CF807F5AB
:10158C00CC73A3F5C6704FF4FA730D2209490068A9
:10159C0002F0D6FF00BF07F5CE77BD46F0BD00BF09
:1015AC003063000894620008C062000854620008AE
:1015BC00180B00202063000880B485B000AF786061
:1015CC007B681B681B6803F00803082B0FD10023F2
:1015DC00FB607B681B681B68FB607B681B685B6837
:1015EC00FB60FB687B681B686FF008021A6000BF29
:1015FC001437BD4680BC704790B5ADF26C5D06AF3C
:10160C0007F5AA64A4F24454206007F5AA60A0F57B
:10161C00A960016007F5AA61A1F24C510A6007F5B7
:10162C00AA62A2F5AA62136007F5AA63A3F5816307
:10163C0000221A6004334FF47F720021184603F025
:10164C006BFA07F5AA63A3F244531868FFF7B4FFCB
:10165C0007F5AA63A3F244504FF47A732C22604925
:10166C00006802F06DFF4FF4487000F04DF907F17F
:10167C0048035C4A4FF48071184603F0CDF907F12A
:10168C0048031846FEF75CFD034607F12800564A4E
:10169C00202103F0C1F907F128031846FEF750FD8D
:1016AC0003469AB207F1280107F5AA63A3F2445046
:1016BC004FF4FA73006802F043FFC82000F024F9DD
:1016CC0007F148031846FEF73BFD03469AB207F1B3
:1016DC00480107F5AA63A3F244504FF47A730068EB
:1016EC0002F02EFF07F5A47107F5AA63A3F244508C
:1016FC0041F2883340F2FF32006802F0ACFF07F58C
:10170C00A4733A49184603F01CFAC7F84C05D7F8ED
:10171C004C35002B4FD0D7F84C350433C7F84C352B
:10172C0007F1200107F12402D7F868350493D7F8A4
:10173C006435039307F11403029307F11803019323
:10174C0007F11C0300930B462949D7F84C0503F00D
:10175C00B7F9C7F84805D7F84835072B2BD107F54B
:10176C00AA63A3F5A6631A6807F5AA63A3F5A96390
:10177C001B681A6007F5AA63A3F234531B68DAB22C
:10178C0007F5AA63A3F24C531B681A7007F5AA63FA
:10179C00A3F5A7631B68DAB207F5AA63A3F5AA63DE
:1017AC001B681A7007F5AA63A3F23C531B68DAB2E4
:1017BC00D7F860351A7007F5AA63A3F244504FF4BA
:1017CC00FA730D220B49006802F0BAFE4FF49670C2
:1017DC0000F09AF800BF07F25457BD4690BD00BF09
:1017EC00946200084463000854620008C463000853
:1017FC00CC63000820630008FFF74EFD0B480C4932
:10180C000C4A002302E0D458C4500433C4188C4250
:10181C00F9D3094A094C002301E013600432A242B7
:10182C00FBD303F0ABF9FEF7A9FD704700000020D5
:10183C0094000020487A00089400002064100020D6
:10184C00FEE7000080B500AF084B1B68074A43F069
:10185C0010031360032000F047F90F2000F008F884
:10186C00FFF738FB0023184680BD00BF0020024064
:10187C0080B582B000AF7860124B1A68124B1B789F
:10188C0019464FF47A73B3FBF1F3B2FBF3F318463A
:10189C0000F05FF90346002B01D001230EE07B68BA
:1018AC000F2B0AD8002279684FF0FF3000F027F98F
:1018BC00064A7B681360002300E0012318460837B2
:1018CC00BD4680BD38000020400000203C000020B8
:1018DC0080B400AF054B1B781A46054B1B681344AC
:1018EC00034A136000BFBD4680BC70474000002017
:1018FC00180F002080B400AF024B1B681846BD4681
:10190C0080BC7047180F002080B584B000AF7860A1
:10191C00FFF7F0FFB8607B68FB60FB68B3F1FF3F3B
:10192C0005D00A4B1B781A46FB681344FB6000BFBA
:10193C00FFF7E0FF0246BB68D31AFA689A42F7D861
:10194C0000BF00BF1037BD4680BD00BF4000002067
:10195C0080B485B000AF78607B6803F00703FB6050
:10196C000C4BDB68BB60BA684FF6FF031340BB60DF
:10197C00FB681A02BB68134343F0BF6343F40033A4
:10198C00BB60044ABB68D36000BF1437BD4680BC43
:10199C00704700BF00ED00E080B400AF044BDB6883
:1019AC001B0A03F007031846BD4680BC704700BFF6
:1019BC0000ED00E080B483B000AF0346FB7197F9F3
:1019CC000730002B0BDBFB7903F01F02064997F95C
:1019DC0007305B09012000FA02F241F8232000BF16
:1019EC000C37BD4680BC704700E100E080B483B08A
:1019FC0000AF03463960FB7197F90730002B0ADB07
:101A0C003B68DAB20C4997F907301201D2B20B4499
:101A1C0083F800230AE03B68DAB20849FB7903F04B
:101A2C000F03043B1201D2B20B441A7600BF0C37E1
:101A3C00BD4680BC704700BF00E100E000ED00E057
:101A4C0080B489B000AFF860B9607A60FB6803F0CD
:101A5C000703FB61FB69C3F10703042B28BF0423B5
:101A6C00BB61FB690433062B02D9FB69033B00E025
:101A7C0000237B614FF0FF32BB6902FA03F3DA43B8
:101A8C00BB681A407B699A404FF0FF317B6901FAC1
:101A9C0003F3D9437B680B40134318462437BD46E8
:101AAC0080BC704780B582B000AF78607B68013B2A
:101ABC00B3F1807F01D301230FE00A4A7B68013B1D
:101ACC0053600F214FF0FF30FFF790FF054B0022C2
:101ADC009A60044B07221A60002318460837BD464B
:101AEC0080BD00BF10E000E080B582B000AF786030
:101AFC007868FFF72DFF00BF0837BD4680BD80B565
:101B0C0086B000AF0346B9607A60FB7300237B613B
:101B1C00FFF742FF78617A68B9687869FFF790FF40
:101B2C00024697F90F3011461846FFF75FFF00BFCA
:101B3C001837BD4680BD80B582B000AF0346FB713F
:101B4C0097F907301846FFF735FF00BF0837BD4639
:101B5C0080BD80B582B000AF78607868FFF7A2FFD7
:101B6C00034618460837BD4680BD000080B485B0DA
:101B7C0000AF78600023FB607B68002B01D1012350
:101B8C0043E07B681B681A46224B1344224AA2FB93
:101B9C0003231B099A007B681A647B681F4ADA636B
:101BAC007B68022283F821207B681B681B68FB6022
:101BBC00FB6823F47F5323F03003FB607B685A6887
:101BCC007B689B681A437B68DB681A437B681B69DC
:101BDC001A437B685B691A437B689B691A437B6871
:101BEC00DB691343FA681343FB607B681B68FA6874
:101BFC001A607B6800229A637B68012283F821209B
:101C0C007B68002283F82020002318461437BD4639
:101C1C0080BC7047F8FFFDBFCDCCCCCC000002409F
:101C2C0080B586B000AFF860B9607A603B60002385
:101C3C00FB75FB6893F82030012B01D102234BE09C
:101C4C00FB68012283F82020FB6893F82130DBB27B
:101C5C00012B3AD1FB68022283F82120FB68002279
:101C6C009A63FB681B681A68FB681B6822F0010208
:101C7C001A603B687A68B968F86800F0AFF9FB68DD
:101C8C00DB6A002B08D0FB681B681A68FB681B68B2
:101C9C0042F00E021A600FE0FB681B681A68FB68C2
:101CAC001B6822F004021A60FB681B681A68FB6848
:101CBC001B6842F00A021A60FB681B681A68FB6812
:101CCC001B6842F001021A6005E0FB68002283F8F1
:101CDC0020200223FB75FB7D18461837BD4680BDBE
:101CEC0080B584B000AF78600023FB737B6893F8F9
:101CFC002130DBB2022B05D07B6804229A630123CE
:101D0C00FB7351E07B681B681A687B681B6822F0C8
:101D1C000E021A607B681B681A687B681B6822F0CD
:101D2C0001021A607B681B68224A934229D07B68A7
:101D3C001B68214A934222D07B681B681F4A93423E
:101D4C001AD07B681B681E4A934212D07B681B68B2
:101D5C001C4A93420AD07B681B681B4A934202D1EF
:101D6C004FF480130EE04FF080730BE04FF4803390
:101D7C0008E04FF4805305E04FF4807302E0102329
:101D8C0000E00123114A53607B68012283F8212073
:101D9C007B68002283F820207B685B6B002B03D0D0
:101DAC007B685B6B78689847FB7B18461037BD46A1
:101DBC0080BD00BF080002401C0002403000024001
:101DCC0044000240580002406C00024000000240F7
:101DDC0080B584B000AF78607B68DB6B1B68FB6000
:101DEC007B681B681B68BB607B681B6C04229A4079
:101DFC00FB681340002B4FD0BB6803F00403002B8F
:101E0C004AD07B681B681B6803F02003002B07D1AA
:101E1C007B681B681A687B681B6822F004021A60D6
:101E2C007B681B68664A934229D07B681B68654AAD
:101E3C00934222D07B681B68634A93421AD07B681A
:101E4C001B68624A934212D07B681B68604A9342BB
:101E5C000AD07B681B685F4A934202D14FF480031F
:101E6C000EE04FF080630BE04FF4802308E04FF45A
:101E7C00804305E04FF4806302E0402300E004233C
:101E8C00554A53607B68DB6A002B00F094807B68BA
:101E9C00DB6A786898478EE07B681B6C02229A405C
:101EAC00FB681340002B56D0BB6803F00203002BD9
:101EBC0051D07B681B681B6803F02003002B0BD1EF
:101ECC007B681B681A687B681B6822F00A021A6020
:101EDC007B68012283F821207B681B68384A934277
:101EEC0029D07B681B68374A934222D07B681B68D9
:101EFC00354A93421AD07B681B68344A934212D0FD
:101F0C007B681B68324A93420AD07B681B68314A53
:101F1C00934202D14FF400130EE04FF000730BE02C
:101F2C004FF4003308E04FF4005305E04FF4007316
:101F3C0002E0202300E00223274A53607B68002242
:101F4C0083F820207B689B6A002B34D07B689B6ACB
:101F5C00786898472FE07B681B6C08229A40FB68D6
:101F6C001340002B28D0BB6803F00803002B23D0B0
:101F7C007B681B681A687B681B6822F00E021A606B
:101F8C007B681A6C7B68DB6B012101FA02F25A60E8
:101F9C007B6801229A637B68012283F821207B688D
:101FAC00002283F820207B681B6B002B04D07B68FD
:101FBC001B6B7868984700BF00BF1037BD4680BDCB
:101FCC00080002401C000240300002404400024065
:101FDC00580002406C0002400000024080B485B002
:101FEC0000AFF860B9607A603B60FB681A6CFB6804
:101FFC00DB6B012101FA02F25A60FB681B683A683C
:10200C005A60FB685B68102B08D1FB681B687A6808
:10201C009A60FB681B68BA68DA6007E0FB681B68AB
:10202C00BA689A60FB681B687A68DA6000BF14377C
:10203C00BD4680BC7047000080B48BB000AF7860A8
:10204C00396000237B6200233B6269E101227B6AD9
:10205C0002FA03F3FB613B681B68FA691340BB612E
:10206C00BA69FB699A4240F058813B685B689A4AAE
:10207C0093425ED0984A934275D8984A934258D06E
:10208C00964A93426FD8964A934252D0944A9342BE
:10209C0069D8944A93424CD0924A934263D8924A5C
:1020AC00934246D0904A93425DD8122B2AD8122BD9
:1020BC0059D801A252F823F03F2100081921000839
:1020CC002B2100086D2100087321000873210008E2
:1020DC007321000873210008732100087321000884
:1020EC007321000873210008732100087321000874
:1020FC0073210008732100087321000821210008B6
:10210C0035210008794A934213D02CE03B68DB68F8
:10211C003B6229E03B68DB6804333B6224E03B68AC
:10212C00DB6808333B621FE03B68DB680C333B62C7
:10213C001AE03B689B68002B02D104233B6213E03E
:10214C003B689B68012B05D108233B627B68FA69CD
:10215C001A6109E008233B627B68FA695A6103E063
:10216C0000233B6200E000BFBB69FF2B01D87B68FA
:10217C0001E07B6804337B61BB69FF2B02D87B6A6F
:10218C009B0002E07B6A083B9B003B617B691A6801
:10219C000F213B6901FA03F3DB431A40396A3B69AF
:1021AC0001FA03F31A437B691A603B685B6803F01E
:1021BC008053002B00F0B1804D4B9B694C4A43F08F
:1021CC00010393614A4B9B6903F00103BB60BB683D
:1021DC00484A7B6A9B08023352F82330FB607B6AC7
:1021EC0003F003039B000F2202FA03F3DB43FA68AC
:1021FC001340FB607B68404A934213D07B683F4A94
:10220C0093420DD07B683E4A934207D07B683D4A8F
:10221C00934201D1032306E0042304E0022302E0ED
:10222C00012300E000237A6A02F00302920093403B
:10223C00FA681343FB602F497B6A9B080233FA68E8
:10224C0041F823203B685B6803F48013002B06D015
:10225C002D4B9A682C49BB6913438B6006E02A4BC3
:10226C009A68BB69DB43284913408B603B685B6809
:10227C0003F40013002B06D0234BDA682249BB6908
:10228C001343CB6006E0204BDA68BB69DB431E4985
:10229C001340CB603B685B6803F40033002B06D023
:1022AC00194B5A681849BB6913434B6006E0164B2F
:1022BC005A68BB69DB43144913404B603B685B684D
:1022CC0003F48033002B21D00F4B1A680E49BB69E5
:1022DC0013430B6021E000BF0000321000003110EE
:1022EC00000022100000211000001210000011103C
:1022FC00001002400000014000080140000C0140A9
:10230C000010014000140140000401400B4B1A68FE
:10231C00BB69DB43094913400B607B6A01337B6269
:10232C003B681A687B6A22FA03F3002B7FF48EAEAB
:10233C0000BF00BF2C37BD4680BC70470004014075
:10234C0080B584B000AF78607B68002B01D101238D
:10235C002BE17B6893F83D30DBB2002B06D17B6818
:10236C00002283F83C207868FEF7E6FD7B68242287
:10237C0083F83D207B681B681A687B681B6822F019
:10238C0001021A607B681B681A687B681B6842F440
:10239C0000421A607B681B681A687B681B6822F411
:1023AC0000421A6001F060F9F8607B685B68814A52
:1023BC00934207D8FB68804A934294BF01230023C1
:1023CC00DBB206E0FB687D4A934294BF01230023F5
:1023DC00DBB2002B01D00123E7E0FB68784AA2FBBB
:1023EC0003239B0CBB607B681B685B6823F03F017D
:1023FC007B681B68BA680A435A607B681B681B6A57
:10240C0023F03F017B685B686A4A934202D8BB6841
:10241C00013309E0BB684FF4967202FB03F3694A7F
:10242C00A2FB03239B0901337A6812680B431362E6
:10243C007B681B68DB6923F44F4222F0FF027B6848
:10244C005B685C498B4219D8FB68591E7B685B68DA
:10245C005B00B1FBF3F3591C40F6FC730B40002BF3
:10246C000AD0FB68591E7B685B685B00B1FBF3F319
:10247C000133C3F30B0351E004234FE07B689B68EB
:10248C00002B11D1FB68581E7B6859680B465B000A
:10249C000B44B0FBF3F30133C3F30B03002B0CBF62
:1024AC0001230023DBB212E0FB68581E7B685968DD
:1024BC000B469B000B4499000B44B0FBF3F3013328
:1024CC00C3F30B03002B0CBF01230023DBB2002B47
:1024DC0001D0012322E07B689B68002B0ED1FB68A6
:1024EC00581E7B6859680B465B000B44B0FBF3F33A
:1024FC000133C3F30B0343F400430FE0FB68581E96
:10250C007B6859680B469B000B4499000B44B0FB4D
:10251C00F3F30133C3F30B0343F4404379680968C5
:10252C001343CB617B681B681B6823F0C0017B687D
:10253C00DA697B681B6A1A437B681B680A431A605A
:10254C007B681B689B6823F4034323F0FF037A68C2
:10255C0011697A68D26811437A6812680B439360E8
:10256C007B681B68DB6823F0FF017B685A697B681A
:10257C009B691A437B681B680A43DA607B681B689B
:10258C001A687B681B6842F001021A607B680022A3
:10259C001A647B68202283F83D207B6800221A6332
:1025AC007B68002283F83E20002318461037BD4676
:1025BC0080BD00BFA08601007F841E00FF083D0087
:1025CC0083DE1B43D34D621080B588B002AFF86038
:1025DC007A601A460B467B8113463B81FFF78AF9DA
:1025EC007861FB6893F83D30DBB2202B40F0E08043
:1025FC007B690093192301227049F86800F092FA64
:10260C000346002B01D00223D3E0FB6893F83C3047
:10261C00012B01D10223CCE0FB68012283F83C2082
:10262C00FB681B681B6803F00103012B07D0FB68D8
:10263C001B681A68FB681B6842F001021A60FB6891
:10264C001B681A68FB681B6822F400621A60FB683E
:10265C00212283F83D20FB68102283F83E20FB6882
:10266C0000221A64FB687A685A62FB683A895A85B8
:10267C00FB685B8D9AB2FB681A85FB68504ADA627C
:10268C0079897B693A6AF86800F0CAF90346002B2D
:10269C0001D001238DE000233B61FB681B685B6963
:1026AC003B61FB681B689B693B613B6966E07A692F
:1026BC00396AF86800F050FB0346002B0DD0FB681C
:1026CC001B6C042B07D1FB681B681A68FB681B6822
:1026DC0042F400721A6001236BE0FB685B6A1A78A3
:1026EC00FB681B681A61FB685B6A5A1CFB685A62C0
:1026FC00FB685B8D9BB2013B9AB2FB685A85FB6809
:10270C001B8D013B9AB2FB681A85FB681B685B69E1
:10271C0003F00403042B1BD1FB681B8D002B17D07B
:10272C00FB685B6A1A78FB681B681A61FB685B6A5A
:10273C005A1CFB685A62FB685B8D9BB2013B9AB2D8
:10274C00FB685A85FB681B8D013B9AB2FB681A85A6
:10275C007A69396AF86800F047FB0346002B0DD004
:10276C00FB681B6C042B07D1FB681B681A68FB68A1
:10277C001B6842F400721A6001231AE0FB681B8D7F
:10278C00002B94D1FB681B681A68FB681B6842F429
:10279C0000721A60FB68202283F83D20FB6800223F
:1027AC0083F83E20FB68002283F83C20002300E0E5
:1027BC00022318461837BD4680BD00BF020010002A
:1027CC000000FFFF80B58AB002AFF8607A603B6012
:1027DC000B467B81FFF78EF8F8610023BB61FB6829
:1027EC0093F83D30DBB2202B40F01181FB69009354
:1027FC00192301228849F86800F094F90346002B4C
:10280C0001D0022304E1FB6893F83C30012B01D189
:10281C000223FDE0FB68012283F83C20FB681B6867
:10282C001B6803F00103012B07D0FB681B681A68B7
:10283C00FB681B6842F001021A60FB681B681A688F
:10284C00FB681B6822F400621A60FB68242283F880
:10285C003D20FB6800221A64FB68704ADA62FB6850
:10286C001B681A68FB681B6842F480721A60FB696B
:10287C0000933B6800224FF00111F86800F052F908
:10288C000346002B0DD0FB681B681B6803F4807398
:10289C00B3F5807F03D1FB684FF400721A640323F5
:1028AC00B6E07B89DBB21A46FB681B6802F0FE02BD
:1028BC001A61FFF71FF8F861FB681B685B6903F08E
:1028CC000203022B0CBF01230023DBB2FB75FB6858
:1028DC001B685B6903F48063B3F5806F0CBF012345
:1028EC000023DBB2BB7525E0FFF704F80246FB6959
:1028FC00D31A3A689A4202D33B68002B03D1FB6887
:10290C00A02283F83D20FB681B685B6903F002037F
:10291C00022B0CBF01230023DBB2FB75FB681B6889
:10292C005B6903F48063B3F5806F0CBF0123002354
:10293C00DBB2BB75FB6893F83D30DBB2A02B05D046
:10294C00FB7D002B02D1BB7D002BCDD0FB68202260
:10295C0083F83D20FB681B685B6903F00203022BC4
:10296C0029D1FB681B681A68FB681B6842F400726B
:10297C001A6000233B61FB681B685B693B61FB6869
:10298C001B689B693B613B69FB690093192301221E
:10299C002149F86800F0C6F80346002B01D001234A
:1029AC0036E0FB68202283F83D20FB68002283F888
:1029BC003C2000232CE0FB681B681A68FB681B6832
:1029CC0042F400721A60FB681B686FF480625A61F3
:1029DC00FB690093192301220F49F86800F0A2F853
:1029EC000346002B01D0012312E0BB690133BB610C
:1029FC00BA697B689A42FFF432AFFB68202283F8F5
:102A0C003D20FB68002283F83C20012300E00223D8
:102A1C0018462037BD4680BD020010000000FFFFA5
:102A2C0080B588B002AFF8607A603B600B467B8162
:102A3C00FB68DB6A7B617B69082B06D07B69012B09
:102A4C0003D07B6913F5803F08D1FB681B681A68BB
:102A5C00FB681B6842F480721A600BE0FB681B6B0E
:102A6C00122B07D1FB681B681A68FB681B6842F4C1
:102A7C0080721A603B6800937B6800224FF0011152
:102A8C00F86800F04FF80346002B0DD0FB681B686C
:102A9C001B6803F48073B3F5807F03D1FB684FF49C
:102AAC0000721A64032335E0FB681B69B3F5804F91
:102ABC0008D17B89DBB21A46FB681B6802F0FE0268
:102ACC001A611BE07B89DB11DBB203F00603DBB27E
:102ADC0063F00F03DAB2FB681B681A613B687A6813
:102AEC000E49F86800F098F80346002B01D001233A
:102AFC0010E07B89DAB2FB681B681A613B687A6864
:102B0C000749F86800F088F80346002B01D0012330
:102B1C0000E0002318461837BD4680BD08000100B0
:102B2C000200010080B584B000AFF860B9603B6072
:102B3C001346FB7148E03B68B3F1FF3F44D0FEF70E
:102B4C00D9FE0246BB69D31A3A689A4202D33B6853
:102B5C00002B39D1BB681B0CDBB2012B0DD1FB68F0
:102B6C001B685B69DA43BB6813409BB2002B0CBF3C
:102B7C0001230023DBB21A460CE0FB681B689B693F
:102B8C00DA43BB6813409BB2002B0CBF012300231C
:102B9C00DBB21A46FB799A4216D1FB6800221A6303
:102BAC00FB68202283F83D20FB68002283F83E203E
:102BBC00FB681B6C43F02002FB681A64FB68002264
:102BCC0083F83C20012323E0BB681B0CDBB2012BF8
:102BDC000DD1FB681B685B69DA43BB6813409BB281
:102BEC00002B0CBF01230023DBB21A460CE0FB6860
:102BFC001B689B69DA43BB6813409BB2002B0CBF6C
:102C0C0001230023DBB21A46FB799A4293D00023AE
:102C1C0018461037BD4680BD80B584B000AFF86053
:102C2C00B9607A603B6071E0FB681B685B6903F418
:102C3C008063B3F5806F23D1FB681B681A68FB684F
:102C4C001B6842F400721A60FB681B686FF48062A8
:102C5C005A61FB6800221A63FB68202283F83D202E
:102C6C00FB68002283F83E20FB681B6C43F00402D7
:102C7C00FB681A64FB68002283F83C20012367E0A0
:102C8C007B68B3F1FF3F41D0FEF734FE02463B6850
:102C9C00D31A7A689A4202D37B68002B36D1BB6870
:102CAC001B0CDBB2012B0CD1FB681B685B69DA4394
:102CBC00BB6813409BB2002B14BF01230023DBB273
:102CCC000BE0FB681B689B69DA43BB6813409BB243
:102CDC00002B14BF01230023DBB2002B16D0FB68A2
:102CEC0000221A63FB68202283F83D20FB68002237
:102CFC0083F83E20FB681B6C43F02002FB681A64CF
:102D0C00FB68002283F83C20012321E0BB681B0CEC
:102D1C00DBB2012B0CD1FB681B685B69DA43BB6827
:102D2C0013409BB2002B14BF01230023DBB20BE03A
:102D3C00FB681B689B69DA43BB6813409BB2002B92
:102D4C0014BF01230023DBB2002B7FF46DAF0023F3
:102D5C0018461037BD4680BD80B584B000AFF86012
:102D6C00B9607A6034E0F86800F086F80346002B0E
:102D7C0001D0012334E0BB68B3F1FF3F28D0FEF74C
:102D8C00B9FD02467B68D31ABA689A4202D3BB6873
:102D9C00002B1DD1FB681B685B6903F08003802B43
:102DAC0016D0FB6800221A63FB68202283F83D20B2
:102DBC00FB68002283F83E20FB681B6C43F020026A
:102DCC00FB681A64FB68002283F83C20012307E0AF
:102DDC00FB681B685B6903F08003802BC3D1002365
:102DEC0018461037BD4680BD80B584B000AFF86082
:102DFC00B9607A6034E0F86800F03EF80346002BC6
:102E0C0001D0012334E0BB68B3F1FF3F28D0FEF7BB
:102E1C0071FD02467B68D31ABA689A4202D3BB682A
:102E2C00002B1DD1FB681B685B6903F00403042BAA
:102E3C0016D0FB6800221A63FB68202283F83D2021
:102E4C00FB68002283F83E20FB681B6C43F02002D9
:102E5C00FB681A64FB68002283F83C20012307E01E
:102E6C00FB681B685B6903F00403042BC3D10023CC
:102E7C0018461037BD4680BD80B483B000AF786073
:102E8C007B681B685B6903F48063B3F5806F1BD1AF
:102E9C007B681B686FF480625A617B6800221A633E
:102EAC007B68202283F83D207B68002283F83E203B
:102EBC007B681B6C43F004027B681A647B680022FD
:102ECC0083F83C20012300E0002318460C37BD4654
:102EDC0080BC704780B586B000AF78607B68002BF3
:102EEC0001D1012372E27B681B6803F00103002B04
:102EFC0000F08780924B5B6803F00C03042B0CD022
:102F0C008F4B5B6803F00C03082B12D18C4B5B6866
:102F1C0003F48033B3F5803F0BD1894B1B6803F46A
:102F2C000033002B6CD07B685B68002B68D10123CD
:102F3C004CE27B685B68B3F5803F06D1804B1B6825
:102F4C007F4A43F4803313602EE07B685B68002B70
:102F5C000CD17B4B1B687A4A23F480331360784B7B
:102F6C001B68774A23F4802313601DE07B685B6841
:102F7C00B3F5A02F0CD1724B1B68714A43F480231C
:102F8C0013606F4B1B686E4A43F4803313600BE085
:102F9C006B4B1B686A4A23F480331360684B1B68C5
:102FAC00674A23F4802313607B685B68002B13D083
:102FBC00FEF7A0FC386108E0FEF79CFC02463B697A
:102FCC00D31A642B01D9032300E25D4B1B6803F475
:102FDC000033002BF0D014E0FEF78CFC386108E0D5
:102FEC00FEF788FC02463B69D31A642B01D90323F4
:102FFC00ECE1534B1B6803F40033002BF0D100E0E1
:10300C0000BF7B681B6803F00203002B63D04C4BA2
:10301C005B6803F00C03002B0BD0494B5B6803F08F
:10302C000C03082B1CD1464B5B6803F48033002B3C
:10303C0016D1434B1B6803F00203002B05D07B68B1
:10304C001B69012B01D00123C0E13D4B1B6823F010
:10305C00F8027B685B69DB00394913430B603AE08B
:10306C007B681B69002B20D0364B01221A60FEF7BF
:10307C0041FC386108E0FEF73DFC02463B69D31A7F
:10308C00022B01D90323A1E12D4B1B6803F0020392
:10309C00002BF0D02A4B1B6823F0F8027B685B698D
:1030AC00DB00274913430B6015E0264B00221A6006
:1030BC00FEF720FC386108E0FEF71CFC02463B6979
:1030CC00D31A022B01D9032380E11D4B1B6803F09B
:1030DC000203002BF0D17B681B6803F00803002B64
:1030EC003AD07B689B69002B19D0174B01221A60D0
:1030FC00FEF700FC386108E0FEF7FCFB02463B697A
:10310C00D31A022B01D9032360E10D4B5B6A03F048
:10311C000203002BF0D0012000F0CEFA1CE00A4B89
:10312C0000221A60FEF7E6FB38610FE0FEF7E2FBC7
:10313C0002463B69D31A022B08D9032346E100BF90
:10314C00001002400000424280044242924B5B6AF3
:10315C0003F00203002BE9D17B681B6803F0040326
:10316C00002B00F0A6800023FB758B4BDB6903F072
:10317C008053002B0DD1884BDB69874A43F0805379
:10318C00D361854BDB6903F08053BB60BB680123C3
:10319C00FB75824B1B6803F48073002B18D17F4B9B
:1031AC001B687E4A43F480731360FEF7A3FB3861FF
:1031BC0008E0FEF79FFB02463B69D31A642B01D94A
:1031CC00032303E1754B1B6803F48073002BF0D0D1
:1031DC007B68DB68012B06D16F4B1B6A6E4A43F090
:1031EC00010313622DE07B68DB68002B0CD16A4B6A
:1031FC001B6A694A23F001031362674B1B6A664A18
:10320C0023F0040313621CE07B68DB68052B0CD1F4
:10321C00614B1B6A604A43F0040313625E4B1B6AEA
:10322C005D4A43F0010313620BE05B4B1B6A5A4A85
:10323C0023F001031362584B1B6A574A23F0040313
:10324C0013627B68DB68002B15D0FEF753FB3861EB
:10325C000AE0FEF74FFB02463B69D31A41F2883273
:10326C00934201D90323B1E04B4B1B6A03F00203D9
:10327C00002BEED014E0FEF73DFB38610AE0FEF7C0
:10328C0039FB02463B69D31A41F28832934201D989
:10329C0003239BE0404B1B6A03F00203002BEED18F
:1032AC00FB7D012B05D13C4BDB693B4A23F0805362
:1032BC00D3617B68DB69002B00F08780364B5B6841
:1032CC0003F00C03082B61D07B68DB69022B46D121
:1032DC00334B00221A60FEF70DFB386108E0FEF755
:1032EC0009FB02463B69D31A022B01D903236DE07B
:1032FC00294B1B6803F00073002BF0D17B681B6A11
:10330C00B3F5803F08D1244B5B6823F400327B6813
:10331C009B68214913434B601F4B5B6823F4741269
:10332C007B68196A7B685B6A0B431B4913434B60D0
:10333C001B4B01221A60FEF7DDFA386108E0FEF73C
:10334C00D9FA02463B69D31A022B01D903233DE07B
:10335C00114B1B6803F00073002BF0D035E0104BC1
:10336C0000221A60FEF7C6FA386108E0FEF7C2FACE
:10337C0002463B69D31A022B01D9032326E0064BE4
:10338C001B6803F00073002BF0D11EE07B68DB6937
:10339C00012B07D1012319E00010024000700040FE
:1033AC00600042420B4B5B68FB60FB6803F48032AD
:1033BC007B681B6A9A4206D1FB6803F470127B6827
:1033CC005B6A9A4201D0012300E0002318461837AB
:1033DC00BD4680BD0010024080B584B000AF78605F
:1033EC0039607B68002B01D10123D0E06A4B1B684C
:1033FC0003F007033A689A4210D9674B1B6823F015
:10340C00070265493B6813430B60634B1B6803F071
:10341C0007033A689A4201D00123B8E07B681B6825
:10342C0003F00203002B20D07B681B6803F004031D
:10343C00002B05D0594B5B68584A43F4E06353604A
:10344C007B681B6803F00803002B05D0534B5B68AB
:10345C00524A43F460535360504B5B6823F0F002C4
:10346C007B689B684D4913434B607B681B6803F07A
:10347C000103002B40D07B685B68012B07D1474BC5
:10348C001B6803F40033002B15D101237FE07B680C
:10349C005B68022B07D1414B1B6803F00073002BB8
:1034AC0009D1012373E03D4B1B6803F00203002B91
:1034BC0001D101236BE0394B5B6823F003027B687D
:1034CC005B68364913434B60FEF714FAF8600AE068
:1034DC00FEF710FA0246FB68D31A41F28832934287
:1034EC0001D9032353E02D4B5B6803F00C027B687E
:1034FC005B689B009A42EBD1274B1B6803F00703D8
:10350C003A689A4210D2244B1B6823F007022249D6
:10351C003B6813430B60204B1B6803F007033A68AE
:10352C009A4201D0012332E07B681B6803F004034C
:10353C00002B08D0194B5B6823F4E0627B68DB68D6
:10354C00164913434B607B681B6803F00803002B80
:10355C0009D0124B5B6823F460527B681B69DB005B
:10356C000E4913434B6000F021F802460B4B5B688D
:10357C001B0903F00F030A49CB5C22FA03F3094A37
:10358C001360094B1B681846FEF772F900231846A6
:10359C001037BD4680BD00BF002002400010024025
:1035AC00BC780008380000203C00002080B487B0B4
:1035BC0000AF0023FB600023BB6000237B61002372
:1035CC007B6000233B611E4B5B68FB60FB6803F078
:1035DC000C03042B02D0082B03D027E0194B3B61C2
:1035EC0027E0FB689B0C03F00F03174AD35C7B604E
:1035FC00FB6803F48033002B10D0114B5B685B0C21
:10360C0003F00103114AD35CBB607B680D4A03FBDA
:10361C0002F2BB68B2FBF3F37B6104E07B680C4AFB
:10362C0002FB03F37B617B693B6102E0054B3B6171
:10363C0000BF3B6918461C37BD4680BC704700BFB5
:10364C000010024000127A00D4780008E4780008D8
:10365C0000093D0080B400AF024B1B681846BD4604
:10366C0080BC70473800002080B500AFFFF7F2FF38
:10367C000246054B5B681B0A03F007030349CB5C4E
:10368C0022FA03F3184680BD00100240CC780008E3
:10369C0080B500AFFFF7DEFF0246054B5B68DB0A27
:1036AC0003F007030349CB5C22FA03F3184680BDF1
:1036BC0000100240CC78000880B485B000AF786070
:1036CC000A4B1B680A4AA2FB03235B0A7A6802FBBB
:1036DC0003F3FB6000BFFB685A1EFA60002BF9D1A4
:1036EC0000BF00BF1437BD4680BC704738000020B7
:1036FC00D34D621080B582B000AF78607B68002B30
:10370C0001D1012341E07B6893F83D30DBB2002B03
:10371C0006D17B68002283F83C207868FDF74AFCD0
:10372C007B68022283F83D207B681A687B6804332F
:10373C001946104600F03CFC7B68012283F84620B9
:10374C007B68012283F83E207B68012283F83F20AE
:10375C007B68012283F840207B68012283F841209A
:10376C007B68012283F842207B68012283F8432086
:10377C007B68012283F844207B68012283F8452072
:10378C007B68012283F83D20002318460837BD468C
:10379C0080BD000080B586B000AFF860B9607A607B
:1037AC007B800023FB75BB68002B09D1FB6893F869
:1037BC003E30DBB2022B0CBF01230023DBB222E034
:1037CC00BB68042B09D1FB6893F83F30DBB2022BAA
:1037DC000CBF01230023DBB215E0BB68082B09D119
:1037EC00FB6893F84030DBB2022B0CBF01230023A3
:1037FC00DBB208E0FB6893F84130DBB2022B0CBF64
:10380C0001230023DBB2002B01D0022353E1BB6860
:10381C00002B09D1FB6893F83E30DBB2012B0CBFB7
:10382C0001230023DBB222E0BB68042B09D1FB6827
:10383C0093F83F30DBB2012B0CBF01230023DBB22A
:10384C0015E0BB68082B09D1FB6893F84030DBB25C
:10385C00012B0CBF01230023DBB208E0FB6893F8BB
:10386C004130DBB2012B0CBF01230023DBB2002B58
:10387C0024D07B68002B02D07B88002B01D1012344
:10388C0019E1BB68002B04D1FB68022283F83E20AF
:10389C0016E0BB68042B04D1FB68022283F83F209E
:1038AC000EE0BB68082B04D1FB68022283F8402091
:1038BC0006E0FB68022283F8412001E00123FAE0D4
:1038CC00BB680C2B00F2AE8001A252F823F000BFB3
:1038DC0011390008313A0008313A0008313A000831
:1038EC0059390008313A0008313A0008313A0008D9
:1038FC00A1390008313A0008313A0008313A000881
:10390C00E9390008FB685B6A6D4A9A62FB685B6A7E
:10391C006C4ADA62FB685B6A6B4A1A63FB68586A2A
:10392C007968FB681B6834331A467B88FEF778F994
:10393C000346002B01D00123BDE0FB681B68DA684D
:10394C00FB681B6842F40072DA606EE0FB689B6AED
:10395C005B4A9A62FB689B6A5A4ADA62FB689B6A0A
:10396C00594A1A63FB68986A7968FB681B68383394
:10397C001A467B88FEF754F90346002B01D001232D
:10398C0099E0FB681B68DA68FB681B6842F480628C
:10399C00DA604AE0FB68DB6A494A9A62FB68DB6AD8
:1039AC00484ADA62FB68DB6A474A1A63FB68D86AE2
:1039BC007968FB681B683C331A467B88FEF730F944
:1039CC000346002B01D0012375E0FB681B68DA6805
:1039DC00FB681B6842F40062DA6026E0FB681B6B34
:1039EC00374A9A62FB681B6B364ADA62FB681B6BC0
:1039FC00354A1A63FB68186B7968FB681B6840339F
:103A0C001A467B88FEF70CF90346002B01D00123E4
:103A1C0051E0FB681B68DA68FB681B6842F4805253
:103A2C00DA6002E00123FB7500BFFB7D002B41D166
:103A3C00FB681B680122B968184600F0AFFCFB68F4
:103A4C001B68224A934207D1FB681B685A6CFB68BF
:103A5C001B6842F400425A64FB681B681B4A934281
:103A6C000ED0FB681B68B3F1804F09D0FB681B6854
:103A7C00174A934204D0FB681B68164A934211D133
:103A8C00FB681B689B6803F007033B613B69062BD3
:103A9C0010D0FB681B681A68FB681B6842F00102B7
:103AAC001A6007E0FB681B681A68FB681B6842F029
:103ABC0001021A60FB7D18461837BD4680BD00BF59
:103ACC00AB3E0008533F0008193E0008002C014093
:103ADC00000400400008004080B584B000AF78605E
:103AEC0039600023FB733B680C2B55D801A252F8AC
:103AFC0023F000BF353B0008A53B0008A53B0008A0
:103B0C00A53B0008513B0008A53B0008A53B00085D
:103B1C00A53B00086D3B0008A53B0008A53B000831
:103B2C00A53B0008893B00087B681B68DA687B684A
:103B3C001B6822F40072DA607B685B6A1846FEF739
:103B4C00CFF82CE07B681B68DA687B681B6822F472
:103B5C008062DA607B689B6A1846FEF7C1F81EE04B
:103B6C007B681B68DA687B681B6822F40062DA6089
:103B7C007B68DB6A1846FEF7B3F810E07B681B68BD
:103B8C00DA687B681B6822F48052DA607B681B6BF6
:103B9C001846FEF7A5F802E00123FB7300BFFB7B80
:103BAC00002B57D17B681B6800223968184600F03F
:103BBC00F5FB7B681B682A4A934217D17B681B680C
:103BCC001A6A41F211131340002B0FD17B681B684A
:103BDC001A6A40F244431340002B07D17B681B68E0
:103BEC005A6C7B681B6822F400425A647B681B6821
:103BFC001A6A41F211131340002B0FD17B681B681A
:103C0C001A6A40F244431340002B07D17B681B68AF
:103C1C001A687B681B6822F001021A603B68002B53
:103C2C0004D17B68012283F83E2013E03B68042B0F
:103C3C0004D17B68012283F83F200BE03B68082B02
:103C4C0004D17B68012283F8402003E07B680122C9
:103C5C0083F84120FB7B18461037BD4680BD00BF62
:103C6C00002C014080B586B000AFF860B9607A6076
:103C7C000023FB75FB6893F83C30012B01D1022328
:103C8C00AEE0FB68012283F83C207B680C2B00F231
:103C9C009F8001A252F823F0D93C0008DD3D0008BA
:103CAC00DD3D0008DD3D0008193D0008DD3D000844
:103CBC00DD3D0008DD3D00085B3D0008DD3D0008F2
:103CCC00DD3D0008DD3D00089B3D0008FB681B68DE
:103CDC00B968184600F0DAF9FB681B689A69FB684A
:103CEC001B6842F008029A61FB681B689A69FB68C2
:103CFC001B6822F004029A61FB681B689969BB6817
:103D0C001A69FB681B680A439A6164E0FB681B68CC
:103D1C00B968184600F020FAFB681B689A69FB68C2
:103D2C001B6842F400629A61FB681B689A69FB6825
:103D3C001B6822F480629A61FB681B689969BB68F6
:103D4C001B691A02FB681B680A439A6143E0FB6813
:103D5C001B68B968184600F069FAFB681B68DA69D9
:103D6C00FB681B6842F00802DA61FB681B68DA69C1
:103D7C00FB681B6822F00402DA61FB681B68D969D6
:103D8C00BB681A69FB681B680A43DA6123E0FB68AD
:103D9C001B68B968184600F0B3FAFB681B68DA694F
:103DAC00FB681B6842F40062DA61FB681B68DA6925
:103DBC00FB681B6822F48062DA61FB681B68D969B6
:103DCC00BB681B691A02FB681B680A43DA6102E0D4
:103DDC000123FB7500BFFB68002283F83C20FB7DB0
:103DEC0018461837BD4680BD80B483B000AF7860EC
:103DFC0000BF0C37BD4680BC704780B483B000AFA9
:103E0C00786000BF0C37BD4680BC704780B584B06D
:103E1C0000AF78607B685B6AFB60FB685B6A7A6802
:103E2C009A4207D1FB6801221A77FB68012283F8BA
:103E3C003E202AE0FB689B6A7A689A4207D1FB68AD
:103E4C0002221A77FB68012283F83F201DE0FB68F1
:103E5C00DB6A7A689A4207D1FB6804221A77FB68FE
:103E6C00012283F8402010E0FB681B6B7A689A42B1
:103E7C0007D1FB6808221A77FB68012283F84120DE
:103E8C0003E0FB68012283F83D20F868FFF7B5FFDB
:103E9C00FB6800221A7700BF1037BD4680BD80B585
:103EAC0084B000AF78607B685B6AFB60FB685B6A20
:103EBC007A689A420BD1FB6801221A777B689B695E
:103ECC00002B36D1FB68012283F83E2031E0FB68E1
:103EDC009B6A7A689A420BD1FB6802221A777B683C
:103EEC009B69002B25D1FB68012283F83F2020E041
:103EFC00FB68DB6A7A689A420BD1FB6804221A775A
:103F0C007B689B69002B14D1FB68012283F840204D
:103F1C000FE0FB681B6B7A689A420AD1FB68082297
:103F2C001A777B689B69002B03D1FB68012283F80D
:103F3C004120F868FCF712FAFB6800221A7700BFE0
:103F4C001037BD4680BD80B584B000AF78607B680B
:103F5C005B6AFB60FB685B6A7A689A4203D1FB6818
:103F6C0001221A7719E0FB689B6A7A689A4203D19E
:103F7C00FB6802221A7710E0FB68DB6A7A689A42C7
:103F8C0003D1FB6804221A7707E0FB681B6B7A6885
:103F9C009A4202D1FB6808221A77F868FFF724FFCF
:103FAC00FB6800221A7700BF1037BD4680BD0000A9
:103FBC0080B485B000AF786039607B681B68FB60AB
:103FCC007B682F4A93420BD07B68B3F1804F07D0AC
:103FDC007B682C4A934203D07B682B4A934208D1CE
:103FEC00FB6823F07003FB603B685B68FA68134363
:103FFC00FB607B68224A93420BD07B68B3F1804F05
:10400C0007D07B681F4A934203D07B681E4A9342B9
:10401C0008D1FB6823F44073FB603B68DB68FA68EB
:10402C001343FB60FB6823F080023B685B6913431E
:10403C00FB607B68FA681A603B689A687B68DA6296
:10404C003B681A687B689A627B680D4A934203D17D
:10405C003B681A697B681A637B6801225A617B682A
:10406C001B6903F00103002B05D07B681B6923F04F
:10407C0001027B681A6100BF1437BD4680BC7047D3
:10408C00002C0140000400400008004080B487B0C0
:10409C0000AF786039607B681B6A7B617B681B6A48
:1040AC0023F001027B681A627B685B683B617B686A
:1040BC009B69FB60FB6823F07003FB60FB6823F0DB
:1040CC000303FB603B681B68FA681343FB607B6966
:1040DC0023F002037B613B689B687A6913437B6125
:1040EC007B681C4A93420CD17B6923F008037B61EB
:1040FC003B68DB687A6913437B617B6923F00403BB
:10410C007B617B68134A934211D13B6923F4807322
:10411C003B613B6923F400733B613B685B693A6923
:10412C0013433B613B689B693A6913433B617B6872
:10413C003A695A607B68FA689A613B685A687B688E
:10414C005A637B687A691A6200BF1C37BD4680BC13
:10415C00704700BF002C014080B487B000AF78607E
:10416C0039607B681B6A7B617B681B6A23F01002D9
:10417C007B681A627B685B683B617B689B69FB6050
:10418C00FB6823F4E043FB60FB6823F44073FB60A3
:10419C003B681B681B02FA681343FB607B6923F0C6
:1041AC0020037B613B689B681B017A6913437B612D
:1041BC007B681D4A93420DD17B6923F080037B61A0
:1041CC003B68DB681B017A6913437B617B6923F0D5
:1041DC0040037B617B68144A934213D13B6923F4FF
:1041EC0080633B613B6923F400633B613B685B6923
:1041FC009B003A6913433B613B689B699B003A699E
:10420C0013433B617B683A695A607B68FA689A6130
:10421C003B685A687B689A637B687A691A6200BF4C
:10422C001C37BD4680BC7047002C014080B487B061
:10423C0000AF786039607B681B6A7B617B681B6AA6
:10424C0023F480727B681A627B685B683B617B68D5
:10425C00DB69FB60FB6823F07003FB60FB6823F0F9
:10426C000303FB603B681B68FA681343FB607B69C4
:10427C0023F400737B613B689B681B027A691343D0
:10428C007B617B681D4A93420DD17B6923F40063EB
:10429C007B613B68DB681B027A6913437B617B693A
:1042AC0023F480637B617B68144A934213D13B698E
:1042BC0023F480533B613B6923F400533B613B681F
:1042CC005B691B013A6913433B613B689B691B01AA
:1042DC003A6913433B617B683A695A607B68FA68B8
:1042EC00DA613B685A687B68DA637B687A691A62C0
:1042FC0000BF1C37BD4680BC704700BF002C01407E
:10430C0080B487B000AF786039607B681B6A3B6112
:10431C007B681B6A23F480527B681A627B685B683B
:10432C007B617B68DB69FB60FB6823F4E043FB602B
:10433C00FB6823F44073FB603B681B681B02FA6844
:10434C001343FB603B6923F400533B613B689B6860
:10435C001B033A6913433B617B680F4A934209D1B3
:10436C007B6923F480437B613B685B699B017A69C1
:10437C0013437B617B687A695A607B68FA68DA61FF
:10438C003B685A687B681A647B683A691A6200BF9A
:10439C001C37BD4680BC7047002C014080B487B0F0
:1043AC0000AFF860B9607A60BB6803F01F030122AC
:1043BC0002FA03F37B61FB681A6A7B69DB431A40E0
:1043CC00FB681A62FB681A6ABB6803F01F03796802
:1043DC0001FA03F31A43FB681A6200BF1C37BD468F
:1043EC0080BC704780B485B000AF786039607B6862
:1043FC0093F83C30012B01D1022346E07B6801226B
:10440C0083F83C207B68022283F83D207B681B6884
:10441C005B68FB607B681B689B68BB60FB6823F078
:10442C007003FB603B681B68FA681343FB607B6896
:10443C001B68FA685A607B681B68164A93420ED058
:10444C007B681B68B3F1804F09D07B681B68124AEC
:10445C00934204D07B681B68104A93420CD1BB6812
:10446C0023F08003BB603B685B68BA681343BB6096
:10447C007B681B68BA689A607B68012283F83D20D0
:10448C007B68002283F83C20002318461437BD4675
:10449C0080BC7047002C0140000400400008004024
:1044AC0080B582B000AF78607B68002B01D101230E
:1044BC0042E07B6893F84130DBB2002B06D17B687D
:1044CC00002283F840207868FCF7F6FD7B682422F4
:1044DC0083F841207B681B68DA687B681B6822F4D0
:1044EC000052DA60786800F009FA7B681B681A6978
:1044FC007B681B6822F490421A617B681B685A69BE
:10450C007B681B6822F02A025A617B681B68DA6898
:10451C007B681B6842F40052DA607B6800225A64A4
:10452C007B68202283F841207B68202283F842207C
:10453C007B6800225A63002318460837BD4680BDAD
:10454C0080B58AB002AFF860B9603B601346FB805F
:10455C0000237B61FB6893F84130DBB2202B75D1D3
:10456C00BB68002B02D0FB88002B01D101236EE02D
:10457C00FB6800225A64FB68212283F84120FDF776
:10458C00B9F97861FB68FA889A84FB68FA88DA844E
:10459C00FB689B68B3F5805F08D1FB681B69002B37
:1045AC0004D10023FB61BB68BB6103E0BB68FB610A
:1045BC000023BB612EE03B6800937B6900228021C5
:1045CC00F86800F0DFF80346002B05D0FB682022CA
:1045DC0083F8412003233AE0FB69002B0BD1BB6924
:1045EC001B881A46FB681B68C2F308025A60BB6939
:1045FC000233BB6107E0FB691A78FB681B685A60E1
:10460C00FB690133FB61FB68DB8C9BB2013B9AB20B
:10461C00FB68DA84FB68DB8C9BB2002BCBD13B684C
:10462C0000937B6900224021F86800F0ABF8034648
:10463C00002B05D0FB68202283F84120032306E0E1
:10464C00FB68202283F84120002300E00223184657
:10465C002037BD4680BD80B58AB002AFF860B96026
:10466C003B601346FB8000237B61FB6893F8423070
:10467C00DBB2202B40F08180BB68002B02D0FB8882
:10468C00002B01D1012379E0FB6800225A64FB68FE
:10469C00222283F84220FB6800221A63FDF72AF9D4
:1046AC007861FB68FA889A85FB68FA88DA85FB687A
:1046BC009B68B3F5805F08D1FB681B69002B04D1A4
:1046CC000023FB61BB68BB6103E0BB68FB6100239B
:1046DC00BB6147E03B6800937B6900222021F868AE
:1046EC0000F050F80346002B05D0FB68202283F81D
:1046FC004220032342E0FB69002B0CD1FB681B68B2
:10470C005B689BB2C3F308039AB2BB691A80BB699E
:10471C000233BB611FE0FB689B68B3F5805F07D079
:10472C00FB689B68002B0AD1FB681B69002B06D128
:10473C00FB681B685B68DAB2FB691A7008E0FB68FF
:10474C001B685B68DBB203F07F03DAB2FB691A709B
:10475C00FB690133FB61FB68DB8D9BB2013B9AB2B9
:10476C00FB68DA85FB68DB8D9BB2002BB2D1FB6852
:10477C00202283F84220002300E002231846203731
:10478C00BD4680BD80B586B000AFF860B9603B60B7
:10479C001346FB713BE03B6AB3F1FF3F37D0FDF7AB
:1047AC00A9F802463B68D31A3A6A9A4202D33B6A8A
:1047BC00002B01D103233AE0FB681B68DB6803F094
:1047CC000403002B23D0BB68802B20D0BB68402B6C
:1047DC001DD0FB681B681B6803F00803082B16D15F
:1047EC0000237B61FB681B681B687B61FB681B6893
:1047FC005B687B617B69F86800F01DF8FB68082238
:10480C005A64FB68002283F8402001230FE0FB6808
:10481C001B681A68BB681340BA689A420CBF012324
:10482C000023DBB21A46FB799A42B4D00023184617
:10483C001837BD4680BD80B495B000AF78607B68FA
:10484C001B680C337B637B6B53E8003F3B633B6B18
:10485C0023F49073FB647B681B680C33FA6C3A642A
:10486C00FB63F96B3A6C41E80023BB63BB6B002B19
:10487C00E5D17B681B6814333B623B6A53E8003F0D
:10488C00FB61FB6923F00103BB647B681B68143379
:10489C00BA6CFA62BB62B96AFA6A41E800237B62BD
:1048AC007B6A002BE5D17B681B6B012B19D17B68D4
:1048BC001B680C33FB60FB6853E8003FBB60BB68B4
:1048CC0023F010037B647B681B680C337A6CBA6131
:1048DC007B617969BA6941E800233B613B69002B34
:1048EC00E5D17B68202283F842207B6800221A6382
:1048FC0000BF5437BD4680BC7047000080B584B003
:10490C0000AF78607B681B681B6923F440517B689F
:10491C00DA687B681B680A431A617B689A687B6853
:10492C001B691A437B685B691343BB607B681B681C
:10493C00DB6823F4B05323F00C037A681268B9686F
:10494C000B43D3607B681B685B6923F440717B6805
:10495C009A697B681B680A435A617B681B682C4AFE
:10496C00934203D1FEF794FEF86002E0FEF77CFE62
:10497C00F860FA6813469B0013449A001A447B684B
:10498C005B689B00B2FBF3F3224AA2FB03235B0997
:10499C001901FA6813469B0013449A001A447B6869
:1049AC005B689B00B2FBF3F21A4BA3FB02035B099F
:1049BC00642000FB03F3D31A1B013233154AA2FB0C
:1049CC0003235B0903F0F0031944FA6813469B00B8
:1049DC0013449A001A447B685B689B00B2FBF3F2A9
:1049EC000C4BA3FB02035B09642000FB03F3D31AFB
:1049FC001B013233074AA2FB03235B0903F00F02AE
:104A0C007B681B680A449A6000BF1037BD4680BDA6
:104A1C00003801401F85EB510CB430B5174B0C1E00
:104A2C001D689DB008DA8B234FF0FF302B601DB052
:104A3C00BDE8304002B070474FF40273ADF814304B
:104A4C000CBF234604F1FF33049307934FF6FF7317
:104A5C0002900690ADF81630284621AB209A02A998
:104A6C00019300F003FA431CBCBF8B232B60002C7A
:104A7C00DDD00022029B1A70D9E700BF4400002051
:104A8C000EB46FF0004100B59CB01DAB02900690C7
:104A9C00079104910848094953F8042B05910068C3
:104AAC0002A9019300F0E2F90022029B1A701CB0DB
:104ABC005DF804EB03B07047440000200802FFFFD0
:104ACC000EB44FF4017230B59CB01FAC54F8045BBB
:104ADC00ADF8142002900690FBF732FB0B4B0390C1
:104AEC000B9300230F9314934FF6FF730790084812
:104AFC00ADF816302A46234602A90068019400F04E
:104B0C0009FB1CB0BDE8304003B07047214B0008D6
:104B1C00440000200020704703460244934200D119
:104B2C00704703F8011BF9E70346C9B2184613F89E
:104B3C00012B12B18A42F9D17047002918BF00200D
:104B4C0070470A7870B56AB970BD9A4209D10C46A3
:104B5C00054614F8013F002BF6D015F8016F9E4264
:104B6C00F7D001300378002BEFD11846ECE70000AA
:104B7C00014B1868704700BF4400002070B5002638
:104B8C000C4D0D4C641BA410A64209D101F0ECF89D
:104B9C0000260A4D0A4C641BA410A64205D170BD18
:104BAC0055F8043B98470136EEE755F8043B984717
:104BBC000136F2E7407A0008407A0008407A000893
:104BCC00447A00087047704738B50546002940D034
:104BDC0051F8043C0C1F002BB8BFE41800F0DEF8B1
:104BEC001C4A136833B9636014602846BDE838402A
:104BFC0000F0DAB8A34208D9206821188B4201BF13
:104C0C0019685B6809182160EDE71A465B680BB1FF
:104C1C00A342FAD911685018A0420BD12068014464
:104C2C00501883421160E0D118685B68084410602A
:104C3C005360DAE702D90C232B60D6E720682118E1
:104C4C008B4201BF19685B6809182160636054606E
:104C5C00CBE738BD6010002070B50F4E0C463168A4
:104C6C00054611B900F032FF30602146284600F0AD
:104C7C002DFF431C03D14FF0FF34204670BDC41CE4
:104C8C0024F00304A042F8D0211A284600F01EFF9D
:104C9C000130F2D1EFE700BF5C1000202DE9F843A2
:104CAC00CD1C25F0030508350C2D38BF0C25002D27
:104CBC00064601DBA94204D90C2333600020BDE871
:104CCC00F883DFF8D48000F069F8D8F800301C467F
:104CDC0044BB29463046FFF7BFFF431C044658D15E
:104CEC00D8F800402746002F43D1002C4BD0236826
:104CFC003946304604EB030900F0E8FE814542D109
:104D0C00216830466D1A2946FFF7A6FF01303AD0CC
:104D1C0023682B442360D8F800305A6862BBC8F86B
:104D2C0000700FE02268521B20D40B2A17D961198E
:104D3C00A342256018BF5960636808BFC8F800100B
:104D4C0062514B60304600F02FF804F10B00231D2C
:104D5C0020F00700C21A1CBF1B1AA350AFE76268F1
:104D6C00A3420CBFC8F800205A60EBE723466468E6
:104D7C00AEE73C467F68B6E71A465B68A342FBD1B8
:104D8C0000235360DEE70C233046336000F00CF850
:104D9C0094E70560D6E700BF601000200148FFF7DC
:104DAC0011BF00BF581000200148FFF70CBF00BF17
:104DBC00581000202DE9F0471F468E688246BE42EF
:104DCC000C4690460B682DD8B1F90C2012F4906F5C
:104DDC0026D06569096905EB4505A3EB010905EBCF
:104DEC00D5757B1C4B446D109D4238BF1D46530539
:104DFC0027D52946FFF752FF064660B34A4621697C
:104E0C0000F082FEA38923F4906343F08003A38116
:104E1C0026614E4426603E466561A5EB0905A560FA
:104E2C00BE4200D93E4632464146206800F033FE71
:104E3C000020A3689B1BA360236833442360BDE858
:104E4C00F0872A4600F06EFE06460028E0D1504658
:104E5C002169FFF7B9FE0C23CAF80030A3894FF083
:104E6C00FF3043F04003A381E9E700002DE9F04F48
:104E7C0098468B8907461B060D4614469DB010D5E7
:104E8C000B6973B94021FFF709FF2860286130B91D
:104E9C000C233B604FF0FF301DB0BDE8F08F40237A
:104EAC006B610023099320238DF8293030234FF0B8
:104EBC000109CDF80C80DFF898818DF82A30234653
:104ECC009A4613F8012B0AB1252AF9D1BAEB040B37
:104EDC000BD05B46224629463846FFF76BFF013064
:104EEC0000F0A780099A5A4409929AF80030002BD6
:104EFC0000F09F8000234FF0FF32CDE905230AF12B
:104F0C00010A049307938DF853301A9354460522E3
:104F1C0014F8011B4E4800F0E9FD049AD8B9D006EC
:104F2C0044BF20238DF85330110744BF2B238DF839
:104F3C0053309AF800302A2B15D0544600204FF0ED
:104F4C000A0C079A214611F8013B303B092B4BD92F
:104F5C00B0B1079214E0A0EB080309FA03F3134372
:104F6C00A2460493D2E7039B191D1B680391002BE7
:104F7C00BBBF5B4242F0020207930793B8BF049297
:104F8C0023782E2B0AD163782A2B32D1039B02343F
:104F9C001A1D1B68039243EAE3730593DFF8B4A070
:104FAC0003225046217800F0A1FD38B14022049B29
:104FBC00A0EB0A00824013430134049314F8011B44
:104FCC00062225488DF8281000F090FD002836D0D8
:104FDC00224B1BBB039B073323F0070308330393BC
:104FEC00099B334409936AE70C4601200CFB0232FF
:104FFC00A8E700234FF00A0C19460134059320460C
:10500C0010F8012B303A092A03D9002BC6D0059190
:10501C00C4E7044601230CFB0121F0E703AB00932A
:10502C002A4638460E4B04A9AFF30080421C0646B4
:10503C00D6D1AB895B063FF52DAF09982CE703ABB6
:10504C0000932A463846064B04A900F047FAEDE7D0
:10505C00E6780008EC780008F07800080000000002
:10506C00C14D000838B54B1C144603D14FF0FF3529
:10507C00284638BD9389CDB223F020039381536821
:10508C00526B8AB1A26B9A4208DD23685A1E2260C9
:10509C0003F8015C636801336360E9E7214600F0C3
:1050AC00C2FC0028F1D0E1E72169226841B19142AC
:1050BC0006D212F8011CA94202D1013A2260EAE799
:1050CC00C4E90F2304F1440363630323A36323465E
:1050DC0003F8465F23600123DEE710B50C46496BED
:1050EC0069B104F14403994201D0FFF76DFD002032
:1050FC00236C6063636013B1E36B236010BD2369A1
:10510C004FF0FF30236000236360A38943F020033A
:10511C00A381F3E72DE9F0470C4600210646ADF5D7
:10512C00227DCDE94411AA490DF10408A091A949A9
:10513C00A94FCDF81881A19100931378002B00F0A2
:10514C005981F95C551C11F0080119D06368002BCA
:10515C000FDD23681A78BA5C120701D42A46ECE7F3
:10516C00459A01330132459262682360013A6260CC
:10517C00ECE721463046A19B98470028E9D0EDE7A3
:10518C00252B12D099466368002B40F3948022683B
:10519C0013784B4540F02E8163680132013B63600C
:1051AC00459B226001334593D8E741914391537855
:1051BC002A2B04BF1023951C4FF00A0208BF419301
:1051CC00A94619F8011BA1F13003092B1ED9DFF8F0
:1051DC000CA20322504600F089FC38B101234D4645
:1051EC00419AA0EB0A0083401343419315F8013B0D
:1051FC00782B06D8572B10D8252BC3D056D8002B7C
:10520C0064D0032347930A23429377E0439B4D4694
:10521C0002FB031130394391D2E7A3F15802202A43
:10522C00EFD801A151F822F0E75200080F52000804
:10523C000F520008415300080F5200080F5200088B
:10524C000F5200080F5200080F5200080F520008AE
:10525C000F520008575300083D530008BF52000876
:10526C00BF520008BF5200080F520008F952000844
:10527C000F5200080F5200080F5200080F5200087E
:10528C006753000801530008DF5200080F52000852
:10529C000F520008635300080F5200083D530008DA
:1052AC000F5200080F520008E7520008453B022B32
:1052BC00A7D8052321E021463046A19B984700281A
:1052CC003FF465AF4498002840F08C804FF0FF30DD
:1052DC008CE0419A42F020024192419A42F40072D1
:1052EC00419210226E2B429202D905E00023429388
:1052FC00032302E008234293042347936368002BA3
:10530C0039DD419B590604D423681A78BA5C12071C
:10531C0038D4479B022B47DC6B462246304641A9CA
:10532C0000F0FCF9012865D002287FF417AFC9E71B
:10533C000A22D7E72946404600F03CFB419B054634
:10534C0043F0400341930123D7E7419B43F04003D3
:10535C0041930023D1E70223CFE74198C3063FF5E1
:10536C00FDAE009B459A191D00911B68C0074CBFF0
:10537C001A801A60F2E621463046A19B9847002815
:10538C00BFD09FE7459A013245926268013A002AE4
:10539C00626002DD01332360B6E721463046A19BF3
:1053AC0098470028B0D08DE7042B06DC6B462246CC
:1053BC00304641A900F00CFAB4E7094B002B3FF43E
:1053CC00CDAE6B462246304641A9AFF30080A9E72B
:1053DC0071500008E750000835790008EC78000897
:1053EC0000000000A3895B063FF570AF0DF5227D30
:1053FC00BDE8F0874498F9E72DE9F0471646984642
:10540C008A680B6907469342B8BF1346336091F81C
:10541C0043200C46DDF820900AB101333360236839
:10542C00990642BF336802333360256815F00605D0
:10543C0006D104F1190AE36832689B1AAB422BDCE3
:10544C0094F843302268003B18BF0123920630D4F5
:10545C004146384604F14302C847013023D0236843
:10546C00226903F00603042B14BF002533684FF0A8
:10547C00000608BFE56804F11A0408BFED1A54F8D9
:10548C00123C08BF25EAE5759342C4BF9B1AED1880
:10549C00B5421AD1002008E0012352464146384655
:1054AC00C847013003D14FF0FF30BDE8F08701351C
:1054BC00C1E73020E11881F843005A1C94F84510DC
:1054CC002244023382F84310C2E7012322464146AC
:1054DC003846C8470130E6D00136D9E72DE9FF47F9
:1054EC000F7E9146782F80460C469A460C9E01F111
:1054FC00430207D8622F0AD8002F00F0D380582F10
:10550C0000F0BA8004F1420684F842703AE0A7F148
:10551C006303152BF6D801A151F823F0815500082F
:10552C009555000811550008115500081155000833
:10553C001155000895550008115500081155000823
:10554C00115500081155000897560008BF55000862
:10555C00515600081155000811550008B95600089D
:10556C0011550008BF5500081155000811550008C9
:10557C005956000833681A1D1B68326004F1420644
:10558C0084F8423001239EE033682068191D316095
:10559C00060601D51D6803E04506FBD5B3F900509E
:1055AC00002D03DA2D236D4284F843300A23594829
:1055BC0011E021683368080653F8045B02D44906ED
:1055CC0048BFADB26F2F336014BF0A230823514874
:1055DC00002184F843106668002EA8BF2168A660DD
:1055EC00A4BF21F0040121600DB9002E4BD016464A
:1055FC00B5FBF3F103FB1157C75D06F8017D2F4690
:10560C00BB420D46F4D9082B0BD12368DF0708D514
:10561C00236961689942DEBF302306F8013C06F12C
:10562C00FF36921B22614B4621464046CDF800A026
:10563C0003AAFFF7E1FE01304AD14FF0FF3004B06E
:10564C00BDE8F087236843F02003236078273248B5
:10565C0084F84570236831681F0651F8045B02D446
:10566C005F0648BFADB23160D90744BF43F0200399
:10567C0023601DB11023ABE72648E9E7236823F02C
:10568C0020032360F6E71646BDE733682568181D2E
:10569C00616930602E061B6801D5196002E068064E
:1056AC00FBD51980002316462361BCE73368002123
:1056BC001A1D32601E686268304600F017FA08B195
:1056CC00801B606063682361002384F84330AAE781
:1056DC003246494640462369D0470130ADD0236855
:1056EC009B0713D4E068039B9842B8BF1846A6E703
:1056FC000123324649464046D04701309DD0013502
:10570C00E36803995B1AAB42F2DCEBE7002504F18A
:10571C001906F5E7F7780008087900082DE9F84331
:10572C0015468A6880460C4632B98A69002A14BF2D
:10573C004FF0FF3201228A6000272268DFF88C903C
:10574C00D1065FBF1A68111D19601668A06988B16F
:10575C00012807D12B681A7863699B5C53B9002F19
:10576C0031D022E0022820D12B681B7819F80330A5
:10577C001B071AD423680137DA065EBF2B681B7827
:10578C0006F8013B2A686B6801322A60A268013B6B
:10579C00013A6B60A26042B1002BD7DC294640462F
:1057AC00D4F8803198470028D0D0236813F0100328
:1057BC0005D1E2680132E260A26902B133700020C7
:1057CC0023693B442361BDE8F88300BF35790008A9
:1057DC002DE9F04F0C469846724B87B08246164620
:1057EC0093E8070003AB83E807006F4BA1696F4A8E
:1057FC002746032908BF1A46A36801925A1EB2F520
:10580C00AE7F81BF6FF4AE7503EB050940F25D13FB
:10581C00A36057F81C3B98BF4FF000093D464FF072
:10582C00000B43F450632360316803AB0222097808
:10583C0053F82B0000F05AF928B3BBF1010F59D1E2
:10584C0062682AB908212268616042F40072226001
:10585C00226822F4A0622260A268511EA16092B15B
:10586C003268511C3160127805F8012B7268013ACC
:10587C00002A726007DC31465046D4F880219047EC
:10588C00002840F085800BF1010BBBF1030FCBD14D
:10589C0063680BB90A236360636845496069C91A78
:1058AC0000F088F84FF0000BA3682268002B3DD065
:1058BC003168606991F800C010F80C00002835D0F0
:1058CC00BCF1300F24D1100522D50BF1010BB9F12D
:1058DC00000F03D0013309F1FF39A3607368013B5A
:1058EC00002B73601BDD336801333360A368013B0D
:1058FC00A360D9E7BBF1020FAED1226802F4C061FC
:10590C00B1F5007FBFD1102142F480726160A2E733
:10591C0022F4106222600B7805F8013BDEE7314679
:10592C005046D4F8803198470028DFD02368D90539
:10593C000DD5BD4209D915F8011C32465046D4F894
:10594C007C3105F1FF3998474D46BD4228D022687D
:10595C0012F0100213D12A70394663685046019E2A
:10596C00B047D8F8003021681A1DC8F8002011F093
:10597C00200F1B680FD01860E3680133E360002030
:10598C002369ED1B5D442B44236107B0BDE8F08F08
:10599C004FF0000BCAE7CA074CBF18801860EBE742
:1059AC000120F2E7E8630008815C0008615D0008F3
:1059BC002979000870B50B7804465E2B0BBF4B7829
:1059CC004A1C8A1C002108BF0121013804F1FF0583
:1059DC0000F8011FA842FBD10BB9501E70BD81F01D
:1059EC0001011046E154024612F8015B2D2D05D041
:1059FC005D2D16D0002DF1D02B46F2E746785D2EAA
:105A0C00FAD0B342F8DC1A46023001329642A15465
:105A1C00FBDCF21A013AB342A8BF00225D1CAB18A2
:105A2C00E1E71046DAE72DE9F0410C46496B04F149
:105A3C00440399421BD14FF48061FFF72FF918B939
:105A4C004FF0FF30BDE8F0814FF48063A36394F80E
:105A5C004630606380F8FF3394F8453000F2FD3037
:105A6C00437094F84430037020600020EAE7A66B82
:105A7C0077003A4600F056F805460028E0D000EBD7
:105A8C00060801463246404600F03EF8C4E90D5780
:105A9C00C4F80080E9E7884210B501EB020402D992
:105AAC008442234607D8431EA14208D011F8012B8B
:105ABC0003F8012FF8E7014602448A4200D110BDD9
:105ACC0013F8014D02F8014DF7E7000038B500233B
