:020000040800F2
:1000000000500020111600082D15000835150008B5
:100010003D150008451500084D15000800000000BA
:10002000000000000000000000000000551500085E
:1000300061150008000000006D1500087915000822
:1000400059160008591600085916000859160008D4
:1000500059160008591600085916000859160008C4
:1000600059160008591600085916000859160008B4
:1000700059160008591600085916000859160008A4
:100080008515000859160008591600085916000869
:100090005916000859160008591600085916000884
:1000A0005916000859160008591600085916000874
:1000B0005916000859160008591600085916000864
:1000C0005916000859160008591600085916000854
:1000D0005916000859160008591600085916000844
:1000E00059160008591600085916000800000000AB
:1000F0000000000000000000000000000000000000
:0C01000000000000000000005FF808F1A3
:10010C0010B5054C237833B9044B13B10448AFF345
:10011C0000800123237010BD5C0000200000000053
:10012C000C4A000808B5034B1BB103490348AFF355
:10013C00008008BD00000000600000200C4A000890
:10014C00034613F8012B002AFBD1181A013870470B
:10015C00B0B58AB000AFF860B9607A603B6097F8D0
:10016C00443087F82630B7F84030BB84FB6B3B62D9
:10017C003B8FBB833B68BB617B687B61BB683B612E
:10018C0007F11003184600F00EF8FB681D4607F146
:10019C0010040FCC0FC594E8030085E80300F86841
:1001AC002837BD46B0BD80B582B000AF78607B68A3
:1001BC009B7D002B0CD13321786800F057F832214D
:1001CC00786800F053F82821786800F04FF803E0C5
:1001DC003821786800F04AF80121786800F046F878
:1001EC000C21786800F042F80621786800F03EF89F
:1001FC0000BF0837BD4680BD90B585B000AF7860B4
:10020C0039600023FB730AE0FB7B3A6813441B78CC
:10021C001946786800F058F8FB7B0133FB73FC7BC4
:10022C003868FFF78DFF03469C42EDD300BF00BF3B
:10023C001437BD4690BD000080B582B000AF786029
:10024C000B46FB701346BB70FB78074AD25CBB783D
:10025C001344DBB2803BDBB21946786800F006F839
:10026C0000BF0837BD4680BDB057000880B582B0CE
:10027C0000AF78600B46FB707B6898687B689B8945
:10028C000022194601F062FF7B689B7D002B11D187
:10029C00FB781B09DBB204221946786800F042F89F
:1002AC00FB7803F00F03DBB204221946786800F0E8
:1002BC0039F805E0FB7808221946786800F032F826
:1002CC0000BF0837BD4680BD80B582B000AF7860F6
:1002DC000B46FB707B6898687B689B8901221946EA
:1002EC0001F034FF7B689B7D002B11D1FB781B093F
:1002FC00DBB204221946786800F014F8FB7803F09E
:10030C000F03DBB204221946786800F00BF805E005
:10031C00FB7808221946786800F004F800BF08370B
:10032C00BD4680BD80B584B000AF78600B46FB70D5
:10033C001346BB700023FB7319E07B681A68FB7BC8
:10034C009B00134418687B685A68FB7B5B00134462
:10035C001988FA78FB7B42FA03F3DBB203F0010352
:10036C00DBB21A4601F0F2FEFB7B0133FB73FA7B26
:10037C00BB789A42E1D37B6818697B689B8A01221F
:10038C00194601F0E3FE012001F0C4F97B681869FD
:10039C007B689B8A0022194601F0D8FE00BF1037FB
:1003AC00BD4680BD80B582B000AF786000210548A5
:1003BC0002F02AFE034B1B6800225A6300BF083769
:1003CC00BD4680BDCC00002080B489B000AFF86081
:1003DC00B9607A603B600723FB6117E07A68FB69C0
:1003EC0042FA03F39BB203F0010399B2FA68134685
:1003FC005B001344DB00DA1DFB69D31A4A1C91B273
:10040C00264A22F81310FB69013BFB61FB69002BA8
:10041C00E4DA0723BB6118E0BA68BB6942FA03F35C
:10042C009BB203F0010399B2FA6813465B001344C4
:10043C00DB0003F10F02BB69D31A4A1C91B2174AB5
:10044C0022F81310BB69013BBB61BB69002BE3DADB
:10045C0007237B6118E03A687B6942FA03F39BB28D
:10046C0003F0010399B2FA6813465B001344DB00F6
:10047C0003F117027B69D31A4A1C91B2074A22F87E
:10048C0013107B69013B7B617B69002BE3DA00BFB6
:10049C0000BF2437BD4680BC704700BF200F002032
:1004AC0080B500AF4FF41073034A0021034802F0EB
:1004BC0009FC00BF80BD00BF200F0020CC00002035
:1004CC0080B586B000AF78603049786803F0F9FDEC
:1004DC0078612F49786803F0F4FD38612D4978680C
:1004EC0003F0EFFDF8607B69002B16D07B690233BB
:1004FC007B61786903F028FD0346274A1360264B7D
:10050C001B68002B02DA244B00221A60224B1B685A
:10051C00FF2B02DD204BFF221A603B69002B16D00B
:10052C003B6902333B61386903F00EFD03461B4AFD
:10053C0013601A4B1B68002B02DA184B00221A604E
:10054C00164B1B68FF2B02DD144BFF221A60FB6855
:10055C00002B16D0FB680233FB60F86803F0F4FC48
:10056C0003460F4A13600E4B1B68002B02DA0C4B30
:10057C0000221A600A4B1B68FF2B02DD084BFF227E
:10058C001A6000BF1837BD4680BD00BF244A000862
:10059C00284A00082C4A0008D8010020DC01002061
:1005AC00E001002080B582B002AF144B1A68144BE6
:1005BC001968144B1B6800930B461349134803F03E
:1005CC004BFD0E4B1A680E4B19680E4B1B680093B3
:1005DC000B460F490F4803F03FFD0C48FFF7B0FDE9
:1005EC0003461A460C4B1A600A48FFF7A9FD03464E
:1005FC001A460A4B1A6000BFBD4680BDD8010020C8
:10060C00DC010020E0010020304A0008080700202F
:10061C00384C0008080B0020180F00201C0F00207D
:10062C00B0B5ADF5207D04AF01F012F800F08AFCF6
:10063C0000F09CFD00F07CFD00F0CAFC00F04EFDCB
:10064C0000F0F4FCCA4B07F50F740FCB84E80F00D5
:10065C00C84A07F50D7392E8030083E80300384697
:10066C0007F50D7207F50F710023039320230293F6
:10067C00C14B019310230093BF4BFFF769FD07F5A6
:10068C001C73A3F51C7307F507741D460FCD0FC41F
:10069C0095E8030084E8030007F5077301220021A5
:1006AC001846FFF7C9FD07F50773B4491846FFF75D
:1006BC00A3FD4FF4FA7001F02DF8B14B00221A6033
:1006CC0007F51C73A3F5157300221A6004334FF45D
:1006DC00FE720021184603F0DFFC0123C7F86032DC
:1006EC000023002296211120FFF76EFEFFF7D8FEA3
:1006FC00A449A54803F0B0FCA44B1A68A44B196894
:10070C00A44B1B6800930B46A349A44803F0A4FC1C
:10071C009E4B1A689E4B19689E4B1B6800930B46A8
:10072C009F49A04803F098FC9F49A04803F094FC13
:10073C009548FFF705FD0346C7F858329748FFF771
:10074C00FFFC0346C7F854329648FFF7F9FC034602
:10075C00C7F850329548FFF7F3FC0346C7F84C3204
:10076C009349944803F078FC07F11C034FF4007292
:10077C000021184603F090FC8E48FFF7E1FC03467D
:10078C009AB24FF47A738B498B4803F071F907F1E5
:10079C001C0164234FF40072874803F0F4F94FF402
:1007AC00FA7000F0B7FF002387F86F322FE083490F
:1007BC00804803F051FC07F11C034FF40072002138
:1007CC00184603F069FC7B48FFF7BAFC03469AB263
:1007DC004FF47A737749784803F04AF907F11C0112
:1007EC004FF47A734FF40072734803F0CCF907F1AD
:1007FC001C037349184603F064FC0346002B02D01B
:10080C00012387F86F324FF4FA7000F083FF97F8EA
:10081C006F32002BCBD0002387F86F322FE0694961
:10082C00644803F019FC07F11C034FF4007200211B
:10083C00184603F031FC5F48FFF782FC03469AB27E
:10084C004FF47A735B495C4803F012F907F11C0111
:10085C004FF47A734FF40072574803F094F907F190
:10086C001C035749184603F02CFC0346002B02D0FE
:10087C00012387F86F324FF4FA7000F04BFF97F8B2
:10088C006F32002BCBD0002387F86F322FE04E490C
:10089C00484803F0E1FB07F11C034FF40072002100
:1008AC00184603F0F9FB4348FFF74AFC03469AB29B
:1008BC004FF47A733F49404803F0DAF807F11C0112
:1008CC004FF47A734FF400723B4803F05CF907F174
:1008DC001C033B49184603F0F4FB0346002B02D0E3
:1008EC00012387F86F324FF4FA7000F013FF97F87A
:1008FC006F32002BCBD0002387F86F322FE03349B7
:10090C002C4803F0A9FB07F11C034FF400720021E3
:10091C00184603F0C1FB2748FFF712FC03469AB2B6
:10092C004FF47A732349244803F0A2F807F11C0111
:10093C004FF47A734FF400721F4803F024F907F157
:10094C001C031F49184603F0BCFB0346002B02D0C6
:10095C00012387F86F324FF4FA7000F0DBFE97F842
:10096C006F32002BCBD0002387F86F3260E000BFD2
:10097C0098570008A857000800080140404E00088E
:10098C00D4010020444E000824020020D80100208D
:10099C00DC010020E001002048520008080700207C
:1009AC0048540008080B002044560008080F00208B
:1009BC0054560008E401002058010020605600083D
:1009CC007456000878560008A4560008C45600084F
:1009DC00C049C14803F040FB07F11C034FF40072FF
:1009EC000021184603F058FBBB48FFF7A9FB034650
:1009FC009AB24FF47A73B849B84803F039F807F152
:100A0C001C014FF47A734FF40072B44803F0BBF836
:100A1C0007F11C03B249184603F053FB0346002BA5
:100A2C0002D0012387F86F324FF4FA7000F072FE97
:100A3C0097F86F32002BCBD007F11C034FF40072E8
:100A4C000021184603F028FB07F11C014FF47A73C0
:100A5C004FF40072A14803F096F807F11C03A1496A
:100A6C00184603F02EFB0346002B03D00023C7F8D7
:100A7C0068325DE007F11C039B49184603F021FB2B
:100A8C000346002B03D00123C7F8683250E007F16E
:100A9C001C039649184603F014FB0346002B03D0A5
:100AAC000223C7F8683243E007F11C03904918464B
:100ABC0003F007FB0346002B03D00323C7F868326F
:100ACC0036E007F11C038B49184603F0FAFA03468B
:100ADC00002B03D00423C7F8683229E007F11C036C
:100AEC008549184603F0EDFA0346002B03D0052385
:100AFC00C7F868321CE007F11C038049184603F064
:100B0C00E0FA0346002B03D00623C7F868320FE047
:100B1C0007F11C037A49184603F0D3FA0346002B5D
:100B2C0003D00723C7F8683202E06423C7F86832A1
:100B3C0007F11C037349184603F0C3FA0346002B54
:100B4C0003D00023C7F8643223E007F11C036E497D
:100B5C00184603F0B6FA0346002B03D00123C7F85E
:100B6C00643216E007F11C036849184603F0A9FA31
:100B7C000346002B09D007F11C031846FFF7A0FC15
:100B8C00D7F86032C7F8643203E0D7F86032C7F8A0
:100B9C006432FFF707FDD7F86832072B00F3C480E7
:100BAC00D7F86432012B09D007F11C0357491846BA
:100BBC0003F087FA0346002B00F0B68001224FF4B5
:100BCC000051534801F0C2FA0123C7F86032D7F83C
:100BDC005822D7F850321A44D7F84C321344D7F86D
:100BEC0068224C493C4803F037FA07F11C034FF4D8
:100BFC0000720021184603F04FFA3748FFF7A0FAAD
:100C0C0003469AB24FF47A733349344802F030FFFA
:100C1C0007F11C0164234FF40072304802F0B3FF5B
:100C2C0007F11C033E21184603F03EFA0346002B45
:100C3C002AD007F11C034FF400720021184603F070
:100C4C002BFAD7F858329AB24FF47A7332492348B8
:100C5C0002F00EFFD7F850329AB24FF47A732F4944
:100C6C001E4802F005FFD7F84C329AB24FF47A7353
:100C7C002B491A4802F0FCFE07F11C0164234FF4C7
:100C8C000072164802F07FFFD7F8682225491248F7
:100C9C0003F0E2F907F11C034FF40072002118462F
:100CAC0003F0FAF90C48FFF74BFA03469AB24FF4EB
:100CBC007A730949094802F0DBFE07F11C01642331
:100CCC004FF40072054802F05EFF6423C7F86832E7
:100CDC00BEE000BFD4560008E401002058010020FB
:100CEC0074560008E8560008F0560008F85600083C
:100CFC00005700080857000810570008185700083C
:100D0C002057000828570008385700084857000893
:100D1C00001001405457000824020020080B00204A
:100D2C00080F002068570008D7F86832072B00F32B
:100D3C008F80D7F86432002B40F08A8000224FF469
:100D4C000051704801F002FA0023C7F86032D7F85E
:100D5C005822D7F854321A44D7F84C321344D7F8E7
:100D6C0068226949694803F077F907F11C034FF4CD
:100D7C0000720021184603F08FF96448FFF7E0F980
:100D8C0003469AB24FF47A736049614802F070FEE0
:100D9C0007F11C0164234FF400725D4802F0F3FE6E
:100DAC0007F11C033E21184603F07EF90346002B85
:100DBC002AD007F11C034FF400720021184603F0EF
:100DCC006BF9D7F858329AB24FF47A7351495048AC
:100DDC0002F04EFED7F854329AB24FF47A734E4961
:100DEC004B4802F045FED7F84C329AB24FF47A7366
:100DFC004A49474802F03CFE07F11C0164234FF4BA
:100E0C000072434802F0BFFED7F8682244493F48BD
:100E1C0003F022F907F11C034FF40072002118466D
:100E2C0003F03AF93948FFF78BF903469AB24FF4BD
:100E3C007A733649364802F01BFE07F11C01642315
:100E4C004FF40072324802F09EFE6423C7F86832F9
:100E5C00344B1B681A463449344803F0FDF807F547
:100E6C000773002200211846FFF7E6F907F5077310
:100E7C002E491846FFF7C0F92D4B1A682D4B1968EF
:100E8C002D4B1B6800930B462C49284803F0E4F8C3
:100E9C0007F50773002201211846FFF7CDF907F576
:100EAC00077322491846FFF7A7F90023C7F85C32ED
:100EBC0010E01F4B19681F4B1A681F4B1B68D7F8A3
:100ECC005C02FFF781FAFFF7EBFAD7F85C320133DB
:100EDC00C7F85C32D7F85C32172BEADD114B1B6874
:100EEC00591C174B83FB01235A10CB17D21A1346EC
:100EFC00DB001344CA1A0B4B1A60642000F00AFC86
:100F0C009AE500BF0010014054570008E40100208E
:100F1C00580100202402002008070020080F0020A0
:100F2C0068570008D40100207C570008A00100205D
:100F3C00D8010020DC010020E001002088570008C7
:100F4C00398EE33880B590B000AF07F11803282232
:100F5C000021184603F0A0F83B1D00221A605A60CD
:100F6C009A60DA601A610123BB614FF48033FB6134
:100F7C0000233B620123BB6202237B634FF480336B
:100F8C00BB634FF4E013FB6307F11803184601F041
:100F9C0039FA0346002B01D000F06AF90F237B606D
:100FAC000223BB600023FB604FF480633B61002392
:100FBC007B613B1D0221184601F0A6FC0346002B69
:100FCC0001D000F055F900BF4037BD4680BD000090
:100FDC0080B500AF124B134A1A60114B124A5A607B
:100FEC000F4B00229A600E4B0022DA600C4B4FF430
:100FFC0080421A610A4B00225A61094B00229A6105
:10100C00074B0022DA61064B00221A62044801F0F9
:10101C00B5F80346002B01D000F02AF900BF80BDC3
:10102C007800002000540040801A060080B58AB079
:10103C0000AF07F1200300221A605A603B1D00220A
:10104C001A605A609A60DA601A615A619A61214B8F
:10105C00214A1A601F4B1D225A601E4B00229A60B7
:10106C001C4B0222DA601B4B00221A61194B002226
:10107C009A61184801F0D6FD0346002B01D000F010
:10108C00F7F800233B6200237B6207F1200319462B
:10109C00104802F03FFC0346002B01D000F0E8F8AA
:1010AC0060237B600023BB600023FB6000237B611B
:1010BC003B1D00221946074802F06CF80346002B32
:1010CC0001D000F0D5F8034800F098F900BF28379C
:1010DC00BD4680BDCC0000200004004080B500AFB0
:1010EC00114B124A1A60104B4FF4E1325A600E4BFE
:1010FC0000229A600C4B0022DA600B4B00221A6122
:10110C00094B0C225A61084B00229A61064B0022B3
:10111C00DA61054802F05CFC0346002B01D000F0BC
:10112C00A7F800BF80BD00BF580100200038014067
:10113C0080B582B000AF0C4B5B690B4A43F00103E6
:10114C005361094B5B6903F001037B607B680022F0
:10115C000021102000F0D9FB102000F0F2FB00BFA2
:10116C000837BD4680BD00BF0010024080B588B076
:10117C0000AF07F1100300221A605A609A60DA601F
:10118C00374B9B69364A43F010039361344B9B6990
:10119C0003F01003FB60FB68314B9B69304A43F052
:1011AC00200393612E4B9B6903F02003BB60BB684B
:1011BC002B4B9B692A4A43F004039361284B9B6990
:1011CC0003F004037B607B68254B9B69244A43F046
:1011DC0008039361224B9B6903F008033B603B6857
:1011EC0000224FF400511F4800F0B0FF0022F02104
:1011FC001D4800F0ABFF002203211C4800F0A6FFA5
:10120C004FF400533B6101237B610023BB6102233C
:10121C00FB6107F110031946124800F013FEF0238E
:10122C003B6101237B610023BB610223FB6107F15E
:10123C00100319460C4800F005FE03233B61012303
:10124C007B610023BB610223FB6107F1100319468C
:10125C00064800F0F7FD00BF2037BD4680BD00BF3B
:10126C00001002400010014000080140000C014039
:10127C0080B400AF72B600BF00BFFDE780B485B08C
:10128C0000AF154B9B69144A43F001039361124B59
:10129C009B6903F00103BB60BB680F4BDB690E4A13
:1012AC0043F08053D3610C4BDB6903F080537B60BC
:1012BC007B680A4B5B68FB60FB6823F0E063FB60B8
:1012CC00FB6843F08063FB60044AFB68536000BF1B
:1012DC001437BD4680BC704700100240000001402E
:1012EC0080B588B000AF786007F1100300221A6057
:1012FC005A609A60DA607B681B68154A934223D166
:10130C00144B9B69134A43F008039361114B9B697F
:10131C0003F00803FB60FB68C0233B6112237B6175
:10132C000323FB6107F1100319460B4800F08AFDFB
:10133C00084BDB69074A43F40013D361054BDB69A7
:10134C0003F40013BB60BB6800BF2037BD4680BDF3
:10135C000054004000100240000C014080B584B0E5
:10136C0000AF78607B681B68204A934239D1204BD0
:10137C00DB691F4A43F00203D3611D4BDB6903F0A9
:10138C000203FB60FB681B4B1B4A1A60194B1022B3
:10139C005A60184B00229A60164B8022DA60154B6B
:1013AC004FF480721A61134B4FF480625A61114BE7
:1013BC0000229A610F4B0022DA610E4800F0DCFA31
:1013CC000346002B01D0FFF753FF7B68094A5A6292
:1013DC00084A7B6853627B68064A9A63054A7B68B5
:1013EC00536200BF1037BD4680BD00BF00040040F3
:1013FC0000100240140100206C00024080B588B03F
:10140C0000AF786007F10C0300221A605A609A60F2
:10141C00DA607B681B68184A934229D1174B9B6989
:10142C00164A43F008039361144B9B6903F00803BD
:10143C00BB60BB681023FB6002233B610223BB61D2
:10144C0007F10C0319460E4800F0FCFC0D4B5B68D1
:10145C00FB61FB6923F44063FB61FB6943F0E063D0
:10146C00FB61FB6943F40063FB61064AFB69536053
:10147C0000BF2037BD4680BD000400400010024074
:10148C00000C01400000014080B588B000AF7860CE
:10149C0007F1100300221A605A609A60DA607B68C8
:1014AC001B681C4A934231D11B4B9B691A4A43F46B
:1014BC0080439361184B9B6903F48043FB60FB688A
:1014CC00154B9B69144A43F004039361124B9B69BF
:1014DC0003F00403BB60BB684FF400733B61022351
:1014EC007B610323FB6107F1100319460B4800F0E5
:1014FC00A9FC4FF480633B6100237B610023BB613B
:10150C0007F110031946054800F09CFC00BF20377A
:10151C00BD4680BD0038014000100240000801406B
:10152C0080B400AF00BFFDE780B400AF00BFFDE7A3
:10153C0080B400AF00BFFDE780B400AF00BFFDE793
:10154C0080B400AF00BFFDE780B400AF00BFBD4664
:10155C0080BC704780B400AF00BFBD4680BC7047F4
:10156C0080B400AF00BFBD4680BC704780B500AFF3
:10157C0000F0B4F800BF80BD80B500AF024800F0A9
:10158C002DFB00BF80BD00BF1401002080B586B0CC
:10159C0000AF7860144A154BD31A7B617B693B61B1
:1015AC00134B1B68002B02D1114B124A1A60104BC3
:1015BC001A687B6813443A699A4207D202F098FD84
:1015CC0003460C221A604FF0FF3309E0084B1B68EE
:1015DC00FB60074B1A687B681344054A1360FB6871
:1015EC0018461837BD4680BD00500020000400008E
:1015FC00A0130020F014002080B400AF00BFBD4643
:10160C0080BC7047FFF7F8FF0B480C490C4A0023CD
:10161C0002E0D458C4500433C4188C42F9D3094A9C
:10162C00094C002301E013600432A242FBD302F008
:10163C0065FDFEF7F5FF7047000000205C00002000
:10164C00245900085C000020F0140020FEE7000084
:10165C0080B500AF084B1B68074A43F010031360BA
:10166C00032000F047F90F2000F008F8FFF706FE02
:10167C000023184680BD00BF0020024080B582B018
:10168C0000AF7860124B1A68124B1B7819464FF456
:10169C007A73B3FBF1F3B2FBF3F3184600F05FF986
:1016AC000346002B01D001230EE07B680F2B0AD8D8
:1016BC00002279684FF0FF3000F027F9064A7B686A
:1016CC001360002300E0012318460837BD4680BD97
:1016DC0000000020080000200400002080B400AFAF
:1016EC00054B1B781A46054B1B681344034A1360C1
:1016FC0000BFBD4680BC704708000020A41300202A
:10170C0080B400AF024B1B681846BD4680BC7047C6
:10171C00A413002080B584B000AF7860FFF7F0FF11
:10172C00B8607B68FB60FB68B3F1FF3F05D00A4BE8
:10173C001B781A46FB681344FB6000BFFFF7E0FF01
:10174C000246BB68D31AFA689A42F7D800BF00BFAA
:10175C001037BD4680BD00BF0800002080B485B0A6
:10176C0000AF78607B6803F00703FB600C4BDB6811
:10177C00BB60BA684FF6FF031340BB60FB681A02EC
:10178C00BB68134343F0BF6343F40033BB60044AAC
:10179C00BB68D36000BF1437BD4680BC704700BF28
:1017AC0000ED00E080B400AF044BDB681B0A03F0D3
:1017BC0007031846BD4680BC704700BF00ED00E033
:1017CC0080B483B000AF0346FB7197F90730002B50
:1017DC000BDBFB7903F01F02064997F907305B0915
:1017EC00012000FA02F241F8232000BF0C37BD465D
:1017FC0080BC704700E100E080B483B000AF0346CA
:10180C003960FB7197F90730002B0ADB3B68DAB2C1
:10181C000C4997F907301201D2B20B4483F800231C
:10182C000AE03B68DAB20849FB7903F00F03043B8A
:10183C001201D2B20B441A7600BF0C37BD4680BCE5
:10184C00704700BF00E100E000ED00E080B489B01B
:10185C0000AFF860B9607A60FB6803F00703FB61C6
:10186C00FB69C3F10703042B28BF0423BB61FB698D
:10187C000433062B02D9FB69033B00E000237B6198
:10188C004FF0FF32BB6902FA03F3DA43BB681A402C
:10189C007B699A404FF0FF317B6901FA03F3D9431E
:1018AC007B680B40134318462437BD4680BC7047F9
:1018BC0080B582B000AF78607B68013BB3F1807F6C
:1018CC0001D301230FE00A4A7B68013B53600F21CF
:1018DC004FF0FF30FFF790FF054B00229A60044B4E
:1018EC0007221A60002318460837BD4680BD00BF8A
:1018FC0010E000E080B582B000AF78607868FFF748
:10190C002DFF00BF0837BD4680BD80B586B000AF47
:10191C000346B9607A60FB7300237B61FFF742FFDB
:10192C0078617A68B9687869FFF790FF024697F991
:10193C000F3011461846FFF75FFF00BF1837BD4642
:10194C0080BD80B582B000AF0346FB7197F90730BC
:10195C001846FFF735FF00BF0837BD4680BD80B580
:10196C0082B000AF78607868FFF7A2FF0346184694
:10197C000837BD4680BD000080B485B000AF7860EC
:10198C000023FB607B68002B01D1012343E07B68C3
:10199C001B681A46224B1344224AA2FB03231B0941
:1019AC009A007B681A647B681F4ADA637B680222A0
:1019BC0083F821207B681B681B68FB60FB6823F4A1
:1019CC007F5323F03003FB607B685A687B689B680D
:1019DC001A437B68DB681A437B681B691A437B6874
:1019EC005B691A437B689B691A437B68DB69134309
:1019FC00FA681343FB607B681B68FA681A607B68A3
:101A0C0000229A637B68012283F821207B680022E4
:101A1C0083F82020002318461437BD4680BC70473D
:101A2C00F8FFFDBFCDCCCCCC0000024080B586B019
:101A3C0000AFF860B9607A603B600023FB75FB680F
:101A4C0093F82030012B01D102234BE0FB680122DB
:101A5C0083F82020FB6893F82130DBB2012B3AD1BC
:101A6C00FB68022283F82120FB6800229A63FB6842
:101A7C001B681A68FB681B6822F001021A603B683D
:101A8C007A68B968F86800F0AFF9FB68DB6A002B7C
:101A9C0008D0FB681B681A68FB681B6842F00E02D2
:101AAC001A600FE0FB681B681A68FB681B6822F061
:101ABC0004021A60FB681B681A68FB681B6842F01A
:101ACC000A021A60FB681B681A68FB681B6842F004
:101ADC0001021A6005E0FB68002283F82020022333
:101AEC00FB75FB7D18461837BD4680BD80B584B0AC
:101AFC0000AF78600023FB737B6893F82130DBB276
:101B0C00022B05D07B6804229A630123FB7351E0FE
:101B1C007B681B681A687B681B6822F00E021A60CF
:101B2C007B681B681A687B681B6822F001021A60CC
:101B3C007B681B68224A934229D07B681B68214A28
:101B4C00934222D07B681B681F4A93421AD07B6851
:101B5C001B681E4A934212D07B681B681C4A934236
:101B6C000AD07B681B681B4A934202D14FF4801346
:101B7C000EE04FF080730BE04FF4803308E04FF42D
:101B8C00805305E04FF4807302E0102300E0012342
:101B9C00114A53607B68012283F821207B68002264
:101BAC0083F820207B685B6B002B03D07B685B6B1E
:101BBC0078689847FB7B18461037BD4680BD00BF40
:101BCC00080002401C000240300002404400024069
:101BDC00580002406C0002400000024080B584B006
:101BEC0000AF78607B68DB6B1B68FB607B681B68F5
:101BFC001B68BB607B681B6C04229A40FB6813401B
:101C0C00002B4FD0BB6803F00403002B4AD07B6839
:101C1C001B681B6803F02003002B07D17B681B6833
:101C2C001A687B681B6822F004021A607B681B68C8
:101C3C00664A934229D07B681B68654A934222D03E
:101C4C007B681B68634A93421AD07B681B68624AA4
:101C5C00934212D07B681B68604A93420AD07B681F
:101C6C001B685F4A934202D14FF480030EE04FF0A1
:101C7C0080630BE04FF4802308E04FF4804305E0D1
:101C8C004FF4806302E0402300E00423554A536084
:101C9C007B68DB6A002B00F094807B68DB6A7868D9
:101CAC0098478EE07B681B6C02229A40FB681340BD
:101CBC00002B56D0BB6803F00203002B51D07B687D
:101CCC001B681B6803F02003002B0BD17B681B687F
:101CDC001A687B681B6822F00A021A607B68012272
:101CEC0083F821207B681B68384A934229D07B6893
:101CFC001B68374A934222D07B681B68354A934253
:101D0C001AD07B681B68344A934212D07B681B68DC
:101D1C00324A93420AD07B681B68314A934202D103
:101D2C004FF400130EE04FF000730BE04FF4003350
:101D3C0008E04FF4005305E04FF4007302E0202359
:101D4C0000E00223274A53607B68002283F820209E
:101D5C007B689B6A002B34D07B689B6A78689847B9
:101D6C002FE07B681B6C08229A40FB681340002B09
:101D7C0028D0BB6803F00803002B23D07B681B68BA
:101D8C001A687B681B6822F00E021A607B681A6C5A
:101D9C007B68DB6B012101FA02F25A607B6801223D
:101DAC009A637B68012283F821207B68002283F8E8
:101DBC0020207B681B6B002B04D07B681B6B786826
:101DCC00984700BF00BF1037BD4680BD08000240D9
:101DDC001C00024030000240440002405800024007
:101DEC006C0002400000024080B485B000AFF86087
:101DFC00B9607A603B60FB681A6CFB68DB6B012195
:101E0C0001FA02F25A60FB681B683A685A60FB6878
:101E1C005B68102B08D1FB681B687A689A60FB68BA
:101E2C001B68BA68DA6007E0FB681B68BA689A60DE
:101E3C00FB681B687A68DA6000BF1437BD4680BC4B
:101E4C007047000080B48BB000AF7860396000231D
:101E5C007B6200233B6269E101227B6A02FA03F395
:101E6C00FB613B681B68FA691340BB61BA69FB698B
:101E7C009A4240F058813B685B689A4A93425ED024
:101E8C00984A934275D8984A934258D0964A9342AE
:101E9C006FD8964A934252D0944A934269D8944A46
:101EAC0093424CD0924A934263D8924A934246D082
:101EBC00904A93425DD8122B2AD8122B59D801A2E2
:101ECC0052F823F04B1F0008251F0008371F00088D
:101EDC00791F00087F1F00087F1F00087F1F000864
:101EEC007F1F00087F1F00087F1F00087F1F00084E
:101EFC007F1F00087F1F00087F1F00087F1F00083E
:101F0C007F1F00087F1F00082D1F0008411F0008BD
:101F1C00794A934213D02CE03B68DB683B6229E0A2
:101F2C003B68DB6804333B6224E03B68DB680833C6
:101F3C003B621FE03B68DB680C333B621AE03B689A
:101F4C009B68002B02D104233B6213E03B689B6827
:101F5C00012B05D108233B627B68FA691A6109E001
:101F6C0008233B627B68FA695A6103E000233B62F9
:101F7C0000E000BFBB69FF2B01D87B6801E07B68E8
:101F8C0004337B61BB69FF2B02D87B6A9B0002E0A8
:101F9C007B6A083B9B003B617B691A680F213B699C
:101FAC0001FA03F3DB431A40396A3B6901FA03F384
:101FBC001A437B691A603B685B6803F08053002B03
:101FCC0000F0B1804D4B9B694C4A43F00103936187
:101FDC004A4B9B6903F00103BB60BB68484A7B6AB0
:101FEC009B08023352F82330FB607B6A03F0030337
:101FFC009B000F2202FA03F3DB43FA681340FB60E9
:10200C007B68404A934213D07B683F4A93420DD081
:10201C007B683E4A934207D07B683D4A934201D18C
:10202C00032306E0042304E0022302E0012300E082
:10203C0000237A6A02F0030292009340FA68134379
:10204C00FB602F497B6A9B080233FA6841F8232016
:10205C003B685B6803F48013002B06D02D4B9A6809
:10206C002C49BB6913438B6006E02A4B9A68BB6909
:10207C00DB43284913408B603B685B6803F4001317
:10208C00002B06D0234BDA682249BB691343CB6083
:10209C0006E0204BDA68BB69DB431E491340CB607A
:1020AC003B685B6803F40033002B06D0194B5A686D
:1020BC001849BB6913434B6006E0164B5A68BB6961
:1020CC00DB43144913404B603B685B6803F480337B
:1020DC00002B21D00F4B1A680E49BB6913430B60C0
:1020EC0021E000BF0000321000003110000022106F
:1020FC00000021100000121000001110001002400E
:10210C000000014000080140000C0140001001409B
:10211C0000140140000401400B4B1A68BB69DB43FF
:10212C00094913400B607B6A01337B623B681A6878
:10213C007B6A22FA03F3002B7FF48EAE00BF00BF44
:10214C002C37BD4680BC70470004014080B483B07E
:10215C0000AF78600B467B8013467B707B78002B3E
:10216C0003D07A887B681A6103E07B881A047B6849
:10217C001A6100BF0C37BD4680BC704780B584B077
:10218C0000AF78607B68002B01D101232BE17B68C9
:10219C0093F83D30DBB2002B06D17B68002283F82C
:1021AC003C207868FFF79CF87B68242283F83D205C
:1021BC007B681B681A687B681B6822F001021A6036
:1021CC007B681B681A687B681B6842F400421A60C3
:1021DC007B681B681A687B681B6822F400421A60D3
:1021EC0000F0DAFCF8607B685B68814A934207D8A0
:1021FC00FB68804A934294BF01230023DBB206E0C4
:10220C00FB687D4A934294BF01230023DBB2002B71
:10221C0001D00123E7E0FB68784AA2FB03239B0C67
:10222C00BB607B681B685B6823F03F017B681B68A5
:10223C00BA680A435A607B681B681B6A23F03F012B
:10224C007B685B686A4A934202D8BB68013309E039
:10225C00BB684FF4967202FB03F3694AA2FB03239B
:10226C009B0901337A6812680B4313627B681B6805
:10227C00DB6923F44F4222F0FF027B685B685C4908
:10228C008B4219D8FB68591E7B685B685B00B1FBFD
:10229C00F3F3591C40F6FC730B40002B0AD0FB687F
:1022AC00591E7B685B685B00B1FBF3F30133C3F32E
:1022BC000B0351E004234FE07B689B68002B11D18A
:1022CC00FB68581E7B6859680B465B000B44B0FBDF
:1022DC00F3F30133C3F30B03002B0CBF01230023D7
:1022EC00DBB212E0FB68581E7B6859680B469B00FA
:1022FC000B4499000B44B0FBF3F30133C3F30B0312
:10230C00002B0CBF01230023DBB2002B01D00123D7
:10231C0022E07B689B68002B0ED1FB68581E7B6803
:10232C0059680B465B000B44B0FBF3F30133C3F36A
:10233C000B0343F400430FE0FB68581E7B6859689D
:10234C000B469B000B4499000B44B0FBF3F3013399
:10235C00C3F30B0343F44043796809681343CB611F
:10236C007B681B681B6823F0C0017B68DA697B689B
:10237C001B6A1A437B681B680A431A607B681B68DC
:10238C009B6823F4034323F0FF037A6811697A688E
:10239C00D26811437A6812680B4393607B681B68A0
:1023AC00DB6823F0FF017B685A697B689B691A43E1
:1023BC007B681B680A43DA607B681B681A687B6859
:1023CC001B6842F001021A607B6800221A647B6869
:1023DC00202283F83D207B6800221A637B68002250
:1023EC0083F83E20002318461037BD4680BD00BF41
:1023FC00A08601007F841E00FF083D0083DE1B4386
:10240C00D34D621080B586B000AF78607B68002B2E
:10241C0001D1012372E27B681B6803F00103002BDE
:10242C0000F08780924B5B6803F00C03042B0CD0FC
:10243C008F4B5B6803F00C03082B12D18C4B5B6841
:10244C0003F48033B3F5803F0BD1894B1B6803F445
:10245C000033002B6CD07B685B68002B68D10123A8
:10246C004CE27B685B68B3F5803F06D1804B1B6800
:10247C007F4A43F4803313602EE07B685B68002B4B
:10248C000CD17B4B1B687A4A23F480331360784B56
:10249C001B68774A23F4802313601DE07B685B681C
:1024AC00B3F5A02F0CD1724B1B68714A43F48023F7
:1024BC0013606F4B1B686E4A43F4803313600BE060
:1024CC006B4B1B686A4A23F480331360684B1B68A0
:1024DC00674A23F4802313607B685B68002B13D05E
:1024EC00FFF70EF9386108E0FFF70AF902463B697D
:1024FC00D31A642B01D9032300E25D4B1B6803F450
:10250C000033002BF0D014E0FFF7FAF8386108E044
:10251C00FFF7F6F802463B69D31A642B01D9032363
:10252C00ECE1534B1B6803F40033002BF0D100E0BB
:10253C0000BF7B681B6803F00203002B63D04C4B7D
:10254C005B6803F00C03002B0BD0494B5B6803F06A
:10255C000C03082B1CD1464B5B6803F48033002B17
:10256C0016D1434B1B6803F00203002B05D07B688C
:10257C001B69012B01D00123C0E13D4B1B6823F0EB
:10258C00F8027B685B69DB00394913430B603AE066
:10259C007B681B69002B20D0364B01221A60FFF799
:1025AC00AFF8386108E0FFF7ABF802463B69D31A85
:1025BC00022B01D90323A1E12D4B1B6803F002036D
:1025CC00002BF0D02A4B1B6823F0F8027B685B6968
:1025DC00DB00274913430B6015E0264B00221A60E1
:1025EC00FFF78EF8386108E0FFF78AF802463B697E
:1025FC00D31A022B01D9032380E11D4B1B6803F076
:10260C000203002BF0D17B681B6803F00803002B3E
:10261C003AD07B689B69002B19D0174B01221A60AA
:10262C00FFF76EF8386108E0FFF76AF802463B697D
:10263C00D31A022B01D9032360E10D4B5B6A03F023
:10264C000203002BF0D0012000F0CEFA1CE00A4B64
:10265C0000221A60FFF754F838610FE0FFF750F8CA
:10266C0002463B69D31A022B08D9032346E100BF6B
:10267C00001002400000424280044242924B5B6ACE
:10268C0003F00203002BE9D17B681B6803F0040301
:10269C00002B00F0A6800023FB758B4BDB6903F04D
:1026AC008053002B0DD1884BDB69874A43F0805354
:1026BC00D361854BDB6903F08053BB60BB6801239E
:1026CC00FB75824B1B6803F48073002B18D17F4B76
:1026DC001B687E4A43F480731360FFF711F838616E
:1026EC0008E0FFF70DF802463B69D31A642B01D9B9
:1026FC00032303E1754B1B6803F48073002BF0D0AC
:10270C007B68DB68012B06D16F4B1B6A6E4A43F06A
:10271C00010313622DE07B68DB68002B0CD16A4B44
:10272C001B6A694A23F001031362674B1B6A664AF2
:10273C0023F0040313621CE07B68DB68052B0CD1CF
:10274C00614B1B6A604A43F0040313625E4B1B6AC5
:10275C005D4A43F0010313620BE05B4B1B6A5A4A60
:10276C0023F001031362584B1B6A574A23F00403EE
:10277C0013627B68DB68002B15D0FEF7C1FF386154
:10278C000AE0FEF7BDFF02463B69D31A41F28832DC
:10279C00934201D90323B1E04B4B1B6A03F00203B4
:1027AC00002BEED014E0FEF7ABFF38610AE0FEF729
:1027BC00A7FF02463B69D31A41F28832934201D9F2
:1027CC0003239BE0404B1B6A03F00203002BEED16A
:1027DC00FB7D012B05D13C4BDB693B4A23F080533D
:1027EC00D3617B68DB69002B00F08780364B5B681C
:1027FC0003F00C03082B61D07B68DB69022B46D1FC
:10280C00334B00221A60FEF77BFF386108E0FEF7BD
:10281C0077FF02463B69D31A022B01D903236DE0E3
:10282C00294B1B6803F00073002BF0D17B681B6AEB
:10283C00B3F5803F08D1244B5B6823F400327B68EE
:10284C009B68214913434B601F4B5B6823F4741244
:10285C007B68196A7B685B6A0B431B4913434B60AB
:10286C001B4B01221A60FEF74BFF386108E0FEF7A4
:10287C0047FF02463B69D31A022B01D903233DE0E3
:10288C00114B1B6803F00073002BF0D035E0104B9C
:10289C0000221A60FEF734FF386108E0FEF730FFC3
:1028AC0002463B69D31A022B01D9032326E0064BBF
:1028BC001B6803F00073002BF0D11EE07B68DB6912
:1028CC00012B07D1012319E00010024000700040D9
:1028DC00600042420B4B5B68FB60FB6803F4803288
:1028EC007B681B6A9A4206D1FB6803F470127B6802
:1028FC005B6A9A4201D0012300E000231846183786
:10290C00BD4680BD0010024080B584B000AF786039
:10291C0039607B68002B01D10123D0E06A4B1B6826
:10292C0003F007033A689A4210D9674B1B6823F0EF
:10293C00070265493B6813430B60634B1B6803F04C
:10294C0007033A689A4201D00123B8E07B681B6800
:10295C0003F00203002B20D07B681B6803F00403F8
:10296C00002B05D0594B5B68584A43F4E063536025
:10297C007B681B6803F00803002B05D0534B5B6886
:10298C00524A43F460535360504B5B6823F0F0029F
:10299C007B689B684D4913434B607B681B6803F055
:1029AC000103002B40D07B685B68012B07D1474BA0
:1029BC001B6803F40033002B15D101237FE07B68E7
:1029CC005B68022B07D1414B1B6803F00073002B93
:1029DC0009D1012373E03D4B1B6803F00203002B6C
:1029EC0001D101236BE0394B5B6823F003027B6858
:1029FC005B68364913434B60FEF782FEF8600AE0D1
:102A0C00FEF77EFE0246FB68D31A41F288329342EF
:102A1C0001D9032353E02D4B5B6803F00C027B6858
:102A2C005B689B009A42EBD1274B1B6803F00703B2
:102A3C003A689A4210D2244B1B6823F007022249B1
:102A4C003B6813430B60204B1B6803F007033A6889
:102A5C009A4201D0012332E07B681B6803F0040327
:102A6C00002B08D0194B5B6823F4E0627B68DB68B1
:102A7C00164913434B607B681B6803F00803002B5B
:102A8C0009D0124B5B6823F460527B681B69DB0036
:102A9C000E4913434B6000F021F802460B4B5B6868
:102AAC001B0903F00F030A49CB5C22FA03F3094A12
:102ABC001360094B1B681846FEF7E0FD002318460F
:102ACC001037BD4680BD00BF002002400010024000
:102ADC00B4570008000000200400002080B487B028
:102AEC0000AF0023FB600023BB6000237B6100234D
:102AFC007B6000233B611E4B5B68FB60FB6803F053
:102B0C000C03042B02D0082B03D027E0194B3B619C
:102B1C0027E0FB689B0C03F00F03174AD35C7B6028
:102B2C00FB6803F48033002B10D0114B5B685B0CFB
:102B3C0003F00103114AD35CBB607B680D4A03FBB5
:102B4C0002F2BB68B2FBF3F37B6104E07B680C4AD6
:102B5C0002FB03F37B617B693B6102E0054B3B614C
:102B6C0000BF3B6918461C37BD4680BC704700BF90
:102B7C000010024000127A00CC570008DC57000805
:102B8C0000093D0080B400AF024B1B681846BD46DF
:102B9C0080BC70470000002080B500AFFFF7F2FF4B
:102BAC000246054B5B681B0A03F007030349CB5C29
:102BBC0022FA03F3184680BD00100240C4570008E7
:102BCC0080B500AFFFF7DEFF0246054B5B68DB0A02
:102BDC0003F007030349CB5C22FA03F3184680BDCC
:102BEC0000100240C457000880B485B000AF786074
:102BFC000A4B1B680A4AA2FB03235B0A7A6802FB96
:102C0C0003F3FB6000BFFB685A1EFA60002BF9D17E
:102C1C0000BF00BF1437BD4680BC704700000020C9
:102C2C00D34D621080B582B000AF78607B68002B0A
:102C3C0001D1012341E07B6893F83D30DBB2002BDE
:102C4C0006D17B68002283F83C207868FEF786FB6F
:102C5C007B68022283F83D207B681A687B6804330A
:102C6C001946104600F03CFC7B68012283F8462094
:102C7C007B68012283F83E207B68012283F83F2089
:102C8C007B68012283F840207B68012283F8412075
:102C9C007B68012283F842207B68012283F8432061
:102CAC007B68012283F844207B68012283F845204D
:102CBC007B68012283F83D20002318460837BD4667
:102CCC0080BD000080B586B000AFF860B9607A6056
:102CDC007B800023FB75BB68002B09D1FB6893F844
:102CEC003E30DBB2022B0CBF01230023DBB222E00F
:102CFC00BB68042B09D1FB6893F83F30DBB2022B85
:102D0C000CBF01230023DBB215E0BB68082B09D1F3
:102D1C00FB6893F84030DBB2022B0CBF012300237D
:102D2C00DBB208E0FB6893F84130DBB2022B0CBF3E
:102D3C0001230023DBB2002B01D0022353E1BB683B
:102D4C00002B09D1FB6893F83E30DBB2012B0CBF92
:102D5C0001230023DBB222E0BB68042B09D1FB6802
:102D6C0093F83F30DBB2012B0CBF01230023DBB205
:102D7C0015E0BB68082B09D1FB6893F84030DBB237
:102D8C00012B0CBF01230023DBB208E0FB6893F896
:102D9C004130DBB2012B0CBF01230023DBB2002B33
:102DAC0024D07B68002B02D07B88002B01D101231F
:102DBC0019E1BB68002B04D1FB68022283F83E208A
:102DCC0016E0BB68042B04D1FB68022283F83F2079
:102DDC000EE0BB68082B04D1FB68022283F840206C
:102DEC0006E0FB68022283F8412001E00123FAE0AF
:102DFC00BB680C2B00F2AE8001A252F823F000BF8E
:102E0C00412E0008612F0008612F0008612F000877
:102E1C00892E0008612F0008612F0008612F00081F
:102E2C00D12E0008612F0008612F0008612F0008C7
:102E3C00192F0008FB685B6A6D4A9A62FB685B6A33
:102E4C006C4ADA62FB685B6A6B4A1A63FB68586A05
:102E5C007968FB681B6834331A467B88FEF7E6FDFD
:102E6C000346002B01D00123BDE0FB681B68DA6828
:102E7C00FB681B6842F40072DA606EE0FB689B6AC8
:102E8C005B4A9A62FB689B6A5A4ADA62FB689B6AE5
:102E9C00594A1A63FB68986A7968FB681B6838336F
:102EAC001A467B88FEF7C2FD0346002B01D0012396
:102EBC0099E0FB681B68DA68FB681B6842F4806267
:102ECC00DA604AE0FB68DB6A494A9A62FB68DB6AB3
:102EDC00484ADA62FB68DB6A474A1A63FB68D86ABD
:102EEC007968FB681B683C331A467B88FEF79EFDAD
:102EFC000346002B01D0012375E0FB681B68DA68E0
:102F0C00FB681B6842F40062DA6026E0FB681B6B0E
:102F1C00374A9A62FB681B6B364ADA62FB681B6B9A
:102F2C00354A1A63FB68186B7968FB681B68403379
:102F3C001A467B88FEF77AFD0346002B01D001234D
:102F4C0051E0FB681B68DA68FB681B6842F480522E
:102F5C00DA6002E00123FB7500BFFB7D002B41D141
:102F6C00FB681B680122B968184600F0AFFCFB68CF
:102F7C001B68224A934207D1FB681B685A6CFB689A
:102F8C001B6842F400425A64FB681B681B4A93425C
:102F9C000ED0FB681B68B3F1804F09D0FB681B682F
:102FAC00174A934204D0FB681B68164A934211D10E
:102FBC00FB681B689B6803F007033B613B69062BAE
:102FCC0010D0FB681B681A68FB681B6842F0010292
:102FDC001A6007E0FB681B681A68FB681B6842F004
:102FEC0001021A60FB7D18461837BD4680BD00BF34
:102FFC00DB3300088334000849330008002C0140FF
:10300C00000400400008004080B584B000AF786038
:10301C0039600023FB733B680C2B55D801A252F886
:10302C0023F000BF65300008D5300008D53000080B
:10303C00D530000881300008D5300008D5300008A4
:10304C00D53000089D300008D5300008D530000878
:10305C00D5300008B93000087B681B68DA687B68DB
:10306C001B6822F40072DA607B685B6A1846FEF714
:10307C003DFD2CE07B681B68DA687B681B6822F4DA
:10308C008062DA607B689B6A1846FEF72FFD1EE0B3
:10309C007B681B68DA687B681B6822F40062DA6064
:1030AC007B68DB6A1846FEF721FD10E07B681B6825
:1030BC00DA687B681B6822F48052DA607B681B6BD1
:1030CC001846FEF713FD02E00123FB7300BFFB7BE8
:1030DC00002B57D17B681B6800223968184600F01A
:1030EC00F5FB7B681B682A4A934217D17B681B68E7
:1030FC001A6A41F211131340002B0FD17B681B6825
:10310C001A6A40F244431340002B07D17B681B68BA
:10311C005A6C7B681B6822F400425A647B681B68FB
:10312C001A6A41F211131340002B0FD17B681B68F4
:10313C001A6A40F244431340002B07D17B681B688A
:10314C001A687B681B6822F001021A603B68002B2E
:10315C0004D17B68012283F83E2013E03B68042BEA
:10316C0004D17B68012283F83F200BE03B68082BDD
:10317C0004D17B68012283F8402003E07B680122A4
:10318C0083F84120FB7B18461037BD4680BD00BF3D
:10319C00002C014080B586B000AFF860B9607A6051
:1031AC000023FB75FB6893F83C30012B01D1022303
:1031BC00AEE0FB68012283F83C207B680C2B00F20C
:1031CC009F8001A252F823F0093200080D33000849
:1031DC000D3300080D330008493200080D33000888
:1031EC000D3300080D3300088B3200080D33000836
:1031FC000D3300080D330008CB320008FB681B6848
:10320C00B968184600F0DAF9FB681B689A69FB6824
:10321C001B6842F008029A61FB681B689A69FB689C
:10322C001B6822F004029A61FB681B689969BB68F1
:10323C001A69FB681B680A439A6164E0FB681B68A7
:10324C00B968184600F020FAFB681B689A69FB689D
:10325C001B6842F400629A61FB681B689A69FB6800
:10326C001B6822F480629A61FB681B689969BB68D1
:10327C001B691A02FB681B680A439A6143E0FB68EE
:10328C001B68B968184600F069FAFB681B68DA69B4
:10329C00FB681B6842F00802DA61FB681B68DA699C
:1032AC00FB681B6822F00402DA61FB681B68D969B1
:1032BC00BB681A69FB681B680A43DA6123E0FB6888
:1032CC001B68B968184600F0B3FAFB681B68DA692A
:1032DC00FB681B6842F40062DA61FB681B68DA6900
:1032EC00FB681B6822F48062DA61FB681B68D96991
:1032FC00BB681B691A02FB681B680A43DA6102E0AF
:10330C000123FB7500BFFB68002283F83C20FB7D8A
:10331C0018461837BD4680BD80B483B000AF7860C6
:10332C0000BF0C37BD4680BC704780B483B000AF83
:10333C00786000BF0C37BD4680BC704780B584B048
:10334C0000AF78607B685B6AFB60FB685B6A7A68DD
:10335C009A4207D1FB6801221A77FB68012283F895
:10336C003E202AE0FB689B6A7A689A4207D1FB6888
:10337C0002221A77FB68012283F83F201DE0FB68CC
:10338C00DB6A7A689A4207D1FB6804221A77FB68D9
:10339C00012283F8402010E0FB681B6B7A689A428C
:1033AC0007D1FB6808221A77FB68012283F84120B9
:1033BC0003E0FB68012283F83D20F868FFF7B5FFB6
:1033CC00FB6800221A7700BF1037BD4680BD80B560
:1033DC0084B000AF78607B685B6AFB60FB685B6AFB
:1033EC007A689A420BD1FB6801221A777B689B6939
:1033FC00002B36D1FB68012283F83E2031E0FB68BC
:10340C009B6A7A689A420BD1FB6802221A777B6816
:10341C009B69002B25D1FB68012283F83F2020E01B
:10342C00FB68DB6A7A689A420BD1FB6804221A7734
:10343C007B689B69002B14D1FB68012283F8402028
:10344C000FE0FB681B6B7A689A420AD1FB68082272
:10345C001A777B689B69002B03D1FB68012283F8E8
:10346C004120F868FCF79EFFFB6800221A7700BF2A
:10347C001037BD4680BD80B584B000AF78607B68E6
:10348C005B6AFB60FB685B6A7A689A4203D1FB68F3
:10349C0001221A7719E0FB689B6A7A689A4203D179
:1034AC00FB6802221A7710E0FB68DB6A7A689A42A2
:1034BC0003D1FB6804221A7707E0FB681B6B7A6860
:1034CC009A4202D1FB6808221A77F868FFF724FFAA
:1034DC00FB6800221A7700BF1037BD4680BD000084
:1034EC0080B485B000AF786039607B681B68FB6086
:1034FC007B682F4A93420BD07B68B3F1804F07D087
:10350C007B682C4A934203D07B682B4A934208D1A8
:10351C00FB6823F07003FB603B685B68FA6813433D
:10352C00FB607B68224A93420BD07B68B3F1804FDF
:10353C0007D07B681F4A934203D07B681E4A934294
:10354C0008D1FB6823F44073FB603B68DB68FA68C6
:10355C001343FB60FB6823F080023B685B691343F9
:10356C00FB607B68FA681A603B689A687B68DA6271
:10357C003B681A687B689A627B680D4A934203D158
:10358C003B681A697B681A637B6801225A617B6805
:10359C001B6903F00103002B05D07B681B6923F02A
:1035AC0001027B681A6100BF1437BD4680BC7047AE
:1035BC00002C0140000400400008004080B487B09B
:1035CC0000AF786039607B681B6A7B617B681B6A23
:1035DC0023F001027B681A627B685B683B617B6845
:1035EC009B69FB60FB6823F07003FB60FB6823F0B6
:1035FC000303FB603B681B68FA681343FB607B6941
:10360C0023F002037B613B689B687A6913437B61FF
:10361C007B681C4A93420CD17B6923F008037B61C5
:10362C003B68DB687A6913437B617B6923F0040395
:10363C007B617B68134A934211D13B6923F48073FD
:10364C003B613B6923F400733B613B685B693A69FE
:10365C0013433B613B689B693A6913433B617B684D
:10366C003A695A607B68FA689A613B685A687B6869
:10367C005A637B687A691A6200BF1C37BD4680BCEE
:10368C00704700BF002C014080B487B000AF786059
:10369C0039607B681B6A7B617B681B6A23F01002B4
:1036AC007B681A627B685B683B617B689B69FB602B
:1036BC00FB6823F4E043FB60FB6823F44073FB607E
:1036CC003B681B681B02FA681343FB607B6923F0A1
:1036DC0020037B613B689B681B017A6913437B6108
:1036EC007B681D4A93420DD17B6923F080037B617B
:1036FC003B68DB681B017A6913437B617B6923F0B0
:10370C0040037B617B68144A934213D13B6923F4D9
:10371C0080633B613B6923F400633B613B685B69FD
:10372C009B003A6913433B613B689B699B003A6978
:10373C0013433B617B683A695A607B68FA689A610B
:10374C003B685A687B689A637B687A691A6200BF27
:10375C001C37BD4680BC7047002C014080B487B03C
:10376C0000AF786039607B681B6A7B617B681B6A81
:10377C0023F480727B681A627B685B683B617B68B0
:10378C00DB69FB60FB6823F07003FB60FB6823F0D4
:10379C000303FB603B681B68FA681343FB607B699F
:1037AC0023F400737B613B689B681B027A691343AB
:1037BC007B617B681D4A93420DD17B6923F40063C6
:1037CC007B613B68DB681B027A6913437B617B6915
:1037DC0023F480637B617B68144A934213D13B6969
:1037EC0023F480533B613B6923F400533B613B68FA
:1037FC005B691B013A6913433B613B689B691B0185
:10380C003A6913433B617B683A695A607B68FA6892
:10381C00DA613B685A687B68DA637B687A691A629A
:10382C0000BF1C37BD4680BC704700BF002C014058
:10383C0080B487B000AF786039607B681B6A3B61ED
:10384C007B681B6A23F480527B681A627B685B6816
:10385C007B617B68DB69FB60FB6823F4E043FB6006
:10386C00FB6823F44073FB603B681B681B02FA681F
:10387C001343FB603B6923F400533B613B689B683B
:10388C001B033A6913433B617B680F4A934209D18E
:10389C007B6923F480437B613B685B699B017A699C
:1038AC0013437B617B687A695A607B68FA68DA61DA
:1038BC003B685A687B681A647B683A691A6200BF75
:1038CC001C37BD4680BC7047002C014080B487B0CB
:1038DC0000AFF860B9607A60BB6803F01F03012287
:1038EC0002FA03F37B61FB681A6A7B69DB431A40BB
:1038FC00FB681A62FB681A6ABB6803F01F037968DD
:10390C0001FA03F31A43FB681A6200BF1C37BD4669
:10391C0080BC704780B485B000AF786039607B683C
:10392C0093F83C30012B01D1022346E07B68012245
:10393C0083F83C207B68022283F83D207B681B685F
:10394C005B68FB607B681B689B68BB60FB6823F053
:10395C007003FB603B681B68FA681343FB607B6871
:10396C001B68FA685A607B681B68164A93420ED033
:10397C007B681B68B3F1804F09D07B681B68124AC7
:10398C00934204D07B681B68104A93420CD1BB68ED
:10399C0023F08003BB603B685B68BA681343BB6071
:1039AC007B681B68BA689A607B68012283F83D20AB
:1039BC007B68002283F83C20002318461437BD4650
:1039CC0080BC7047002C01400004004000080040FF
:1039DC0080B582B000AF78607B68002B01D10123E9
:1039EC0042E07B6893F84130DBB2002B06D17B6858
:1039FC00002283F840207868FDF746FD7B6824227E
:103A0C0083F841207B681B68DA687B681B6822F4AA
:103A1C000052DA60786800F009FA7B681B681A6952
:103A2C007B681B6822F490421A617B681B685A6998
:103A3C007B681B6822F02A025A617B681B68DA6873
:103A4C007B681B6842F40052DA607B6800225A647F
:103A5C007B68202283F841207B68202283F8422057
:103A6C007B6800225A63002318460837BD4680BD88
:103A7C0080B58AB002AFF860B9603B601346FB803A
:103A8C0000237B61FB6893F84130DBB2202B75D1AE
:103A9C00BB68002B02D0FB88002B01D101236EE008
:103AAC00FB6800225A64FB68212283F84120FDF751
:103ABC0027FE7861FB68FA889A84FB68FA88DA84B6
:103ACC00FB689B68B3F5805F08D1FB681B69002B12
:103ADC0004D10023FB61BB68BB6103E0BB68FB61E5
:103AEC000023BB612EE03B6800937B6900228021A0
:103AFC00F86800F0DFF80346002B05D0FB682022A5
:103B0C0083F8412003233AE0FB69002B0BD1BB69FE
:103B1C001B881A46FB681B68C2F308025A60BB6913
:103B2C000233BB6107E0FB691A78FB681B685A60BB
:103B3C00FB690133FB61FB68DB8C9BB2013B9AB2E6
:103B4C00FB68DA84FB68DB8C9BB2002BCBD13B6827
:103B5C0000937B6900224021F86800F0ABF8034623
:103B6C00002B05D0FB68202283F84120032306E0BC
:103B7C00FB68202283F84120002300E00223184632
:103B8C002037BD4680BD80B58AB002AFF860B96001
:103B9C003B601346FB8000237B61FB6893F842304B
:103BAC00DBB2202B40F08180BB68002B02D0FB885D
:103BBC00002B01D1012379E0FB6800225A64FB68D9
:103BCC00222283F84220FB6800221A63FDF798FD3D
:103BDC007861FB68FA889A85FB68FA88DA85FB6855
:103BEC009B68B3F5805F08D1FB681B69002B04D17F
:103BFC000023FB61BB68BB6103E0BB68FB61002376
:103C0C00BB6147E03B6800937B6900222021F86888
:103C1C0000F050F80346002B05D0FB68202283F8F7
:103C2C004220032342E0FB69002B0CD1FB681B688C
:103C3C005B689BB2C3F308039AB2BB691A80BB6979
:103C4C000233BB611FE0FB689B68B3F5805F07D054
:103C5C00FB689B68002B0AD1FB681B69002B06D103
:103C6C00FB681B685B68DAB2FB691A7008E0FB68DA
:103C7C001B685B68DBB203F07F03DAB2FB691A7076
:103C8C00FB690133FB61FB68DB8D9BB2013B9AB294
:103C9C00FB68DA85FB68DB8D9BB2002BB2D1FB682D
:103CAC00202283F84220002300E00223184620370C
:103CBC00BD4680BD80B586B000AFF860B9603B6092
:103CCC001346FB713BE03B6AB3F1FF3F37D0FDF786
:103CDC0017FD02463B68D31A3A6A9A4202D33B6AF2
:103CEC00002B01D103233AE0FB681B68DB6803F06F
:103CFC000403002B23D0BB68802B20D0BB68402B47
:103D0C001DD0FB681B681B6803F00803082B16D139
:103D1C0000237B61FB681B681B687B61FB681B686D
:103D2C005B687B617B69F86800F01DF8FB68082212
:103D3C005A64FB68002283F8402001230FE0FB68E3
:103D4C001B681A68BB681340BA689A420CBF0123FF
:103D5C000023DBB21A46FB799A42B4D000231846F2
:103D6C001837BD4680BD80B495B000AF78607B68D5
:103D7C001B680C337B637B6B53E8003F3B633B6BF3
:103D8C0023F49073FB647B681B680C33FA6C3A6405
:103D9C00FB63F96B3A6C41E80023BB63BB6B002BF4
:103DAC00E5D17B681B6814333B623B6A53E8003FE8
:103DBC00FB61FB6923F00103BB647B681B68143354
:103DCC00BA6CFA62BB62B96AFA6A41E800237B6298
:103DDC007B6A002BE5D17B681B6B012B19D17B68AF
:103DEC001B680C33FB60FB6853E8003FBB60BB688F
:103DFC0023F010037B647B681B680C337A6CBA610C
:103E0C007B617969BA6941E800233B613B69002B0E
:103E1C00E5D17B68202283F842207B6800221A635C
:103E2C0000BF5437BD4680BC7047000080B584B0DD
:103E3C0000AF78607B681B681B6923F440517B687A
:103E4C00DA687B681B680A431A617B689A687B682E
:103E5C001B691A437B685B691343BB607B681B68F7
:103E6C00DB6823F4B05323F00C037A681268B9684A
:103E7C000B43D3607B681B685B6923F440717B68E0
:103E8C009A697B681B680A435A617B681B682C4AD9
:103E9C00934203D1FEF794FEF86002E0FEF77CFE3D
:103EAC00F860FA6813469B0013449A001A447B6826
:103EBC005B689B00B2FBF3F3224AA2FB03235B0972
:103ECC001901FA6813469B0013449A001A447B6844
:103EDC005B689B00B2FBF3F21A4BA3FB02035B097A
:103EEC00642000FB03F3D31A1B013233154AA2FBE7
:103EFC0003235B0903F0F0031944FA6813469B0093
:103F0C0013449A001A447B685B689B00B2FBF3F283
:103F1C000C4BA3FB02035B09642000FB03F3D31AD5
:103F2C001B013233074AA2FB03235B0903F00F0288
:103F3C007B681B680A449A6000BF1037BD4680BD81
:103F4C00003801401F85EB510A22002100F07AB89D
:103F5C00242B2DE9F0478646904601D8012B06D13B
:103F6C0000F0C6F8162303600020BDE8F0870D466C
:103F7C0033482A4615F8014B065D16F00806F8D1B1
:103F8C002D2C2DD101262C78951C33F0100209D143
:103F9C00302C2AD12A7802F0DF02582A25D110239E
:103FAC006C780235002206F1004C0CF1FF3CBCFB96
:103FBC00F3F9104603FB19CAA4F13007092F1BD8DB
:103FCC003C46A34227DD571C07D0814520D301D1A5
:103FDC00A2451DDB012200FB034015F8014BEBE76A
:103FEC002B2C04BF2C78951CCFE7002BDAD1302C6E
:103FFC000CBF08230A23D5E7A4F14107192F01D8D8
:10400C00373CDEE7A4F16107192F04D8573CD8E7F9
:10401C004FF0FF32E1E7531C08D122236046CEF863
:10402C000030B8F1000FA0D0691E06E006B1404286
:10403C00B8F1000F99D0002AF6D1C8F8001094E717
:10404C00DF57000813460A46014602480068FFF78E
:10405C007FBF00BF0C0000200EB46FF0004100B514
:10406C009CB01DAB02900690079104910848094939
:10407C0053F8042B0591006802A9019300F0B6F9DE
:10408C000022029B1A701CB05DF804EB03B0704761
:10409C000C0000200802FFFF03460244934200D1AB
:1040AC00704703F8011BF9E70346C9B2184613F829
:1040BC00012B12B18A42F9D17047002918BF002098
:1040CC0070470A7870B56AB970BD9A4209D10C462E
:1040DC00054614F8013F002BF6D015F8016F9E42EF
:1040EC00F7D001300378002BEFD11846ECE7000035
:1040FC00014B1868704700BF0C00002070B50026FB
:10410C000C4D0D4C641BA410A64209D100F078FC98
:10411C0000260A4D0A4C641BA410A64205D170BDA2
:10412C0055F8043B98470136EEE755F8043B9847A1
:10413C000136F2E71C5900081C5900081C590008EC
:10414C00205900087047704738B50546002940D003
:10415C0051F8043C0C1F002BB8BFE41800F0DEF83B
:10416C001C4A136833B9636014602846BDE83840B4
:10417C0000F0DAB8A34208D9206821188B4201BF9D
:10418C0019685B6809182160EDE71A465B680BB18A
:10419C00A342FAD911685018A0420BD120680144EF
:1041AC00501883421160E0D118685B6808441060B5
:1041BC005360DAE702D90C232B60D6E7206821186C
:1041CC008B4201BF19685B680918216063605460F9
:1041DC00CBE738BDEC14002070B50F4E0C4631689F
:1041EC00054611B900F0AAFB30602146284600F0C4
:1041FC00A5FB431C03D14FF0FF34204670BDC41CFB
:10420C0024F00304A042F8D0211A284600F096FBB3
:10421C000130F2D1EFE700BFE81400202DE9F8439C
:10422C00CD1C25F0030508350C2D38BF0C25002DB1
:10423C00064601DBA94204D90C2333600020BDE8FB
:10424C00F883DFF8D48000F069F8D8F800301C4609
:10425C0044BB29463046FFF7BFFF431C044658D1E8
:10426C00D8F800402746002F43D1002C4BD02368B0
:10427C003946304604EB030900F060FB814542D11E
:10428C00216830466D1A2946FFF7A6FF01303AD057
:10429C0023682B442360D8F800305A6862BBC8F8F6
:1042AC0000700FE02268521B20D40B2A17D9611919
:1042BC00A342256018BF5960636808BFC8F8001096
:1042CC0062514B60304600F02FF804F10B00231DB7
:1042DC0020F00700C21A1CBF1B1AA350AFE762687C
:1042EC00A3420CBFC8F800205A60EBE72346646871
:1042FC00AEE73C467F68B6E71A465B68A342FBD143
:10430C0000235360DEE70C233046336000F00CF8DA
:10431C0094E70560D6E700BFEC1400200148FFF7D6
:10432C0011BF00BFE41400200148FFF70CBF00BF11
:10433C00E41400202DE9F0471F468E688246BE42E9
:10434C000C4690460B682DD8B1F90C2012F4906FE6
:10435C0026D06569096905EB4505A3EB010905EB59
:10436C00D5757B1C4B446D109D4238BF1D465305C3
:10437C0027D52946FFF752FF064660B34A46216906
:10438C0000F0FAFAA38923F4906343F08003A3812D
:10439C0026614E4426603E466561A5EB0905A56085
:1043AC00BE4200D93E4632464146206800F0ACFA87
:1043BC000020A3689B1BA360236833442360BDE8E3
:1043CC00F0872A4600F0E6FA06460028E0D150466F
:1043DC002169FFF7B9FE0C23CAF80030A3894FF00E
:1043EC00FF3043F04003A381E9E700002DE9F04FD3
:1043FC0098468B8907461B060D4614469DB010D572
:10440C000B6973B94021FFF709FF2860286130B9A7
:10441C000C233B604FF0FF301DB0BDE8F08F402304
:10442C006B610023099320238DF8293030234FF042
:10443C000109CDF80C80DFF898818DF82A302346DD
:10444C009A4613F8012B0AB1252AF9D1BAEB040BC1
:10445C000BD05B46224629463846FFF76BFF0130EE
:10446C0000F0A780099A5A4409929AF80030002B60
:10447C0000F09F8000234FF0FF32CDE905230AF1B5
:10448C00010A049307938DF853301A93544605226E
:10449C0014F8011B4E4800F061FA049AD8B9D00602
:1044AC0044BF20238DF85330110744BF2B238DF8C4
:1044BC0053309AF800302A2B15D0544600204FF078
:1044CC000A0C079A214611F8013B303B092B4BD9BA
:1044DC00B0B1079214E0A0EB080309FA03F31343FD
:1044EC00A2460493D2E7039B191D1B680391002B72
:1044FC00BBBF5B4242F0020207930793B8BF049222
:10450C0023782E2B0AD163782A2B32D1039B0234C9
:10451C001A1D1B68039243EAE3730593DFF8B4A0FA
:10452C0003225046217800F019FA38B14022049B3E
:10453C00A0EB0A00824013430134049314F8011BCE
:10454C00062225488DF8281000F008FA002836D0ED
:10455C00224B1BBB039B073323F007030833039346
:10456C00099B334409936AE70C4601200CFB023289
:10457C00A8E700234FF00A0C194601340593204696
:10458C0010F8012B303A092A03D9002BC6D005911B
:10459C00C4E7044601230CFB0121F0E703AB0093B5
:1045AC002A4638460E4B04A9AFF30080421C06463F
:1045BC00D6D1AB895B063FF52DAF09982CE703AB41
:1045CC0000932A463846064B04A900F07DF8EDE727
:1045DC00DF580008E5580008E95800080000000002
:1045EC00414300082DE9F047164698468A680B6946
:1045FC0007469342B8BF1346336091F843200C46EC
:10460C00DDF820900AB1013333602368990642BF6C
:10461C00336802333360256815F0060506D104F1C2
:10462C00190AE36832689B1AAB422BDC94F84330CE
:10463C002268003B18BF0123920630D4414638460D
:10464C0004F14302C847013023D02368226903F0E8
:10465C000603042B14BF002533684FF0000608BF77
:10466C00E56804F11A0408BFED1A54F8123C08BFAF
:10467C0025EAE5759342C4BF9B1AED18B5421AD1D1
:10468C00002008E00123524641463846C847013015
:10469C0003D14FF0FF30BDE8F0870135C1E7302082
:1046AC00E11881F843005A1C94F845102244023357
:1046BC0082F84310C2E70123224641463846C847D8
:1046CC000130E6D00136D9E72DE9FF470F7E914640
:1046DC00782F80460C469A460C9E01F1430207D86F
:1046EC00622F0AD8002F00F0D380582F00F0BA8028
:1046FC0004F1420684F842703AE0A7F16303152BEB
:10470C00F6D801A151F823F06D4700088147000845
:10471C00FD460008FD460008FD460008FD46000861
:10472C0081470008FD460008FD460008FD460008CC
:10473C00FD46000883480008AB4700083D480008C8
:10474C00FD460008FD460008A5480008FD46000887
:10475C00AB470008FD460008FD4600084548000828
:10476C0033681A1D1B68326004F1420684F842302B
:10477C0001239EE033682068191D3160060601D5BF
:10478C001D6803E04506FBD5B3F90050002D03DA94
:10479C002D236D4284F843300A23594811E02168D7
:1047AC003368080653F8045B02D4490648BFADB21F
:1047BC006F2F336014BF0A2308235148002184F85B
:1047CC0043106668002EA8BF2168A660A4BF21F024
:1047DC00040121600DB9002E4BD01646B5FBF3F148
:1047EC0003FB1157C75D06F8017D2F46BB420D46F2
:1047FC00F4D9082B0BD12368DF0708D5236961682E
:10480C009942DEBF302306F8013C06F1FF36921BBD
:10481C0022614B4621464046CDF800A003AAFFF783
:10482C00E1FE01304AD14FF0FF3004B0BDE8F08713
:10483C00236843F0200323607827324884F84570BE
:10484C00236831681F0651F8045B02D45F0648BF29
:10485C00ADB23160D90744BF43F0200323601DB1D2
:10486C001023ABE72648E9E7236823F020032360F5
:10487C00F6E71646BDE733682568181D6169306098
:10488C002E061B6801D5196002E06806FBD519805D
:10489C00002316462361BCE7336800211A1D3260E1
:1048AC001E686268304600F059F808B1801B6060E1
:1048BC0063682361002384F84330AAE732464946F3
:1048CC0040462369D0470130ADD023689B0713D4F1
:1048DC00E068039B9842B8BF1846A6E7012332460E
:1048EC0049464046D04701309DD00135E3680399D5
:1048FC005B1AAB42F2DCEBE7002504F11906F5E795
:10490C00F058000801590008884210B501EB020468
:10491C0002D98442234607D8431EA14208D011F87D
:10492C00012B03F8012FF8E7014602448A4200D11B
:10493C0010BD13F8014D02F8014DF7E738B500230F
:10494C00054D044608462B60FCF720FE431C02D1A3
:10495C002B6803B1236038BDE0140020034610B56A
:10496C00C9B202449342184601D1002003E00478F6
:10497C0001338C42F6D110BD0A44914200F1FF3351
:10498C0000D1704710B511F8014B914203F8014F5B
:10499C00F9D110BD2DE9F041804615460C4621B9E0
:1049AC001146BDE8F041FFF739BC2AB9FFF7CCFB43
:1049BC0000242046BDE8F08100F01AF88542064636
:1049CC0002D8B5EB500FF4D829464046FFF726FC29
:1049DC0007460028ECD0B5422A46214628BF32466D
:1049EC00FFF7CAFF21464046FFF7AEFB3C46E0E727
:1049FC0051F8043C181F002BBCBF0B58C018704753
:104A0C00F8B500BFF8BC08BC9E467047F8B500BFAF
:084A1C00F8BC08BC9E4670477F
:104A2400723D0000673D0000623D00003C703E4C5A
:104A3400696768742069732063757272656E746C3B
:104A440079206F6E202020203C2F703E3C61206333
:104A54006C6173733D22627574746F6E2062757439
:104A6400746F6E2D6F66662220687265663D222F14
:104A74006C696768746F6666223E4F46463C2F61D8
:104A84003E202020203C64697620636C6173733D72
:104A9400227267622D666F726D223E202020203CB8
:104AA40068333E52474220436F6C6F7220436F6EEF
:104AB40074726F6C3C2F68333E202020203C666F5C
:104AC400726D20616374696F6E3D222F7365747219
:104AD400676222206D6574686F643D2247455422E5
:104AE4003E20202020523A203C696E707574206369
:104AF4006C6173733D227267622D696E70757422E6
:104B040020747970653D226E756D62657222206E27
:104B1400616D653D227222206D696E3D2230222036
:104B24006D61783D22323535222076616C75653DA4
:104B3400222564223E20202020473A203C696E70C2
:104B4400757420636C6173733D227267622D696EA4
:104B54007075742220747970653D226E756D62657E
:104B64007222206E616D653D226722206D696E3D63
:104B7400223022206D61783D223235352220766143
:104B84006C75653D222564223E20202020423A2077
:104B94003C696E70757420636C6173733D22726737
:104BA400622D696E7075742220747970653D226E71
:104BB400756D62657222206E616D653D22622220F0
:104BC4006D696E3D223022206D61783D223235358B
:104BD400222076616C75653D222564223E202020CA
:104BE400203C62723E3C696E70757420636C617324
:104BF400733D227267622D7375626D69742220742D
:104C04007970653D227375626D6974222076616CDA
:104C140075653D2253657420524742223E20202070
:104C2400203C2F666F726D3E202020203C2F64694B
:104C3400763E00003C703E4C6967687420697320BE
:104C440063757272656E746C79206F6666202020BD
:104C5400203C2F703E3C6120636C6173733D226283
:104C64007574746F6E20627574746F6E2D6F6E221E
:104C740020687265663D222F6C696768746F6E22C6
:104C84003E4F4E3C2F613E202020203C646976201C
:104C9400636C6173733D227267622D666F726D225D
:104CA4003E202020203C68333E52474220436F6C14
:104CB4006F7220436F6E74726F6C3C2F68333E20AA
:104CC4002020203C666F726D20616374696F6E3DB5
:104CD400222F73657472676222206D6574686F6435
:104CE4003D22474554223E20202020523A203C6950
:104CF4006E70757420636C6173733D227267622DEC
:104D0400696E7075742220747970653D226E756DBC
:104D140062657222206E616D653D227222206D698A
:104D24006E3D223022206D61783D223235352220BD
:104D340076616C75653D222564223E202020204743
:104D44003A203C696E70757420636C6173733D2204
:104D54007267622D696E7075742220747970653D76
:104D6400226E756D62657222206E616D653D2267EB
:104D740022206D696E3D223022206D61783D223201
:104D84003535222076616C75653D222564223E20EE
:104D9400202020423A203C696E70757420636C6157
:104DA40073733D227267622D696E7075742220746C
:104DB4007970653D226E756D62657222206E616D3B
:104DC400653D226222206D696E3D223022206D6194
:104DD400783D22323535222076616C75653D222579
:104DE40064223E202020203C62723E3C696E707535
:104DF4007420636C6173733D227267622D737562F4
:104E04006D69742220747970653D227375626D69D1
:104E140074222076616C75653D2253657420524777
:104E240042223E202020203C2F666F726D3E2020BF
:104E340020203C2F6469763E00000000484848006A
:104E44003C21444F43545950452068746D6C3E3C9A
:104E540068746D6C3E0A3C686561643E0A202020DB
:104E64003C7469746C653E53544D3332202D204597
:104E74005350383236363C2F7469746C653E0A3CA4
:104E84006C696E6B20687265663D22646174613A78
:104E9400696D6167652F782D69636F6E3B6261731D
:104EA4006536342C20202041222072656C3D226915
:104EB400636F6E2220747970653D22696D61676548
:104EC4002F782D69636F6E223E3C7374796C653E56
:104ED4000A68746D6C207B202020646973706C6197
:104EE400793A20696E6C696E652D626C6F636B3BF9
:104EF400206D617267696E3A203070782061757434
:104F04006F3B20746578742D616C69676E3A206319
:104F1400656E7465723B7D0A202020626F64797B24
:104F24006D617267696E2D746F703A2035307078D8
:104F34003B7D0A2E627574746F6E207B6469737096
:104F44006C61793A20626C6F636B3B0A2020207796
:104F5400696474683A20373070783B0A6261636B25
:104F640067726F756E642D636F6C6F723A202330B5
:104F740030383030303B0A626F726465723A206EAA
:104F84006F6E653B0A636F6C6F723A207768697461
:104F9400653B0A20202070616464696E673A2031A1
:104FA40034707820323870783B0A746578742D64D4
:104FB40065636F726174696F6E3A206E6F6E653BE4
:104FC4000A666F6E742D73697A653A20323470788C
:104FD4003B0A2020206D617267696E3A2030707838
:104FE400206175746F20333670783B200A626F72CB
:104FF4006465722D7261646975733A203570783B0B
:105004007D0A2020202E627574746F6E2D6F6E20C1
:105014007B6261636B67726F756E642D636F6C6F17
:10502400723A20233030383030303B7D0A2E62759E
:1050340074746F6E2D6F6E3A6163746976652020A7
:10504400207B6261636B67726F756E642D636F6C36
:105054006F723A20233030383030303B7D0A2E6274
:105064007574746F6E2D6F6666207B6261636B6707
:10507400726F756E642D636F6C6F723A20233830D3
:10508400383038303B7D0A2020202E627574746FCE
:105094006E2D6F66663A616374697665207B626122
:1050A400636B67726F756E642D636F6C6F723A20F9
:1050B400233830383038303B7D0A2020202E726768
:1050C400622D666F726D207B6D617267696E3A2026
:1050D4003230707820303B2070616464696E673AC6
:1050E40020323070783B20626F726465723A2031EE
:1050F400707820736F6C696420236363633B206260
:105104006F726465722D7261646975733A203570CB
:10511400783B7D0A2020202E7267622D696E70759F
:1051240074207B6D617267696E3A20313070783B10
:105134002077696474683A20363070783B2074654F
:1051440078742D616C69676E3A2063656E7465725C
:105154003B7D0A2020202E7267622D7375626D6973
:1051640074207B6261636B67726F756E642D636F0D
:105174006C6F723A20233030376266663B20636F6F
:105184006C6F723A2077686974653B20626F726451
:1051940065723A206E6F6E653B2070616464696E5F
:1051A400673A203130707820323070783B20626F5B
:1051B400726465722D7261646975733A2033707814
:1051C4003B20637572736F723A20706F696E7465F9
:1051D400723B7D0A20202070207B666F6E742D73D5
:1051E400697A653A20313470783B636F6C6F723A38
:1051F40020233830383038303B6D617267696E2D4A
:10520400626F74746F6D3A20323070783B7D0A207F
:1052140020203C2F7374796C653E0A3C2F686561CD
:10522400643E0A3C626F64793E0A3C68313E5354E2
:105234004D3332202D20455350383236363C2F68BA
:10524400313E00003C703E4C6967687420697320ED
:1052540063757272656E746C79206F6E2020203CC9
:105264002F703E3C6120636C6173733D22627574E0
:10527400746F6E20627574746F6E2D6F6666222073
:10528400687265663D222F6C696768746F66662272
:105294003E4F46463C2F613E2020203C64697620E8
:1052A400636C6173733D227267622D666F726D2247
:1052B4003E2020203C68333E52474220436F6C6FAF
:1052C4007220436F6E74726F6C3C2F68333E2020E3
:1052D400203C666F726D20616374696F6E3D222F8E
:1052E40073657472676222206D6574686F643D2211
:1052F400474554223E202020523A203C696E707566
:105304007420636C6173733D227267622D696E70E1
:1053140075742220747970653D226E756D626572B4
:1053240022206E616D653D227222206D696E3D22E0
:105334003022206D61783D22323535222076616C31
:1053440075653D222564223E202020473A203C6991
:105354006E70757420636C6173733D227267622D85
:10536400696E7075742220747970653D226E756D56
:1053740062657222206E616D653D226722206D692F
:105384006E3D223022206D61783D22323535222057
:1053940076616C75653D222564223E202020423AC8
:1053A400203C696E70757420636C6173733D227266
:1053B40067622D696E7075742220747970653D2260
:1053C4006E756D62657222206E616D653D2262228A
:1053D400206D696E3D223022206D61783D22323588
:1053E40035222076616C75653D222564223E20209D
:1053F400203C62723E3C696E70757420636C61730C
:10540400733D227267622D7375626D697422207414
:105414007970653D227375626D6974222076616CC2
:1054240075653D2253657420524742223E20202058
:105434003C2F666F726D3E2020203C2F6469763EBF
:10544400000000003C703E4C69676874206973205A
:1054540063757272656E746C79206F6666202020A5
:105464003C2F703E3C6120636C6173733D22627516
:1054740074746F6E20627574746F6E2D6F6E22205B
:10548400687265663D222F6C696768746F6E223E90
:105494004F4E3C2F613E2020203C64697620636C93
:1054A4006173733D227267622D666F726D223E20B6
:1054B40020203C68333E52474220436F6C6F722079
:1054C400436F6E74726F6C3C2F68333E2020203C17
:1054D400666F726D20616374696F6E3D222F736510
:1054E4007472676222206D6574686F643D2247455B
:1054F40054223E202020523A203C696E707574205C
:10550400636C6173733D227267622D696E7075748A
:105514002220747970653D226E756D626572222059
:105524006E616D653D227222206D696E3D223022CE
:10553400206D61783D22323535222076616C7565A7
:105544003D222564223E202020473A203C696E708B
:10555400757420636C6173733D227267622D696E8A
:105564007075742220747970653D226E756D626564
:105574007222206E616D653D226722206D696E3D49
:10558400223022206D61783D223235352220766129
:105594006C75653D222564223E202020423A203C41
:1055A400696E70757420636C6173733D22726762F7
:1055B4002D696E7075742220747970653D226E7544
:1055C4006D62657222206E616D653D226222206DDE
:1055D400696E3D223022206D61783D2232353522BC
:1055E4002076616C75653D222564223E2020203C96
:1055F40062723E3C696E70757420636C6173733DB6
:10560400227267622D7375626D69742220747970D9
:10561400653D227375626D6974222076616C7565CF
:105624003D2253657420524742223E2020203C2FC5
:10563400666F726D3E2020203C2F6469763E000028
:105644003C2F626F64793E3C2F68746D6C3E0000A1
:1056540041542B5253540D0A0000000041542B4373
:10566400574D4F44455F4355523D320D0A000000EB
:105674004F4B000041542B43575341505F43555205
:105684003D2253544D3332222C22313233343536B9
:10569400373839222C312C332C342C300D0A0000AD
:1056A40041542B43495041505F4355523D223139B7
:1056B400322E3136382E35312E31220D0A000000BB
:1056C40041542B4349504D55583D310D0A000000BB
:1056D40041542B4349505345525645523D312C3881
:1056E400300D0A002B4950442C3000002B49504403
:1056F4002C3100002B4950442C3200002B495044DB
:105704002C3300002B4950442C3400002B495044C6
:105714002C3500002B4950442C3600002B495044B2
:105724002C370000474554202F6C696768746F6EEE
:1057340000000000474554202F6C696768746F6649
:1057440066000000474554202F7365747267620039
:1057540041542B43495053454E443D25642C256404
:105764000D0A000041542B434950434C4F53453DCF
:1057740025640D0A0000000052202047202042200A
:105784002564000025642025642025642020202031
:10579400000000000008014000080140000C014026
:1057A400000C014040008000010002000040105045
:1057B40000000000000000000102030406070809BD
:1057C400000000000102030402030405060708099F
:1057D4000A0B0C0D0E0F10100102002020202020B7
:1057E400202020202828282828202020202020208D
:1057F400202020202020202020202088101010107D
:1058040010101010101010101010100404040404D0
:1058140004040404041010101010101041414141FC
:1058240041410101010101010101010101010101E4
:1058340001010101010110101010101042424242F6
:1058440042420202020202020202020202020202B4
:1058540002020202020210101010200000000000D8
:105864000000000000000000000000000000000034
:105874000000000000000000000000000000000024
:105884000000000000000000000000000000000014
:105894000000000000000000000000000000000004
:1058A40000000000000000000000000000000000F4
:1058B40000000000000000000000000000000000E4
:1058C40000000000000000000000000000000000D4
:1058D4000000000000000000000000232D302B20F9
:1058E40000686C4C006566674546470030313233CA
:1058F4003435363738394142434445460030313235
:1059040033343536373839616263646566000000C4
:0859140038A8FF7F010000002C
:04591C00310100084D
:045920000D0100086D
:1059240000127A00100000000100000010000020A6
:1059340000000000A8130020101400207814002098
:105944000000000000000000000000000000000053
:105954000000000000000000000000000000000043
:105964000000000000000000000000000000000033
:0C59740000000000000000000000000027
:0400000508001611C8
:00000001FF
