:020000040800F2
:1000000000500020C51B0008C9190008D1190008BC
:10001000D9190008E1190008E919000800000000DA
:10002000000000000000000000000000F1190008BE
:10003000FD19000800000000091A0008151A000840
:100040000D1C00080D1C00080D1C00080D1C0008EC
:100050000D1C00080D1C00080D1C00080D1C0008DC
:100060000D1C00080D1C00080D1C00080D1C0008CC
:100070000D1C00080D1C00080D1C00080D1C0008BC
:10008000211A00080D1C00080D1C00080D1C00089A
:100090000D1C00080D1C00080D1C00080D1C00089C
:1000A0000D1C00080D1C00080D1C00080D1C00088C
:1000B0000D1C00080D1C00080D1C00080D1C00087C
:1000C0000D1C00080D1C00080D1C00080D1C00086C
:1000D0000D1C00080D1C00080D1C00080D1C00085C
:1000E0000D1C00080D1C00080D1C0008000000007D
:1000F0000000000000000000000000000000000000
:0C01000000000000000000005FF808F1A3
:1001100010B5054C237833B9044B13B10448AFF341
:1001200000800123237010BDD401002000000000D6
:100130005C88000808B5034B1BB103490348AFF3C3
:10014000008008BD00000000D80100205C88000885
:10015000034613F8012B002AFBD1181A0138704707
:1001600081F0004102E000BF83F0004330B54FEA68
:1001700041044FEA430594EA050F08BF90EA020FD5
:100180001FBF54EA000C55EA020C7FEA645C7FEA68
:10019000655C00F0E2804FEA5454D4EB5555B8BF8B
:1001A0006D420CDD2C4480EA020281EA030382EAFC
:1001B000000083EA010180EA020281EA0303362D8E
:1001C00088BF30BD11F0004F4FEA01314FF4801C61
:1001D0004CEA113102D0404261EB410113F0004F73
:1001E0004FEA03334CEA133302D0524263EB43032A
:1001F00094EA050F00F0A780A4F10104D5F1200EC8
:100200000DDB02FA0EFC22FA05F2801841F1000122
:1002100003FA0EF2801843FA05F359410EE0A5F1F6
:1002200020050EF1200E012A03FA0EFC28BF4CF027
:10023000020C43FA05F3C01851EBE37101F00045DD
:1002400007D54FF0000EDCF1000C7EEB00006EEBEA
:100250000101B1F5801F1BD3B1F5001F0CD3490874
:100260005FEA30004FEA3C0C04F101044FEA4452CB
:1002700012F5800F80F09A80BCF1004F08BF5FEA52
:10028000500C50F1000041EB045141EA050130BD32
:100290005FEA4C0C404141EB0101013C28BFB1F544
:1002A000801FE9D291F0000F04BF01460020B1FA8F
:1002B00081F308BF2033A3F10B03B3F120020CDA62
:1002C0000C3208DD02F1140CC2F10C0201FA0CF040
:1002D00021FA02F10CE002F11402D8BFC2F1200CA5
:1002E00001FA02F120FA0CFCDCBF41EA0C0190405B
:1002F000E41AA2BF01EB0451294330BD6FEA0404A4
:100300001F3C1CDA0C340EDC04F11404C4F120028E
:1003100020FA04F001FA02F340EA030021FA04F3A0
:1003200045EA030130BDC4F10C04C4F1200220FAF7
:1003300002F001FA04F340EA0300294630BD21FA35
:1003400004F0294630BD94F0000F83F4801306BFFB
:1003500081F480110134013D4EE77FEA645C18BFEF
:100360007FEA655C29D094EA050F08BF90EA020F86
:1003700005D054EA000C04BF1946104630BD91EA7E
:10038000030F1EBF0021002030BD5FEA545C05D181
:100390004000494128BF41F0004130BD14F58004C0
:1003A0003CBF01F5801130BD01F0004545F0FE4134
:1003B00041F470014FF0000030BD7FEA645C1ABF69
:1003C000194610467FEA655C1CBF0B46024650EAA0
:1003D000013406BF52EA033591EA030F41F40021CC
:1003E00030BD00BF90F0000F04BF0021704730B552
:1003F0004FF4806404F132044FF000054FF0000127
:1004000050E700BF90F0000F04BF0021704730B5E7
:100410004FF4806404F1320410F0004548BF4042BC
:100420004FF000013EE700BF42004FEAE2014FEA11
:1004300031014FEA02701FBF12F07F4393F07F4FEC
:1004400081F06051704732F07F4208BF704793F0EF
:100450007F4F04BF41F40021704730B54FF4607402
:1004600001F0004521F000411CE700BF50EA010205
:1004700008BF704730B54FF000050AE050EA0102AE
:1004800008BF704730B511F0004502D5404261EB1E
:1004900041014FF4806404F132045FEA915C3FF45F
:1004A000D8AE4FF003025FEADC0C18BF03325FEAFC
:1004B000DC0C18BF033202EBDC02C2F1200300FAAD
:1004C00003FC20FA02F001FA03FE40EA0E0021FAD2
:1004D00002F11444BDE600BF70B54FF0FF0C4CF4C0
:1004E000E06C1CEA11541DBF1CEA135594EA0C0F72
:1004F00095EA0C0F00F0DEF82C4481EA030621EAAD
:100500004C5123EA4C5350EA013518BF52EA0335E7
:1005100041F4801143F4801338D0A0FB02CE4FF099
:100520000005E1FB02E506F00042E0FB03E54FF0C9
:100530000006E1FB03569CF0000F18BF4EF0010EC1
:10054000A4F1FF04B6F5007F64F5407404D25FEABD
:100550004E0E6D4146EB060642EAC62141EA555170
:100560004FEAC52040EA5E504FEACE2EB4F1FD0CB2
:1005700088BFBCF5E06F1ED8BEF1004F08BF5FEA30
:10058000500E50F1000041EB045170BD06F00046E2
:1005900046EA010140EA020081EA0301B4EB5C048F
:1005A000C2BFD4EB0C0541EA045170BD41F4801187
:1005B0004FF0000E013C00F3AB8014F1360FDEBFAC
:1005C000002001F0004170BDC4F10004203C35DA88
:1005D0000C341BDC04F11404C4F1200500FA05F30B
:1005E00020FA04F001FA05F240EA020001F00042AC
:1005F00021F0004110EBD37021FA04F642EB060122
:100600005EEA430E08BF20EAD37070BDC4F10C044B
:10061000C4F1200500FA04F320FA05F001FA04F20F
:1006200040EA020001F0004110EBD37041F10001FB
:100630005EEA430E08BF20EAD37070BDC4F1200506
:1006400000FA05F24EEA020E20FA04F301FA05F26E
:1006500043EA020321FA04F001F0004121FA04F216
:1006600020EA020000EBD3705EEA430E08BF20EAE6
:10067000D37070BD94F0000F0FD101F00046400020
:1006800041EB010111F4801F08BF013CF7D041EAA2
:10069000060195F0000F18BF704703F000465200A6
:1006A00043EB030313F4801F08BF013DF7D043EA77
:1006B0000603704794EA0C0F0CEA135518BF95EA2D
:1006C0000C0F0CD050EA410618BF52EA4306D1D1B4
:1006D00081EA030101F000414FF0000070BD50EAD3
:1006E000410606BF1046194652EA430619D094EA5D
:1006F0000C0F02D150EA013613D195EA0C0F05D147
:1007000052EA03361CBF104619460AD181EA03019A
:1007100001F0004141F0FE4141F470014FF0000052
:1007200070BD41F0FE4141F4780170BD70B54FF0ED
:10073000FF0C4CF4E06C1CEA11541DBF1CEA13556D
:1007400094EA0C0F95EA0C0F00F0A7F8A4EB05044F
:1007500081EA030E52EA03354FEA013100F0888046
:100760004FEA03334FF0805545EA131343EA12630F
:100770004FEA022245EA111545EA10654FEA0026C4
:100780000EF000419D4208BF964244F1FD0404F57D
:10079000407402D25B084FEA3202B61A65EB0305D9
:1007A0005B084FEA32024FF480104FF4002CB6EB96
:1007B000020E75EB030E22BFB61A754640EA0C0016
:1007C0005B084FEA3202B6EB020E75EB030E22BF56
:1007D000B61A754640EA5C005B084FEA3202B6EB97
:1007E000020E75EB030E22BFB61A754640EA9C0056
:1007F0005B084FEA3202B6EB020E75EB030E22BF26
:10080000B61A754640EADC0055EA060E18D04FEAE3
:10081000051545EA16754FEA06164FEAC30343EA83
:1008200052734FEAC2025FEA1C1CC0D111F4801F50
:100830000BD141EA00014FF000004FF0004CB6E749
:1008400011F4801F04BF01430020B4F1FD0C88BFE8
:10085000BCF5E06F3FF6AFAEB5EB030C04BFB6EBF3
:10086000020C5FEA500C50F1000041EB045170BDE6
:100870000EF0004E4EEA113114EB5C04C2BFD4EB13
:100880000C0541EA045170BD41F480114FF0000E97
:10089000013C90E645EA060E8DE60CEA135594EA13
:1008A0000C0F08BF95EA0C0F3FF43BAF94EA0C0F16
:1008B0000AD150EA01347FF434AF95EA0C0F7FF48B
:1008C00025AF104619462CE795EA0C0F06D152EADF
:1008D00003353FF4FDAE1046194622E750EA4106C3
:1008E00018BF52EA43067FF4C5AE50EA41047FF4D4
:1008F0000DAF52EA43057FF4EBAE12E74FF0FF3C39
:1009000006E000BF4FF0010C02E000BF4FF0010C09
:100910004DF804CD4FEA410C7FEA6C5C4FEA430C82
:1009200018BF7FEA6C5C1BD001B050EA410C0CBFD1
:1009300052EA430C91EA030F02BF90EA020F002033
:10094000704710F1000F91EA030F58BF994208BF9A
:1009500090422CBFD8176FEAE37040F00100704757
:100960004FEA410C7FEA6C5C02D150EA013C07D1AE
:100970004FEA430C7FEA6C5CD6D152EA033CD3D0F9
:100980005DF8040B704700BF8446104662468C46F3
:100990001946634600E000BF01B5FFF7B7FF002826
:1009A00048BF10F1000F01BD4DF808EDFFF7F4FF4F
:1009B0000CBF012000205DF808FB00BF4DF808EDDA
:1009C000FFF7EAFF34BF012000205DF808FB00BFFD
:1009D0004DF808EDFFF7E0FF94BF012000205DF81F
:1009E00008FB00BF4DF808EDFFF7CEFF94BF0120D4
:1009F00000205DF808FB00BF4DF808EDFFF7C4FFCD
:100A000034BF012000205DF808FB00BF4FEA410C15
:100A10007FEA6C5C02D150EA013C0AD14FEA430CF8
:100A20007FEA6C5C02D152EA033C02D14FF0000035
:100A300070474FF0010070474FEA410212F5001273
:100A400015D211D56FF47873B3EB625212D94FEA15
:100A5000C12343F0004343EA505311F0004F23FAFF
:100A600002F018BF404270474FF00000704750EA54
:100A7000013005D111F0004008BF6FF00040704711
:100A80004FF00000704700BF4A0011D212F500126B
:100A900011D20DD56FF47873B3EB62520ED44FEAD6
:100AA000C12343F0004343EA505323FA02F0704756
:100AB0004FF00000704750EA013002D14FF0FF3094
:100AC00070474FF0000070474FEA4102B2F1E04337
:100AD00024BFB3F5001CDCF1FE5C0DD901F0004C25
:100AE0004FEAC0024CEA5070B2F1004F40EB830075
:100AF00008BF20F00100704711F0804F21D113F1A1
:100B00003872BCBF01F00040704741F480114FEAD9
:100B10005252C2F11802C2F1200C10FA0CF320FA62
:100B200002F018BF40F001004FEAC1234FEAD3237F
:100B300003FA0CFC40EA0C0023FA02F34FEA4303E9
:100B4000CCE77FEA625307D150EA01331EBF4FF072
:100B5000FE4040F44000704701F0004040F0FE408D
:100B600040F40000704700BF38B50022002304465F
:100B70000D46FFF723FF28B920462946BDE8384037
:100B800000F00AB8204605F1004100F005F84042A7
:100B900061EB410138BD00BFD0B500220B4B0646CA
:100BA0000F46FFF799FCFFF76FFF0446FFF71AFCAB
:100BB0000022074BFFF790FC02460B4630463946B1
:100BC000FFF7D2FAFFF760FF2146D0BD0000F03DED
:100BD0000000F041B0B5ADF5F16D02AF01F018F8CD
:100BE00000F01CFC00F048FD00F028FD00F0FCFCCB
:100BF00000F0A2FC00F062FCC84801F067F907F5BC
:100C0000F063A3F50E7300221A6004334FF4FE72F2
:100C10000021184604F037FA0023C7F870374FF464
:100C20009663C7F860374FF00003C7F86C374FF092
:100C30000003C7F85C374FF00003C7F8683700239C
:100C4000C7F858374FF00003C7F86437D7F85C0788
:100C5000FFF7EAFB04460D46D7F86807FFF7E4FB09
:100C600002460B4607F58470CDE9002322462B4649
:100C7000AB4904F0A5F9D7F86407FFF7D5FB0446A4
:100C80000D46D7F86C07FFF7CFFB02460B4607F17E
:100C9000A400CDE9002322462B46A24904F090F996
:100CA00007F14003A049184604F08AF93B469F49E2
:100CB000184604F085F907F584731846FFF748FADB
:100CC0000346C7F8543707F1A4031846FFF740FA64
:100CD0000346C7F8503707F140031846FFF738FAC4
:100CE0000346C7F84C373B461846FFF731FA034630
:100CF000C7F8483707F5A1638D49184604F060F935
:100D000007F5A9634FF400720021184604F0BBF9FF
:100D100007F5A1631846FFF71BFA03469AB207F5D9
:100D2000A1614FF47A73834802F0B0FF07F5A9611F
:100D300064234FF400727F4803F033F84FF4FA70E5
:100D400000F0C8FF002387F87F3734E007F5A16380
:100D50007949184604F034F907F5A9634FF4007295
:100D60000021184604F08FF907F5A1631846FFF734
:100D7000EFF903469AB207F5A1614FF47A736D4813
:100D800002F084FF07F5A9614FF47A734FF4007203
:100D9000684803F006F807F5A9636849184604F0A7
:100DA00087F90346002B02D0012387F87F374FF4E1
:100DB000FA7000F08FFF97F87F37002BC6D0002322
:100DC00087F87F3734E007F5A1635D49184604F0E2
:100DD000F7F807F5A9634FF400720021184604F0F4
:100DE00052F907F5A1631846FFF7B2F903469AB224
:100DF00007F5A1614FF47A734E4802F047FF07F5FB
:100E0000A9614FF47A734FF400724A4802F0C9FFA7
:100E100007F5A9634949184604F04AF90346002B2F
:100E200002D0012387F87F374FF4FA7000F052FFA9
:100E300097F87F37002BC6D0002387F87F3734E040
:100E400007F5A1633F49184604F0BAF807F5A9630E
:100E50004FF400720021184604F015F907F5A1635C
:100E60001846FFF775F903469AB207F5A1614FF4EA
:100E70007A73304802F00AFF07F5A9614FF47A73DC
:100E80004FF400722B4802F08CFF07F5A9632B4941
:100E9000184604F00DF90346002B02D0012387F811
:100EA0007F374FF4FA7000F015FF97F87F37002B6B
:100EB000C6D0254B1B6840F6AC52934202DD234B53
:100EC000C7F86C374FF48041214801F033FE0346E8
:100ED000002B04D14FF00003C7F86C3702E01B4B26
:100EE000C7F86C374FF40041194801F023FE034660
:100EF000002B03D1174BC7F8643702E0164BC7F835
:100F000064374FF40051124801F014FE0346002BE1
:100F100024D14FF00003C7F8683722E0F001002029
:100F200078880008B4880008FC8800080089000858
:100F300018890008AC0200202489000844890008B0
:100F40004889000858890008F402002033335340D0
:100F5000000C0140000020410000C842C84BC7F807
:100F60006837D7F85C07FFF75FFA04460D46D7F8F5
:100F70006807FFF759FA02460B4607F58470CDE97A
:100F8000002322462B46BF4904F01AF8D7F864071D
:100F9000FFF74AFA04460D46D7F86C07FFF744FA04
:100FA00002460B4607F1A400CDE9002322462B465A
:100FB000B54904F005F807F14003B449184603F0B9
:100FC000FFFF3B46B249184603F0FAFF07F584736A
:100FD0001846FFF7BDF80346C7F8543707F1A403D6
:100FE0001846FFF7B5F80346C7F8503707F1400336
:100FF0001846FFF7ADF80346C7F84C373B4618468E
:10100000FFF7A6F80346C7F8483707F5A9634FF47A
:1010100000720021184604F036F807F5A9614FF474
:101020007A734FF400729B4802F0BBFE07F5A96388
:101030009949184604F03CF80346002B03D00023DE
:10104000C7F878375DE007F5A9639449184604F0BE
:101050002FF80346002B03D00123C7F8783750E060
:1010600007F5A9638E49184604F022F80346002BC1
:1010700003D00223C7F8783743E007F5A96389490D
:10108000184604F015F80346002B03D00323C7F8D5
:10109000783736E007F5A9638349184604F008F865
:1010A0000346002B03D00423C7F8783729E007F55F
:1010B000A9637E49184603F0FBFF0346002B03D0CB
:1010C0000523C7F878371CE007F5A9637849184667
:1010D00003F0EEFF0346002B03D00623C7F8783752
:1010E0000FE007F5A9637349184603F0E1FF0346D3
:1010F000002B03D00723C7F8783702E06423C7F832
:10110000783707F5A9636C49184603F0D1FF034609
:10111000002B03D00023C7F8743710E007F5A9634C
:101120006649184603F0C4FF0346002B03D0012391
:10113000C7F8743703E0D7F87037C7F87437D7F8B3
:101140007837072B00F3C280D7F87437012B40F0B3
:10115000BD8001224FF40051594801F002FD0123E6
:10116000C7F87037D7F85427D7F84C371A44D7F850
:101170004837134407F5A160D7F87827514903F0A1
:101180001FFF07F5A9634FF400720021184603F012
:101190007AFF07F5A1631846FEF7DAFF03469AB215
:1011A00007F5A1614FF47A733A4802F06FFD07F535
:1011B000A96164234FF40072364802F0F2FD07F58E
:1011C000A9633E21184603F066FF0346002B2CD08E
:1011D00007F5A9634FF400720021184603F053FF8E
:1011E000D7F854379AB207F584714FF47A732948C7
:1011F00002F04CFDD7F84C379AB207F140014FF49A
:101200007A73244802F042FDD7F848379AB239463B
:101210004FF47A731F4802F039FD07F5A961642382
:101220004FF400721B4802F0BCFD07F5A163D7F82C
:1012300078272549184603F0C3FE07F5A9634FF444
:1012400000720021184603F01EFF07F5A16318463F
:10125000FEF77EFF03469AB207F5A1614FF47A7359
:101260000C4802F013FD07F5A96164234FF40072E6
:10127000084802F096FD6423C7F87837C5E000BF40
:101280000000544278880008B4880008FC880008F0
:1012900000890008AC0200206C89000874890008ED
:1012A0007C890008848900088C89000894890008DA
:1012B0009C890008A4890008AC890008BC89000842
:1012C00000100140CC890008E0890008D7F8783781
:1012D000072B3FF7EEADD7F87437002B7FF4E9AD5D
:1012E00000224FF40051494801F03BFC0023C7F8AD
:1012F0007037D7F85427D7F850371A44D7F84837FB
:10130000134407F5A160D7F87827414903F058FE48
:1013100007F5A9634FF400720021184603F0B3FEED
:1013200007F5A1631846FEF713FF03469AB207F5C7
:10133000A1614FF47A73374802F0A8FC07F5A96160
:1013400064234FF40072334802F02BFD07F5A963C4
:101350003E21184603F09FFE0346002B2CD007F5D4
:10136000A9634FF400720021184603F08CFED7F8F1
:1013700054379AB207F584714FF47A73254802F016
:1013800085FCD7F850379AB207F1A4014FF47A736D
:10139000204802F07BFCD7F848379AB239464FF420
:1013A0007A731C4802F072FC07F5A96164234FF4BC
:1013B0000072184802F0F5FC07F5A163D7F878270A
:1013C0001549184603F0FCFD07F5A9634FF40072B8
:1013D0000021184603F057FE07F5A1631846FEF7F3
:1013E000B7FE03469AB207F5A1614FF47A73094834
:1013F00002F04CFC07F5A96164234FF40072054824
:1014000002F0CFFC6423C7F8783752E500100140A2
:10141000CC890008AC020020E089000880B594B0B7
:1014200000AF07F1280328220021184603F02BFE05
:1014300007F1140300221A605A609A60DA601A6198
:101440003B1D00221A605A609A60DA600223BB6278
:101450000123BB631023FB6300237B6407F1280394
:10146000184601F097FB0346002B01D000F06AF903
:101470000F237B610023BB610023FB6100233B62E0
:1014800000237B6207F114030021184601F004FEDB
:101490000346002B01D000F055F902237B600023A6
:1014A000FB603B1D184601F085FF0346002B01D071
:1014B00000F048F900BF5037BD4680BD80B584B00C
:1014C00000AF3B1D00221A605A609A60184B194AFF
:1014D0001A60174B00229A60154B00221A73144BA6
:1014E00000221A75124B4FF46022DA61104B002271
:1014F0005A600F4B01221A610D4800F00FFC0346A1
:10150000002B01D000F01EF908237B600123BB6093
:101510000023FB603B1D1946054800F085FD03468E
:10152000002B01D000F00EF900BF1037BD4680BD82
:10153000F00100200024014080B58AB000AF07F11F
:10154000200300221A605A603B1D00221A605A6074
:101550009A60DA601A615A619A61214B214A1A60D5
:101560001F4B1D225A601E4B00229A601C4B022208
:10157000DA601B4B00221A61194B00229A6118484D
:1015800001F0CEFF0346002B01D000F0DBF8002372
:101590003B6200237B6207F120031946104802F0EA
:1015A000C7FA0346002B01D000F0CCF860237B6023
:1015B0000023BB600023FB6000237B613B1D0022F6
:1015C0001946074801F0FCFF0346002B01D000F04C
:1015D000B9F8034800F07AF900BF2837BD4680BD4E
:1015E000200200200004004080B500AF114B124AD9
:1015F0001A60104B4FF4E1325A600E4B00229A6091
:101600000C4B0022DA600B4B00221A61094B0C22B2
:101610005A61084B00229A61064B0022DA610548A4
:1016200002F0E4FA0346002B01D000F08BF800BF73
:1016300080BD00BFAC0200200038014080B582B000
:1016400000AF0C4B5B690B4A43F001035361094B3C
:101650005B6903F001037B607B680022002110209E
:1016600000F04DFF102000F066FF00BF0837BD46B8
:1016700080BD00BF0010024080B588B000AF07F108
:10168000100300221A605A609A60DA602A4B9B6944
:10169000294A43F010039361274B9B6903F0100321
:1016A000FB60FB68244B9B69234A43F02003936152
:1016B000214B9B6903F02003BB60BB681E4B9B69F9
:1016C0001D4A43F0040393611B4B9B6903F0040321
:1016D0007B607B68184B9B69174A43F00803936152
:1016E000154B9B6903F008033B603B6800224FF4F5
:1016F0000051124801F035FA4FF400533B610123C9
:101700007B610023BB610223FB6107F110031946D3
:101710000A4801F08BF84FF460433B6100237B6182
:101720000023BB6107F110031946054801F07EF85C
:1017300000BF2037BD4680BD0010024000100140B0
:10174000000C014080B400AF72B600BF00BFFDE7DF
:1017500080B485B000AF154B9B69144A43F0010378
:101760009361124B9B6903F00103BB60BB680F4B95
:10177000DB690E4A43F08053D3610C4BDB6903F005
:1017800080537B607B680A4B5B68FB60FB6823F0DF
:10179000E063FB60FB6843F00073FB60044AFB6896
:1017A000536000BF1437BD4680BC70470010024034
:1017B0000000014080B588B000AF786007F11003E9
:1017C00000221A605A609A60DA607B681B68144ACB
:1017D000934221D1134B9B69124A43F400739361E6
:1017E000104B9B6903F40073FB60FB680D4B9B6916
:1017F0000C4A43F0080393610A4B9B6903F008030A
:10180000BB60BB6801233B6103237B6107F11003CD
:101810001946054801F00AF800BF2037BD4680BDD3
:101820000024014000100240000C014080B584B04B
:1018300000AF78607B681B68204A934239D1204B07
:10184000DB691F4A43F00203D3611D4BDB6903F0E0
:101850000203FB60FB681B4B1B4A1A60194B1022EA
:101860005A60184B00229A60164B8022DA60154BA2
:101870004FF480721A61134B4FF480625A61114B1E
:1018800000229A610F4B0022DA610E4800F06EFED2
:101890000346002B01D0FFF755FF7B68094A5A62C7
:1018A000084A7B6853627B68064A9A63054A7B68EC
:1018B000536200BF1037BD4680BD00BF000400402A
:1018C00000100240680200206C00024080B588B021
:1018D00000AF786007F1100300221A605A609A6026
:1018E000DA607B681B680F4A934217D10E4B9B69E5
:1018F0000D4A43F0040393610B4B9B6903F004030F
:10190000FB60FB6840233B6102237B610223FB6198
:1019100007F110031946054800F088FF00BF203783
:10192000BD4680BD00040040001002400008014098
:1019300080B588B000AF786007F1100300221A600C
:101940005A609A60DA607B681B681C4A934231D106
:101950001B4B9B691A4A43F480439361184B9B6964
:1019600003F48043FB60FB68154B9B69144A43F00A
:1019700004039361124B9B6903F00403BB60BB68D3
:101980004FF400733B6102237B610323FB6107F18A
:10199000100319460B4800F049FF4FF480633B6188
:1019A00000237B610023BB6107F110031946054842
:1019B00000F03CFF00BF2037BD4680BD003801402D
:1019C000001002400008014080B400AF00BFFDE7F6
:1019D00080B400AF00BFFDE780B400AF00BFFDE7FB
:1019E00080B400AF00BFFDE780B400AF00BFFDE7EB
:1019F00080B400AF00BFBD4680BC704780B400AF6C
:101A000000BFBD4680BC704780B400AF00BFBD467C
:101A100080BC704780B500AF00F040F900BF80BDCA
:101A200080B500AF024800F0FBFD00BF80BD00BFE5
:101A30006802002080B400AF01231846BD4680BC78
:101A4000704780B582B000AF7860396003F090FBDA
:101A5000034616221A604FF0FF3318460837BD467A
:101A600080BD80B582B000AF78604FF0FF317868FC
:101A7000FFF7E7FF00BFFDE780B586B000AFF86075
:101A8000B9607A6000237B610AE0AFF30080014611
:101A9000BB685A1CBA60CAB21A707B6901337B6199
:101AA0007A697B689A42F0DB7B6818461837BD4636
:101AB00080BD80B586B000AFF860B9607A60002361
:101AC0007B6109E0BB685A1CBA601B781846AFF30B
:101AD00000807B6901337B617A697B689A42F1DB24
:101AE0007B6818461837BD4680BD80B483B000AF10
:101AF00078604FF0FF3318460C37BD4680BC704706
:101B000080B483B000AF786039603B684FF4005216
:101B10005A60002318460C37BD4680BC704780B41D
:101B200083B000AF7860012318460C37BD4680BCF7
:101B3000704780B485B000AFF860B9607A60002368
:101B400018461437BD4680BC7047000080B586B08B
:101B500000AF7860144A154BD31A7B617B693B61F7
:101B6000134B1B68002B02D1114B124A1A60104B09
:101B70001A687B6813443A699A4207D203F0F8FA6C
:101B800003460C221A604FF0FF3309E0084B1B6834
:101B9000FB60074B1A687B681344054A1360FB68B7
:101BA00018461837BD4680BD0050002000040000D4
:101BB000F80200205004002080B400AF00BFBD46F2
:101BC00080BC7047FFF7F8FF0B480C490C4A002314
:101BD00002E0D458C4500433C4188C42F9D3094AE3
:101BE000094C002301E013600432A242FBD303F04E
:101BF000C5FAFEF7EFFF704700000020D401002077
:101C0000608E0008D40100204C040020FEE7000094
:101C100080B500AF084B1B68074A43F01003136000
:101C2000032000F061FC0F2000F008F8FFF790FDA2
:101C30000023184680BD00BF0020024080B582B05E
:101C400000AF7860124B1A68124B1B7819464FF49C
:101C50007A73B3FBF1F3B2FBF3F3184600F079FCAF
:101C60000346002B01D001230EE07B680F2B0AD81E
:101C7000002279684FF0FF3000F041FC064A7B6893
:101C80001360002300E0012318460837BD4680BDDD
:101C900000000020080000200400002080B400AFF5
:101CA000054B1B781A46054B1B681344034A136007
:101CB00000BFBD4680BC704708000020FC02002029
:101CC00080B400AF024B1B681846BD4680BC70470D
:101CD000FC02002080B584B000AF7860FFF7F0FF11
:101CE000B8607B68FB60FB68B3F1FF3F05D00A4B2F
:101CF0001B781A46FB681344FB6000BFFFF7E0FF48
:101D00000246BB68D31AFA689A42F7D800BF00BFF0
:101D10001037BD4680BD00BF0800002080B586B0EA
:101D200000AF78600023FB7500233B610023BB609C
:101D30000023FB607B68002B01D10123BEE07B68A0
:101D40009B68002B7B689B6A002B09D17B68002273
:101D5000DA627B68002283F824207868FFF72AFD86
:101D6000786800F0B3FA0346FB757B689B6A03F062
:101D70001003002B40F09980FB7D002B40F09580F4
:101D80007B689B6A23F4885323F0020343F002022A
:101D90007B689A627B685A687B68DB691A437B6858
:101DA0001B7B5B001343BA681343BB607B689B6873
:101DB000B3F5807F03D07B689B68012B02D14FF481
:101DC000807300E000233A6913433B617B681B7D0D
:101DD000012B19D17B681B7B002B09D17B689B6988
:101DE000013B5A033B69134343F400633B610BE03F
:101DF0007B689B6A43F020027B689A627B68DB6A9F
:101E000043F001027B68DA627B681B685B6823F43D
:101E100069417B681B683A690A435A607B681B68A2
:101E20009A68284B13407A681268B9680B4393602C
:101E30007B689B68B3F5807F03D07B689B68012B30
:101E400004D17B681B69013B1B05FB607B681B6839
:101E5000DB6A23F470017B681B68FA680A43DA6264
:101E60007B681B689A68184B1340BA689A420BD17A
:101E70007B680022DA627B689B6A23F0030343F0ED
:101E800001027B689A6218E07B689B6A23F0120368
:101E900043F010027B689A627B68DB6A43F00102C0
:101EA0007B68DA620123FB7507E07B689B6A43F07D
:101EB00010027B689A620123FB75FB7D1846183778
:101EC000BD4680BDFDF7E1FFFE0E1FFF80B584B06B
:101ED00000AF78600023FB737B6893F82430012BFC
:101EE00001D1022398E07B68012283F824207868DE
:101EF00000F092F90346FB73FB7B002B40F08780D8
:101F00007B689B6A23F4407323F0010343F48072DF
:101F10007B689A627B681B68414A934205D1414BBA
:101F20005B6803F47023002B15D17B689B6A23F454
:101F300080127B689A627B681B685B6803F480632D
:101F4000002B26D07B689B6A23F4405343F48052D5
:101F50007B689A621DE07B689B6A43F480127B6811
:101F60009A627B681B682F4A934204D07B681B6887
:101F70002B4A93420DD12B4B5B6803F48063002BFB
:101F800007D07B689B6A23F4405343F480527B68FC
:101F90009A627B689B6A03F48053002B06D07B68AF
:101FA000DB6A23F006027B68DA6202E07B680022CB
:101FB000DA627B68002283F824207B681B686FF05C
:101FC00002021A607B681B689B6803F46023B3F508
:101FD000602F13D17B681B68114A934205D1114BC6
:101FE0005B6803F47023002B08D17B681B689A6838
:101FF0007B681B6842F4A0029A600CE07B681B6857
:102000009A687B681B6842F480129A6003E07B68E0
:10201000002283F82420FB7B18461037BD4680BD84
:10202000002801400024014080B485B000AF7860F2
:1020300039600023FB730023BB607B6893F8243076
:10204000012B01D10223DCE07B68012283F82420EC
:102050003B685B68062B1CD87B681B68596B3B6828
:102060005A6813469B001344053B1F2202FA03F3F0
:10207000DB4319403B6818683B685A6813469B006D
:102080001344053B00FA03F27B681B680A435A635A
:102090003CE03B685B680C2B1CD87B681B68196BA9
:1020A0003B685A6813469B001344233B1F2202FAE5
:1020B00003F3DB4319403B6818683B685A681346D2
:1020C0009B001344233B00FA03F27B681B680A431E
:1020D0001A631BE07B681B68D96A3B685A68134621
:1020E0009B001344413B1F2202FA03F3DB431940D8
:1020F0003B6818683B685A6813469B001344413B91
:1021000000FA03F27B681B680A43DA623B681B68CB
:10211000092B1CD97B681B68D9683B681A68134671
:102120005B0013441E3B072202FA03F3DB43194012
:102130003B6898683B681A6813465B0013441E3B73
:1021400000FA03F27B681B680A43DA6019E07B68D7
:102150001B6819693B681A6813465B001344072221
:1021600002FA03F3DB4319403B6898683B681A683E
:1021700013465B00134400FA03F27B681B680A43B2
:102180001A613B681B68102B03D03B681B68112B3E
:1021900032D17B681B681D4A934225D17B681B683E
:1021A0009B6803F40003002B26D17B681B689A68A8
:1021B0007B681B6842F400029A603B681B68102B26
:1021C0001AD1134B1B68134AA2FB03239A0C134624
:1021D0009B0013445B00BB6002E0BB68013BBB603B
:1021E000BB68002BF9D107E07B689B6A43F02002B3
:1021F0007B689A620123FB737B68002283F82420AA
:10220000FB7B18461437BD4680BC70470024014054
:102210000000002083DE1B4380B584B000AF7860EF
:102220000023FB600023BB607B681B689B6803F096
:102230000103012B40D07B681B689A687B681B6890
:1022400042F001029A601F4B1B681F4AA2FB032346
:102250009B0CBB6002E0BB68013BBB60BB68002B12
:10226000F9D1FFF72DFDF8601FE0FFF729FD0246C9
:10227000FB68D31A022B18D97B681B689B6803F094
:102280000103012B11D07B689B6A43F010027B682D
:102290009A627B68DB6A43F001027B68DA627B68E2
:1022A000002283F82420012307E07B681B689B68D9
:1022B00003F00103012BD8D1002318461037BD4687
:1022C00080BD00BF0000002083DE1B4380B584B0CA
:1022D00000AF78600023FB607B681B689B6803F09D
:1022E0000103012B2ED17B681B689A687B681B68F1
:1022F00022F001029A60FFF7E3FCF8601BE0FFF7B1
:10230000DFFC0246FB68D31A022B14D97B681B68DA
:102310009B6803F00103012B0DD17B689B6A43F09E
:1023200010027B689A627B68DB6A43F001027B687B
:10233000DA62012307E07B681B689B6803F00103F6
:10234000012BDCD0002318461037BD4680BD0000AD
:1023500080B485B000AF78607B6803F00703FB6052
:102360000C4BDB68BB60BA684FF6FF031340BB60E1
:10237000FB681A02BB68134343F0BF6343F40033A6
:10238000BB60044ABB68D36000BF1437BD4680BC45
:10239000704700BF00ED00E080B400AF044BDB6885
:1023A0001B0A03F007031846BD4680BC704700BFF8
:1023B00000ED00E080B483B000AF0346FB7197F9F5
:1023C0000730002B0BDBFB7903F01F02064997F95E
:1023D00007305B09012000FA02F241F8232000BF18
:1023E0000C37BD4680BC704700E100E080B483B08C
:1023F00000AF03463960FB7197F90730002B0ADB09
:102400003B68DAB20C4997F907301201D2B20B449B
:1024100083F800230AE03B68DAB20849FB7903F04D
:102420000F03043B1201D2B20B441A7600BF0C37E3
:10243000BD4680BC704700BF00E100E000ED00E059
:1024400080B489B000AFF860B9607A60FB6803F0CF
:102450000703FB61FB69C3F10703042B28BF0423B7
:10246000BB61FB690433062B02D9FB69033B00E027
:1024700000237B614FF0FF32BB6902FA03F3DA43BA
:10248000BB681A407B699A404FF0FF317B6901FAC3
:1024900003F3D9437B680B40134318462437BD46EA
:1024A00080BC704780B582B000AF78607B68013B2C
:1024B000B3F1807F01D301230FE00A4A7B68013B1F
:1024C00053600F214FF0FF30FFF790FF054B0022C4
:1024D0009A60044B07221A60002318460837BD464D
:1024E00080BD00BF10E000E080B582B000AF786032
:1024F0007868FFF72DFF00BF0837BD4680BD80B567
:1025000086B000AF0346B9607A60FB7300237B613D
:10251000FFF742FF78617A68B9687869FFF790FF42
:10252000024697F90F3011461846FFF75FFF00BFCC
:102530001837BD4680BD80B582B000AF0346FB7141
:1025400097F907301846FFF735FF00BF0837BD463B
:1025500080BD80B582B000AF78607868FFF7A2FFD9
:10256000034618460837BD4680BD000080B485B0DC
:1025700000AF78600023FB607B68002B01D1012352
:1025800043E07B681B681A46224B1344224AA2FB95
:1025900003231B099A007B681A647B681F4ADA636D
:1025A0007B68022283F821207B681B681B68FB6024
:1025B000FB6823F47F5323F03003FB607B685A6889
:1025C0007B689B681A437B68DB681A437B681B69DE
:1025D0001A437B685B691A437B689B691A437B6873
:1025E000DB691343FA681343FB607B681B68FA6876
:1025F0001A607B6800229A637B68012283F821209D
:102600007B68002283F82020002318461437BD463B
:1026100080BC7047F8FFFDBFCDCCCCCC00000240A1
:1026200080B584B000AF78607B68DB6B1B68FB60B3
:102630007B681B681B68BB607B681B6C04229A402C
:10264000FB681340002B4FD0BB6803F00403002B42
:102650004AD07B681B681B6803F02003002B07D15E
:102660007B681B681A687B681B6822F004021A608A
:102670007B681B68664A934229D07B681B68654A61
:10268000934222D07B681B68634A93421AD07B68CE
:102690001B68624A934212D07B681B68604A93426F
:1026A0000AD07B681B685F4A934202D14FF48003D3
:1026B0000EE04FF080630BE04FF4802308E04FF40E
:1026C000804305E04FF4806302E0402300E00423F0
:1026D000554A53607B68DB6A002B00F094807B686E
:1026E000DB6A786898478EE07B681B6C02229A4010
:1026F000FB681340002B56D0BB6803F00203002B8D
:1027000051D07B681B681B6803F02003002B0BD1A2
:102710007B681B681A687B681B6822F00A021A60D3
:102720007B68012283F821207B681B68384A93422A
:1027300029D07B681B68374A934222D07B681B688C
:10274000354A93421AD07B681B68344A934212D0B0
:102750007B681B68324A93420AD07B681B68314A07
:10276000934202D14FF400130EE04FF000730BE0E0
:102770004FF4003308E04FF4005305E04FF40073CA
:1027800002E0202300E00223274A53607B680022F6
:1027900083F820207B689B6A002B34D07B689B6A7F
:1027A000786898472FE07B681B6C08229A40FB688A
:1027B0001340002B28D0BB6803F00803002B23D064
:1027C0007B681B681A687B681B6822F00E021A601F
:1027D0007B681A6C7B68DB6B012101FA02F25A609C
:1027E0007B6801229A637B68012283F821207B6841
:1027F000002283F820207B681B6B002B04D07B68B1
:102800001B6B7868984700BF00BF1037BD4680BD7E
:10281000080002401C000240300002404400024018
:10282000580002406C0002400000024080B48BB0AF
:1028300000AF7860396000237B6200233B6269E16E
:1028400001227B6A02FA03F3FB613B681B68FA69A9
:102850001340BB61BA69FB699A4240F058813B68FA
:102860005B689A4A93425ED0984A934275D8984AD8
:10287000934258D0964A93426FD8964A934252D088
:10288000944A934269D8944A93424CD0924A9342D4
:1028900063D8924A934246D0904A93425DD8122B15
:1028A0002AD8122B59D801A252F823F02729000860
:1028B0000129000813290008552900085B29000890
:1028C0005B2900085B2900085B2900085B290008D8
:1028D0005B2900085B2900085B2900085B290008C8
:1028E0005B2900085B2900085B2900085B290008B8
:1028F000092900081D290008794A934213D02CE0C9
:102900003B68DB683B6229E03B68DB6804333B6281
:1029100024E03B68DB6808333B621FE03B68DB6810
:102920000C333B621AE03B689B68002B02D1042306
:102930003B6213E03B689B68012B05D108233B6297
:102940007B68FA691A6109E008233B627B68FA69CF
:102950005A6103E000233B6200E000BFBB69FF2B2C
:1029600001D87B6801E07B6804337B61BB69FF2B86
:1029700002D87B6A9B0002E07B6A083B9B003B61BC
:102980007B691A680F213B6901FA03F3DB431A40A4
:10299000396A3B6901FA03F31A437B691A603B68A1
:1029A0005B6803F08053002B00F0B1804D4B9B69B6
:1029B0004C4A43F0010393614A4B9B6903F00103C6
:1029C000BB60BB68484A7B6A9B08023352F82330DD
:1029D000FB607B6A03F003039B000F2202FA03F300
:1029E000DB43FA681340FB607B68404A934213D094
:1029F0007B683F4A93420DD07B683E4A934207D0A2
:102A00007B683D4A934201D1032306E0042304E09E
:102A1000022302E0012300E000237A6A02F00302AD
:102A200092009340FA681343FB602F497B6A9B082E
:102A30000233FA6841F823203B685B6803F4801393
:102A4000002B06D02D4B9A682C49BB6913438B6031
:102A500006E02A4B9A68BB69DB43284913408B6028
:102A60003B685B6803F40013002B06D0234BDA6845
:102A70002249BB691343CB6006E0204BDA68BB698F
:102A8000DB431E491340CB603B685B6803F40033B3
:102A9000002B06D0194B5A681849BB6913434B6089
:102AA00006E0164B5A68BB69DB43144913404B6080
:102AB0003B685B6803F48033002B21D00F4B1A680E
:102AC0000E49BB6913430B6021E000BF00003210C8
:102AD0000000311000002210000021100000121030
:102AE00000001110001002400000014000080140E9
:102AF000000C01400010014000140140000401409E
:102B00000B4B1A68BB69DB43094913400B607B6AB6
:102B100001337B623B681A687B6A22FA03F3002B5D
:102B20007FF48EAE00BF00BF2C37BD4680BC70471F
:102B30000004014080B485B000AF78600B467B8014
:102B40007B689A687B881340002B02D00123FB73BB
:102B500001E00023FB73FB7B18461437BD4680BCA5
:102B6000704780B483B000AF78600B467B8013461B
:102B70007B707B78002B03D07A887B681A6103E036
:102B80007B881A047B681A6100BF0C37BD4680BC85
:102B90007047000080B586B000AF78607B68002B7E
:102BA00001D1012372E27B681B6803F00103002B53
:102BB00000F08780924B5B6803F00C03042B0CD071
:102BC0008F4B5B6803F00C03082B12D18C4B5B68B6
:102BD00003F48033B3F5803F0BD1894B1B6803F4BA
:102BE0000033002B6CD07B685B68002B68D101231D
:102BF0004CE27B685B68B3F5803F06D1804B1B6875
:102C00007F4A43F4803313602EE07B685B68002BBF
:102C10000CD17B4B1B687A4A23F480331360784BCA
:102C20001B68774A23F4802313601DE07B685B6890
:102C3000B3F5A02F0CD1724B1B68714A43F480236B
:102C400013606F4B1B686E4A43F4803313600BE0D4
:102C50006B4B1B686A4A23F480331360684B1B6814
:102C6000674A23F4802313607B685B68002B13D0D2
:102C7000FFF726F8386108E0FFF722F802463B69C3
:102C8000D31A642B01D9032300E25D4B1B6803F4C4
:102C90000033002BF0D014E0FFF712F8386108E0A1
:102CA000FFF70EF802463B69D31A642B01D90323C0
:102CB000ECE1534B1B6803F40033002BF0D100E030
:102CC00000BF7B681B6803F00203002B63D04C4BF2
:102CD0005B6803F00C03002B0BD0494B5B6803F0DF
:102CE0000C03082B1CD1464B5B6803F48033002B8C
:102CF00016D1434B1B6803F00203002B05D07B6801
:102D00001B69012B01D00123C0E13D4B1B6823F05F
:102D1000F8027B685B69DB00394913430B603AE0DA
:102D20007B681B69002B20D0364B01221A60FEF70E
:102D3000C7FF386108E0FEF7C3FF02463B69D31ABC
:102D4000022B01D90323A1E12D4B1B6803F00203E1
:102D5000002BF0D02A4B1B6823F0F8027B685B69DC
:102D6000DB00274913430B6015E0264B00221A6055
:102D7000FEF7A6FF386108E0FEF7A2FF02463B69B6
:102D8000D31A022B01D9032380E11D4B1B6803F0EA
:102D90000203002BF0D17B681B6803F00803002BB3
:102DA0003AD07B689B69002B19D0174B01221A601F
:102DB000FEF786FF386108E0FEF782FF02463B69B6
:102DC000D31A022B01D9032360E10D4B5B6A03F098
:102DD0000203002BF0D0012000F0CEFA1CE00A4BD9
:102DE00000221A60FEF76CFF38610FE0FEF768FF03
:102DF00002463B69D31A022B08D9032346E100BFE0
:102E0000001002400000424280044242924B5B6A42
:102E100003F00203002BE9D17B681B6803F0040375
:102E2000002B00F0A6800023FB758B4BDB6903F0C1
:102E30008053002B0DD1884BDB69874A43F08053C8
:102E4000D361854BDB6903F08053BB60BB68012312
:102E5000FB75824B1B6803F48073002B18D17F4BEA
:102E60001B687E4A43F480731360FEF729FF3861C4
:102E700008E0FEF725FF02463B69D31A642B01D90F
:102E8000032303E1754B1B6803F48073002BF0D020
:102E90007B68DB68012B06D16F4B1B6A6E4A43F0DF
:102EA000010313622DE07B68DB68002B0CD16A4BB9
:102EB0001B6A694A23F001031362674B1B6A664A67
:102EC00023F0040313621CE07B68DB68052B0CD144
:102ED000614B1B6A604A43F0040313625E4B1B6A3A
:102EE0005D4A43F0010313620BE05B4B1B6A5A4AD5
:102EF00023F001031362584B1B6A574A23F0040363
:102F000013627B68DB68002B15D0FEF7D9FE3861B1
:102F10000AE0FEF7D5FE02463B69D31A41F2883239
:102F2000934201D90323B1E04B4B1B6A03F0020328
:102F3000002BEED014E0FEF7C3FE38610AE0FEF786
:102F4000BFFE02463B69D31A41F28832934201D94F
:102F500003239BE0404B1B6A03F00203002BEED1DE
:102F6000FB7D012B05D13C4BDB693B4A23F08053B1
:102F7000D3617B68DB69002B00F08780364B5B6890
:102F800003F00C03082B61D07B68DB69022B46D170
:102F9000334B00221A60FEF793FE386108E0FEF71B
:102FA0008FFE02463B69D31A022B01D903236DE041
:102FB000294B1B6803F00073002BF0D17B681B6A60
:102FC000B3F5803F08D1244B5B6823F400327B6863
:102FD0009B68214913434B601F4B5B6823F47412B9
:102FE0007B68196A7B685B6A0B431B4913434B6020
:102FF0001B4B01221A60FEF763FE386108E0FEF702
:103000005FFE02463B69D31A022B01D903233DE040
:10301000114B1B6803F00073002BF0D035E0104B10
:1030200000221A60FEF74CFE386108E0FEF748FE09
:1030300002463B69D31A022B01D9032326E0064B33
:103040001B6803F00073002BF0D11EE07B68DB6986
:10305000012B07D1012319E000100240007000404D
:10306000600042420B4B5B68FB60FB6803F48032FC
:103070007B681B6A9A4206D1FB6803F470127B6876
:103080005B6A9A4201D0012300E0002318461837FA
:10309000BD4680BD0010024080B584B000AF7860AE
:1030A00039607B68002B01D10123D0E06A4B1B689B
:1030B00003F007033A689A4210D9674B1B6823F064
:1030C000070265493B6813430B60634B1B6803F0C1
:1030D00007033A689A4201D00123B8E07B681B6875
:1030E00003F00203002B20D07B681B6803F004036D
:1030F000002B05D0594B5B68584A43F4E06353609A
:103100007B681B6803F00803002B05D0534B5B68FA
:10311000524A43F460535360504B5B6823F0F00213
:103120007B689B684D4913434B607B681B6803F0C9
:103130000103002B40D07B685B68012B07D1474B14
:103140001B6803F40033002B15D101237FE07B685B
:103150005B68022B07D1414B1B6803F00073002B07
:1031600009D1012373E03D4B1B6803F00203002BE0
:1031700001D101236BE0394B5B6823F003027B68CC
:103180005B68364913434B60FEF79AFDF8600AE02E
:10319000FEF796FD0246FB68D31A41F2883293424D
:1031A00001D9032353E02D4B5B6803F00C027B68CD
:1031B0005B689B009A42EBD1274B1B6803F0070327
:1031C0003A689A4210D2244B1B6823F00702224926
:1031D0003B6813430B60204B1B6803F007033A68FE
:1031E0009A4201D0012332E07B681B6803F004039C
:1031F000002B08D0194B5B6823F4E0627B68DB6826
:10320000164913434B607B681B6803F00803002BCF
:1032100009D0124B5B6823F460527B681B69DB00AA
:103220000E4913434B6000F021F802460B4B5B68DC
:103230001B0903F00F030A49CB5C22FA03F3094A86
:103240001360094B1B681846FEF7F8FC002318466C
:103250001037BD4680BD00BF002002400010024074
:10326000F4890008000000200400002080B487B02A
:1032700000AF0023FB600023BB6000237B610023C1
:103280007B6000233B611E4B5B68FB60FB6803F0C7
:103290000C03042B02D0082B03D027E0194B3B6111
:1032A00027E0FB689B0C03F00F03174AD35C7B609D
:1032B000FB6803F48033002B10D0114B5B685B0C70
:1032C00003F00103114AD35CBB607B680D4A03FB2A
:1032D00002F2BB68B2FBF3F37B6104E07B680C4A4B
:1032E00002FB03F37B617B693B6102E0054B3B61C1
:1032F00000BF3B6918461C37BD4680BC704700BF05
:103300000010024000127A000C8A00081C8A000893
:1033100000093D0080B400AF024B1B681846BD4653
:1033200080BC70470000002080B500AFFFF7F2FFBF
:103330000246054B5B681B0A03F007030349CB5C9D
:1033400022FA03F3184680BD00100240048A0008E8
:1033500080B500AFFFF7DEFF0246054B5B68DB0A76
:1033600003F007030349CB5C22FA03F3184680BD40
:1033700000100240048A000880B485B000AF786075
:103380000A4B1B680A4AA2FB03235B0A7A6802FB0A
:1033900003F3FB6000BFFB685A1EFA60002BF9D1F3
:1033A00000BF00BF1437BD4680BC7047000000203E
:1033B000D34D621080B586B000AF786000233B61CA
:1033C0000023FB607B681B6803F00103002B7DD0AA
:1033D0000023FB754F4BDB6903F08053002B0DD1AD
:1033E0004C4BDB694B4A43F08053D361494BDB695B
:1033F00003F08053BB60BB680123FB75464B1B6821
:1034000003F48073002B18D1434B1B68424A43F4EA
:1034100080731360FEF754FC386108E0FEF750FC3F
:1034200002463B69D31A642B01D903236DE03A4B62
:103430001B6803F48073002BF0D0364B1B6A03F437
:103440004073FB60FB68002B2ED07B685B6803F445
:103450004073FA689A4227D02E4B1B6A23F44073BC
:10346000FB602E4B01221A602C4B00221A60294A65
:10347000FB681362FB6803F00103002B14D0FEF716
:103480001FFC38610AE0FEF71BFC02463B69D31AB9
:1034900041F28832934201D9032336E01D4B1B6A67
:1034A00003F00203002BEED01A4B1B6A23F4407288
:1034B0007B685B68174913430B62FB7D012B05D1C9
:1034C000144BDB69134A23F08053D3617B681B687C
:1034D00003F00203002B08D00E4B5B6823F440423C
:1034E0007B689B680B4913434B607B681B6803F048
:1034F0001003002B08D0074B5B6823F480027B6825
:10350000DB68044913434B60002318461837BD4657
:1035100080BD00BF001002400070004040044242E5
:1035200080B582B000AF78607B68002B01D10123A9
:1035300041E07B6893F83D30DBB2002B06D17B681D
:10354000002283F83C207868FEF770F97B6802223D
:1035500083F83D207B681A687B680433194610465F
:1035600000F0F0F87B68012283F846207B68012296
:1035700083F83E207B68012283F83F207B6801228C
:1035800083F840207B68012283F841207B68012278
:1035900083F842207B68012283F843207B68012264
:1035A00083F844207B68012283F845207B68012250
:1035B00083F83D20002318460837BD4680BD000033
:1035C00080B586B000AFF860B9607A600023FB7503
:1035D000FB6893F83C30012B01D10223AEE0FB687D
:1035E000012283F83C207B680C2B00F29F8001A213
:1035F00052F823F0293600082D3700082D3700082F
:103600002D370008693600082D3700082D370008CF
:103610002D370008AB3600082D3700082D3700087D
:103620002D370008EB360008FB681B68B9681846A0
:1036300000F0F6F8FB681B689A69FB681B6842F0AB
:1036400008029A61FB681B689A69FB681B6822F094
:1036500004029A61FB681B689969BB681A69FB6878
:103660001B680A439A6164E0FB681B68B9681846E6
:1036700000F03CF9FB681B689A69FB681B6842F420
:1036800000629A61FB681B689A69FB681B6822F4F8
:1036900080629A61FB681B689969BB681B691A02A2
:1036A000FB681B680A439A6143E0FB681B68B968C2
:1036B000184600F085F9FB681B68DA69FB681B682F
:1036C00042F00802DA61FB681B68DA69FB681B6874
:1036D00022F00402DA61FB681B68D969BB681A69C9
:1036E000FB681B680A43DA6123E0FB681B68B96862
:1036F000184600F0CFF9FB681B68DA69FB681B68A5
:1037000042F40062DA61FB681B68DA69FB681B68D7
:1037100022F48062DA61FB681B68D969BB681B69A7
:103720001A02FB681B680A43DA6102E00123FB7599
:1037300000BFFB68002283F83C20FB7D1846183749
:10374000BD4680BD80B485B000AF786039607B68CD
:103750001B68FB607B682F4A93420BD07B68B3F1F8
:10376000804F07D07B682C4A934203D07B682B4A5A
:10377000934208D1FB6823F07003FB603B685B68F1
:10378000FA681343FB607B68224A93420BD07B6844
:10379000B3F1804F07D07B681F4A934203D07B6808
:1037A0001E4A934208D1FB6823F44073FB603B68D8
:1037B000DB68FA681343FB60FB6823F080023B6818
:1037C0005B691343FB607B68FA681A603B689A6820
:1037D0007B68DA623B681A687B689A627B680D4A8C
:1037E000934203D13B681A697B681A637B680122A4
:1037F0005A617B681B6903F00103002B05D07B68CD
:103800001B6923F001027B681A6100BF1437BD46B3
:1038100080BC7047002C01400004004000080040BC
:1038200080B487B000AF786039607B681B6A7B61C9
:103830007B681B6A23F001027B681A627B685B6805
:103840003B617B689B69FB60FB6823F07003FB6056
:10385000FB6823F00303FB603B681B68FA681343B3
:10386000FB607B6923F002037B613B689B687A699C
:1038700013437B617B681C4A93420CD17B6923F024
:1038800008037B613B68DB687A6913437B617B6972
:1038900023F004037B617B68134A934211D13B6997
:1038A00023F480733B613B6923F400733B613B6805
:1038B0005B693A6913433B613B689B693A6913430F
:1038C0003B617B683A695A607B68FA689A613B6839
:1038D0005A687B685A637B687A691A6200BF1C3732
:1038E000BD4680BC704700BF002C014080B487B04B
:1038F00000AF786039607B681B6A7B617B681B6AFC
:1039000023F010027B681A627B685B683B617B680E
:103910009B69FB60FB6823F4E043FB60FB6823F4D6
:103920004073FB603B681B681B02FA681343FB6033
:103930007B6923F020037B613B689B681B017A69EC
:1039400013437B617B681D4A93420DD17B6923F051
:1039500080037B613B68DB681B017A6913437B61F1
:103960007B6923F040037B617B68144A934213D147
:103970003B6923F480633B613B6923F400633B6153
:103980003B685B699B003A6913433B613B689B69F9
:103990009B003A6913433B617B683A695A607B68D4
:1039A000FA689A613B685A687B689A637B687A69AF
:1039B0001A6200BF1C37BD4680BC7047002C014016
:1039C00080B487B000AF786039607B681B6A7B6128
:1039D0007B681B6A23F480727B681A627B685B6871
:1039E0003B617B68DB69FB60FB6823F07003FB6075
:1039F000FB6823F00303FB603B681B68FA68134312
:103A0000FB607B6923F400737B613B689B681B024E
:103A10007A6913437B617B681D4A93420DD17B69B0
:103A200023F400637B613B68DB681B027A69134304
:103A30007B617B6923F480637B617B68144A9342DA
:103A400013D13B6923F480533B613B6923F400535A
:103A50003B613B685B691B013A6913433B613B680F
:103A60009B691B013A6913433B617B683A695A6061
:103A70007B68FA68DA613B685A687B68DA637B685E
:103A80007A691A6200BF1C37BD4680BC704700BF10
:103A9000002C014080B487B000AF786039607B684B
:103AA0001B6A3B617B681B6A23F480527B681A6245
:103AB0007B685B687B617B68DB69FB60FB6823F488
:103AC000E043FB60FB6823F44073FB603B681B68CA
:103AD0001B02FA681343FB603B6923F400533B610C
:103AE0003B689B681B033A6913433B617B680F4A41
:103AF000934209D17B6923F480437B613B685B6916
:103B00009B017A6913437B617B687A695A607B68A1
:103B1000FA68DA613B685A687B681A647B683A69BC
:103B20001A6200BF1C37BD4680BC7047002C0140A4
:103B300080B485B000AF786039607B6893F83C3022
:103B4000012B01D1022346E07B68012283F83C204F
:103B50007B68022283F83D207B681B685B68FB6002
:103B60007B681B689B68BB60FB6823F07003FB608D
:103B70003B681B68FA681343FB607B681B68FA6844
:103B80005A607B681B68164A93420ED07B681B689C
:103B9000B3F1804F09D07B681B68124A934204D06E
:103BA0007B681B68104A93420CD1BB6823F08003EA
:103BB000BB603B685B68BA681343BB607B681B688B
:103BC000BA689A607B68012283F83D207B680022F6
:103BD00083F83C20002318461437BD4680BC70474C
:103BE000002C0140000400400008004080B582B075
:103BF00000AF78607B68002B01D1012342E07B6835
:103C000093F84130DBB2002B06D17B68002283F8A9
:103C100040207868FDF78CFE7B68242283F84120E1
:103C20007B681B68DA687B681B6822F40052DA60E4
:103C3000786800F009FA7B681B681A697B681B6862
:103C400022F490421A617B681B685A697B681B6882
:103C500022F02A025A617B681B68DA687B681B685D
:103C600042F40052DA607B6800225A647B682022AA
:103C700083F841207B68202283F842207B68002261
:103C80005A63002318460837BD4680BD80B58AB008
:103C900002AFF860B9603B601346FB8000237B6194
:103CA000FB6893F84130DBB2202B75D1BB68002B49
:103CB00002D0FB88002B01D101236EE0FB680022BB
:103CC0005A64FB68212283F84120FDF7F9FF7861EF
:103CD000FB68FA889A84FB68FA88DA84FB689B6838
:103CE000B3F5805F08D1FB681B69002B04D100236A
:103CF000FB61BB68BB6103E0BB68FB610023BB6188
:103D00002EE03B6800937B6900228021F86800F078
:103D1000DFF80346002B05D0FB68202283F8412002
:103D200003233AE0FB69002B0BD1BB691B881A46C1
:103D3000FB681B68C2F308025A60BB690233BB61AF
:103D400007E0FB691A78FB681B685A60FB6901335E
:103D5000FB61FB68DB8C9BB2013B9AB2FB68DA84A7
:103D6000FB68DB8C9BB2002BCBD13B6800937B695B
:103D700000224021F86800F0ABF80346002B05D084
:103D8000FB68202283F84120032306E0FB68202201
:103D900083F84120002300E0022318462037BD4667
:103DA00080BD80B58AB002AFF860B9603B60134651
:103DB000FB8000237B61FB6893F84230DBB2202B51
:103DC00040F08180BB68002B02D0FB88002B01D122
:103DD000012379E0FB6800225A64FB68222283F801
:103DE0004220FB6800221A63FDF76AFF7861FB68D6
:103DF000FA889A85FB68FA88DA85FB689B68B3F5D0
:103E0000805F08D1FB681B69002B04D10023FB6194
:103E1000BB68BB6103E0BB68FB610023BB6147E09B
:103E20003B6800937B6900222021F86800F050F87D
:103E30000346002B05D0FB68202283F84220032391
:103E400042E0FB69002B0CD1FB681B685B689BB2EE
:103E5000C3F308039AB2BB691A80BB690233BB6122
:103E60001FE0FB689B68B3F5805F07D0FB689B6829
:103E7000002B0AD1FB681B69002B06D1FB681B686D
:103E80005B68DAB2FB691A7008E0FB681B685B6864
:103E9000DBB203F07F03DAB2FB691A70FB6901330E
:103EA000FB61FB68DB8D9BB2013B9AB2FB68DA8554
:103EB000FB68DB8D9BB2002BB2D1FB68202283F81C
:103EC0004220002300E0022318462037BD4680BD73
:103ED00080B586B000AFF860B9603B601346FB71F7
:103EE0003BE03B6AB3F1FF3F37D0FDF7E9FE024606
:103EF0003B68D31A3A6A9A4202D33B6A002B01D13B
:103F000003233AE0FB681B68DB6803F00403002B23
:103F100023D0BB68802B20D0BB68402B1DD0FB6812
:103F20001B681B6803F00803082B16D100237B6174
:103F3000FB681B681B687B61FB681B685B687B61B7
:103F40007B69F86800F01DF8FB6808225A64FB687A
:103F5000002283F8402001230FE0FB681B681A68E9
:103F6000BB681340BA689A420CBF01230023DBB23E
:103F70001A46FB799A42B4D0002318461837BD463A
:103F800080BD80B495B000AF78607B681B680C334F
:103F90007B637B6B53E8003F3B633B6B23F4907385
:103FA000FB647B681B680C33FA6C3A64FB63F96B47
:103FB0003A6C41E80023BB63BB6B002BE5D17B6807
:103FC0001B6814333B623B6A53E8003FFB61FB69AB
:103FD00023F00103BB647B681B681433BA6CFA627C
:103FE000BB62B96AFA6A41E800237B627B6A002BF4
:103FF000E5D17B681B6B012B19D17B681B680C33E7
:10400000FB60FB6853E8003FBB60BB6823F0100314
:104010007B647B681B680C337A6CBA617B6179695D
:10402000BA6941E800233B613B69002BE5D17B681D
:10403000202283F842207B6800221A6300BF543795
:10404000BD4680BC7047000080B584B000AF78608A
:104050007B681B681B6923F440517B68DA687B68C6
:104060001B680A431A617B689A687B681B691A435C
:104070007B685B691343BB607B681B68DB6823F468
:10408000B05323F00C037A681268B9680B43D3600D
:104090007B681B685B6923F440717B689A697B6865
:1040A0001B680A435A617B681B682C4A934203D100
:1040B000FFF74EF9F86002E0FFF736F9F860FA68AA
:1040C00013469B0013449A001A447B685B689B006C
:1040D000B2FBF3F3224AA2FB03235B091901FA683E
:1040E00013469B0013449A001A447B685B689B004C
:1040F000B2FBF3F21A4BA3FB02035B09642000FB43
:1041000003F3D31A1B013233154AA2FB03235B09C5
:1041100003F0F0031944FA6813469B0013449A0015
:104120001A447B685B689B00B2FBF3F20C4BA3FB69
:1041300002035B09642000FB03F3D31A1B01323333
:10414000074AA2FB03235B0903F00F027B681B688D
:104150000A449A6000BF1037BD4680BD0038014058
:104160001F85EB51002B2DE9F0471D46BBBF03F126
:1041700000431D4600232D2388B01446B8BF1446C3
:10418000129A109E1370149BDDF84CA023F02008A7
:10419000B8F1460F05D0B8F1450F00D10136022322
:1041A00000E0032307AA049206AACDE902A2CDE902
:1041B000003622462B4601F0A3F8B8F1470F074618
:1041C00019D1119BDB070ED500EB06090022002355
:1041D00020462946FCF7E8FB08B1CDF81C903022B8
:1041E000079B4B451ED33846079B159ADB1B136074
:1041F00008B0BDE8F087B8F1460F00EB0609E5D13D
:104200000378302B0AD10022002320462946FCF7F0
:10421000CBFB18B9C6F10106CAF80060DAF8003025
:104220009944D3E7591C07911A70D9E7F7B50029CB
:10423000B6BF2D232B23494209290270437029DD83
:104240000DF107031D460A27B1FBF7F61A4607FBD7
:104250001614303402F8014C0C46632C314603F13D
:10426000FF33F1DC3031941E03F8011C2346411C5E
:10427000AB420AD30DF109039B1AAC4288BF00235D
:1042800002330344181A03B0F0BD13F8016B01F8B0
:10429000016FEDE7302330318370C170031DF1E70A
:1042A0002DE9F04F91B00C46DDF8688016461F46A8
:1042B000054600F013FF036818460893FBF748FF14
:1042C00000230E93D8F800300990073323F007033A
:1042D00003F1080294F818A0D4F800B0C8F8002040
:1042E000D3E9008929F000430B93CDF828804FF0E3
:1042F000FF32DDE90A01C4E912899C4BFCF786FB19
:1043000070BBDDE90A014FF0FF32984BFCF760FB10
:1043100030BB0022002340464946FCF74FFB10B15A
:104320002D2384F84330924A924BBAF1470F94BF41
:104330009046984603234FF0000923612BF00403B5
:10434000236033462146284600970FAA00F0D4F98F
:10435000013040F090804FF0FF3011B0BDE8F08F99
:1043600042464B4640464946FCF750FB48B14B4657
:10437000002BB8BF2D23804AB8BF84F843307F4B51
:10438000D3E763680AF0DF015A1C3FD1062363605C
:1043900000224BF48063236006920EAACDE904A2AA
:1043A0000DAA03920DF13302CDE901326368424652
:1043B000009328464B460A91FFF7D4FE0A9980469F
:1043C00047290D9928D1C81C02DB6368994240DD5A
:1043D000AAF1020A5FFA8AFA5246013904F1500042
:1043E0000D91FFF723FF0E9A81461318012A2361CE
:1043F00002DC2268D20701D5013323619DF83330F6
:10440000002B9ED02D2384F843309AE74729BFD153
:10441000002BBDD10123BAE7BAF1650FDCD9BAF19F
:10442000660F18D1002963680BDD216113B922687A
:10443000D00702D501330B4423614FF00009A16579
:10444000DCE713B92268D20701D50233F4E7012370
:10445000F2E74FF0670A0E9B994205DB2368216162
:10446000D807EAD54B1CE7E70029CCBF0122C1F1F0
:1044700002021344E0E723685A0507D42369424641
:1044800031462846B84701302BD164E7BAF1650FB1
:1044900040F2DC80D4E9120100220023FCF784FA08
:1044A000002833D0012331462846354AB847013029
:1044B0003FF451AFDDE90D38434502DB2368D807EF
:1044C0000FD5DDE9082331462846B84701303FF4CF
:1044D00042AF4FF0000908F1FF3804F11A0AC8454D
:1044E00009DC23689B0700F10281E0680F9B98427A
:1044F000B8BF184631E70123524631462846B8472F
:1045000001303FF428AF09F10109E8E70D9B002BCA
:1045100038DC012331462846194AB84701303FF4B8
:104520001AAFDDE90D3959EA030302D12368D9072F
:10453000D7D5DDE9082331462846B84701303FF496
:104540000AAF4FF0000A04F11A0B0D9B5B42534572
:1045500001DC4B4693E701235A4631462846B847CB
:1045600001303FF4F8AE0AF1010AEEE7FFFFEF7FFA
:104570001E8A0008228A0008268A00082A8A000863
:104580002E8A0008A36DDDF838A05345A8BF534616
:10459000002B994636DC4FF0000B29EAE97904F14B
:1045A0001A02A36D0A93A3EB09035B4531DC0D9B53
:1045B0009A453ADC2368DA0737D40D9BAAEB030946
:1045C0000A9BAAEB03039945A8BF9946B9F1000FCE
:1045D00033DC4FF0000829EAE97904F11A0B0D9B4E
:1045E000AAEB0303A3EB090343457FF77AAF01234B
:1045F0005A4631462846B84701303FF4ACAE08F180
:104600000108ECE7424631462846B8470130C2D19E
:10461000A1E60123314628460A92B84701303FF40B
:104620009AAE0A9A0BF1010BBBE73146DDE908238C
:104630002846B8470130C0D18DE60A9A4B4631462C
:1046400028464244B8470130C3D184E6DDF838A09B
:10465000BAF1010F01DCDB0736D5012342463146B2
:104660002846B84701303FF476AEDDE908233146ED
:104670002846B84701303FF46EAED4E9120100225B
:1046800000230AF1FF3AFCF78FF9C0B9534608F14D
:10469000010231462846B84701300CD15BE60123C0
:1046A0005A4631462846B84701303FF454AE08F127
:1046B0000108D045F3DB4B4604F15002E0E64FF031
:1046C000000804F11A0BF4E701234246E1E7012355
:1046D0004A4631462846B84701303FF43CAE08F11F
:1046E0000108E3680F995B1A4345F0DCFDE64FF0E3
:1046F000000804F11909F4E72DE9F0471646984639
:104700008A680B6907469342B8BF1346336091F835
:1047100043200C46DDF820900AB101333360236852
:10472000990642BF336802333360256815F00605E9
:1047300006D104F1190AE36832689B1AAB422BDCFC
:1047400094F843302268003B18BF0123920630D40E
:104750004146384604F14302C847013023D023685C
:10476000226903F00603042B14BF002533684FF0C1
:10477000000608BFE56804F11A0408BFED1A54F8F2
:10478000123C08BF25EAE5759342C4BF9B1AED1899
:10479000B5421AD1002008E001235246414638466E
:1047A000C847013003D14FF0FF30BDE8F087013535
:1047B000C1E73020E11881F843005A1C94F84510F5
:1047C0002244023382F84310C2E7012322464146C5
:1047D0003846C8470130E6D00136D9E72DE9FF4712
:1047E0000F7E9146782F80460C469A460C9E01F12A
:1047F000430207D8622F0AD8002F00F0D380582F29
:1048000000F0BA8004F1420684F842703AE0A7F161
:104810006303152BF6D801A151F823F07548000861
:1048200089480008054800080548000805480008B0
:1048300005480008894800080548000805480008A0
:1048400005480008054800088B490008B3480008DF
:10485000454900080548000805480008AD4900081A
:1048600005480008B3480008054800080548000846
:104870004D49000833681A1D1B68326004F1420676
:1048800084F8423001239EE033682068191D3160AE
:10489000060601D51D6803E04506FBD5B3F90050B7
:1048A000002D03DA2D236D4284F843300A23594842
:1048B00011E021683368080653F8045B02D4490606
:1048C00048BFADB26F2F336014BF0A23082351488D
:1048D000002184F843106668002EA8BF2168A660F6
:1048E000A4BF21F0040121600DB9002E4BD0164663
:1048F000B5FBF3F103FB1157C75D06F8017D2F46A9
:10490000BB420D46F4D9082B0BD12368DF0708D52D
:10491000236961689942DEBF302306F8013C06F145
:10492000FF36921B22614B4621464046CDF800A03F
:1049300003AAFFF7E1FE01304AD14FF0FF3004B087
:10494000BDE8F087236843F02003236078273248CE
:1049500084F84570236831681F0651F8045B02D45F
:104960005F0648BFADB23160D90744BF43F02003B2
:1049700023601DB11023ABE72648E9E7236823F045
:1049800020032360F6E71646BDE733682568181D47
:10499000616930602E061B6801D5196002E0680667
:1049A000FBD51980002316462361BCE7336800213C
:1049B0001A1D32601E686268304600F006FC08B1BD
:1049C000801B606063682361002384F84330AAE79A
:1049D0003246494640462369D0470130ADD023686E
:1049E0009B0713D4E068039B9842B8BF1846A6E71C
:1049F0000123324649464046D04701309DD001351B
:104A0000E36803995B1AAB42F2DCEBE7002504F1A3
:104A10001906F5E7308A0008418A00082DE9F04FB1
:104A200087B003938B6817465A1EB2F5AE7F82BFDC
:104A30006FF4AE7503EB050B40F25D130A464FF0C1
:104A4000000588BF8B600B68804643F4F06342F832
:104A50001C3B0C4698BF4FF0000B1646AA46A946D1
:104A6000CDE9045501920295A26852B13B681B78CA
:104A70004E2B65D8402B3DD8A3F12B01C8B20E2890
:104A80003BD9B9F1000F03D0236823F4807323606E
:104A90000AF1FF3ABAF1010F00F21881019B9E4220
:104AA00000F20981012007B0BDE8F08FA3F1610297
:104AB0000D2AE6D801A151F822F000BF034C0008EE
:104AC000834A0008834A0008834A0008634C0008B0
:104AD0003B4C0008834A0008834A0008114C000838
:104AE000834A0008834A0008834A0008834A000872
:104AF000C94B0008A3F14102DAE70E29C1D801A091
:104B000050F821F0B94B0008834A0008B94B00085F
:104B10004F4C0008834A0008614B00089F4B000877
:104B20009F4B00089F4B00089F4B00089F4B0008BD
:104B30009F4B00089F4B00089F4B00089F4B0008AD
:104B40006E2B09D8602BB1D8542B7BD0592B98D120
:104B5000072D96D108252CE0742B73D0792BF6E71E
:104B60002168C8051BD521F08001216009F10109E8
:104B7000BBF1000F03D001320BF1FF3BA260A36831
:104B8000013BA3602369013323617B68013B002B58
:104B90007B6040F387803B6801333B6064E71AEB3E
:104BA00005017FF46EAF0D468A46226822F4C0727A
:104BB000226006F8013BE2E7226810067FF561AF4C
:104BC00022F080022260F4E7BAF1000F0ED1B9F1B1
:104BD000000F0ED1226802F4E061B1F5E06F08D158
:104BE00022F4F0624FF0010A2260E2E7BAF1020F0C
:104BF00055D0012D02D0042D7FF443AF0135EDB225
:104C0000D7E7BAF1010F7FF43CAF4FF0020AD0E7CB
:104C10007DB9B9F1000F7FF437AF226802F4E0618B
:104C2000B1F5E06F40F0038122F4F06201252260CB
:104C3000BFE7032DE2D0052DDEE7022D7FF421AF83
:104C40000325B6E7062D7FF41CAF0725B1E72268E0
:104C500091057FF516AF22F420722260CDF80890FE
:104C6000A7E7226802F4A061B1F5806F06D0500575
:104C70007FF507AFB9F1000F00F0D980910558BF5B
:104C8000029922F4F06258BFA9EB010142F4C0720C
:104C90004FF0000958BFCDE90416226089E74FF0B4
:104CA000030A86E739464046D4F880319847002801
:104CB0003FF4DAAEE5E6D4F87C313A46404616F8E1
:104CC000011D98472369013B2361E7E66B1E062B14
:104CD00024D8022D36D8019B9E427FF6E3AED4F84D
:104CE0007C313A46404616F8011D98472369013B3E
:104CF0002361F0E7D4F87C313A4640461BF8011DA9
:104D000098472369013B23610AF1FF3A5FFA8AFA67
:104D1000BAF1020FEED1033DEDB2761B2368DA053E
:104D200030D55B0511D5019B9E427FF6BBAED4F812
:104D30007C313A46404616F8011D98472369013BED
:104D40002361F0E7AA46B346DEE716F8011C2369A3
:104D5000652903F1FF3306F1FF3523610CD04529A6
:104D60000AD0D4F87C313A4640469847236916F871
:104D7000021C013BB51E23613A464046D4F87C3103
:104D800098472E46226812F0100201D000208AE6D1
:104D90003270236803F4C063B3F5806F1CD1029BAB
:104DA0004B45A3EB090223D100224046019902F0B2
:104DB0000FFC039B25681B6815F0020F06460F4683
:104DC00003F104021FD003990A601B68C3E900675E
:104DD000E3680133E360D9E7049B002BE4D0059935
:104DE0000A234046013102F073FC049B059EC21A5F
:104DF00004F26F139E4228BF04F5B77630460D4982
:104E000000F0DEF8D0E76D07DDD4039D2A601D6851
:104E100002460B46FBF7FAFD20B1074800F0E4F923
:104E20002860D5E730463946FBF74EFEF8E74FF0ED
:104E300000092DE6528A0008ED8D0008002310B508
:104E40000446C0E90033C0E90433836081814366CE
:104E5000C2818361194608225C3000F014F90D4BC1
:104E6000246263620C4BA3620C4BE3620C4B236322
:104E70000C4B9C4206D003F16802944202D0D0331E
:104E80009C4205D104F15800BDE8104000F09AB9E9
:104E900010BD00BF01500008235000085B500008FF
:104EA0007F50000800030020024A0349034800F035
:104EB00069B800BF0C000020857A00081C000020A3
:104EC00041680C4B10B59942044601D002F0DAFD5E
:104ED000A168094B994202D0204602F0D3FDE16857
:104EE000064B994204D02046BDE8104002F0CABDEE
:104EF00010BD00BF0003002068030020D003002085
:104F000010B50B4B0B4C0C4A20461A6004210022B2
:104F1000FFF794FF04F1680001220921FFF78EFFDB
:104F200004F1D0000222BDE810401221FFF786BF35
:104F30003804002000030020A94E0008014800F0BA
:104F400042B900BF41040020014800F03DB900BF54
:104F50004104002010B50446FFF7F0FF236A1BB19F
:104F6000BDE81040FFF7F0BF044B2362044B1B6801
:104F7000002BF5D1FFF7C4FFF2E700BFC14E0008D8
:104F8000380400202DE9F8430746884614460026D9
:104F9000D4E90195B9F1010905D52468002CF7D1B0
:104FA0003046BDE8F883AB89012B07D9B5F90E303F
:104FB000013303D029463846C04706436835E9E740
:104FC0000EB46FF0004100B59CB01DAB029006908E
:104FD000079104910848094953F8042B059100688A
:104FE00002A9019302F0D2FB0022029B1A701CB0AE
:104FF0005DF804EB03B07047180000200802FFFFC3
:1050000010B50C46B1F90E1000F08EF80028ABBFB9
:10501000636DA3891B1823F48053ACBF6365A38120
:1050200010BD2DE9F0411F468B890546DB050C4676
:10503000164605D502230022B1F90E1000F062F8E1
:10504000A389324623F48053A38128463B46B4F912
:105050000E10BDE8F04100F079B810B50C46B1F97A
:105060000E1000F04FF8431CA38915BF606523F4B0
:10507000805343F48053A38118BFA38110BDB1F9BD
:105080000E1000F02FB803460244934200D170473F
:1050900003F8011BF9E70346C9B2184613F8012BC0
:1050A00012B18A42F9D17047002918BF0020704719
:1050B0000A7870B56AB970BD9A4209D10C460546A6
:1050C00014F8013F002BF6D015F8016F9E42F7D07F
:1050D00001300378002BEFD11846ECE70048704709
:1050E0005801002038B50023054D044608462B60C2
:1050F000FCF7FBFC431C02D12B6803B1236038BDD5
:105100003C04002038B50446084611460022054DEF
:105110002A601A46FCF70DFD431C02D12B6803B12F
:10512000236038BD3C04002038B5044608461146CB
:105130000022054D2A601A46FCF79EFC431C02D152
:105140002B6803B1236038BD3C04002038B5044609
:10515000084611460022054D2A601A46FCF7A9FCB4
:10516000431C02D12B6803B1236038BD3C040020EE
:10517000014B1868704700BF1800002070B500266A
:105180000C4D0D4C641BA410A64209D103F066FB24
:1051900000260A4D0A4C641BA410A64205D170BD1E
:1051A00055F8043B98470136EEE755F8043B98471D
:1051B0000136F2E7588E0008588E0008588E000815
:1051C0005C8E0008704770477047034610B5C9B23F
:1051D00002449342184601D1002003E004780133D1
:1051E0008C42F6D110BD0000004870470000C07F1F
:1051F0002DE9F74F03690C690746A3427EDB013CAA
:10520000A30000F1140501F11408009305EB8403D9
:10521000019358F8243055F8242001339A42B2FB08
:10522000F3F608EB84092ED34FF0000AC446AE46CD
:10523000D3465CF8043B98B206FB00A01B0C020CA2
:1052400006FB0323DEF8002080B292B2121A5A4401
:10525000DEF800004FEA134A9BB2C3EB224303EB94
:10526000104392B242EA0342E1454FEA234B4EF823
:10527000042BDED2009BEB582BB9019B043B9D42D3
:105280001A462FD33C61384601F0C2F9002825DBCD
:105290002946002058F8042BD1F800C01FFA82FEDE
:1052A0001FFA8CF3A3EB0E030344120CC2EB234250
:1052B00002EB1C429BB243EA0243C1454FEA224043
:1052C00041F8043BE6D255F8242005EB840322B9CB
:1052D000043B9D421A460BD33C610136304603B075
:1052E000BDE8F08F1268043B002ACBD1013CC6E731
:1052F0001268043B002AEFD1013CEAE70020EEE708
:105300002DE9F04F14461D46C76997B08346CDE995
:105310000245239E7FB9102000F002FE0246CBF822
:105320001C0020B9EF21A84BA84802F023FCC0E9DB
:1053300001770760C760DBF81C30196859B15A68FB
:10534000012393404A608B60584600F0DFFE002244
:10535000DBF81C301A602B1EAFBF0023012223F0A4
:1053600000430393A8BF3360DDF80C80984BB8BFAF
:10537000326033EA080312D142F20F73229A1360AB
:10538000C8F31303234300F05085249BDFF844A2A5
:10539000002B00F052850AF1030300F04CBDDDE95B
:1053A0000223CDE90C23DDE90C0100220023FBF7E9
:1053B000FBFA074658B10123229A1360249B13B1CC
:1053C000854B249A1360DFF814A200F036BD14ABAD
:1053D000019315AB00935846DDE90C2301F030FA38
:1053E000C8F30A568146002E77D0DDE90C010D9BEB
:1053F000A6F2FF36C3F3130343F07F5343F4401385
:10540000129719460022764BFAF7AEFE68A3D3E94D
:105410000023FBF761F868A3D3E90023FAF7A6FE9F
:10542000044630460D46FAF7EDFF65A3D3E90023A5
:10543000FBF752F802460B4620462946FAF796FE3D
:1054400004460D46FBF7F8FA0022074600232046E3
:105450002946FBF7B3FA40B13846FAF7D3FF2246A4
:105460002B46FBF7A1FA00B9013F162F53D8DDE90F
:105470000C015C4B03EBC703D3E90023FBF79EFA57
:1054800000284AD00023013F0F93149B9B1B5A1EF8
:1054900046BFC3F1010800234FF00008099248BF3E
:1054A0000993002F3BDB099B0E973B440993002394
:1054B0000A93209B092B66D8052BC4BF043B20937D
:1054C000209BC8BF0024A3F10203D8BF0124032BF3
:1054D00064D8DFE803F02B383656DDE914631E4448
:1054E00006F23243202BC1BFC3F1400308FA03F890
:1054F00006F2124324FA03F3D6BFC3F1200348EAAD
:10550000030004FA03F0FAF76DFF0122A1F1F8732A
:10551000013E129275E70123B6E70F90B5E77B4293
:105520000A930023A8EB07080E93C2E700230B930E
:10553000219B002B35DC01231A46CDE9073321924C
:105540000BE00123F3E700230B93219BFB18089347
:105550000133012B0793B8BF012300210422DBF89C
:105560001C0002F114059D421FD94160584600F00D
:105570008DFD8246002839D1024640F2AF111A4B08
:10558000D2E60123E0E7012400230B9420934FF09F
:10559000FF330022CDE907331223D0E701230B9319
:1055A000F5E7219BCDE90733D7E701315200D8E772
:1055B00061436F63A787D23FB3C8608B288AC63F19
:1055C000FB799F501344D33F648A00087B8A00080C
:1055D0000000F07F608A00082F8A00082E8A0008E9
:1055E0000000F83F788B0008D38A0008DBF81C30F5
:1055F0001860079B0E2B00F2A480002C00F0A18005
:10560000002F33DD864B07F00F0203EBC203F805D2
:10561000D3E90034CDE904344FEA271416D5DDE987
:105620000C01804B0326D3E90823FBF77FF8CDE973
:10563000020104F00F047B4D54B9DDE90423DDE9D8
:105640000201FBF773F8CDE9020128E00226F2E738
:10565000E10708D5DDE90401D5E90023FAF73CFFAD
:10566000CDE90401013664100835E5E700F0D28089
:10567000DDE90C017C426A4B04F00F0203EBC2032C
:10568000D3E90023FAF728FF02260023CDE902011F
:10569000644D2411002C40F0B280002BD3D1DDE901
:1056A00002450F9B002B00F0B780002220462946C0
:1056B0005D4BFBF783F9002800F0AE80079B002BC1
:1056C00000F0AA80089B002B37DD7B1E2046049348
:1056D00000222946554BFAF7FFFECDE90201089C4E
:1056E00001363046FAF78EFEDDE90223FAF7F4FEC2
:1056F00000224F4BFAF73AFD0546A1F15076002CF7
:1057000040F09A80DDE9020100224A4BFAF72CFDB5
:1057100002460B46CDE902232A463346FBF76CF9D5
:10572000002840F08E82DDE902012A4606F100439E
:10573000FBF744F9002840F02781DDE90C34CDE97E
:105740000234159B002BC0F263810E2F00F36081A1
:10575000334B03EBC703D3E90034CDE90434219B79
:10576000002B03DA079B002B40F30081DDE90245A3
:105770005646DDE9042320462946FAF7D7FFFBF712
:105780005BF98046FAF73EFEDDE90423FAF7A4FE52
:1057900002460B4620462946FAF7E6FC08F130049B
:1057A000079D06F8014BA6EB0A04A54202460B46EC
:1057B00040F01681FAF7DAFCDDE9042304460D46D1
:1057C000FBF71AF9002840F0F880DDE904232046B1
:1057D0002946FBF7E9F818B118F0010F40F0ED8009
:1057E0004946584600F092FC00233370229B013753
:1057F0001F60249B002B00F020831E601DE3E20746
:1058000005D5D5E90023FAF767FE012301366410B8
:1058100008353FE7022642E7079C049761E700BF8F
:10582000788B0008508B00080000F03F00002440F7
:1058300000001C4000001440704B0B9903EBC403A4
:1058400053E902235444002945D000206C49FAF75B
:105850006DFF33462A46FAF787FC5646CDE910011C
:10586000DDE90201FBF7E8F80546FAF7CBFD024651
:105870000B46DDE90201FAF777FC02460B463035AC
:10588000CDE90223DDE9102306F8015BFBF796F86A
:10589000002863D1DDE9022300205A49FAF764FCAD
:1058A000DDE91023FBF78AF8002840F08780A64244
:1058B0003FF443AFDDE910010022534BFAF70CFE31
:1058C0000022CDE91001DDE902014F4BFAF704FE99
:1058D000CDE90201C4E731462846FAF7FDFD5646F8
:1058E000CDE910011394DDE90201FBF7A5F80546A7
:1058F000FAF788FD02460B46DDE90201FAF734FCAF
:1059000002460B46303506F8015BA642CDE902237C
:105910004FF0000224D1DDE91001394BFAF726FCE3
:1059200002460B46DDE90201FBF766F8002845D187
:10593000DDE9102300203249FAF716FC02460B4637
:10594000DDE90201FBF73AF800283FF4F6AE139EBA
:10595000731E139316F8013C302BF8D0049F3FE7D9
:10596000294BFAF7B9FDCDE90201BCE70CD1DDE91D
:1059700004010022254BFAF7AFFDDDE90223FBF716
:1059800031F8002800F05B8100242546219B564613
:10599000DB43049300272146584600F0B7FB002D57
:1059A000DCD02FB1AF4203D03946584600F0AEFBF1
:1059B0002946584600F0AAFBD0E7049733461E4616
:1059C00013F8012D392A07D19A45F8D1049A0132EA
:1059D000049230228AF800201A7801321A70BDE74A
:1059E0000022094BFAF778FD0022002304460D46F9
:1059F000FAF7DAFF00283FF4BCAEF1E6788B000836
:105A00000000E03F0000F03F000024400000144090
:105A10000B9A002A00F0DB80209A012A00F3BF8055
:105A2000129A002A00F0B78003F2334346460A9CDC
:105A3000099A01211A4458469844099200F064FCDE
:105A400005465EB1099B002B08DDB342A8BF334673
:105A5000099AA8EB0308F61AD31A09930A9BF3B123
:105A60000B9B002B00F0B7808CB12946224658468C
:105A700000F008FD4A4601460546584600F05AFC2B
:105A800049460490584600F041FB049B99460A9B06
:105A90001A1B04D04946584600F0F4FC8146012107
:105AA000584600F031FC0E9B0446002B00F0C981E3
:105AB0001A460146584600F0E5FC209B0446012B9F
:105AC00000F38F80029B002B40F08780039BC3F381
:105AD0001303002B40F08380039B23F000431B0D36
