:020000040800F2
:1000000000500020290D0008450C00084D0C000888
:10001000550C00085D0C0008650C0008000000008D
:100020000000000000000000000000006D0C00084F
:10003000790C000800000000850C0008910C0008F5
:10004000710D0008710D0008710D0008710D000898
:10005000710D0008710D0008710D0008710D000888
:10006000710D0008710D0008710D0008710D000878
:10007000710D0008710D0008710D0008710D000868
:100080009D0C0008710D0008710D0008710D00082D
:10009000710D0008710D0008710D0008710D000848
:1000A000710D0008710D0008710D0008710D000838
:1000B000710D0008710D0008710D0008710D000828
:1000C000710D0008710D0008710D0008710D000818
:1000D000710D0008710D0008710D0008710D000808
:1000E000710D0008710D0008710D0008000000007E
:1000F0000000000000000000000000000000000000
:0C01000000000000000000005FF808F1A3
:10010C0010B5054C237833B9044B13B10448AFF345
:10011C0000800123237010BD5C0000200000000053
:10012C00A034000808B5034B1BB103490348AFF3D7
:10013C00008008BD0000000060000020A034000812
:10014C00034613F8012B002AFBD1181A013870470B
:10015C0080B5ADF5E86D00AF00F006FE00F03EFB9B
:10016C0000F018FC00F0F8FB00F0CCFB00F072FB88
:10017C0007F5E863A3F5097300221A6004334FF402
:10018C00FE720021184602F0D1FC0023C7F830376C
:10019C004FF49663C7F82C3707F1DC03D5491846A2
:1001AC0002F0A4FC07F17803D349184602F09EFC38
:1001BC0007F11403D149184602F098FC3B1DD049B5
:1001CC00184602F093FC07F1DC031846FFF7B8FF62
:1001DC000346C7F8283707F178031846FFF7B0FF36
:1001EC000346C7F8243707F114031846FFF7A8FF96
:1001FC000346C7F820373B1D1846FFF7A1FF0346FF
:10020C00C7F81C3707F2DC43BE49184602F06EFCF7
:10021C0007F21C534FF400720021184602F086FCC2
:10022C0007F2DC431846FFF78BFF03469AB207F23E
:10023C00DC414FF47A73B44802F0ECF907F21C512C
:10024C0064234FF40072B04802F06FFA4FF4FA7066
:10025C0000F0ECFD002387F83F37002387F83F3789
:10026C0034E007F2DC43A949184602F03FFC07F2E0
:10027C001C534FF400720021184602F057FC07F291
:10028C00DC431846FFF75CFF03469AB207F2DC41E9
:10029C004FF47A739C4802F0BDF907F21C514FF4ED
:1002AC007A734FF40072984802F03FFA07F21C532D
:1002BC009749184602F04FFC0346002B02D001234D
:1002CC0087F83F374FF4FA7000F0B0FD97F83F37DE
:1002DC00002BC6D0002387F83F3734E007F2DC430D
:1002EC008C49184602F002FC07F21C534FF40072C2
:1002FC000021184602F01AFC07F2DC431846FFF7FF
:10030C001FFF03469AB207F2DC414FF47A737E4822
:10031C0002F080F907F21C514FF47A734FF400721B
:10032C00794802F002FA07F21C537949184602F098
:10033C0012FC0346002B02D0012387F83F374FF401
:10034C00FA7000F073FD97F83F37002BC6D00023EE
:10035C0087F83F3734E007F2DC436F49184602F068
:10036C00C5FB07F21C534FF400720021184602F033
:10037C00DDFB07F2DC431846FFF7E2FE03469AB2B8
:10038C0007F2DC414FF47A735F4802F043F907F24D
:10039C001C514FF47A734FF400725B4802F0C5F9AC
:1003AC0007F21C535A49184602F0D5FB0346002BA2
:1003BC0002D0012387F83F374FF4FA7000F036FD76
:1003CC0097F83F37002BC6D007F21C534FF400723E
:1003DC000021184602F0AAFB07F21C514FF47A7365
:1003EC004FF40072484802F0A0F907F21C534B4935
:1003FC00184602F0B0FB0346002B03D00023C7F8CD
:10040C0038375DE007F21C534549184602F0A3FB50
:10041C000346002B03D00123C7F8383750E007F20E
:10042C001C534049184602F096FB0346002B03D0A0
:10043C000223C7F8383743E007F21C533A491846F1
:10044C0002F089FB0346002B03D00323C7F838378F
:10045C0036E007F21C533549184602F07CFB034684
:10046C00002B03D00423C7F8383729E007F21C53BC
:10047C002F49184602F06FFB0346002B03D00523CF
:10048C00C7F838371CE007F21C532A49184602F00B
:10049C0062FB0346002B03D00623C7F838370FE066
:1004AC0007F21C532449184602F055FB0346002B57
:1004BC0003D00723C7F8383702E06423C7F838376E
:1004CC0007F21C531D49184602F045FB0346002B4E
:1004DC0003D00023C7F8343738E007F21C5318490F
:1004EC00184602F038FB0346002B2BD00123C7F82B
:1004FC0034372BE0B8340008BC340008C034000892
:10050C00C4340008C834000804010020D4340008A6
:10051C00F4340008F8340008083500081C350008CD
:10052C00243500082C350008343500083C3500080B
:10053C00443500084C350008543500085C3500087B
:10054C006C350008D7F83037C7F83437D7F8383758
:10055C00072B00F39B80D7F83437012B40F09680A3
:10056C0001224FF40051994801F076F80123C7F8A5
:10057C003037D7F82827D7F820371A44D7F81C3744
:10058C00134407F2DC40D7F83827914902F0AEFA51
:10059C0007F21C534FF400720021184602F0C6FA01
:1005AC0007F2DC431846FFF7CBFD03469AB207F27D
:1005BC00DC414FF47A73874802F02CF807F21C5197
:1005CC0064234FF40072834802F0AFF807F21C5317
:1005DC003E21184602F0B2FA0346002B2CD007F24B
:1005EC001C534FF400720021184602F09FFAD7F802
:1005FC0028379AB207F1DC014FF47A73754802F090
:10060C0009F8D7F820379AB207F114014FF47A732E
:10061C00704801F0FFFFD7F81C379AB2391D4FF420
:10062C007A736C4801F0F6FF07F21C5164234FF407
:10063C000072684802F079F807F2DC43D7F83827E3
:10064C006549184602F052FA07F21C534FF4007237
:10065C000021184602F06AFA07F2DC431846FFF74D
:10066C006FFD03469AB207F2DC414FF47A73594896
:10067C0001F0D0FF07F21C5164234FF4007255486F
:10068C0002F053F86423C7F838379EE0D7F83837B0
:10069C00072B3FF799AED7F83437002B7FF494AE85
:1006AC0000224FF40051494800F0D6FF0023C7F850
:1006BC003037D7F82827D7F824371A44D7F81C37FF
:1006CC00134407F2DC40D7F83827414902F00EFA00
:1006DC0007F21C534FF400720021184602F026FA60
:1006EC0007F2DC431846FFF72BFD03469AB207F2DC
:1006FC00DC414FF47A73374801F08CFF07F21C5140
:10070C0064234FF40072334802F00FF807F21C53C5
:10071C003E21184602F012FA0346002B2CD007F2A9
:10072C001C534FF400720021184602F0FFF9D7F861
:10073C0028379AB207F1DC014FF47A73254801F09F
:10074C0069FFD7F824379AB207F178014FF47A731E
:10075C00204801F05FFFD7F81C379AB2391D4FF4CF
:10076C007A731C4801F056FF07F21C5164234FF4B6
:10077C000072184801F0D9FF07F2DC43D7F838278C
:10078C001549184602F0B2F907F21C534FF40072E7
:10079C000021184602F0CAF907F2DC431846FFF7AD
:1007AC00CFFC03469AB207F2DC414FF47A73094846
:1007BC0001F030FF07F21C5164234FF4007205481E
:1007CC0001F0B3FF6423C7F83837FDE50010014092
:1007DC007C350008040100209035000880B590B0ED
:1007EC0000AF07F1180328220021184602F09EF9E9
:1007FC003B1D00221A605A609A60DA601A6102236B
:10080C00BB610123BB621023FB6200237B6307F1F6
:10081C001803184600F038FF0346002B01D000F0F7
:10082C0005F90F237B600023BB600023FB600023D2
:10083C003B6100237B613B1D0021184601F0A6F9AA
:10084C000346002B01D000F0F1F800BF4037BD4645
:10085C0080BD000080B58AB000AF07F120030022F4
:10086C001A605A603B1D00221A605A609A60DA6066
:10087C001A615A619A61214B214A1A601F4B1D2241
:10088C005A601E4B00229A601C4B0222DA601B4BF2
:10089C0000221A61194B00229A61184801F004FBDE
:1008AC000346002B01D000F0C1F800233B6200236B
:1008BC007B6207F120031946104801F0FDFD034649
:1008CC00002B01D000F0B2F860237B600023BB60EA
:1008DC000023FB6000237B613B1D00221946074867
:1008EC0001F032FB0346002B01D000F09FF80348C7
:1008FC0000F024F900BF2837BD4680BD78000020E9
:10090C000004004080B500AF114B124A1A60104B26
:10091C004FF4E1325A600E4B00229A600C4B0022CD
:10092C00DA600B4B00221A61094B0C225A61084BFE
:10093C0000229A61064B0022DA61054801F01AFE8A
:10094C000346002B01D000F071F800BF80BD00BF42
:10095C00040100200038014080B582B000AF0C4B80
:10096C005B690B4A43F001035361094B5B6903F06C
:10097C0001037B607B6800220021102000F051FBFA
:10098C00102000F06AFB00BF0837BD4680BD00BFD9
:10099C000010024080B588B000AF07F110030022B0
:1009AC001A605A609A60DA601E4B9B691D4A43F0CC
:1009BC00100393611B4B9B6903F01003FB60FB68F6
:1009CC00184B9B69174A43F020039361154B9B69A5
:1009DC0003F02003BB60BB68124B9B69114A43F0C8
:1009EC00040393610F4B9B6903F004037B607B68EA
:1009FC0000224FF400510C4800F02EFE4FF400532F
:100A0C003B6101237B610023BB610223FB6107F186
:100A1C0010031946044800F09BFC00BF2037BD466C
:100A2C0080BD00BF001002400010014080B400AF38
:100A3C0072B600BF00BFFDE780B485B000AF154BA8
:100A4C009B69144A43F001039361124B9B6903F0B9
:100A5C000103BB60BB680F4BDB690E4A43F080534C
:100A6C00D3610C4BDB6903F080537B607B680A4BD2
:100A7C005B68FB60FB6823F0E063FB60FB6843F0A2
:100A8C000073FB60044AFB68536000BF1437BD461B
:100A9C0080BC7047001002400000014080B584B05B
:100AAC0000AF78607B681B68204A934239D1204B99
:100ABC00DB691F4A43F00203D3611D4BDB6903F072
:100ACC000203FB60FB681B4B1B4A1A60194B10227C
:100ADC005A60184B00229A60164B8022DA60154B34
:100AEC004FF480721A61134B4FF480625A61114BB0
:100AFC0000229A610F4B0022DA610E4800F0C8FA0E
:100B0C000346002B01D0FFF791FF7B68094A5A621C
:100B1C00084A7B6853627B68064A9A63054A7B687D
:100B2C00536200BF1037BD4680BD00BF00040040BB
:100B3C0000100240C00000206C00024080B588B05C
:100B4C0000AF786007F1100300221A605A609A60B7
:100B5C00DA607B681B680F4A934217D10E4B9B6976
:100B6C000D4A43F0040393610B4B9B6903F00403A0
:100B7C00FB60FB6840233B6102237B610223FB612A
:100B8C0007F110031946054800F0E2FB00BF2037BF
:100B9C00BD4680BD0004004000100240000801402A
:100BAC0080B588B000AF786007F1100300221A609E
:100BBC005A609A60DA607B681B681C4A934231D198
:100BCC001B4B9B691A4A43F480439361184B9B69F6
:100BDC0003F48043FB60FB68154B9B69144A43F09C
:100BEC0004039361124B9B6903F00403BB60BB6865
:100BFC004FF400733B6102237B610323FB6107F11C
:100C0C00100319460B4800F0A3FB4FF480633B61C3
:100C1C0000237B610023BB6107F1100319460548D3
:100C2C0000F096FB00BF2037BD4680BD0038014068
:100C3C00001002400008014080B400AF00BFFDE787
:100C4C0080B400AF00BFFDE780B400AF00BFFDE78C
:100C5C0080B400AF00BFFDE780B400AF00BFFDE77C
:100C6C0080B400AF00BFBD4680BC704780B400AFFD
:100C7C0000BFBD4680BC704780B400AF00BFBD460E
:100C8C0080BC704780B500AF00F0B4F800BF80BDE9
:100C9C0080B500AF024800F055FA00BF80BD00BF20
:100CAC00C000002080B586B000AF7860144A154BA8
:100CBC00D31A7B617B693B61134B1B68002B02D100
:100CCC00114B124A1A60104B1A687B6813443A692C
:100CDC009A4207D201F056FF03460C221A604FF0DD
:100CEC00FF3309E0084B1B68FB60074B1A687B68F5
:100CFC001344054A1360FB6818461837BD4680BD7F
:100D0C0000500020000400004C010020A002002034
:100D1C0080B400AF00BFBD4680BC7047FFF7F8FF42
:100D2C000B480C490C4A002302E0D458C45004333D
:100D3C00C4188C42F9D3094A094C002301E0136012
:100D4C000432A242FBD301F023FFFFF701FA7047F4
:100D5C00000000205C000020143600085C0000201D
:100D6C009C020020FEE7000080B500AF084B1B681A
:100D7C00074A43F010031360032000F047F90F20DB
:100D8C0000F008F8FFF758FE0023184680BD00BF9E
:100D9C000020024080B582B000AF7860124B1A6818
:100DAC00124B1B7819464FF47A73B3FBF1F3B2FB79
:100DBC00F3F3184600F05FF90346002B01D0012332
:100DCC000EE07B680F2B0AD8002279684FF0FF30B9
:100DDC0000F027F9064A7B681360002300E001232A
:100DEC0018460837BD4680BD0000002008000020D2
:100DFC000400002080B400AF054B1B781A46054B4D
:100E0C001B681344034A136000BFBD4680BC704787
:100E1C00080000205001002080B400AF024B1B687A
:100E2C001846BD4680BC70475001002080B584B088
:100E3C0000AF7860FFF7F0FFB8607B68FB60FB6881
:100E4C00B3F1FF3F05D00A4B1B781A46FB681344DD
:100E5C00FB6000BFFFF7E0FF0246BB68D31AFA68DD
:100E6C009A42F7D800BF00BF1037BD4680BD00BF07
:100E7C000800002080B485B000AF78607B6803F078
:100E8C000703FB600C4BDB68BB60BA684FF6FF03D3
:100E9C001340BB60FB681A02BB68134343F0BF638B
:100EAC0043F40033BB60044ABB68D36000BF143703
:100EBC00BD4680BC704700BF00ED00E080B400AFC1
:100ECC00044BDB681B0A03F007031846BD4680BCC5
:100EDC00704700BF00ED00E080B483B000AF034664
:100EEC00FB7197F90730002B0BDBFB7903F01F022A
:100EFC00064997F907305B09012000FA02F241F824
:100F0C00232000BF0C37BD4680BC704700E100E0D9
:100F1C0080B483B000AF03463960FB7197F907309A
:100F2C00002B0ADB3B68DAB20C4997F90730120147
:100F3C00D2B20B4483F800230AE03B68DAB20849CA
:100F4C00FB7903F00F03043B1201D2B20B441A7667
:100F5C0000BF0C37BD4680BC704700BF00E100E00D
:100F6C0000ED00E080B489B000AFF860B9607A6041
:100F7C00FB6803F00703FB61FB69C3F10703042B58
:100F8C0028BF0423BB61FB690433062B02D9FB6920
:100F9C00033B00E000237B614FF0FF32BB6902FA98
:100FAC0003F3DA43BB681A407B699A404FF0FF3178
:100FBC007B6901FA03F3D9437B680B401343184652
:100FCC002437BD4680BC704780B582B000AF7860D6
:100FDC007B68013BB3F1807F01D301230FE00A4A08
:100FEC007B68013B53600F214FF0FF30FFF790FF00
:100FFC00054B00229A60044B07221A600023184606
:10100C000837BD4680BD00BF10E000E080B582B05F
:10101C0000AF78607868FFF72DFF00BF0837BD463A
:10102C0080BD80B586B000AF0346B9607A60FB73B3
:10103C0000237B61FFF742FF78617A68B9687869B1
:10104C00FFF790FF024697F90F3011461846FFF74D
:10105C005FFF00BF1837BD4680BD80B582B000AFC2
:10106C000346FB7197F907301846FFF735FF00BFB1
:10107C000837BD4680BD80B582B000AF7860786817
:10108C00FFF7A2FF034618460837BD4680BD000097
:10109C0080B485B000AF78600023FB607B68002BC8
:1010AC0001D1012343E07B681B681A46224B134491
:1010BC00224AA2FB03231B099A007B681A647B68F3
:1010CC001F4ADA637B68022283F821207B681B6845
:1010DC001B68FB60FB6823F47F5323F03003FB6039
:1010EC007B685A687B689B681A437B68DB681A4389
:1010FC007B681B691A437B685B691A437B689B6935
:10110C001A437B68DB691343FA681343FB607B6803
:10111C001B68FA681A607B6800229A637B6801225C
:10112C0083F821207B68002283F8202000231846B6
:10113C001437BD4680BC7047F8FFFDBFCDCCCCCC7E
:10114C000000024080B584B000AF78607B68DB6B38
:10115C001B68FB607B681B681B68BB607B681B6C37
:10116C0004229A40FB681340002B4FD0BB6803F05D
:10117C000403002B4AD07B681B681B6803F0200318
:10118C00002B07D17B681B681A687B681B6822F0F0
:10119C0004021A607B681B68664A934229D07B68FC
:1011AC001B68654A934222D07B681B68634A934252
:1011BC001AD07B681B68624A934212D07B681B680A
:1011CC00604A93420AD07B681B685F4A934202D103
:1011DC004FF480030EE04FF080630BE04FF480235C
:1011EC0008E04FF4804305E04FF4806302E04023B5
:1011FC0000E00423554A53607B68DB6A002B00F047
:10120C0094807B68DB6A786898478EE07B681B6CFF
:10121C0002229A40FB681340002B56D0BB6803F0A7
:10122C000203002B51D07B681B681B6803F0200362
:10123C00002B0BD17B681B681A687B681B6822F03B
:10124C000A021A607B68012283F821207B681B68E4
:10125C00384A934229D07B681B68374A934222D084
:10126C007B681B68354A93421AD07B681B68344AEA
:10127C00934212D07B681B68324A93420AD07B6837
:10128C001B68314A934202D14FF400130EE04FF029
:10129C0000730BE04FF4003308E04FF4005305E00B
:1012AC004FF4007302E0202300E00223274A53602E
:1012BC007B68002283F820207B689B6A002B34D04B
:1012CC007B689B6A786898472FE07B681B6C0822C8
:1012DC009A40FB681340002B28D0BB6803F008032E
:1012EC00002B23D07B681B681A687B681B6822F074
:1012FC000E021A607B681A6C7B68DB6B012101FAA9
:10130C0002F25A607B6801229A637B68012283F89F
:10131C0021207B68002283F820207B681B6B002B2C
:10132C0004D07B681B6B7868984700BF00BF1037F0
:10133C00BD4680BD080002401C0002403000024047
:10134C0044000240580002406C0002400000024081
:10135C0080B48BB000AF7860396000237B620023CF
:10136C003B6269E101227B6A02FA03F3FB613B6891
:10137C001B68FA691340BB61BA69FB699A4240F079
:10138C0058813B685B689A4A93425ED0984A934274
:10139C0075D8984A934258D0964A93426FD8964A39
:1013AC00934252D0944A934269D8944A93424CD077
:1013BC00924A934263D8924A934246D0904A9342BF
:1013CC005DD8122B2AD8122B59D801A252F823F02F
:1013DC005714000831140008431400088514000841
:1013EC008B1400088B1400088B1400088B14000855
:1013FC008B1400088B1400088B1400088B14000845
:10140C008B1400088B1400088B1400088B14000834
:10141C008B140008391400084D140008794A9342C3
:10142C0013D02CE03B68DB683B6229E03B68DB684F
:10143C0004333B6224E03B68DB6808333B621FE00B
:10144C003B68DB680C333B621AE03B689B68002B03
:10145C0002D104233B6213E03B689B68012B05D14E
:10146C0008233B627B68FA691A6109E008233B6236
:10147C007B68FA695A6103E000233B6200E000BF1D
:10148C00BB69FF2B01D87B6801E07B6804337B616F
:10149C00BB69FF2B02D87B6A9B0002E07B6A083B8E
:1014AC009B003B617B691A680F213B6901FA03F3CE
:1014BC00DB431A40396A3B6901FA03F31A437B692F
:1014CC001A603B685B6803F08053002B00F0B1801E
:1014DC004D4B9B694C4A43F0010393614A4B9B690A
:1014EC0003F00103BB60BB68484A7B6A9B0802336C
:1014FC0052F82330FB607B6A03F003039B000F223E
:10150C0002FA03F3DB43FA681340FB607B68404A42
:10151C00934213D07B683F4A93420DD07B683E4A7E
:10152C00934207D07B683D4A934201D1032306E0E6
:10153C00042304E0022302E0012300E000237A6A82
:10154C0002F0030292009340FA681343FB602F49A8
:10155C007B6A9B080233FA6841F823203B685B687E
:10156C0003F48013002B06D02D4B9A682C49BB69D1
:10157C0013438B6006E02A4B9A68BB69DB4328490E
:10158C0013408B603B685B6803F40013002B06D0A0
:10159C00234BDA682249BB691343CB6006E0204B2E
:1015AC00DA68BB69DB431E491340CB603B685B6860
:1015BC0003F40033002B06D0194B5A681849BB6949
:1015CC0013434B6006E0164B5A68BB69DB43144966
:1015DC0013404B603B685B6803F48033002B21D0D5
:1015EC000F4B1A680E49BB6913430B6021E000BF17
:1015FC0000003210000031100000221000002110F9
:10160C0000001210000011100010024000000140F8
:10161C0000080140000C0140001001400014014082
:10162C00000401400B4B1A68BB69DB4309491340AA
:10163C000B607B6A01337B623B681A687B6A22FA17
:10164C0003F3002B7FF48EAE00BF00BF2C37BD46DA
:10165C0080BC70470004014080B483B000AF786058
:10166C000B467B8013467B707B78002B03D07A88EB
:10167C007B681A6103E07B881A047B681A6100BFDF
:10168C000C37BD4680BC704780B586B000AF786023
:10169C007B68002B01D1012372E27B681B6803F08D
:1016AC000103002B00F08780924B5B6803F00C0366
:1016BC00042B0CD08F4B5B6803F00C03082B12D15E
:1016CC008C4B5B6803F48033B3F5803F0BD1894BB3
:1016DC001B6803F40033002B6CD07B685B68002B19
:1016EC0068D101234CE27B685B68B3F5803F06D17F
:1016FC00804B1B687F4A43F4803313602EE07B6879
:10170C005B68002B0CD17B4B1B687A4A23F480332B
:10171C001360784B1B68774A23F4802313601DE019
:10172C007B685B68B3F5A02F0CD1724B1B68714AB8
:10173C0043F4802313606F4B1B686E4A43F4803371
:10174C0013600BE06B4B1B686A4A23F48033136005
:10175C00684B1B68674A23F4802313607B685B68C3
:10176C00002B13D0FFF758FB386108E0FFF754FB50
:10177C0002463B69D31A642B01D9032300E25D4B6B
:10178C001B6803F40033002BF0D014E0FFF744FB8C
:10179C00386108E0FFF740FB02463B69D31A642B23
:1017AC0001D90323ECE1534B1B6803F40033002BEA
:1017BC00F0D100E000BF7B681B6803F00203002B34
:1017CC0063D04C4B5B6803F00C03002B0BD0494BE4
:1017DC005B6803F00C03082B1CD1464B5B6803F4CD
:1017EC008033002B16D1434B1B6803F00203002BF4
:1017FC0005D07B681B69012B01D00123C0E13D4B57
:10180C001B6823F0F8027B685B69DB0039491343E2
:10181C000B603AE07B681B69002B20D0364B012211
:10182C001A60FFF7F9FA386108E0FFF7F5FA02469B
:10183C003B69D31A022B01D90323A1E12D4B1B6861
:10184C0003F00203002BF0D02A4B1B6823F0F802A4
:10185C007B685B69DB00274913430B6015E0264B63
:10186C0000221A60FFF7D8FA386108E0FFF7D4FAC3
:10187C0002463B69D31A022B01D9032380E11D4B8D
:10188C001B6803F00203002BF0D17B681B6803F08C
:10189C000803002B3AD07B689B69002B19D0174B9F
:1018AC0001221A60FFF7B8FA386108E0FFF7B4FAC2
:1018BC0002463B69D31A022B01D9032360E10D4B7D
:1018CC005B6A03F00203002BF0D0012000F0CEFA8B
:1018DC001CE00A4B00221A60FFF79EFA38610FE0F9
:1018EC00FFF79AFA02463B69D31A022B08D9032355
:1018FC0046E100BF00100240000042428004424218
:10190C00924B5B6A03F00203002BE9D17B681B68E6
:10191C0003F00403002B00F0A6800023FB758B4B17
:10192C00DB6903F08053002B0DD1884BDB69874AB0
:10193C0043F08053D361854BDB6903F08053BB606C
:10194C00BB680123FB75824B1B6803F48073002B6F
:10195C0018D17F4B1B687E4A43F480731360FFF7EA
:10196C005BFA386108E0FFF757FA02463B69D31A75
:10197C00642B01D9032303E1754B1B6803F48073BB
:10198C00002BF0D07B68DB68012B06D16F4B1B6AF8
:10199C006E4A43F0010313622DE07B68DB68002B79
:1019AC000CD16A4B1B6A694A23F001031362674B23
:1019BC001B6A664A23F0040313621CE07B68DB6835
:1019CC00052B0CD1614B1B6A604A43F00403136274
:1019DC005E4B1B6A5D4A43F0010313620BE05B4BE9
:1019EC001B6A5A4A23F001031362584B1B6A574A6D
:1019FC0023F0040313627B68DB68002B15D0FFF720
:101A0C000BFA38610AE0FFF707FA02463B69D31A72
:101A1C0041F28832934201D90323B1E04B4B1B6A4C
:101A2C0003F00203002BEED014E0FFF7F5F9386158
:101A3C000AE0FFF7F1F902463B69D31A41F288320A
:101A4C00934201D903239BE0404B1B6A03F0020332
:101A5C00002BEED1FB7D012B05D13C4BDB693B4AC6
:101A6C0023F08053D3617B68DB69002B00F0878007
:101A7C00364B5B6803F00C03082B61D07B68DB6989
:101A8C00022B46D1334B00221A60FFF7C5F938619F
:101A9C0008E0FFF7C1F902463B69D31A022B01D9C2
:101AAC0003236DE0294B1B6803F00073002BF0D16E
:101ABC007B681B6AB3F5803F08D1244B5B6823F429
:101ACC0000327B689B68214913434B601F4B5B685A
:101ADC0023F474127B68196A7B685B6A0B431B499D
:101AEC0013434B601B4B01221A60FFF795F93861C9
:101AFC0008E0FFF791F902463B69D31A022B01D992
:101B0C0003233DE0114B1B6803F00073002BF0D056
:101B1C0035E0104B00221A60FFF77EF9386108E0BF
:101B2C00FFF77AF902463B69D31A022B01D903233A
:101B3C0026E0064B1B6803F00073002BF0D11EE06F
:101B4C007B68DB69012B07D1012319E000100240EF
:101B5C0000700040600042420B4B5B68FB60FB680E
:101B6C0003F480327B681B6A9A4206D1FB6803F44B
:101B7C0070127B685B6A9A4201D0012300E000235B
:101B8C0018461837BD4680BD0010024080B584B0A1
:101B9C0000AF786039607B68002B01D10123D0E065
:101BAC006A4B1B6803F007033A689A4210D9674BDB
:101BBC001B6823F0070265493B6813430B60634BBA
:101BCC001B6803F007033A689A4201D00123B8E07E
:101BDC007B681B6803F00203002B20D07B681B681A
:101BEC0003F00403002B05D0594B5B68584A43F4AF
:101BFC00E06353607B681B6803F00803002B05D07F
:101C0C00534B5B68524A43F460535360504B5B68D0
:101C1C0023F0F0027B689B684D4913434B607B6853
:101C2C001B6803F00103002B40D07B685B68012B21
:101C3C0007D1474B1B6803F40033002B15D101234C
:101C4C007FE07B685B68022B07D1414B1B6803F07C
:101C5C000073002B09D1012373E03D4B1B6803F08B
:101C6C000203002B01D101236BE0394B5B6823F09D
:101C7C0003027B685B68364913434B60FFF7CCF873
:101C8C00F8600AE0FFF7C8F80246FB68D31A41F285
:101C9C008832934201D9032353E02D4B5B6803F048
:101CAC000C027B685B689B009A42EBD1274B1B684C
:101CBC0003F007033A689A4210D2244B1B6823F0B6
:101CCC00070222493B6813430B60204B1B6803F04F
:101CDC0007033A689A4201D0012332E07B681B6803
:101CEC0003F00403002B08D0194B5B6823F4E0626B
:101CFC007B68DB68164913434B607B681B6803F0F9
:101D0C000803002B09D0124B5B6823F460527B68EC
:101D1C001B69DB000E4913434B6000F021F80246AF
:101D2C000B4B5B681B0903F00F030A49CB5C22FACF
:101D3C0003F3094A1360094B1B681846FFF72AF88E
:101D4C00002318461037BD4680BD00BF002002405E
:101D5C0000100240A4350008000000200400002000
:101D6C0080B487B000AF0023FB600023BB6000236E
:101D7C007B6100237B6000233B611E4B5B68FB6037
:101D8C00FB6803F00C03042B02D0082B03D027E0D4
:101D9C00194B3B6127E0FB689B0C03F00F03174AC0
:101DAC00D35C7B60FB6803F48033002B10D0114BA9
:101DBC005B685B0C03F00103114AD35CBB607B686E
:101DCC000D4A03FB02F2BB68B2FBF3F37B6104E048
:101DDC007B680C4A02FB03F37B617B693B6102E08D
:101DEC00054B3B6100BF3B6918461C37BD4680BCA8
:101DFC00704700BF0010024000127A00BC3500088A
:101E0C00CC35000800093D0080B400AF024B1B68C4
:101E1C001846BD4680BC70470000002080B500AF5E
:101E2C00FFF7F2FF0246054B5B681B0A03F0070342
:101E3C000349CB5C22FA03F3184680BD0010024024
:101E4C00B435000880B500AFFFF7DEFF0246054B46
:101E5C005B68DB0A03F007030349CB5C22FA03F34C
:101E6C00184680BD00100240B435000880B485B01F
:101E7C0000AF78600A4B1B680A4AA2FB03235B0A7B
:101E8C007A6802FB03F3FB6000BFFB685A1EFA6022
:101E9C00002BF9D100BF00BF1437BD4680BC704782
:101EAC0000000020D34D621080B582B000AF786086
:101EBC007B68002B01D1012341E07B6893F83D3016
:101ECC00DBB2002B06D17B68002283F83C207868BB
:101EDC00FEF7E4FD7B68022283F83D207B681A68DC
:101EEC007B6804331946104600F0F0F87B68012239
:101EFC0083F846207B68012283F83E207B68012210
:101F0C0083F83F207B68012283F840207B68012204
:101F1C0083F841207B68012283F842207B680122F0
:101F2C0083F843207B68012283F844207B680122DC
:101F3C0083F845207B68012283F83D200023184656
:101F4C000837BD4680BD000080B586B000AFF86094
:101F5C00B9607A600023FB75FB6893F83C30012B69
:101F6C0001D10223AEE0FB68012283F83C207B68A0
:101F7C000C2B00F29F8001A252F823F0BD1F000829
:101F8C00C1200008C1200008C1200008FD1F000866
:101F9C00C1200008C1200008C12000083F20000813
:101FAC00C1200008C1200008C12000087F200008C3
:101FBC00FB681B68B968184600F0F6F8FB681B68EC
:101FCC009A69FB681B6842F008029A61FB681B68FF
:101FDC009A69FB681B6822F004029A61FB681B6813
:101FEC009969BB681A69FB681B680A439A6164E0CB
:101FFC00FB681B68B968184600F03CF9FB681B6865
:10200C009A69FB681B6842F400629A61FB681B6862
:10201C009A69FB681B6822F480629A61FB681B68F2
:10202C009969BB681B691A02FB681B680A439A61B1
:10203C0043E0FB681B68B968184600F085F9FB683B
:10204C001B68DA69FB681B6842F00802DA61FB68FE
:10205C001B68DA69FB681B6822F00402DA61FB6812
:10206C001B68D969BB681A69FB681B680A43DA618B
:10207C0023E0FB681B68B968184600F0CFF9FB68D1
:10208C001B68DA69FB681B6842F40062DA61FB6862
:10209C001B68DA69FB681B6822F48062DA61FB68F2
:1020AC001B68D969BB681B691A02FB681B680A4369
:1020BC00DA6102E00123FB7500BFFB68002283F8A4
:1020CC003C20FB7D18461837BD4680BD80B485B0DA
:1020DC0000AF786039607B681B68FB607B682F4AB7
:1020EC0093420BD07B68B3F1804F07D07B682C4AAE
:1020FC00934203D07B682B4A934208D1FB6823F0B0
:10210C007003FB603B685B68FA681343FB607B6899
:10211C00224A93420BD07B68B3F1804F07D07B6887
:10212C001F4A934203D07B681E4A934208D1FB6836
:10213C0023F44073FB603B68DB68FA681343FB6075
:10214C00FB6823F080023B685B691343FB607B6890
:10215C00FA681A603B689A687B68DA623B681A68AE
:10216C007B689A627B680D4A934203D13B681A697B
:10217C007B681A637B6801225A617B681B6903F0D8
:10218C000103002B05D07B681B6923F001027B68DF
:10219C001A6100BF1437BD4680BC7047002C01404B
:1021AC00000400400008004080B487B000AF7860A5
:1021BC0039607B681B6A7B617B681B6A23F00102B8
:1021CC007B681A627B685B683B617B689B69FB6020
:1021DC00FB6823F07003FB60FB6823F00303FB60D8
:1021EC003B681B68FA681343FB607B6923F00203AE
:1021FC007B613B689B687A6913437B617B681C4AF3
:10220C0093420CD17B6923F008037B613B68DB684C
:10221C007A6913437B617B6923F004037B617B68E0
:10222C00134A934211D13B6923F480733B613B69A0
:10223C0023F400733B613B685B693A6913433B6170
:10224C003B689B693A6913433B617B683A695A6006
:10225C007B68FA689A613B685A687B685A637B684A
:10226C007A691A6200BF1C37BD4680BC704700BF3C
:10227C00002C014080B487B000AF786039607B6877
:10228C001B6A7B617B681B6A23F010027B681A62F5
:10229C007B685B683B617B689B69FB60FB6823F434
:1022AC00E043FB60FB6823F44073FB603B681B68F6
:1022BC001B02FA681343FB607B6923F020037B61EC
:1022CC003B689B681B017A6913437B617B681D4AE1
:1022DC0093420DD17B6923F080037B613B68DB6803
:1022EC001B017A6913437B617B6923F040037B619B
:1022FC007B68144A934213D13B6923F480633B619E
:10230C003B6923F400633B613B685B699B003A6962
:10231C0013433B613B689B699B003A6913433B61E8
:10232C007B683A695A607B68FA689A613B685A68BC
:10233C007B689A637B687A691A6200BF1C37BD465A
:10234C0080BC7047002C014080B487B000AF78602F
:10235C0039607B681B6A7B617B681B6A23F4807223
:10236C007B681A627B685B683B617B68DB69FB603E
:10237C00FB6823F07003FB60FB6823F00303FB6036
:10238C003B681B68FA681343FB607B6923F400739A
:10239C007B613B689B681B027A6913437B617B689A
:1023AC001D4A93420DD17B6923F400637B613B682A
:1023BC00DB681B027A6913437B617B6923F48063BE
:1023CC007B617B68144A934213D13B6923F480539D
:1023DC003B613B6923F400533B613B685B691B0128
:1023EC003A6913433B613B689B691B013A69134390
:1023FC003B617B683A695A607B68FA68DA613B68D2
:10240C005A687B68DA637B687A691A6200BF1C378A
:10241C00BD4680BC704700BF002C014080B487B023
:10242C0000AF786039607B681B6A3B617B681B6A14
:10243C0023F480527B681A627B685B687B617B68E3
:10244C00DB69FB60FB6823F4E043FB60FB6823F46F
:10245C004073FB603B681B681B02FA681343FB600C
:10246C003B6923F400533B613B689B681B033A694F
:10247C0013433B617B680F4A934209D17B6923F478
:10248C0080437B613B685B699B017A6913437B6189
:10249C007B687A695A607B68FA68DA613B685A68CB
:1024AC007B681A647B683A691A6200BF1C37BD46A8
:1024BC0080BC7047002C014080B485B000AF7860C0
:1024CC0039607B6893F83C30012B01D1022346E044
:1024DC007B68012283F83C207B68022283F83D2034
:1024EC007B681B685B68FB607B681B689B68BB60D8
:1024FC00FB6823F07003FB603B681B68FA681343AE
:10250C00FB607B681B68FA685A607B681B68164A1C
:10251C0093420ED07B681B68B3F1804F09D07B6867
:10252C001B68124A934204D07B681B68104A934282
:10253C000CD1BB6823F08003BB603B685B68BA6856
:10254C001343BB607B681B68BA689A607B68012286
:10255C0083F83D207B68002283F83C20002318463A
:10256C001437BD4680BC7047002C0140000400406D
:10257C000008004080B582B000AF78607B68002B0B
:10258C0001D1012342E07B6893F84130DBB2002B90
:10259C0006D17B68002283F840207868FEF700FBA8
:1025AC007B68242283F841207B681B68DA687B688F
:1025BC001B6822F40052DA60786800F009FA7B6834
:1025CC001B681A697B681B6822F490421A617B684D
:1025DC001B685A697B681B6822F02A025A617B6867
:1025EC001B68DA687B681B6842F40052DA607B680F
:1025FC0000225A647B68202283F841207B682022C9
:10260C0083F842207B6800225A630023184608375F
:10261C00BD4680BD80B58AB002AFF860B9603B6042
:10262C001346FB8000237B61FB6893F84130DBB2DF
:10263C00202B75D1BB68002B02D0FB88002B01D15D
:10264C0001236EE0FB6800225A64FB68212283F8A8
:10265C004120FEF7E1FB7861FB68FA889A84FB68FD
:10266C00FA88DA84FB689B68B3F5805F08D1FB6855
:10267C001B69002B04D10023FB61BB68BB6103E029
:10268C00BB68FB610023BB612EE03B6800937B6958
:10269C0000228021F86800F0DFF80346002B05D0FB
:1026AC00FB68202283F8412003233AE0FB69002BCE
:1026BC000BD1BB691B881A46FB681B68C2F3080266
:1026CC005A60BB690233BB6107E0FB691A78FB688F
:1026DC001B685A60FB690133FB61FB68DB8C9BB2A6
:1026EC00013B9AB2FB68DA84FB68DB8C9BB2002B53
:1026FC00CBD13B6800937B6900224021F86800F045
:10270C00ABF80346002B05D0FB68202283F8412050
:10271C00032306E0FB68202283F84120002300E01D
:10272C00022318462037BD4680BD80B58AB002AF63
:10273C00F860B9603B601346FB8000237B61FB684B
:10274C0093F84230DBB2202B40F08180BB68002B29
:10275C0002D0FB88002B01D1012379E0FB68002219
:10276C005A64FB68222283F84220FB6800221A6319
:10277C00FEF752FB7861FB68FA889A85FB68FA8849
:10278C00DA85FB689B68B3F5805F08D1FB681B6931
:10279C00002B04D10023FB61BB68BB6103E0BB6869
:1027AC00FB610023BB6147E03B6800937B6900221F
:1027BC002021F86800F050F80346002B05D0FB6888
:1027CC00202283F84220032342E0FB69002B0CD12A
:1027DC00FB681B685B689BB2C3F308039AB2BB69C6
:1027EC001A80BB690233BB611FE0FB689B68B3F5C1
:1027FC00805F07D0FB689B68002B0AD1FB681B69C4
:10280C00002B06D1FB681B685B68DAB2FB691A7097
:10281C0008E0FB681B685B68DBB203F07F03DAB28D
:10282C00FB691A70FB690133FB61FB68DB8D9BB2A2
:10283C00013B9AB2FB68DA85FB68DB8D9BB2002BFF
:10284C00B2D1FB68202283F84220002300E002234F
:10285C0018462037BD4680BD80B586B000AFF86005
:10286C00B9603B601346FB713BE03B6AB3F1FF3F41
:10287C0037D0FEF7D1FA02463B68D31A3A6A9A422D
:10288C0002D33B6A002B01D103233AE0FB681B689F
:10289C00DB6803F00403002B23D0BB68802B20D013
:1028AC00BB68402B1DD0FB681B681B6803F008033A
:1028BC00082B16D100237B61FB681B681B687B61AE
:1028CC00FB681B685B687B617B69F86800F01DF82E
:1028DC00FB6808225A64FB68002283F8402001231D
:1028EC000FE0FB681B681A68BB681340BA689A4211
:1028FC000CBF01230023DBB21A46FB799A42B4D0F9
:10290C00002318461837BD4680BD80B495B000AF83
:10291C0078607B681B680C337B637B6B53E8003FF0
:10292C003B633B6B23F49073FB647B681B680C3339
:10293C00FA6C3A64FB63F96B3A6C41E80023BB63B5
:10294C00BB6B002BE5D17B681B6814333B623B6A85
:10295C0053E8003FFB61FB6923F00103BB647B6818
:10296C001B681433BA6CFA62BB62B96AFA6A41E842
:10297C0000237B627B6A002BE5D17B681B6B012BF0
:10298C0019D17B681B680C33FB60FB6853E8003F74
:10299C00BB60BB6823F010037B647B681B680C3343
:1029AC007A6CBA617B617969BA6941E800233B6151
:1029BC003B69002BE5D17B68202283F842207B68A1
:1029CC0000221A6300BF5437BD4680BC704700001C
:1029DC0080B584B000AF78607B681B681B6923F4FA
:1029EC0040517B68DA687B681B680A431A617B6814
:1029FC009A687B681B691A437B685B691343BB60ED
:102A0C007B681B68DB6823F4B05323F00C037A68F3
:102A1C001268B9680B43D3607B681B685B6923F44D
:102A2C0040717B689A697B681B680A435A617B68B2
:102A3C001B682C4A934203D1FFF704FAF86002E0BA
:102A4C00FFF7ECF9F860FA6813469B0013449A0000
:102A5C001A447B685B689B00B2FBF3F3224AA2FB2F
:102A6C0003235B091901FA6813469B0013449A006F
:102A7C001A447B685B689B00B2FBF3F21A4BA3FB16
:102A8C0002035B09642000FB03F3D31A1B013233EE
:102A9C00154AA2FB03235B0903F0F0031944FA68FF
:102AAC0013469B0013449A001A447B685B689B0096
:102ABC00B2FBF3F20C4BA3FB02035B09642000FB9B
:102ACC0003F3D31A1B013233074AA2FB03235B091E
:102ADC0003F00F027B681B680A449A6000BF103732
:102AEC00BD4680BD003801401F85EB510EB46FF020
:102AFC00004100B59CB01DAB02900690079104916B
:102B0C000848094953F8042B0591006802A9019360
:102B1C0000F0B6F90022029B1A701CB05DF804EBB1
:102B2C0003B070470C0000200802FFFF034602446C
:102B3C00934200D1704703F8011BF9E70346C9B271
:102B4C00184613F8012B12B18A42F9D170470029AB
:102B5C0018BF002070470A7870B56AB970BD9A42E8
:102B6C0009D10C46054614F8013F002BF6D015F898
:102B7C00016F9E42F7D001300378002BEFD118463D
:102B8C00ECE70000014B1868704700BF0C000020F8
:102B9C0070B500260C4D0D4C641BA410A64209D137
:102BAC0000F078FC00260A4D0A4C641BA410A642C7
:102BBC0005D170BD55F8043B98470136EEE755F842
:102BCC00043B98470136F2E70C3600080C36000837
:102BDC000C360008103600087047704738B50546AB
:102BEC00002940D051F8043C0C1F002BB8BFE4184E
:102BFC0000F0DEF81C4A136833B963601460284691
:102C0C00BDE8384000F0DAB8A34208D92068211892
:102C1C008B4201BF19685B6809182160EDE71A4601
:102C2C005B680BB1A342FAD911685018A0420BD1C2
:102C3C0020680144501883421160E0D118685B6829
:102C4C00084410605360DAE702D90C232B60D6E7F6
:102C5C00206821188B4201BF19685B680918216034
:102C6C0063605460CBE738BD9802002070B50F4EFE
:102C7C000C463168054611B900F0AAFB30602146BC
:102C8C00284600F0A5FB431C03D14FF0FF3420462F
:102C9C0070BDC41C24F00304A042F8D0211A2846AD
:102CAC0000F096FB0130F2D1EFE700BF9402002058
:102CBC002DE9F843CD1C25F0030508350C2D38BF44
:102CCC000C25002D064601DBA94204D90C233360E8
:102CDC000020BDE8F883DFF8D48000F069F8D8F85C
:102CEC0000301C4644BB29463046FFF7BFFF431C4F
:102CFC00044658D1D8F800402746002F43D1002C69
:102D0C004BD023683946304604EB030900F060FBD6
:102D1C00814542D1216830466D1A2946FFF7A6FF3E
:102D2C0001303AD023682B442360D8F800305A681D
:102D3C0062BBC8F800700FE02268521B20D40B2A2B
:102D4C0017D96119A342256018BF5960636808BF81
:102D5C00C8F8001062514B60304600F02FF804F1B7
:102D6C000B00231D20F00700C21A1CBF1B1AA35016
:102D7C00AFE76268A3420CBFC8F800205A60EBE7CB
:102D8C0023466468AEE73C467F68B6E71A465B6844
:102D9C00A342FBD100235360DEE70C2330463360A3
:102DAC0000F00CF894E70560D6E700BF980200200D
:102DBC000148FFF711BF00BF900200200148FFF748
:102DCC000CBF00BF900200202DE9F0471F468E6813
:102DDC008246BE420C4690460B682DD8B1F90C20A9
:102DEC0012F4906F26D06569096905EB4505A3EBD4
:102DFC00010905EBD5757B1C4B446D109D4238BF0A
:102E0C001D46530527D52946FFF752FF064660B3EA
:102E1C004A46216900F0FAFAA38923F4906343F03F
:102E2C008003A38126614E4426603E466561A5EB76
:102E3C000905A560BE4200D93E463246414620688F
:102E4C0000F0ACFA0020A3689B1BA36023683344FA
:102E5C002360BDE8F0872A4600F0E6FA0646002813
:102E6C00E0D150462169FFF7B9FE0C23CAF80030B7
:102E7C00A3894FF0FF3043F04003A381E9E7000042
:102E8C002DE9F04F98468B8907461B060D461446D4
:102E9C009DB010D50B6973B94021FFF709FF28606D
:102EAC00286130B90C233B604FF0FF301DB0BDE8FA
:102EBC00F08F40236B610023099320238DF8293078
:102ECC0030234FF00109CDF80C80DFF898818DF894
:102EDC002A3023469A4613F8012B0AB1252AF9D138
:102EEC00BAEB040B0BD05B46224629463846FFF75B
:102EFC006BFF013000F0A780099A5A4409929AF8A6
:102F0C000030002B00F09F8000234FF0FF32CDE902
:102F1C0005230AF1010A049307938DF853301A9391
:102F2C005446052214F8011B4E4800F061FA049A2D
:102F3C00D8B9D00644BF20238DF85330110744BFB5
:102F4C002B238DF853309AF800302A2B15D0544689
:102F5C0000204FF00A0C079A214611F8013B303B38
:102F6C00092B4BD9B0B1079214E0A0EB080309FA76
:102F7C0003F31343A2460493D2E7039B191D1B686A
:102F8C000391002BBBBF5B4242F0020207930793F5
:102F9C00B8BF049223782E2B0AD163782A2B32D116
:102FAC00039B02341A1D1B68039243EAE3730593D7
:102FBC00DFF8B4A003225046217800F019FA38B19A
:102FCC004022049BA0EB0A0082401343013404937B
:102FDC0014F8011B062225488DF8281000F008FA79
:102FEC00002836D0224B1BBB039B073323F007036F
:102FFC0008330393099B334409936AE70C46012079
:10300C000CFB0232A8E700234FF00A0C19460134DE
:10301C000593204610F8012B303A092A03D9002BCE
:10302C00C6D00591C4E7044601230CFB0121F0E74F
:10303C0003AB00932A4638460E4B04A9AFF300802D
:10304C00421C0646D6D1AB895B063FF52DAF0998DD
:10305C002CE703AB00932A463846064B04A900F034
:10306C007DF8EDE7CE350008D4350008D8350008DA
:10307C0000000000D52D00082DE9F04716469846B3
:10308C008A680B6907469342B8BF1346336091F8C0
:10309C0043200C46DDF820900AB1013333602368DD
:1030AC00990642BF336802333360256815F0060574
:1030BC0006D104F1190AE36832689B1AAB422BDC87
:1030CC0094F843302268003B18BF0123920630D499
:1030DC004146384604F14302C847013023D02368E7
:1030EC00226903F00603042B14BF002533684FF04C
:1030FC00000608BFE56804F11A0408BFED1A54F87D
:10310C00123C08BF25EAE5759342C4BF9B1AED1823
:10311C00B5421AD1002008E00123524641463846F8
:10312C00C847013003D14FF0FF30BDE8F0870135BF
:10313C00C1E73020E11881F843005A1C94F845107F
:10314C002244023382F84310C2E70123224641464F
:10315C003846C8470130E6D00136D9E72DE9FF479C
:10316C000F7E9146782F80460C469A460C9E01F1B4
:10317C00430207D8622F0AD8002F00F0D380582FB3
:10318C0000F0BA8004F1420684F842703AE0A7F1EC
:10319C006303152BF6D801A151F823F00132000876
:1031AC001532000891310008913100089131000866
:1031BC009131000815320008913100089131000856
:1031CC009131000891310008173300083F32000894
:1031DC00D1320008913100089131000839330008D0
:1031EC00913100083F3200089131000891310008FC
:1031FC00D932000833681A1D1B68326004F142068C
:10320C0084F8423001239EE033682068191D316038
:10321C00060601D51D6803E04506FBD5B3F9005041
:10322C00002D03DA2D236D4284F843300A235948CC
:10323C0011E021683368080653F8045B02D4490690
:10324C0048BFADB26F2F336014BF0A230823514817
:10325C00002184F843106668002EA8BF2168A66080
:10326C00A4BF21F0040121600DB9002E4BD01646ED
:10327C00B5FBF3F103FB1157C75D06F8017D2F4633
:10328C00BB420D46F4D9082B0BD12368DF0708D5B8
:10329C00236961689942DEBF302306F8013C06F1D0
:1032AC00FF36921B22614B4621464046CDF800A0CA
:1032BC0003AAFFF7E1FE01304AD14FF0FF3004B012
:1032CC00BDE8F087236843F0200323607827324859
:1032DC0084F84570236831681F0651F8045B02D4EA
:1032EC005F0648BFADB23160D90744BF43F020033D
:1032FC0023601DB11023ABE72648E9E7236823F0D0
:10330C0020032360F6E71646BDE733682568181DD1
:10331C00616930602E061B6801D5196002E06806F1
:10332C00FBD51980002316462361BCE733680021C6
:10333C001A1D32601E686268304600F059F808B1F8
:10334C00801B606063682361002384F84330AAE724
:10335C003246494640462369D0470130ADD02368F8
:10336C009B0713D4E068039B9842B8BF1846A6E7A6
:10337C000123324649464046D04701309DD00135A5
:10338C00E36803995B1AAB42F2DCEBE7002504F12E
:10339C001906F5E7DF350008F0350008884210B54E
:1033AC0001EB020402D98442234607D8431EA142F2
:1033BC0008D011F8012B03F8012FF8E7014602445D
:1033CC008A4200D110BD13F8014D02F8014DF7E708
:1033DC0038B50023054D044608462B60FDF762FC0A
:1033EC00431C02D12B6803B1236038BD8C02002032
:1033FC00034610B5C9B202449342184601D10020CD
:10340C0003E0047801338C42F6D110BD0A4491429A
:10341C0000F1FF3300D1704710B511F8014B914208
:10342C0003F8014FF9D110BD2DE9F0418046154646
:10343C000C4621B91146BDE8F041FFF739BC2AB959
:10344C00FFF7CCFB00242046BDE8F08100F01AF811
:10345C008542064602D8B5EB500FF4D829464046B3
:10346C00FFF726FC07460028ECD0B5422A46214639
:10347C0028BF3246FFF7CAFF21464046FFF7AEFB96
:10348C003C46E0E751F8043C181F002BBCBF0B581E
:10349C00C0187047F8B500BFF8BC08BC9E46704712
:0C34AC00F8B500BFF8BC08BC9E46704795
:1034B8003131000032320000333300003132330042
:1034C80041542B5253540D0A0000000041542B4321
:1034D800574A41503D2254657374696E67222C2205
:1034E8003132333436373839220D0A004F4B000059
:1034F80041542B4349504D55583D310D0A000000A9
:1035080041542B4349505345525645523D312C386E
:10351800300D0A002B4950442C3000002B495044F0
:103528002C3100002B4950442C3200002B495044C8
:103538002C3300002B4950442C3400002B495044B4
:103548002C3500002B4950442C3600002B495044A0
:103558002C370000474554202F6C696768746F6EDC
:1035680000000000474554202F6C696768746F6637
:103578006600000041542B43495053454E443D25B5
:10358800642C25640D0A000041542B434950434CD8
:103598004F53453D25640D0A00000000000000005F
:1035A80000000000010203040607080900000000EB
:1035B8000102030402030405060708090A0B0C0D9F
:1035C8000E0F10100102232D302B2000686C4C00C8
:1035D800656667454647003031323334353637380B
:1035E8003941424344454600303132333435363769
:0C35F80038396162636465660000000001
:0836040048CBFF7F010000002C
:04360C003101000880
:043610000D010008A0
:1036140000127A00100000000100000010000020D9
:103624000000000054010020BC01002024020020FE
:103634000000000000000000000000000000000086
:103644000000000000000000000000000000000076
:103654000000000000000000000000000000000066
:0C3664000000000000000000000000005A
:0400000508000D29B9
:00000001FF
