:020000040800F2
:100000000050002061100008490E0008510E000841
:10001000590E0008610E0008690E0008000000007B
:10002000000000000000000000000000710E000849
:100030007D0E000800000000890E0008950E0008E3
:10004000A9100008A9100008A9100008A9100008AC
:10005000A9100008A9100008A9100008A91000089C
:10006000A9100008A9100008A9100008A91000088C
:10007000A9100008A9100008A9100008A91000087C
:10008000A9100008A9100008A9100008A91000086C
:10009000A9100008A9100008A9100008A91000085C
:1000A000A9100008A9100008A9100008A91000084C
:1000B000A9100008A9100008A9100008A91000083C
:1000C000A9100008A9100008A9100008A91000082C
:1000D000A9100008A9100008A9100008A91000081C
:1000E000A9100008A9100008A910000800000000CD
:1000F0000000000000000000000000000000000000
:0C01000000000000000000005FF808F1A3
:1001100010B5054C237833B9044B13B10448AFF341
:1001200000800123237010BD10000020000000009B
:100130004440000808B5034B1BB103490348AFF323
:10014000008008BD000000001400002044400008AA
:1001500070B54FF0FF0C4CF4E06C1CEA11541DBF5D
:100160001CEA135594EA0C0F95EA0C0F00F0DEF828
:100170002C4481EA030621EA4C5123EA4C5350EA0D
:10018000013518BF52EA033541F4801143F480135E
:1001900038D0A0FB02CE4FF00005E1FB02E506F0EF
:1001A0000042E0FB03E54FF00006E1FB03569CF044
:1001B000000F18BF4EF0010EA4F1FF04B6F5007F4A
:1001C00064F5407404D25FEA4E0E6D4146EB0606BC
:1001D00042EAC62141EA55514FEAC52040EA5E5045
:1001E0004FEACE2EB4F1FD0C88BFBCF5E06F1ED8EF
:1001F000BEF1004F08BF5FEA500E50F1000041EB26
:10020000045170BD06F0004646EA010140EA0200D2
:1002100081EA0301B4EB5C04C2BFD4EB0C0541EAF4
:10022000045170BD41F480114FF0000E013C00F309
:10023000AB8014F1360FDEBF002001F0004170BD2D
:10024000C4F10004203C35DA0C341BDC04F1140446
:10025000C4F1200500FA05F320FA04F001FA05F2D2
:1002600040EA020001F0004221F0004110EBD3709F
:1002700021FA04F642EB06015EEA430E08BF20EACB
:10028000D37070BDC4F10C04C4F1200500FA04F36E
:1002900020FA05F001FA04F240EA020001F0004100
:1002A00010EBD37041F100015EEA430E08BF20EA73
:1002B000D37070BDC4F1200500FA05F24EEA020EBB
:1002C00020FA04F301FA05F243EA020321FA04F0EA
:1002D00001F0004121FA04F220EA020000EBD370A1
:1002E0005EEA430E08BF20EAD37070BD94F0000FA1
:1002F0000FD101F00046400041EB010111F4801FD5
:1003000008BF013CF7D041EA060195F0000F18BF85
:10031000704703F00046520043EB030313F4801FC1
:1003200008BF013DF7D043EA0603704794EA0C0F7B
:100330000CEA135518BF95EA0C0F0CD050EA410691
:1003400018BF52EA4306D1D181EA030101F000410E
:100350004FF0000070BD50EA410606BF1046194636
:1003600052EA430619D094EA0C0F02D150EA013642
:1003700013D195EA0C0F05D152EA03361CBF104683
:1003800019460AD181EA030101F0004141F0FE4122
:1003900041F470014FF0000070BD41F0FE4141F4A6
:1003A000780170BD81F0004102E000BF83F000439E
:1003B00030B54FEA41044FEA430594EA050F08BF00
:1003C00090EA020F1FBF54EA000C55EA020C7FEAC4
:1003D000645C7FEA655C00F0E2804FEA5454D4EB41
:1003E0005555B8BF6D420CDD2C4480EA020281EA0B
:1003F000030382EA000083EA010180EA020281EA43
:100400000303362D88BF30BD11F0004F4FEA013194
:100410004FF4801C4CEA113102D0404261EB4101A3
:1004200013F0004F4FEA03334CEA133302D0524229
:1004300063EB430394EA050F00F0A780A4F10104E5
:10044000D5F1200E0DDB02FA0EFC22FA05F280181F
:1004500041F1000103FA0EF2801843FA05F3594105
:100460000EE0A5F120050EF1200E012A03FA0EFC84
:1004700028BF4CF0020C43FA05F3C01851EBE371AE
:1004800001F0004507D54FF0000EDCF1000C7EEBCB
:1004900000006EEB0101B1F5801F1BD3B1F5001F09
:1004A0000CD349085FEA30004FEA3C0C04F1010428
:1004B0004FEA445212F5800F80F09A80BCF1004F51
:1004C00008BF5FEA500C50F1000041EB045141EAD3
:1004D000050130BD5FEA4C0C404141EB0101013C9C
:1004E00028BFB1F5801FE9D291F0000F04BF01468B
:1004F0000020B1FA81F308BF2033A3F10B03B3F15D
:1005000020020CDA0C3208DD02F1140CC2F10C02EC
:1005100001FA0CF021FA02F10CE002F11402D8BF4A
:10052000C2F1200C01FA02F120FA0CFCDCBF41EA16
:100530000C019040E41AA2BF01EB0451294330BDE5
:100540006FEA04041F3C1CDA0C340EDC04F11404C2
:10055000C4F1200220FA04F001FA02F340EA030099
:1005600021FA04F345EA030130BDC4F10C04C4F1DF
:10057000200220FA02F001FA04F340EA03002946BF
:1005800030BD21FA04F0294630BD94F0000F83F409
:10059000801306BF81F480110134013D4EE77FEAEC
:1005A000645C18BF7FEA655C29D094EA050F08BF38
:1005B00090EA020F05D054EA000C04BF1946104619
:1005C00030BD91EA030F1EBF0021002030BD5FEA5D
:1005D000545C05D14000494128BF41F0004130BD85
:1005E00014F580043CBF01F5801130BD01F00045D9
:1005F00045F0FE4141F470014FF0000030BD7FEA4C
:10060000645C1ABF194610467FEA655C1CBF0B4646
:10061000024650EA013406BF52EA033591EA030F5D
:1006200041F4002130BD00BF90F0000F04BF002155
:10063000704730B54FF4806404F132044FF0000588
:100640004FF0000150E700BF90F0000F04BF002101
:10065000704730B54FF4806404F1320410F0004567
:1006600048BF40424FF000013EE700BF42004FEA62
:10067000E2014FEA31014FEA02701FBF12F07F43DF
:1006800093F07F4F81F06051704732F07F4208BF96
:10069000704793F07F4F04BF41F40021704730B59D
:1006A0004FF4607401F0004521F000411CE700BFE9
:1006B00050EA010208BF704730B54FF000050AE06C
:1006C00050EA010208BF704730B511F0004502D56D
:1006D000404261EB41014FF4806404F132045FEA6F
:1006E000915C3FF4D8AE4FF003025FEADC0C18BF18
:1006F00003325FEADC0C18BF033202EBDC02C2F10A
:10070000200300FA03FC20FA02F001FA03FE40EA9B
:100710000E0021FA02F11444BDE600BF4FEA410287
:1007200012F5001215D211D56FF47873B3EB625243
:1007300012D94FEAC12343F0004343EA505311F06A
:10074000004F23FA02F018BF404270474FF00000FC
:10075000704750EA013005D111F0004008BF6FF03A
:10076000004070474FF00000704700BF80B500AFF9
:1007700000F09CFC00F058F800F0CAF900F09EF977
:1007800000F0EAF800F0AAF800F014F9002122487D
:1007900002F020FF00BF00F0CFFB0346002B01D189
:1007A000002337E0002000F0E9FB00224FF4005165
:1007B0001A4801F07BF91A4B1A88174B1B685A63C9
:1007C00000F000FC00F0E8FB164B1B88282B05D935
:1007D000134B55221A80052000F0CAFC114B1B88D0
:1007E0001D2B0CD80E4B0F221A800D4B1B88642B2F
:1007F00002D10B4B0A221A80052000F0B9FC01221D
:100800004FF40051054801F051F94FF47A7000F0AF
:10081000AFFCCAE7184680BD5C000020000C014018
:10082000000000204601002080B594B000AF07F121
:10083000280328220021184603F0D8FB07F11403EF
:1008400000221A605A609A60DA601A613B1D002229
:100850001A605A609A60DA600123BB624FF48033F9
:10086000FB6200233B630123BB6302237B644FF4E1
:100870008033BB640023FB6407F12803184602F0B1
:1008800093F90346002B01D000F08EF90F237B6112
:100890000223BB610023FB614FF480633B620023B2
:1008A0007B6207F114030021184602F0FFFB0346A8
:1008B000002B01D000F078F902237B600023FB605D
:1008C0003B1D184602F080FD0346002B01D000F0CE
:1008D0006BF900BF5037BD4680BD000080B584B0C5
:1008E00000AF3B1D00221A605A609A60184B194AEB
:1008F0001A60174B00229A60154B00221A73144B92
:1009000000221A75124B4FF46022DA61104B00225C
:100910005A600F4B01221A610D4800F04DFC03464E
:10092000002B01D000F040F900237B600123BB6065
:100930000023FB603B1D1946054800F015FD0346EA
:10094000002B01D000F030F900BF1037BD4680BD4C
:100950002C0000200024014080B500AF124B134A48
:100960001A60114B124A5A600F4B00229A600E4BCC
:100970000022DA600C4B4FF480421A610A4B0022CD
:100980005A61094B00229A61074B0022DA61064B3B
:1009900000221A62044801F0A1F80346002B01D09E
:1009A00000F002F900BF80BDEC00002000540040C0
:1009B000A086010080B592B000AF07F1400300228D
:1009C0001A605A6007F1240300221A605A609A6084
:1009D000DA601A615A619A613B1D20220021184693
:1009E00003F004FB334B344A1A60324B00225A6046
:1009F000304B00229A602F4B4FF6FF72DA602D4B7E
:100A000000221A612B4B00225A612A4B00229A6164
:100A1000284802F08FFD0346002B01D000F0C4F8F7
:100A200000233B6400237B6407F1400319462148FF
:100A300003F04EF90346002B01D000F0B5F8602317
:100A40007B620023BB620023FB6200233B63002325
:100A50007B630023BB630023FB6307F124030022B5
:100A60001946144802F058FE0346002B01D000F04E
:100A70009BF800237B600023BB600023FB60002306
:100A80003B6100237B614FF40053BB6100233B6259
:100A90003B1D1946074803F079F90346002B01D0A6
:100AA00000F082F8034800F04FF900BF4837BD4618
:100AB00080BD00BF5C000020002C014080B500AF6D
:100AC000114B124A1A60104B4FF4E1325A600E4B30
:100AD00000229A600C4B0022DA600B4B00221A6154
:100AE000094B0C225A61084B00229A61064B0022E6
:100AF000DA61054803F09BF90346002B01D000F0B2
:100B000053F800BF80BD00BFA400002000380140A2
:100B100080B588B000AF07F1100300221A605A6058
:100B20009A60DA601E4B9B691D4A43F02003936173
:100B30001B4B9B6903F02003FB60FB68184B9B6910
:100B4000174A43F004039361154B9B6903F00403B8
:100B5000BB60BB68124B9B69114A43F00803936169
:100B60000F4B9B6903F008037B607B6800224FF406
:100B700000510C4800F09AFF4FF400533B610123F1
:100B80007B610023BB610223FB6107F1100319465F
:100B9000044800F007FE00BF2037BD4680BD00BFFF
:100BA00000100240000C014080B400AF72B600BFDC
:100BB00000BFFDE780B485B000AF154B9B69144AB8
:100BC00043F001039361124B9B6903F00103BB6087
:100BD000BB680F4BDB690E4A43F08053D3610C4B6B
:100BE000DB6903F080537B607B680A4B5B68FB60CA
:100BF000FB6823F0E063FB60FB6843F00073FB607D
:100C0000044AFB68536000BF1437BD4680BC704780
:100C1000001002400000014080B588B000AF78604D
:100C200007F1100300221A605A609A60DA607B684C
:100C30001B68144A934221D1134B9B69124A43F417
:100C400000739361104B9B6903F40073FB60FB68B6
:100C50000D4B9B690C4A43F0040393610A4B9B695B
:100C600003F00403BB60BB6801233B6103237B618A
:100C700007F110031946054800F094FD00BF203726
:100C8000BD4680BD00240140001002400008014024
:100C900080B588B000AF786007F1100300221A60B9
:100CA0005A609A60DA607B681B68154A934223D1C8
:100CB000144B9B69134A43F008039361114B9B69E2
:100CC00003F00803FB60FB68C0233B6112237B61D8
:100CD0000323FB6107F1100319460B4800F062FD86
:100CE000084BDB69074A43F40013D361054BDB690A
:100CF00003F40013BB60BB6800BF2037BD4680BD56
:100D00000054004000100240000C014080B485B047
:100D100000AF78607B681B68094A93420BD1094B8E
:100D20009B69084A43F400639361064B9B6903F493
:100D30000063FB60FB6800BF1437BD4680BC704792
:100D4000002C01400010024080B588B000AF7860F0
:100D500007F1100300221A605A609A60DA607B681B
:100D60001B68104A934218D10F4B9B690E4A43F0FF
:100D7000040393610C4B9B6903F00403FB60FB6865
:100D80004FF480733B6102237B610223FB6107F117
:100D900010031946054800F005FD00BF2037BD4689
:100DA00080BD00BF002C014000100240000801403F
:100DB00080B588B000AF786007F1100300221A6098
:100DC0005A609A60DA607B681B681C4A934231D192
:100DD0001B4B9B691A4A43F480439361184B9B69F0
:100DE00003F48043FB60FB68154B9B69144A43F096
:100DF00004039361124B9B6903F00403BB60BB685F
:100E00004FF400733B6102237B610323FB6107F115
:100E1000100319460B4800F0C5FC4FF480633B619A
:100E200000237B610023BB6107F1100319460548CD
:100E300000F0B8FC00BF2037BD4680BD003801403F
:100E4000001002400008014080B400AF00BFFDE781
:100E500080B400AF00BFFDE780B400AF00BFFDE786
:100E600080B400AF00BFFDE780B400AF00BFFDE776
:100E700080B400AF00BFBD4680BC704780B400AFF7
:100E800000BFBD4680BC704780B400AF00BFBD4608
:100E900080BC704780B500AF00F04EF900BF80BD48
:100EA00080B400AF00BFBD4680BC704780B588B03D
:100EB00004AF03460A46FB711346BB80FB799AB226
:100EC00064230293022301933B1D009301232021FD
:100ED000074800F047FF0346FB73FB7B002B01D064
:100EE000FB7B00E0FB7B18461037BD4680BD00BF92
:100EF000EC00002080B588B004AF03463960FB7178
:100F0000FB799AB264230293022301933B68009316
:100F100001232021074801F01FF80346FB73FB7BE8
:100F2000002B01D0FB7B00E0FB7B18461037BD4651
:100F300080BD00BFEC00002080B582B000AF0E483D
:100F400000F0CCFD0346FB71FB79002B01D00023A0
:100F50000EE0BB1C19460C20FFF7CCFF0346BB710B
:100F60007B887B717B79282B01D0002300E0012353
:100F700018460837BD4680BDEC00002080B582B021
:100F800000AF0346FB80FB8819460020FFF78EFF69
:100F900000BF0837BD4680BD80B500AF074B1B883A
:100FA000184600F039F803461846FFF74DFB024695
:100FB0000B460349C1E9002300BF80BD4401002066
:100FC0005001002080B500AF0C490520FFF792FFCB
:100FD00003461A460A4B1A700A490620FFF78AFF91
:100FE00003461A46084B1A7008490720FFF782FF8C
:100FF00003461A46064B1A7000BF80BD440100200C
:10100000400100204601002041010020480100204D
:10101000420100200000000080B586B000AF78607B
:101020000DA3D3E90023C7E904237868FFF70CFB7D
:1010300002460B46D7E90401FFF78AF802460B4641
:10104000C7E90223D7E90201FFF768FB0346184608
:101050001837BD4680BD00BFFA7E6ABC7493D83F86
:10106000FFF71EFF0B480C490C4A002302E0D4583E
:10107000C4500433C4188C42F9D3094A094C0023E4
:1010800001E013600432A242FBD302F0B7FFFFF786
:101090006DFB704700000020100000209040000809
:1010A000100000205C010020FEE7000080B500AFCA
:1010B000084B1B68074A43F010031360032000F03D
:1010C0003DFB0F2000F008F8FFF774FD00231846E1
:1010D00080BD00BF0020024080B582B000AF7860C4
:1010E000124B1A68124B1B7819464FF47A73B3FBF4
:1010F000F1F3B2FBF3F3184600F047FB0346002B75
:1011000001D001230EE07B680F2B0AD800227968FA
:101110004FF0FF3000F01DFB064A7B681360002390
:1011200000E0012318460837BD4680BD04000020BA
:101130000C0000200800002080B400AF054B1B7895
:101140001A46054B1B681344034A136000BFBD4693
:1011500080BC70470C0000205801002080B400AF14
:10116000024B1B681846BD4680BC704758010020E2
:1011700080B584B000AF7860FFF7F0FFB8607B689F
:10118000FB60FB68B3F1FF3F05D00A4B1B781A46A2
:10119000FB681344FB6000BFFFF7E0FF0246BB683B
:1011A000D31AFA689A42F7D800BF00BF1037BD467D
:1011B00080BD00BF0C00002080B586B000AF786015
:1011C0000023FB7500233B610023BB600023FB6011
:1011D0007B68002B01D10123BEE07B689B68002B5C
:1011E0007B689B6A002B09D17B680022DA627B68EE
:1011F000002283F824207868FFF70EFD786800F05D
:10120000ABF90346FB757B689B6A03F01003002B68
:1012100040F09980FB7D002B40F095807B689B6AB5
:1012200023F4885323F0020343F002027B689A629E
:101230007B685A687B68DB691A437B681B7B5B00B1
:101240001343BA681343BB607B689B68B3F5807F28
:1012500003D07B689B68012B02D14FF4807300E0C0
:1012600000233A6913433B617B681B7D012B19D135
:101270007B681B7B002B09D17B689B69013B5A0370
:101280003B69134343F400633B610BE07B689B6A5B
:1012900043F020027B689A627B68DB6A43F00102BC
:1012A0007B68DA627B681B685B6823F469417B6852
:1012B0001B683A690A435A607B681B689A68284B26
:1012C00013407A681268B9680B4393607B689B6827
:1012D000B3F5807F03D07B689B68012B04D17B68CA
:1012E0001B69013B1B05FB607B681B68DB6A23F401
:1012F00070017B681B68FA680A43DA627B681B68C6
:101300009A68184B1340BA689A420BD17B68002246
:10131000DA627B689B6A23F0030343F001027B6877
:101320009A6218E07B689B6A23F0120343F0100274
:101330007B689A627B68DB6A43F001027B68DA6251
:101340000123FB7507E07B689B6A43F010027B6812
:101350009A620123FB75FB7D18461837BD4680BD98
:10136000FDF7E1FFFE0E1FFF80B485B000AF78608F
:1013700039600023FB730023BB607B6893F8243043
:10138000012B01D10223DCE07B68012283F82420B9
:101390003B685B68062B1CD87B681B68596B3B68F5
:1013A0005A6813469B001344053B1F2202FA03F3BD
:1013B000DB4319403B6818683B685A6813469B003A
:1013C0001344053B00FA03F27B681B680A435A6327
:1013D0003CE03B685B680C2B1CD87B681B68196B76
:1013E0003B685A6813469B001344233B1F2202FAB2
:1013F00003F3DB4319403B6818683B685A6813469F
:101400009B001344233B00FA03F27B681B680A43EA
:101410001A631BE07B681B68D96A3B685A681346ED
:101420009B001344413B1F2202FA03F3DB431940A4
:101430003B6818683B685A6813469B001344413B5D
:1014400000FA03F27B681B680A43DA623B681B6898
:10145000092B1CD97B681B68D9683B681A6813463E
:101460005B0013441E3B072202FA03F3DB431940DF
:101470003B6898683B681A6813465B0013441E3B40
:1014800000FA03F27B681B680A43DA6019E07B68A4
:101490001B6819693B681A6813465B0013440722EE
:1014A00002FA03F3DB4319403B6898683B681A680B
:1014B00013465B00134400FA03F27B681B680A437F
:1014C0001A613B681B68102B03D03B681B68112B0B
:1014D00032D17B681B681D4A934225D17B681B680B
:1014E0009B6803F40003002B26D17B681B689A6875
:1014F0007B681B6842F400029A603B681B68102BF3
:101500001AD1134B1B68134AA2FB03239A0C1346F0
:101510009B0013445B00BB6002E0BB68013BBB6007
:10152000BB68002BF9D107E07B689B6A43F020027F
:101530007B689A620123FB737B68002283F8242076
:10154000FB7B18461437BD4680BC70470024014021
:101550000400002083DE1B4380B584B000AF7860B8
:101560000023FB607B681B689B6803F00103012B71
:101570002ED17B681B689A687B681B6822F0010289
:101580009A60FFF7EBFDF8601BE0FFF7E7FD02460E
:10159000FB68D31A022B14D97B681B689B6803F085
:1015A0000103012B0DD17B689B6A43F010027B681D
:1015B0009A627B68DB6A43F001027B68DA6201238E
:1015C00007E07B681B689B6803F00103012BDCD0FC
:1015D000002318461037BD4680BD000080B485B09A
:1015E00000AF78607B6803F00703FB600C4BDB689F
:1015F000BB60BA684FF6FF031340BB60FB681A027A
:10160000BB68134343F0BF6343F40033BB60044A39
:10161000BB68D36000BF1437BD4680BC704700BFB5
:1016200000ED00E080B400AF044BDB681B0A03F060
:1016300007031846BD4680BC704700BF00ED00E0C0
:1016400080B483B000AF03463960FB7197F907306F
:10165000002B0ADB3B68DAB20C4997F9073012011C
:10166000D2B20B4483F800230AE03B68DAB208499F
:10167000FB7903F00F03043B1201D2B20B441A763C
:1016800000BF0C37BD4680BC704700BF00E100E0E2
:1016900000ED00E080B489B000AFF860B9607A6016
:1016A000FB6803F00703FB61FB69C3F10703042B2D
:1016B00028BF0423BB61FB690433062B02D9FB69F5
:1016C000033B00E000237B614FF0FF32BB6902FA6D
:1016D00003F3DA43BB681A407B699A404FF0FF314D
:1016E0007B6901FA03F3D9437B680B401343184627
:1016F0002437BD4680BC704780B582B000AF7860AB
:101700007B68013BB3F1807F01D301230FE00A4ADC
:101710007B68013B53600F214FF0FF30FFF790FFD4
:10172000054B00229A60044B07221A6000231846DA
:101730000837BD4680BD00BF10E000E080B582B034
:1017400000AF78607868FFF749FF00BF0837BD46F3
:1017500080BD80B586B000AF0346B9607A60FB7388
:1017600000237B61FFF75EFF78617A68B96878696A
:10177000FFF790FF024697F90F3011461846FFF722
:101780005FFF00BF1837BD4680BD80B582B000AF97
:1017900078607868FFF7B0FF034618460837BD4603
:1017A00080BD000080B48BB000AF7860396000234A
:1017B0007B6200233B6269E101227B6A02FA03F348
:1017C000FB613B681B68FA691340BB61BA69FB693E
:1017D0009A4240F058813B685B689A4A93425ED0D7
:1017E000984A934275D8984A934258D0964A934261
:1017F0006FD8964A934252D0944A934269D8944AF9
:1018000093424CD0924A934263D8924A934246D034
:10181000904A93425DD8122B2AD8122B59D801A294
:1018200052F823F09F180008791800088B18000858
:10183000CD180008D3180008D3180008D3180008E2
:10184000D3180008D3180008D3180008D3180008CC
:10185000D3180008D3180008D3180008D3180008BC
:10186000D3180008D318000881180008951800083C
:10187000794A934213D02CE03B68DB683B6229E055
:101880003B68DB6804333B6224E03B68DB68083379
:101890003B621FE03B68DB680C333B621AE03B684D
:1018A0009B68002B02D104233B6213E03B689B68DA
:1018B000012B05D108233B627B68FA691A6109E0B4
:1018C00008233B627B68FA695A6103E000233B62AC
:1018D00000E000BFBB69FF2B01D87B6801E07B689B
:1018E00004337B61BB69FF2B02D87B6A9B0002E05B
:1018F0007B6A083B9B003B617B691A680F213B694F
:1019000001FA03F3DB431A40396A3B6901FA03F336
:101910001A437B691A603B685B6803F08053002BB5
:1019200000F0B1804D4B9B694C4A43F00103936139
:101930004A4B9B6903F00103BB60BB68484A7B6A62
:101940009B08023352F82330FB607B6A03F00303E9
:101950009B000F2202FA03F3DB43FA681340FB609B
:101960007B68404A934213D07B683F4A93420DD034
:101970007B683E4A934207D07B683D4A934201D13F
:10198000032306E0042304E0022302E0012300E035
:1019900000237A6A02F0030292009340FA6813432C
:1019A000FB602F497B6A9B080233FA6841F82320C9
:1019B0003B685B6803F48013002B06D02D4B9A68BC
:1019C0002C49BB6913438B6006E02A4B9A68BB69BC
:1019D000DB43284913408B603B685B6803F40013CA
:1019E000002B06D0234BDA682249BB691343CB6036
:1019F00006E0204BDA68BB69DB431E491340CB602D
:101A00003B685B6803F40033002B06D0194B5A681F
:101A10001849BB6913434B6006E0164B5A68BB6913
:101A2000DB43144913404B603B685B6803F480332D
:101A3000002B21D00F4B1A680E49BB6913430B6072
:101A400021E000BF00003210000031100000221021
:101A500000002110000012100000111000100240C0
:101A60000000014000080140000C0140001001404E
:101A700000140140000401400B4B1A68BB69DB43B2
:101A8000094913400B607B6A01337B623B681A682B
:101A90007B6A22FA03F3002B7FF48EAE00BF00BFF7
:101AA0002C37BD4680BC70470004014080B483B031
:101AB00000AF78600B467B8013467B707B78002BF1
:101AC00003D07A887B681A6103E07B881A047B68FC
:101AD0001A6100BF0C37BD4680BC704780B584B02A
:101AE00000AF78607B68002B01D101232BE17B687C
:101AF00093F83D30DBB2002B06D17B68002283F8DF
:101B00003C207868FFF7C4F87B68242283F83D20E6
:101B10007B681B681A687B681B6822F001021A60E8
:101B20007B681B681A687B681B6842F400421A6075
:101B30007B681B681A687B681B6822F400421A6085
:101B400001F0FCFBF8607B685B68814A934207D830
:101B5000FB68804A934294BF01230023DBB206E076
:101B6000FB687D4A934294BF01230023DBB2002B24
:101B700001D00123E7E0FB68784AA2FB03239B0C1A
:101B8000BB607B681B685B6823F03F017B681B6858
:101B9000BA680A435A607B681B681B6A23F03F01DE
:101BA0007B685B686A4A934202D8BB68013309E0EC
:101BB000BB684FF4967202FB03F3694AA2FB03234E
:101BC0009B0901337A6812680B4313627B681B68B8
:101BD000DB6923F44F4222F0FF027B685B685C49BB
:101BE0008B4219D8FB68591E7B685B685B00B1FBB0
:101BF000F3F3591C40F6FC730B40002B0AD0FB6832
:101C0000591E7B685B685B00B1FBF3F30133C3F3E0
:101C10000B0351E004234FE07B689B68002B11D13C
:101C2000FB68581E7B6859680B465B000B44B0FB91
:101C3000F3F30133C3F30B03002B0CBF0123002389
:101C4000DBB212E0FB68581E7B6859680B469B00AC
:101C50000B4499000B44B0FBF3F30133C3F30B03C4
:101C6000002B0CBF01230023DBB2002B01D001238A
:101C700022E07B689B68002B0ED1FB68581E7B68B6
:101C800059680B465B000B44B0FBF3F30133C3F31D
:101C90000B0343F400430FE0FB68581E7B68596850
:101CA0000B469B000B4499000B44B0FBF3F301334C
:101CB000C3F30B0343F44043796809681343CB61D2
:101CC0007B681B681B6823F0C0017B68DA697B684E
:101CD0001B6A1A437B681B680A431A607B681B688F
:101CE0009B6823F4034323F0FF037A6811697A6841
:101CF000D26811437A6812680B4393607B681B6853
:101D0000DB6823F0FF017B685A697B689B691A4393
:101D10007B681B680A43DA607B681B681A687B680B
:101D20001B6842F001021A607B6800221A647B681B
:101D3000202283F83D207B6800221A637B68002202
:101D400083F83E20002318461037BD4680BD00BFF3
:101D5000A08601007F841E00FF083D0083DE1B4338
:101D6000D34D621080B588B002AFF86008461146C6
:101D70001A4603467B810B463B811346FB80FFF7E7
:101D8000EDF97861FB6893F83D30DBB2202B40F031
:101D9000D9807B690093192301226D49F86800F00E
:101DA000CDFC0346002B01D00223CCE0FB6893F866
:101DB0003C30012B01D10223C5E0FB68012283F8EE
:101DC0003C20FB681B681B6803F00103012B07D054
:101DD000FB681B681A68FB681B6842F001021A6006
:101DE000FB681B681A68FB681B6822F400621A60B3
:101DF000FB68212283F83D20FB68402283F83E20C7
:101E0000FB6800221A64FB683A6A5A62FB68BA8C63
:101E10005A85FB685B8D9AB2FB681A85FB684D4A50
:101E2000DA62F8883A8979897B690193BB6A009301
:101E30000346F86800F004FB0346002B52D0012350
:101E400081E07A69B96AF86800F092FD0346002BD8
:101E50000DD0FB681B6C042B07D1FB681B681A684C
:101E6000FB681B6842F400721A6001236BE0FB6898
:101E70005B6A1A78FB681B681A61FB685B6A5A1C0C
:101E8000FB685A62FB681B8D013B9AB2FB681A859E
:101E9000FB685B8D9BB2013B9AB2FB685A85FB687D
:101EA0001B685B6903F00403042B1BD1FB681B8DCB
:101EB000002B17D0FB685B6A1A78FB681B681A61F5
:101EC000FB685B6A5A1CFB685A62FB681B8D013B0E
:101ED0009AB2FB681A85FB685B8D9BB2013B9AB294
:101EE000FB685A85FB681B8D002BAAD17A69B96AF9
:101EF000F86800F085FD0346002B0DD0FB681B6CD5
:101F0000042B07D1FB681B681A68FB681B6842F446
:101F100000721A60012316E0FB681B681A68FB68F0
:101F20001B6842F400721A60FB68202283F83D208F
:101F3000FB68002283F83E20FB68002283F83C20E7
:101F4000002300E0022318461837BD4680BD00BFBD
:101F5000020010000000FFFF80B58CB002AFF860F7
:101F6000084611461A4603467B810B463B811346C1
:101F7000FB8000233B62FFF7F1F87862FB6893F87F
:101F80003D30DBB2202B40F050827B6A0093192356
:101F900001228249F86800F0D1FB0346002B01D0F2
:101FA000022343E2FB6893F83C30012B01D102236A
:101FB0003CE2FB68012283F83C20FB681B681B683D
:101FC00003F00103012B07D0FB681B681A68FB684C
:101FD0001B6842F001021A60FB681B681A68FB6804
:101FE0001B6822F400621A60FB68222283F83D20FD
:101FF000FB68402283F83E20FB6800221A64FB68DD
:102000003A6B5A62FB68BA8E5A85FB685B8D9AB24E
:10201000FB681A85FB68624ADA62F8883A8979892E
:102020007B6A0193BB6B00930346F86800F09EFA4D
:102030000346002B01D00123F8E1FB681B8D002B28
:1020400013D10023FB61FB681B685B69FB61FB68C4
:102050001B689B69FB61FB69FB681B681A68FB686E
:102060001B6842F400721A60CCE1FB681B8D012BE7
:102070001ED1FB681B681A68FB681B6822F480622B
:102080001A6072B600BF0023BB61FB681B685B6906
:10209000BB61FB681B689B69BB61BB69FB681B6814
:1020A0001A68FB681B6842F400721A6062B635E079
:1020B000FB681B8D022B1ED1FB681B681A68FB682E
:1020C0001B6842F400621A6072B600BF00237B6195
:1020D000FB681B685B697B61FB681B689B697B61B4
:1020E0007B69FB681B681A68FB681B6822F48062C6
:1020F0001A6062B612E0FB681B681A68FB681B680E
:1021000042F480621A6000233B61FB681B685B69D4
:102110003B61FB681B689B693B613B6972E1FB6843
:102120001B8D032B00F21F81FB681B8D012B23D11C
:102130007A6AB96BF86800F0ABFC0346002B01D05B
:10214000012373E1FB681B681A69FB685B6AD2B202
:102150001A70FB685B6A5A1CFB685A62FB681B8D2D
:10216000013B9AB2FB681A85FB685B8D9BB2013B11
:102170009AB2FB685A8545E1FB681B8D022B52D150
:102180007B6A0093BB6B00220649F86800F0D6FA20
:102190000346002B08D0012348E100BF02001000D5
:1021A0000000FFFF0400010072B600BFFB681B685F
:1021B0001A68FB681B6842F400721A60FB681B68AF
:1021C0001A69FB685B6AD2B21A70FB685B6A5A1CB8
:1021D000FB685A62FB681B8D013B9AB2FB681A854B
:1021E000FB685B8D9BB2013B9AB2FB685A8562B675
:1021F00000BFFB681B681A69FB685B6AD2B21A7081
:10220000FB685B6A5A1CFB685A62FB681B8D013BCA
:102210009AB2FB681A85FB685B8D9BB2013B9AB250
:10222000FB685A85EEE07B6A0093BB6B0022814914
:10223000F86800F083FA0346002B01D00123F5E093
:10224000FB681B681A68FB681B6822F480621A60CE
:1022500072B600BFFB681B681A69FB685B6AD2B282
:102260001A70FB685B6A5A1CFB685A62FB681B8D1C
:10227000013B9AB2FB681A85FB685B8D9BB2013B00
:102280009AB2FB685A856C4B1B68DB086B4AA2FB51
:1022900003231A0A13469B001344DA00D31A3B6245
:1022A0003B6A013B3B623B6A002B18D1FB68002272
:1022B0001A63FB68202283F83D20FB68002283F824
:1022C0003E20FB681B6C43F02002FB681A6462B678
:1022D00000BFFB68002283F83C200123A6E0FB68D6
:1022E0001B685B6903F00403042BD9D1FB681B68EE
:1022F0001A68FB681B6842F400721A60FB681B686E
:102300001A69FB685B6AD2B21A70FB685B6A5A1C76
:10231000FB685A62FB681B8D013B9AB2FB681A8509
:10232000FB685B8D9BB2013B9AB2FB685A8562B633
:1023300000BFFB681B681A69FB685B6AD2B21A703F
:10234000FB685B6A5A1CFB685A62FB681B8D013B89
:102350009AB2FB681A85FB685B8D9BB2013B9AB20F
:10236000FB685A854EE07A6AB96BF86800F090FB1A
:102370000346002B01D0012358E0FB681B681A6953
:10238000FB685B6AD2B21A70FB685B6A5A1CFB6816
:102390005A62FB681B8D013B9AB2FB681A85FB6889
:1023A0005B8D9BB2013B9AB2FB685A85FB681B6848
:1023B0005B6903F00403042B24D1FB681B8D032B02
:1023C00007D1FB681B681A68FB681B6822F48062EF
:1023D0001A60FB681B681A69FB685B6AD2B21A70E4
:1023E000FB685B6A5A1CFB685A62FB681B8D013BE9
:1023F0009AB2FB681A85FB685B8D9BB2013B9AB26F
:10240000FB685A85FB681B8D002B7FF488AEFB6848
:10241000202283F83D20FB68002283F83E20FB68E1
:10242000002283F83C20002300E0022318462837CE
:10243000BD4680BD040001000400002089B5F814E9
:1024400080B588B002AFF860084611461A460346C8
:102450007B810B463B811346FB80FB681B681A6837
:10246000FB681B6842F480721A607B6A00933B6AC7
:1024700000224FF00111F86800F060F90346002BCC
:102480000DD0FB681B681B6803F48073B3F5807F75
:1024900003D1FB684FF400721A6403235FE07B8969
:1024A000DBB21A46FB681B6802F0FE021A617B6A07
:1024B0003A6A2D49F86800F0BBF90346002B01D0B9
:1024C00001234CE000237B61FB681B685B697B6137
:1024D000FB681B689B697B617B697A6A396AF8686B
:1024E00000F046FA0346002B0DD0FB681B6C042B52
:1024F00007D1FB681B681A68FB681B6842F400720E
:102500001A6001232BE0FB88012B05D13B89DAB24D
:10251000FB681B681A6121E03B891B0A9BB2DAB297
:10252000FB681B681A617A6A396AF86800F020FA59
:102530000346002B0DD0FB681B6C042B07D1FB68F6
:102540001B681A68FB681B6842F400721A6001235A
:1025500005E03B89DAB2FB681B681A610023184664
:102560001837BD4680BD00BF0200010080B588B0AD
:1025700002AFF860084611461A4603467B810B46B7
:102580003B811346FB80FB681B681A68FB681B686D
:1025900042F480621A60FB681B681A68FB681B685B
:1025A00042F480721A607B6A00933B6A00224FF00B
:1025B0000111F86800F0C2F80346002B0DD0FB684B
:1025C0001B681B6803F48073B3F5807F03D1FB683D
:1025D0004FF400721A640323AAE07B89DBB21A4627
:1025E000FB681B6802F0FE021A617B6A3A6A524974
:1025F000F86800F01DF90346002B01D0012397E095
:1026000000237B61FB681B685B697B61FB681B685F
:102610009B697B617B697A6A396AF86800F0A8F97E
:102620000346002B0DD0FB681B6C042B07D1FB6805
:102630001B681A68FB681B6842F400721A60012369
:1026400076E0FB88012B05D13B89DAB2FB681B6879
:102650001A6121E03B891B0A9BB2DAB2FB681B6856
:102660001A617A6A396AF86800F082F90346002B29
:102670000DD0FB681B6C042B07D1FB681B681A6824
:10268000FB681B6842F400721A60012350E03B892A
:10269000DAB2FB681B681A617A6A396AF86800F076
:1026A00067F90346002B0DD0FB681B6C042B07D188
:1026B000FB681B681A68FB681B6842F400721A60AA
:1026C000012335E0FB681B681A68FB681B6842F44D
:1026D00080721A607B6A00933B6A00224FF00111FE
:1026E000F86800F02BF80346002B0DD0FB681B6840
:1026F0001B6803F48073B3F5807F03D1FB684FF44C
:1027000000721A64032313E07B89DBB243F00103F8
:10271000DAB2FB681B681A617B6A3A6A0649F86894
:1027200000F086F80346002B01D0012300E00023CF
:1027300018461837BD4680BD0200010080B584B040
:1027400000AFF860B9603B601346FB7148E03B683E
:10275000B3F1FF3F44D0FEF701FD0246BB69D31A37
:102760003A689A4202D33B68002B39D1BB681B0CF4
:10277000DBB2012B0DD1FB681B685B69DA43BB68D8
:1027800013409BB2002B0CBF01230023DBB21A467F
:102790000CE0FB681B689B69DA43BB6813409BB283
:1027A000002B0CBF01230023DBB21A46FB799A42AF
:1027B00016D1FB6800221A63FB68202283F83D20B3
:1027C000FB68002283F83E20FB681B6C43F020026C
:1027D000FB681A64FB68002283F83C20012323E095
:1027E000BB681B0CDBB2012B0DD1FB681B685B695E
:1027F000DA43BB6813409BB2002B0CBF01230023BC
:10280000DBB21A460CE0FB681B689B69DA43BB68C5
:1028100013409BB2002B0CBF01230023DBB21A46EE
:10282000FB799A4293D0002318461037BD4680BDED
:1028300080B584B000AFF860B9607A603B6071E049
:10284000FB681B685B6903F48063B3F5806F23D179
:10285000FB681B681A68FB681B6842F400721A6008
:10286000FB681B686FF480625A61FB6800221A6380
:10287000FB68202283F83D20FB68002283F83E207D
:10288000FB681B6C43F00402FB681A64FB680022BF
:1028900083F83C20012367E07B68B3F1FF3F41D020
:1028A000FEF75CFC02463B68D31A7A689A4202D370
:1028B0007B68002B36D1BB681B0CDBB2012B0CD123
:1028C000FB681B685B69DA43BB6813409BB2002B53
:1028D00014BF01230023DBB20BE0FB681B689B697C
:1028E000DA43BB6813409BB2002B14BF01230023C3
:1028F000DBB2002B16D0FB6800221A63FB68202293
:1029000083F83D20FB68002283F83E20FB681B6CA7
:1029100043F02002FB681A64FB68002283F83C2025
:10292000012321E0BB681B0CDBB2012B0CD1FB683F
:102930001B685B69DA43BB6813409BB2002B14BF72
:1029400001230023DBB20BE0FB681B689B69DA43C1
:10295000BB6813409BB2002B14BF01230023DBB2E2
:10296000002B7FF46DAF002318461037BD4680BDA5
:1029700080B584B000AFF860B9607A6034E0F86880
:1029800000F0E3F80346002B01D0012334E0BB68DC
:10299000B3F1FF3F28D0FEF7E1FB02467B68D31A74
:1029A000BA689A4202D3BB68002B1DD1FB681B6832
:1029B0005B6903F08003802B16D0FB6800221A634A
:1029C000FB68202283F83D20FB68002283F83E202C
:1029D000FB681B6C43F02002FB681A64FB68002252
:1029E00083F83C20012307E0FB681B685B6903F068
:1029F0008003802BC3D1002318461037BD4680BD0D
:102A000080B584B000AFF860B9607A6034E0F868EF
:102A100000F09BF80346002B01D0012334E0BB6893
:102A2000B3F1FF3F28D0FEF799FB02467B68D31A2B
:102A3000BA689A4202D3BB68002B1DD1FB681B68A1
:102A40005B6903F00403042B16D0FB6800221A63B1
:102A5000FB68202283F83D20FB68002283F83E209B
:102A6000FB681B6C43F02002FB681A64FB680022C1
:102A700083F83C20012307E0FB681B685B6903F0D7
:102A80000403042BC3D1002318461037BD4680BD74
:102A900080B584B000AFF860B9607A6049E0FB6847
:102AA0001B685B6903F01003102B19D1FB681B68CE
:102AB0006FF010025A61FB6800221A63FB68202243
:102AC00083F83D20FB68002283F83E20FB681A6CE7
:102AD000FB681A64FB68002283F83C20012330E085
:102AE000FEF73CFB02467B68D31ABA689A4202D3CF
:102AF000BB68002B1DD1FB681B685B6903F04003BA
:102B0000402B16D0FB6800221A63FB68202283F852
:102B10003D20FB68002283F83E20FB681B6C43F0DD
:102B20002002FB681A64FB68002283F83C20012322
:102B300007E0FB681B685B6903F04003402BAED1E4
:102B4000002318461037BD4680BD80B483B000AF67
:102B500078607B681B685B6903F48063B3F5806F02
:102B60001BD17B681B686FF480625A617B6800220E
:102B70001A637B68202283F83D207B68002283F85B
:102B80003E207B681B6C43F004027B681A647B6800
:102B9000002283F83C20012300E0002318460C3774
:102BA000BD4680BC7047000080B586B000AF78603D
:102BB0007B68002B01D1012372E27B681B6803F064
:102BC0000103002B00F08780924B5B6803F00C033D
:102BD000042B0CD08F4B5B6803F00C03082B12D135
:102BE0008C4B5B6803F48033B3F5803F0BD1894B8A
:102BF0001B6803F40033002B6CD07B685B68002BF0
:102C000068D101234CE27B685B68B3F5803F06D155
:102C1000804B1B687F4A43F4803313602EE07B684F
:102C20005B68002B0CD17B4B1B687A4A23F4803302
:102C30001360784B1B68774A23F4802313601DE0F0
:102C40007B685B68B3F5A02F0CD1724B1B68714A8F
:102C500043F4802313606F4B1B686E4A43F4803348
:102C600013600BE06B4B1B686A4A23F480331360DC
:102C7000684B1B68674A23F4802313607B685B689A
:102C8000002B13D0FEF76AFA386108E0FEF766FA07
:102C900002463B69D31A642B01D9032300E25D4B42
:102CA0001B6803F40033002BF0D014E0FEF756FA53
:102CB000386108E0FEF752FA02463B69D31A642BEA
:102CC00001D90323ECE1534B1B6803F40033002BC1
:102CD000F0D100E000BF7B681B6803F00203002B0B
:102CE00063D04C4B5B6803F00C03002B0BD0494BBB
:102CF0005B6803F00C03082B1CD1464B5B6803F4A4
:102D00008033002B16D1434B1B6803F00203002BCA
:102D100005D07B681B69012B01D00123C0E13D4B2D
:102D20001B6823F0F8027B685B69DB0039491343B9
:102D30000B603AE07B681B69002B20D0364B0122E8
:102D40001A60FEF70BFA386108E0FEF707FA024650
:102D50003B69D31A022B01D90323A1E12D4B1B6838
:102D600003F00203002BF0D02A4B1B6823F0F8027B
:102D70007B685B69DB00274913430B6015E0264B3A
:102D800000221A60FEF7EAF9386108E0FEF7E6F97A
:102D900002463B69D31A022B01D9032380E11D4B64
:102DA0001B6803F00203002BF0D17B681B6803F063
:102DB0000803002B3AD07B689B69002B19D0174B76
:102DC00001221A60FEF7CAF9386108E0FEF7C6F979
:102DD00002463B69D31A022B01D9032360E10D4B54
:102DE0005B6A03F00203002BF0D0012000F0CEFA62
:102DF0001CE00A4B00221A60FEF7B0F938610FE0C0
:102E0000FEF7ACF902463B69D31A022B08D903231B
:102E100046E100BF001002400000424280044242EE
:102E2000924B5B6A03F00203002BE9D17B681B68BD
:102E300003F00403002B00F0A6800023FB758B4BEE
:102E4000DB6903F08053002B0DD1884BDB69874A87
:102E500043F08053D361854BDB6903F08053BB6043
:102E6000BB680123FB75824B1B6803F48073002B46
:102E700018D17F4B1B687E4A43F480731360FEF7C2
:102E80006DF9386108E0FEF769F902463B69D31A2B
:102E9000642B01D9032303E1754B1B6803F4807392
:102EA000002BF0D07B68DB68012B06D16F4B1B6ACF
:102EB0006E4A43F0010313622DE07B68DB68002B50
:102EC0000CD16A4B1B6A694A23F001031362674BFA
:102ED0001B6A664A23F0040313621CE07B68DB680C
:102EE000052B0CD1614B1B6A604A43F0040313624B
:102EF0005E4B1B6A5D4A43F0010313620BE05B4BC0
:102F00001B6A5A4A23F001031362584B1B6A574A43
:102F100023F0040313627B68DB68002B15D0FEF7F7
:102F20001DF938610AE0FEF719F902463B69D31A28
:102F300041F28832934201D90323B1E04B4B1B6A23
:102F400003F00203002BEED014E0FEF707F938611E
:102F50000AE0FEF703F902463B69D31A41F28832D0
:102F6000934201D903239BE0404B1B6A03F0020309
:102F7000002BEED1FB7D012B05D13C4BDB693B4A9D
:102F800023F08053D3617B68DB69002B00F08780DE
:102F9000364B5B6803F00C03082B61D07B68DB6960
:102FA000022B46D1334B00221A60FEF7D7F8386166
:102FB00008E0FEF7D3F802463B69D31A022B01D989
:102FC00003236DE0294B1B6803F00073002BF0D145
:102FD0007B681B6AB3F5803F08D1244B5B6823F400
:102FE00000327B689B68214913434B601F4B5B6831
:102FF00023F474127B68196A7B685B6A0B431B4974
:1030000013434B601B4B01221A60FEF7A7F838618F
:1030100008E0FEF7A3F802463B69D31A022B01D958
:1030200003233DE0114B1B6803F00073002BF0D02D
:1030300035E0104B00221A60FEF790F8386108E086
:10304000FEF78CF802463B69D31A022B01D9032301
:1030500026E0064B1B6803F00073002BF0D11EE046
:103060007B68DB69012B07D1012319E000100240C6
:1030700000700040600042420B4B5B68FB60FB68E5
:1030800003F480327B681B6A9A4206D1FB6803F422
:1030900070127B685B6A9A4201D0012300E0002332
:1030A00018461837BD4680BD0010024080B584B078
:1030B00000AF786039607B68002B01D10123D0E03C
:1030C0006A4B1B6803F007033A689A4210D9674BB2
:1030D0001B6823F0070265493B6813430B60634B91
:1030E0001B6803F007033A689A4201D00123B8E055
:1030F0007B681B6803F00203002B20D07B681B68F1
:1031000003F00403002B05D0594B5B68584A43F485
:10311000E06353607B681B6803F00803002B05D055
:10312000534B5B68524A43F460535360504B5B68A7
:1031300023F0F0027B689B684D4913434B607B682A
:103140001B6803F00103002B40D07B685B68012BF8
:1031500007D1474B1B6803F40033002B15D1012323
:103160007FE07B685B68022B07D1414B1B6803F053
:103170000073002B09D1012373E03D4B1B6803F062
:103180000203002B01D101236BE0394B5B6823F074
:1031900003027B685B68364913434B60FDF7DEFF33
:1031A000F8600AE0FDF7DAFF0246FB68D31A41F245
:1031B0008832934201D9032353E02D4B5B6803F01F
:1031C0000C027B685B689B009A42EBD1274B1B6823
:1031D00003F007033A689A4210D2244B1B6823F08D
:1031E000070222493B6813430B60204B1B6803F026
:1031F00007033A689A4201D0012332E07B681B68DA
:1032000003F00403002B08D0194B5B6823F4E06241
:103210007B68DB68164913434B607B681B6803F0CF
:103220000803002B09D0124B5B6823F460527B68C3
:103230001B69DB000E4913434B6000F021F8024686
:103240000B4B5B681B0903F00F030A49CB5C22FAA6
:1032500003F3094A1360094B1B681846FDF73CFF4E
:10326000002318461037BD4680BD00BF0020024035
:10327000001002405C40000804000020080000200C
:1032800080B487B000AF0023FB600023BB60002345
:103290007B6100237B6000233B611E4B5B68FB600E
:1032A000FB6803F00C03042B02D0082B03D027E0AB
:1032B000194B3B6127E0FB689B0C03F00F03174A97
:1032C000D35C7B60FB6803F48033002B10D0114B80
:1032D0005B685B0C03F00103114AD35CBB607B6845
:1032E0000D4A03FB02F2BB68B2FBF3F37B6104E01F
:1032F0007B680C4A02FB03F37B617B693B6102E064
:10330000054B3B6100BF3B6918461C37BD4680BC7E
:10331000704700BF0010024000127A00744000089D
:103320008440000800093D0080B400AF024B1B68D8
:103330001846BD4680BC70470400002080B500AF31
:10334000FFF7F2FF0246054B5B681B0A03F0070319
:103350000349CB5C22FA03F3184680BD00100240FB
:103360006C40000880B500AFFFF7DEFF0246054B5A
:103370005B68DB0A03F007030349CB5C22FA03F323
:10338000184680BD001002406C40000880B485B033
:1033900000AF78600A4B1B680A4AA2FB03235B0A52
:1033A0007A6802FB03F3FB6000BFFB685A1EFA60F9
:1033B000002BF9D100BF00BF1437BD4680BC704759
:1033C00004000020D34D621080B586B000AF786055
:1033D00000233B610023FB607B681B6803F0010353
:1033E000002B7DD00023FB754F4BDB6903F080532E
:1033F000002B0DD14C4BDB694B4A43F08053D3611A
:10340000494BDB6903F08053BB60BB680123FB754C
:10341000464B1B6803F48073002B18D1434B1B6889
:10342000424A43F480731360FDF798FE386108E068
:10343000FDF794FE02463B69D31A642B01D903239E
:103440006DE03A4B1B6803F48073002BF0D0364BD1
:103450001B6A03F44073FB60FB68002B2ED07B6873
:103460005B6803F44073FA689A4227D02E4B1B6ABC
:1034700023F44073FB602E4B01221A602C4B002278
:103480001A60294AFB681362FB6803F00103002BF2
:1034900014D0FDF763FE38610AE0FDF75FFE0246D7
:1034A0003B69D31A41F28832934201D9032336E0B3
:1034B0001D4B1B6A03F00203002BEED01A4B1B6A54
:1034C00023F440727B685B68174913430B62FB7DF2
:1034D000012B05D1144BDB69134A23F08053D361D0
:1034E0007B681B6803F00203002B08D00E4B5B685F
:1034F00023F440427B689B680B4913434B607B6815
:103500001B6803F01003002B08D0074B5B6823F403
:1035100080027B68DB68044913434B600023184634
:103520001837BD4680BD00BF00100240007000404B
:103530004004424280B582B000AF78607B68002BC7
:1035400001D1012341E07B6893F83D30DBB2002BD1
:1035500006D17B68002283F83C207868FDF7D6FB13
:103560007B68022283F83D207B681A687B680433FD
:103570001946104600F092F97B68012283F8462034
:103580007B68012283F83E207B68012283F83F207C
:103590007B68012283F840207B68012283F8412068
:1035A0007B68012283F842207B68012283F8432054
:1035B0007B68012283F844207B68012283F8452040
:1035C0007B68012283F83D20002318460837BD465A
:1035D00080BD000080B584B000AF786039603B6882
:1035E000002B09D17B6893F83E30DBB2012B14BF6E
:1035F00001230023DBB222E03B68042B09D17B6866
:1036000093F83F30DBB2012B14BF01230023DBB260
:1036100015E03B68082B09D17B6893F84030DBB29A
:10362000012B14BF01230023DBB208E07B6893F871
:103630004130DBB2012B14BF01230023DBB2002B8E
:1036400001D001235EE03B68002B04D17B6802229D
:1036500083F83E2013E03B68042B04D17B680222F0
:1036600083F83F200BE03B68082B04D17B680222E3
:1036700083F8402003E07B68022283F841207B68C6
:103680001B6801223968184600F0FEFA7B681B6847
:103690001E4A934207D17B681B685A6C7B681B6883
:1036A00042F400425A647B681B68184A93420ED069
:1036B0007B681B68B3F1804F09D07B681B68144A94
:1036C000934204D07B681B68124A934211D17B68F5
:1036D0001B689B6803F00703FB60FB68062B10D098
:1036E0007B681B681A687B681B6842F001021A60DD
:1036F00007E07B681B681A687B681B6842F0010260
:103700001A60002318461037BD4680BD002C0140CA
:10371000000400400008004080B586B000AFF860AB
:10372000B9607A600023FB75FB6893F83C30012B8D
:1037300001D10223AEE0FB68012283F83C207B68C4
:103740000C2B00F29F8001A252F823F08137000871
:10375000853800088538000885380008C13700081A
:1037600085380008853800088538000803380008C7
:103770008538000885380008853800084338000877
:10378000FB681B68B968184600F0F6F8FB681B6810
:103790009A69FB681B6842F008029A61FB681B6823
:1037A0009A69FB681B6822F004029A61FB681B6837
:1037B0009969BB681A69FB681B680A439A6164E0EF
:1037C000FB681B68B968184600F03CF9FB681B6889
:1037D0009A69FB681B6842F400629A61FB681B6887
:1037E0009A69FB681B6822F480629A61FB681B6817
:1037F0009969BB681B691A02FB681B680A439A61D6
:1038000043E0FB681B68B968184600F085F9FB685F
:103810001B68DA69FB681B6842F00802DA61FB6822
:103820001B68DA69FB681B6822F00402DA61FB6836
:103830001B68D969BB681A69FB681B680A43DA61AF
:1038400023E0FB681B68B968184600F0CFF9FB68F5
:103850001B68DA69FB681B6842F40062DA61FB6886
:103860001B68DA69FB681B6822F48062DA61FB6816
:103870001B68D969BB681B691A02FB681B680A438D
:10388000DA6102E00123FB7500BFFB68002283F8C8
:103890003C20FB7D18461837BD4680BD80B485B0FE
:1038A00000AF786039607B681B68FB607B682F4ADB
:1038B00093420BD07B68B3F1804F07D07B682C4AD2
:1038C000934203D07B682B4A934208D1FB6823F0D4
:1038D0007003FB603B685B68FA681343FB607B68BE
:1038E000224A93420BD07B68B3F1804F07D07B68AC
:1038F0001F4A934203D07B681E4A934208D1FB685B
:1039000023F44073FB603B68DB68FA681343FB6099
:10391000FB6823F080023B685B691343FB607B68B4
:10392000FA681A603B689A687B68DA623B681A68D2
:103930007B689A627B680D4A934203D13B681A699F
:103940007B681A637B6801225A617B681B6903F0FC
:103950000103002B05D07B681B6923F001027B6803
:103960001A6100BF1437BD4680BC7047002C01406F
:10397000000400400008004080B487B000AF7860C9
:1039800039607B681B6A7B617B681B6A23F00102DC
:103990007B681A627B685B683B617B689B69FB6044
:1039A000FB6823F07003FB60FB6823F00303FB60FC
:1039B0003B681B68FA681343FB607B6923F00203D2
:1039C0007B613B689B687A6913437B617B681C4A17
:1039D00093420CD17B6923F008037B613B68DB6871
:1039E0007A6913437B617B6923F004037B617B6805
:1039F000134A934211D13B6923F480733B613B69C5
:103A000023F400733B613B685B693A6913433B6194
:103A10003B689B693A6913433B617B683A695A602A
:103A20007B68FA689A613B685A687B685A637B686E
:103A30007A691A6200BF1C37BD4680BC704700BF60
:103A4000002C014080B487B000AF786039607B689B
:103A50001B6A7B617B681B6A23F010027B681A6219
:103A60007B685B683B617B689B69FB60FB6823F458
:103A7000E043FB60FB6823F44073FB603B681B681A
:103A80001B02FA681343FB607B6923F020037B6110
:103A90003B689B681B017A6913437B617B681D4A05
:103AA00093420DD17B6923F080037B613B68DB6827
:103AB0001B017A6913437B617B6923F040037B61BF
:103AC0007B68144A934213D13B6923F480633B61C2
:103AD0003B6923F400633B613B685B699B003A6987
:103AE00013433B613B689B699B003A6913433B610D
:103AF0007B683A695A607B68FA689A613B685A68E1
:103B00007B689A637B687A691A6200BF1C37BD467E
:103B100080BC7047002C014080B487B000AF786053
:103B200039607B681B6A7B617B681B6A23F4807247
:103B30007B681A627B685B683B617B68DB69FB6062
:103B4000FB6823F07003FB60FB6823F00303FB605A
:103B50003B681B68FA681343FB607B6923F40073BE
:103B60007B613B689B681B027A6913437B617B68BE
:103B70001D4A93420DD17B6923F400637B613B684E
:103B8000DB681B027A6913437B617B6923F48063E2
:103B90007B617B68144A934213D13B6923F48053C1
:103BA0003B613B6923F400533B613B685B691B014C
:103BB0003A6913433B613B689B691B013A691343B4
:103BC0003B617B683A695A607B68FA68DA613B68F6
:103BD0005A687B68DA637B687A691A6200BF1C37AF
:103BE000BD4680BC704700BF002C014080B487B048
:103BF00000AF786039607B681B6A3B617B681B6A39
:103C000023F480527B681A627B685B687B617B6807
:103C1000DB69FB60FB6823F4E043FB60FB6823F493
:103C20004073FB603B681B681B02FA681343FB6030
:103C30003B6923F400533B613B689B681B033A6973
:103C400013433B617B680F4A934209D17B6923F49C
:103C500080437B613B685B699B017A6913437B61AD
:103C60007B687A695A607B68FA68DA613B685A68EF
:103C70007B681A647B683A691A6200BF1C37BD46CC
:103C800080BC7047002C014080B487B000AFF86062
:103C9000B9607A60BB6803F01F03012202FA03F3E4
:103CA0007B61FB681A6A7B69DB431A40FB681A6216
:103CB000FB681A6ABB6803F01F03796801FA03F313
:103CC0001A43FB681A6200BF1C37BD4680BC7047B0
:103CD00080B485B000AF786039607B6893F83C3081
:103CE000012B01D1022346E07B68012283F83C20AE
:103CF0007B68022283F83D207B681B685B68FB6061
:103D00007B681B689B68BB60FB6823F07003FB60EB
:103D10003B681B68FA681343FB607B681B68FA68A2
:103D20005A607B681B68164A93420ED07B681B68FA
:103D3000B3F1804F09D07B681B68124A934204D0CC
:103D40007B681B68104A93420CD1BB6823F0800348
:103D5000BB603B685B68BA681343BB607B681B68E9
:103D6000BA689A607B68012283F83D207B68002254
:103D700083F83C20002318461437BD4680BC7047AA
:103D8000002C0140000400400008004080B485B0D1
:103D900000AF786039600023FB607B6893F83C30AB
:103DA000012B01D102233DE07B68012283F83C20F6
:103DB000FB6823F0FF023B68DB681343FB60FB6892
:103DC00023F440723B689B681343FB60FB6823F459
:103DD00080623B685B681343FB60FB6823F400620E
:103DE0003B681B681343FB60FB6823F480523B680D
:103DF0001B691343FB60FB6823F400523B685B695B
:103E00001343FB60FB6823F480423B68DB69134388
:103E1000FB607B681B68FA685A647B68002283F841
:103E20003C20002318461437BD4680BC704780B53F
:103E300082B000AF78607B68002B01D1012342E0A3
:103E40007B6893F84130DBB2002B06D17B680022FF
:103E500083F840207868FCF7ABFF7B68242283F866
:103E600041207B681B68DA687B681B6822F400527B
:103E7000DA60786800F02CF87B681B681A697B6848
:103E80001B6822F490421A617B681B685A697B6840
:103E90001B6822F02A025A617B681B68DA687B681B
:103EA0001B6842F40052DA607B6800225A647B6827
:103EB000202283F841207B68202283F842207B68FF
:103EC00000225A63002318460837BD4680BD000013
:103ED00080B584B000AF78607B681B681B6923F4F1
:103EE00040517B68DA687B681B680A431A617B680B
:103EF0009A687B681B691A437B685B691343BB60E4
:103F00007B681B68DB6823F4B05323F00C037A68EA
:103F10001268B9680B43D3607B681B685B6923F444
:103F200040717B689A697B681B680A435A617B68A9
:103F30001B682C4A934203D1FFF714FAF86002E0A1
:103F4000FFF7FCF9F860FA6813469B0013449A00E7
:103F50001A447B685B689B00B2FBF3F3224AA2FB26
:103F600003235B091901FA6813469B0013449A0066
:103F70001A447B685B689B00B2FBF3F21A4BA3FB0D
:103F800002035B09642000FB03F3D31A1B013233E5
:103F9000154AA2FB03235B0903F0F0031944FA68F6
:103FA00013469B0013449A001A447B685B689B008D
:103FB000B2FBF3F20C4BA3FB02035B09642000FB92
:103FC00003F3D31A1B013233074AA2FB03235B0915
:103FD00003F00F027B681B680A449A6000BF103729
:103FE000BD4680BD003801401F85EB5103460244A9
:103FF000934200D1704703F8011BF9E770B5002622
:104000000C4D0D4C641BA410A64209D100F01AF807
:1040100000260A4D0A4C641BA410A64205D170BDAF
:1040200055F8043B98470136EEE755F8043B9847AE
:104030000136F2E788400008884000088840000800
:104040008C400008F8B500BFF8BC08BC9E4670471D
:0C405000F8B500BFF8BC08BC9E467047E5
:10405C00000000000000000001020304060708092C
:10406C00000000000102030402030405060708090E
:0C407C000A0B0C0D0E0F101001020000CA
:0440880035010008F6
:04408C001101000816
:104090003200000000127A00100000000100000051
:04000005080010617E
:00000001FF
