:020000040800F2
:1000000000500020E5230008D5210008DD2100086C
:10001000E5210008ED210008F5210008000000009E
:10002000000000000000000000000000FD210008AA
:100030000922000800000000152200082122000803
:100040002D2400082D2400082D2400082D2400084C
:100050002D2400082D2400082D2400082D2400083C
:100060002D2400082D2400082D2400082D2400082C
:100070002D2400082D2400082D2400082D2400081C
:100080002D2200082D2400082D2400082D2400080E
:100090002D2400082D2400082D2400082D240008FC
:1000A0002D2400082D2400082D2400082D240008EC
:1000B0002D2400082D2400082D2400082D240008DC
:1000C0002D2400082D2400082D2400082D240008CC
:1000D0002D2400082D240008412200082D240008AA
:1000E0002D2400082D2400082D2400080000000005
:1000F0000000000000000000000000000000000000
:0C01000000000000000000005FF808F1A3
:1001100010B5054C237833B9044B13B10448AFF341
:1001200000800123237010BDE001002000000000CA
:1001300070B1000808B5034B1BB103490348AFF386
:10014000008008BD00000000E401002070B100083C
:10015000034613F8012B002AFBD1181A0138704707
:1001600081F0004102E000BF83F0004330B54FEA68
:1001700041044FEA430594EA050F08BF90EA020FD5
:100180001FBF54EA000C55EA020C7FEA645C7FEA68
:10019000655C00F0E2804FEA5454D4EB5555B8BF8B
:1001A0006D420CDD2C4480EA020281EA030382EAFC
:1001B000000083EA010180EA020281EA0303362D8E
:1001C00088BF30BD11F0004F4FEA01314FF4801C61
:1001D0004CEA113102D0404261EB410113F0004F73
:1001E0004FEA03334CEA133302D0524263EB43032A
:1001F00094EA050F00F0A780A4F10104D5F1200EC8
:100200000DDB02FA0EFC22FA05F2801841F1000122
:1002100003FA0EF2801843FA05F359410EE0A5F1F6
:1002200020050EF1200E012A03FA0EFC28BF4CF027
:10023000020C43FA05F3C01851EBE37101F00045DD
:1002400007D54FF0000EDCF1000C7EEB00006EEBEA
:100250000101B1F5801F1BD3B1F5001F0CD3490874
:100260005FEA30004FEA3C0C04F101044FEA4452CB
:1002700012F5800F80F09A80BCF1004F08BF5FEA52
:10028000500C50F1000041EB045141EA050130BD32
:100290005FEA4C0C404141EB0101013C28BFB1F544
:1002A000801FE9D291F0000F04BF01460020B1FA8F
:1002B00081F308BF2033A3F10B03B3F120020CDA62
:1002C0000C3208DD02F1140CC2F10C0201FA0CF040
:1002D00021FA02F10CE002F11402D8BFC2F1200CA5
:1002E00001FA02F120FA0CFCDCBF41EA0C0190405B
:1002F000E41AA2BF01EB0451294330BD6FEA0404A4
:100300001F3C1CDA0C340EDC04F11404C4F120028E
:1003100020FA04F001FA02F340EA030021FA04F3A0
:1003200045EA030130BDC4F10C04C4F1200220FAF7
:1003300002F001FA04F340EA0300294630BD21FA35
:1003400004F0294630BD94F0000F83F4801306BFFB
:1003500081F480110134013D4EE77FEA645C18BFEF
:100360007FEA655C29D094EA050F08BF90EA020F86
:1003700005D054EA000C04BF1946104630BD91EA7E
:10038000030F1EBF0021002030BD5FEA545C05D181
:100390004000494128BF41F0004130BD14F58004C0
:1003A0003CBF01F5801130BD01F0004545F0FE4134
:1003B00041F470014FF0000030BD7FEA645C1ABF69
:1003C000194610467FEA655C1CBF0B46024650EAA0
:1003D000013406BF52EA033591EA030F41F40021CC
:1003E00030BD00BF90F0000F04BF0021704730B552
:1003F0004FF4806404F132044FF000054FF0000127
:1004000050E700BF90F0000F04BF0021704730B5E7
:100410004FF4806404F1320410F0004548BF4042BC
:100420004FF000013EE700BF42004FEAE2014FEA11
:1004300031014FEA02701FBF12F07F4393F07F4FEC
:1004400081F06051704732F07F4208BF704793F0EF
:100450007F4F04BF41F40021704730B54FF4607402
:1004600001F0004521F000411CE700BF50EA010205
:1004700008BF704730B54FF000050AE050EA0102AE
:1004800008BF704730B511F0004502D5404261EB1E
:1004900041014FF4806404F132045FEA915C3FF45F
:1004A000D8AE4FF003025FEADC0C18BF03325FEAFC
:1004B000DC0C18BF033202EBDC02C2F1200300FAAD
:1004C00003FC20FA02F001FA03FE40EA0E0021FAD2
:1004D00002F11444BDE600BF70B54FF0FF0C4CF4C0
:1004E000E06C1CEA11541DBF1CEA135594EA0C0F72
:1004F00095EA0C0F00F0DEF82C4481EA030621EAAD
:100500004C5123EA4C5350EA013518BF52EA0335E7
:1005100041F4801143F4801338D0A0FB02CE4FF099
:100520000005E1FB02E506F00042E0FB03E54FF0C9
:100530000006E1FB03569CF0000F18BF4EF0010EC1
:10054000A4F1FF04B6F5007F64F5407404D25FEABD
:100550004E0E6D4146EB060642EAC62141EA555170
:100560004FEAC52040EA5E504FEACE2EB4F1FD0CB2
:1005700088BFBCF5E06F1ED8BEF1004F08BF5FEA30
:10058000500E50F1000041EB045170BD06F00046E2
:1005900046EA010140EA020081EA0301B4EB5C048F
:1005A000C2BFD4EB0C0541EA045170BD41F4801187
:1005B0004FF0000E013C00F3AB8014F1360FDEBFAC
:1005C000002001F0004170BDC4F10004203C35DA88
:1005D0000C341BDC04F11404C4F1200500FA05F30B
:1005E00020FA04F001FA05F240EA020001F00042AC
:1005F00021F0004110EBD37021FA04F642EB060122
:100600005EEA430E08BF20EAD37070BDC4F10C044B
:10061000C4F1200500FA04F320FA05F001FA04F20F
:1006200040EA020001F0004110EBD37041F10001FB
:100630005EEA430E08BF20EAD37070BDC4F1200506
:1006400000FA05F24EEA020E20FA04F301FA05F26E
:1006500043EA020321FA04F001F0004121FA04F216
:1006600020EA020000EBD3705EEA430E08BF20EAE6
:10067000D37070BD94F0000F0FD101F00046400020
:1006800041EB010111F4801F08BF013CF7D041EAA2
:10069000060195F0000F18BF704703F000465200A6
:1006A00043EB030313F4801F08BF013DF7D043EA77
:1006B0000603704794EA0C0F0CEA135518BF95EA2D
:1006C0000C0F0CD050EA410618BF52EA4306D1D1B4
:1006D00081EA030101F000414FF0000070BD50EAD3
:1006E000410606BF1046194652EA430619D094EA5D
:1006F0000C0F02D150EA013613D195EA0C0F05D147
:1007000052EA03361CBF104619460AD181EA03019A
:1007100001F0004141F0FE4141F470014FF0000052
:1007200070BD41F0FE4141F4780170BD70B54FF0ED
:10073000FF0C4CF4E06C1CEA11541DBF1CEA13556D
:1007400094EA0C0F95EA0C0F00F0A7F8A4EB05044F
:1007500081EA030E52EA03354FEA013100F0888046
:100760004FEA03334FF0805545EA131343EA12630F
:100770004FEA022245EA111545EA10654FEA0026C4
:100780000EF000419D4208BF964244F1FD0404F57D
:10079000407402D25B084FEA3202B61A65EB0305D9
:1007A0005B084FEA32024FF480104FF4002CB6EB96
:1007B000020E75EB030E22BFB61A754640EA0C0016
:1007C0005B084FEA3202B6EB020E75EB030E22BF56
:1007D000B61A754640EA5C005B084FEA3202B6EB97
:1007E000020E75EB030E22BFB61A754640EA9C0056
:1007F0005B084FEA3202B6EB020E75EB030E22BF26
:10080000B61A754640EADC0055EA060E18D04FEAE3
:10081000051545EA16754FEA06164FEAC30343EA83
:1008200052734FEAC2025FEA1C1CC0D111F4801F50
:100830000BD141EA00014FF000004FF0004CB6E749
:1008400011F4801F04BF01430020B4F1FD0C88BFE8
:10085000BCF5E06F3FF6AFAEB5EB030C04BFB6EBF3
:10086000020C5FEA500C50F1000041EB045170BDE6
:100870000EF0004E4EEA113114EB5C04C2BFD4EB13
:100880000C0541EA045170BD41F480114FF0000E97
:10089000013C90E645EA060E8DE60CEA135594EA13
:1008A0000C0F08BF95EA0C0F3FF43BAF94EA0C0F16
:1008B0000AD150EA01347FF434AF95EA0C0F7FF48B
:1008C00025AF104619462CE795EA0C0F06D152EADF
:1008D00003353FF4FDAE1046194622E750EA4106C3
:1008E00018BF52EA43067FF4C5AE50EA41047FF4D4
:1008F0000DAF52EA43057FF4EBAE12E74FF0FF3C39
:1009000006E000BF4FF0010C02E000BF4FF0010C09
:100910004DF804CD4FEA410C7FEA6C5C4FEA430C82
:1009200018BF7FEA6C5C1BD001B050EA410C0CBFD1
:1009300052EA430C91EA030F02BF90EA020F002033
:10094000704710F1000F91EA030F58BF994208BF9A
:1009500090422CBFD8176FEAE37040F00100704757
:100960004FEA410C7FEA6C5C02D150EA013C07D1AE
:100970004FEA430C7FEA6C5CD6D152EA033CD3D0F9
:100980005DF8040B704700BF8446104662468C46F3
:100990001946634600E000BF01B5FFF7B7FF002826
:1009A00048BF10F1000F01BD4DF808EDFFF7F4FF4F
:1009B0000CBF012000205DF808FB00BF4DF808EDDA
:1009C000FFF7EAFF34BF012000205DF808FB00BFFD
:1009D0004DF808EDFFF7E0FF94BF012000205DF81F
:1009E00008FB00BF4DF808EDFFF7CEFF94BF0120D4
:1009F00000205DF808FB00BF4DF808EDFFF7C4FFCD
:100A000034BF012000205DF808FB00BF4FEA410C15
:100A10007FEA6C5C02D150EA013C0AD14FEA430CF8
:100A20007FEA6C5C02D152EA033C02D14FF0000035
:100A300070474FF0010070474FEA410212F5001273
:100A400015D211D56FF47873B3EB625212D94FEA15
:100A5000C12343F0004343EA505311F0004F23FAFF
:100A600002F018BF404270474FF00000704750EA54
:100A7000013005D111F0004008BF6FF00040704711
:100A80004FF00000704700BF4A0011D212F500126B
:100A900011D20DD56FF47873B3EB62520ED44FEAD6
:100AA000C12343F0004343EA505323FA02F0704756
:100AB0004FF00000704750EA013002D14FF0FF3094
:100AC00070474FF0000070474FEA4102B2F1E04337
:100AD00024BFB3F5001CDCF1FE5C0DD901F0004C25
:100AE0004FEAC0024CEA5070B2F1004F40EB830075
:100AF00008BF20F00100704711F0804F21D113F1A1
:100B00003872BCBF01F00040704741F480114FEAD9
:100B10005252C2F11802C2F1200C10FA0CF320FA62
:100B200002F018BF40F001004FEAC1234FEAD3237F
:100B300003FA0CFC40EA0C0023FA02F34FEA4303E9
:100B4000CCE77FEA625307D150EA01331EBF4FF072
:100B5000FE4040F44000704701F0004040F0FE408D
:100B600040F40000704700BF38B50022002304465F
:100B70000D46FFF723FF28B920462946BDE8384037
:100B800000F00AB8204605F1004100F005F84042A7
:100B900061EB410138BD00BFD0B500220B4B0646CA
:100BA0000F46FFF799FCFFF76FFF0446FFF71AFCAB
:100BB0000022074BFFF790FC02460B4630463946B1
:100BC000FFF7D2FAFFF760FF2146D0BD0000F03DED
:100BD0000000F04180B582B000AF78600021054888
:100BE00003F004FE034B1B6800225A6300BF083762
:100BF000BD4680BD5002002080B489B000AFF860CF
:100C0000B9607A603B600723FB6117E07A68FB6993
:100C100042FA03F39BB203F0010399B2FA68134658
:100C20005B001344DB00DA1DFB69D31A4A1C91B246
:100C3000264A22F81310FB69013BFB61FB69002B7C
:100C4000E4DA0723BB6118E0BA68BB6942FA03F330
:100C50009BB203F0010399B2FA6813465B00134498
:100C6000DB0003F10F02BB69D31A4A1C91B2174A89
:100C700022F81310BB69013BBB61BB69002BE3DAAF
:100C800007237B6118E03A687B6942FA03F39BB261
:100C900003F0010399B2FA6813465B001344DB00CA
:100CA00003F117027B69D31A4A1C91B2074A22F852
:100CB00013107B69013B7B617B69002BE3DA00BF8A
:100CC00000BF2437BD4680BC704700BFC40300206E
:100CD00080B500AF4FF41073034A0021034803F0BE
:100CE000E3FB00BF80BD00BFC40300205002002012
:100CF000F0B5ADF2AC4D0AAF01F09AFB00F090FCFC
:100D000000F0EAFD00F0CAFD00F0D0FC00F072FD3A
:100D100000F09AFD00F0F8FC07F59063A3F5087366
:100D200000221A6004334FF4FE720021184606F0C8
:100D30003AFA0023C7F8743407F50873D549184602
:100D400006F0A2F907F518734FF400720021184657
:100D500006F029FA07F508731846FFF7F9F9034674
:100D60009AB207F508714FF47A73CB4804F0CEFBC2
:100D700007F5187164234FF40072C74804F051FC62
:100D80004FF4FA7001F0B6FB002387F87F3434E0AB
:100D900007F50873C149184606F076F907F5187388
:100DA0004FF400720021184606F0FDF907F50873AC
:100DB0001846FFF7CDF903469AB207F508714FF4CC
:100DC0007A73B54804F0A2FB07F518714FF47A73F3
:100DD0004FF40072B04804F024FC07F51873B049D2
:100DE000184606F0F5F90346002B02D0012387F8D8
:100DF0007F344FF4FA7001F07DFB97F87F34002BBD
:100E0000C6D0002387F87F3434E007F50873A5497E
:100E1000184606F039F907F518734FF400720021EF
:100E2000184606F0C0F907F508731846FFF790F961
:100E300003469AB207F508714FF47A73964804F0A6
:100E400065FB07F518714FF47A734FF400729248FE
:100E500004F0E7FB07F518739149184606F0B8F956
:100E60000346002B02D0012387F87F344FF4FA7039
:100E700001F040FB97F87F34002BC6D0002387F8A1
:100E80007F3434E007F508738749184606F0FCF80C
:100E900007F518734FF400720021184606F083F925
:100EA00007F508731846FFF753F903469AB207F59A
:100EB00008714FF47A73784804F028FB07F518712D
:100EC0004FF47A734FF40072734804F0AAFB07F5ED
:100ED00018737349184606F07BF90346002B02D0BD
:100EE000012387F87F344FF4FA7001F003FB97F881
:100EF0007F34002BC6D0002387F87F3434E007F519
:100F000008736A49184606F0BFF807F518734FF4DE
:100F100000720021184606F046F907F508731846D6
:100F2000FFF716F903469AB207F508714FF47A7382
:100F3000594804F0EBFA07F518714FF47A734FF43F
:100F40000072554804F06DFB07F5187354491846B4
:100F500006F03EF90346002B02D0012387F87F34C8
:100F60004FF4FA7001F0C6FA97F87F34002BC6D020
:100F7000002387F87F3434E007F508734C4918469E
:100F800006F082F807F518734FF400720021184636
:100F900006F009F907F508731846FFF7D9F8034674
:100FA0009AB207F508714FF47A733B4804F0AEFA31
:100FB00007F518714FF47A734FF40072364804F055
:100FC00030FB07F518733649184606F001F9034659
:100FD000002B02D0012387F87F344FF4FA7001F020
:100FE00089FA97F87F34002BC6D000F0B3FC0021BB
:100FF000002000F017FE01222E492F4800F0A6FE27
:101000001E21002000F00EFE01222A492B4800F08C
:101010009DFE00F063FD4FF47A7001F06BFA00F072
:101020008FFC07F518734FF400720021184606F084
:10103000BAF807F518714FF47A734FF40072164836
:1010400004F0EFFA07F518731D49184606F0C0F8CA
:101050000346002B03D00023C7F878347AE007F565
:1010600018731849184606F0B3F80346002B03D04E
:101070000123C7F878346DE007F518731249184654
:1010800006F0A6F80346002B20D00223C7F87834D8
:1010900060E000BF88B10008DC02002094B10008C5
:1010A000A8B10008ACB10008D8B10008F8B1000838
:1010B00008B20008000000201CB2000824B200089A
:1010C00030B2000838B2000840B2000807F51873C3
:1010D000B249184606F07CF80346002B03D00323E0
:1010E000C7F8783436E007F51873AD49184606F0AE
:1010F0006FF80346002B03D00423C7F8783429E0A7
:1011000007F51873A749184606F062F80346002B46
:1011100003D00523C7F878341CE007F51873A249FB
:10112000184606F055F80346002B03D00623C7F8EF
:1011300078340FE007F518739C49184606F048F814
:101140000346002B03D00723C7F8783402E064235A
:10115000C7F87834D7F87834072B00F3E08007F528
:1011600018739349184606F033F8C7F86C04D7F89B
:101170006C34002B32D007F5067107F5077207F5BE
:101180000473019307F5057300930B468949D7F85B
:101190006C0405F099FF0346042B1FD107F59063FB
:1011A000A3F519731B68DAB2834B1A7007F59063C5
:1011B000A3F51A731B68DAB2804B1A7007F59063B7
:1011C000A3F51B731B68DAB27D4B1A7007F59063A9
:1011D000A3F51C731B68DAB27A4B1A707A4B1B8822
:1011E0009C46794B5B881946774B9B881C46764B0F
:1011F000DB881D46744B5B891E46734B9B89FB60E5
:10120000714B9B7BBB60714B1B88012B01D9704BD1
:1012100000E0704B694A12787A60694A12783A6045
:10122000684A127807F110000992D7F800E0CDF86B
:1012300020E07A6807920693BB680593FB680493E5
:1012400003960295019400916346634A4FF400713E
:1012500005F0E6FEC7F8680407F50870D7F86834AB
:10126000D7F878245D4905F00FFF07F518734FF4A0
:1012700000720021184605F096FF07F5087318461E
:10128000FEF766FF03469AB207F508714FF47A73CA
:10129000534804F03BF907F5187164234FF40072CA
:1012A0004F4804F0BEF907F518733E21184605F0C3
:1012B00082FF0346002B11D0D7F868349AB207F1A9
:1012C00010014FF47A73464804F020F907F51871BD
:1012D00064234FF40072424804F0A3F907F5087341
:1012E000D7F878243F49184605F0CEFE07F5087375
:1012F0001846FEF72DFF03469AB207F508714FF422
:101300007A73374804F002F907F5187164234FF433
:101310000072334804F085F96423C7F8783440221A
:101320000021314805F03FFF4FF47A7340222E49E7
:101330002E4804F076F90346002B2AD156212A487C
:1013400005F039FFC7F86404D7F86434002B20D0C7
:10135000274B0593274B0493274B0393274B02936B
:10136000274B0193274B0093274B174A2749D7F860
:10137000640405F0A9FE0346082B0AD1D7F86434AB
:10138000194A9B1ADBB21A46214B1A60214B0122E3
:101390001A700023C7F870344FE000BF48B200084D
:1013A00050B2000858B2000860B2000868B20008E5
:1013B00070B2000878B2000844080020080000203D
:1013C00045080020090000206C030020C403002011
:1013D00090B2000894B2000898B20008B0B30008B8
:1013E000DC020020C4B300087C030020240300209A
:1013F0007A03002078030020760300207403002085
:1014000072030020700300206E030020D8B3000890
:10141000C0030020BC0300206D4B1B7819466D4BA8
:101420001B781A466C4B1B78D7F87004FFF7E4FB67
:10143000D7F870340133C7F87034D7F87034172BED
:10144000EADDFFF745FC01F04BF8C7F86004634B99
:101450001B68D7F86024D31A4FF4FA629342FFF462
:10146000E0AD5E4AD7F860341360D7F874340133C6
:10147000C7F8743400F08FFCD7F87434012B12D104
:101480000021002000F0CEFB01225549554800F014
:101490005DFC1421002000F0C5FB01225049524898
:1014A00000F054FC91E0D7F87434022B1BD10021DA
:1014B000002000F0B7FB012249494C4800F046FCEF
:1014C0001421002000F0AEFB01224549484800F0FD
:1014D0003DFC2821002000F0A5FB012240494548A1
:1014E00000F034FC71E0D7F87434032B12D10021E2
:1014F000002000F097FB012239493F4800F026FC0C
:101500001421002000F08EFB012235493B4800F0F9
:101510001DFC5AE0D7F87434042B12D100210020AE
:1015200000F080FB01222E49354800F00FFC142109
:10153000002000F077FB01222949324800F006FC28
:1015400043E0D7F87434052B1BD10021002000F0B4
:1015500069FB012222492C4800F0F8FB14210020ED
:1015600000F060FB01221E49284800F0EFFB282113
:10157000002000F057FB01221949254800F0E6FB46
:1015800023E0D7F87434052B1FDD0021002000F084
:1015900049FB012212491F4800F0D8FB1E4B9B89D2
:1015A0001A4607F110031D49184605F06DFD192173
:1015B000002000F037FB07F110030122084918460C
:1015C00000F0C4FB0023C7F8743400F087FA28E564
:1015D00008000020450800200900002048080020DD
:1015E0000000002008B4000818B4000824B4000863
:1015F0002CB4000838B400083CB400084CB400080F
:1016000054B4000860B400086CB4000878B4000852
:1016100084B4000890B400086C030020A0B4000853
:1016200080B590B000AF07F11803282200211846BA
:1016300005F0B9FD3B1D00221A605A609A60DA601D
:101640001A610123BB614FF48033FB6100233B62CD
:101650000123BB6202237B634FF48033BB634FF4EF
:10166000E013FB6307F11803184602F065FA03461E
:10167000002B01D000F05EF90F237B600223BB60DA
:101680000023FB604FF480633B6100237B613B1DC3
:101690000221184602F0D2FC0346002B01D000F0D4
:1016A00049F900BF4037BD4680BD000080B500AF9E
:1016B000124B134A1A60114B124A5A600F4B002208
:1016C0009A600E4B0022DA600C4B4FF480421A6194
:1016D0000A4B00225A61094B00229A61074B0022F3
:1016E000DA61064B00221A62044801F05BFC0346F3
:1016F000002B01D000F01EF900BF80BDFC010020CE
:1017000000540040801A060080B58EB000AF07F18B
:10171000280300221A605A609A60DA6007F12003F9
:1017200000221A605A603B1D00221A605A609A60BB
:10173000DA601A615A619A612C4B2D4A1A602B4B60
:101740001D225A60294B00229A60284B0222DA603F
:10175000264B00221A61254B00229A61234802F091
:10176000FBFD0346002B01D000F0E4F84FF480535A
:10177000BB6207F1280319461C4803F0BFF9034672
:10178000002B01D000F0D6F8184802F034FE0346D2
:10179000002B01D000F0CEF800233B6200237B62D7
:1017A00007F120031946114803F002FE0346002BFF
:1017B00001D000F0BFF860237B600023BB600023F2
:1017C000FB6000237B613B1D00221946074803F0A4
:1017D000D3F80346002B01D000F0ACF8034800F02A
:1017E0003BFC00BF3837BD4680BD00BF5002002023
:1017F0000004004080B500AF114B124A1A60104B34
:101800004FF4E1325A600E4B00229A600C4B0022DA
:10181000DA600B4B00221A61094B0C225A61084B0B
:1018200000229A61064B0022DA61054803F01EFE91
:101830000346002B01D000F07DF800BF80BD00BF43
:10184000DC0200200038014080B500AF114B124A85
:101850001A60104B4FF4E1325A600E4B00229A602E
:101860000C4B0022DA600B4B00221A61094B0C2250
:101870005A61084B00229A61064B0022DA61054842
:1018800003F0F4FD0346002B01D000F053F800BF35
:1018900080BD00BF240300200044004080B582B01A
:1018A00000AF0C4B5B690B4A43F001035361094BDA
:1018B0005B6903F001037B607B680022002110203C
:1018C00000F013FF102000F02CFF00BF0837BD46CA
:1018D00080BD00BF0010024080B485B000AF144B43
:1018E0009B69134A43F020039361114B9B6903F0FA
:1018F0002003FB60FB680E4B9B690D4A43F0040319
:1019000093610B4B9B6903F00403BB60BB68084BFE
:101910009B69074A43F008039361054B9B6903F0F9
:1019200008037B607B6800BF1437BD4680BC7047EE
:101930000010024080B400AF72B600BF00BFFDE7E8
:1019400080B500AF2E220021782000F0A7FA00BF5A
:1019500080BD000080B582B000AF00F025FA44F6EB
:101960002063012278215B4801F05EFD0346002BD5
:1019700001D00023A9E040F6C4137B6002E07B683D
:10198000013B7B607B68002BF9D1AE2200217820DF
:1019900000F084FA20220021782000F07FFA102243
:1019A0000021782000F07AFAB0220021782000F09F
:1019B00075FAC8220021782000F070FA0022002178
:1019C000782000F06BFA10220021782000F066FAEF
:1019D00040220021782000F061FA81220021782045
:1019E00000F05CFAFF220021782000F057FAA122D3
:1019F0000021782000F052FAA6220021782000F081
:101A00004DFAA8220021782000F048FA3F22002158
:101A1000782000F043FAA4220021782000F03EFA5A
:101A2000D3220021782000F039FA0022002178200A
:101A300000F034FAD5220021782000F02FFAF022AD
:101A40000021782000F02AFAD9220021782000F025
:101A500025FA22220021782000F020FADA22002143
:101A6000782000F01BFA12220021782000F016FAEC
:101A7000DB220021782000F011FA202200217820BA
:101A800000F00CFA8D220021782000F007FA1422D1
:101A90000021782000F002FAAF220021782000F027
:101AA000FDF92E220021782000F0F8F9002000F046
:101AB00043F800F013F8084B00221A80064B00226E
:101AC0005A80054B01225A71012318460837BD463A
:101AD00080BD00BFFC0100204C0C002080B582B00E
:101AE00000AF0023FB711DE0FB79503BDBB21A46CF
:101AF0000021782000F0D2F900220021782000F0A7
:101B0000CDF910220021782000F0C8F9FB79DB0123
:101B1000084A1A4480234021782000F059F9FB79C3
:101B20000133FB71FB79072BDED900BF00BF0837FB
:101B3000BD4680BD4C08002080B582B000AF034692
:101B4000FB71FB79002B01D1002300E0FF234FF450
:101B500080621946034805F026FB00BF0837BD46E2
:101B600080BD00BF4C08002080B483B000AF0346A6
:101B7000FB800B46BB801346FB70FB887F2B48D84D
:101B8000BB883F2B45D8254B1B79002B06D0FB7813
:101B9000002B0CBF01230023DBB2FB70FB78012B71
:101BA0001AD1FA88BB88DB0898B20346DB011344DC
:101BB0001B4AD35C5AB2BB8803F00703012101FA28
:101BC00003F35BB2134359B2FA880346DB011344B3
:101BD000C9B2134AD1541DE0FA88BB88DB0898B219
:101BE0000346DB0113440E4AD35C5AB2BB8803F0B0
:101BF0000703012101FA03F35BB2DB435BB213403D
:101C000059B2FA880346DB011344C9B2044AD154DD
:101C100000E000BF0C37BD4680BC70474C0C002074
:101C20004C08002080B483B000AF03460A46FB8016
:101C30001346BB80054AFB881380044ABB88538047
:101C400000BF0C37BD4680BC704700BF4C0C002065
:101C500080B586B000AF03463960FB711346BB7197
:101C6000394B1B881A463B681B7813447F2B07DCD3
:101C7000354B5B881A463B685B7813443F2B01DD8C
:101C800000235DE000237B614BE03B685A68FB79F1
:101C9000203B3968497801FB03F319467B690B4403
:101CA0005B0013441B88FB6000233B6130E0FA6853
:101CB0003B6902FA03F303F40043002B10D0224BDC
:101CC0001A883B699BB2134498B21F4B5A887B69B0
:101CD0009BB213449BB2BA791946FFF745FF14E053
:101CE000194B1A883B699BB2134498B2164B5A8819
:101CF0007B699BB2134499B2BB79002B0CBF0123C3
:101D00000023DBB21A46FFF72FFF3B6901333B612B
:101D10003B681B781A463B699342C8D37B69013301
:101D20007B613B685B781A467B699342ADD3064B77
:101D30001B883A68127813449AB2034B1A80FB79D5
:101D400018461837BD4680BD4C0C002080B584B0C5
:101D500000AFF860B9601346FB7112E0FB681B78B6
:101D6000FA79B9681846FFF773FF03461A46FB680D
:101D70001B789A4202D0FB681B7808E0FB680133AD
:101D8000FB60FB681B78002BE8D1FB681B781846CA
:101D90001037BD4680BD80B500AF0020FFF7CCFEF8
:101DA000FFF79CFE00BF80BD80B483B000AF074B3F
:101DB0007B6002E07B68013B7B607B68002BF9D194
:101DC00000BF00BF0C37BD4680BC704790D00300F9
:101DD00090B5C7B002AF0446084607F58871A1F573
:101DE00088710A60194607F58873A3F20913224621
:101DF0001A7007F58873A3F5857302461A7007F504
:101E00008873A3F586730A461A8007F58873A3F5CD
:101E1000827307F58872A2F5857212781A70002312
:101E200087F80F3115E097F80F3107F58872A2F5A2
:101E3000887212681A4497F80F310133117807F548
:101E40008872A2F58272D15497F80F31013387F866
:101E50000F3197F80F319BB207F58872A2F58672A1
:101E600012889A42DFD807F58873A3F209131B780A
:101E700099B207F58873A3F586731B8801339BB26B
:101E800007F10C020A200090034801F0CFF900BFCF
:101E900007F58A77BD4690BDFC01002080B586B06D
:101EA00002AF0346FB710B46BB7113467B71BB79D6
:101EB0003B737B797B73FB7999B207F10C020A23A0
:101EC00000930223034801F0B1F900BF1037BD466B
:101ED00080BD00BFFC01002080B485B000AF154B71
:101EE0009B69144A43F001039361124B9B6903F011
:101EF0000103BB60BB680F4BDB690E4A43F08053A4
:101F0000D3610C4BDB6903F080537B607B680A4B29
:101F10005B68FB60FB6823F0E063FB60FB6843F0F9
:101F20008063FB60044AFB68536000BF1437BD4602
:101F300080BC7047001002400000014080B588B0AE
:101F400000AF786007F1100300221A605A609A60AF
:101F5000DA607B681B68154A934223D1144B9B6956
:101F6000134A43F008039361114B9B6903F0080384
:101F7000FB60FB68C0233B6112237B610323FB6191
:101F800007F1100319460B4800F088FE084BDB6987
:101F9000074A43F40013D361054BDB6903F40013D4
:101FA000BB60BB6800BF2037BD4680BD0054004009
:101FB00000100240000C014080B584B000AF786092
:101FC0007B681B68204A934239D1204BDB691F4A4A
:101FD00043F00203D3611D4BDB6903F00203FB6096
:101FE000FB681B4B1B4A1A60194B10225A60184B96
:101FF00000229A60164B8022DA60154B4FF48072F3
:102000001A61134B4FF480625A61114B00229A619E
:102010000F4B0022DA610E4800F09EFB0346002BB6
:1020200001D0FFF787FC7B68094A5A62084A7B683F
:1020300053627B68064A9A63054A7B68536200BF15
:102040001037BD4680BD00BF0004004000100240B4
:10205000980200206C00024080B588B000AF786024
:1020600007F1100300221A605A609A60DA607B68F8
:102070001B680F4A934217D10E4B9B690D4A43F0E0
:10208000040393610B4B9B6903F00403FB60FB6843
:1020900040233B6102237B610223FB6107F11003B4
:1020A0001946054800F0FAFD00BF2037BD4680BD47
:1020B00000040040001002400008014080B58AB0D2
:1020C00000AF786007F1180300221A605A609A6026
:1020D000DA607B681B683B4A934232D13A4B9B697A
:1020E000394A43F480439361374B9B6903F480433F
:1020F0007B617B69344B9B69334A43F004039361F2
:10210000314B9B6903F004033B613B694FF400735F
:10211000BB610223FB6103237B6207F118031946AD
:102120002A4800F0BBFD4FF48063BB610023FB61D4
:1021300000233B6207F118031946244800F0AEFD66
:102140003CE07B681B68224A934237D11E4BDB6917
:102150001D4A43F40033D3611B4BDB6903F40033A6
:10216000FB60FB68184B9B69174A43F004039361BB
:10217000154B9B6903F00403BB60BB680423BB6180
:102180000223FB6103237B6207F1180319460F4802
:1021900000F084FD0823BB610023FB6100233B6248
:1021A00007F118031946094800F078FD00220021C4
:1021B000262000F09AFA262000F0B3FA00BF283754
:1021C000BD4680BD003801400010024000080140BB
:1021D0000044004080B400AF00BFFDE780B400AF12
:1021E00000BFFDE780B400AF00BFFDE780B400AFE3
:1021F00000BFFDE780B400AF00BFFDE780B400AFD3
:1022000000BFBD4680BC704780B400AF00BFBD4674
:1022100080BC704780B400AF00BFBD4680BC704733
:1022200080B500AF00F04AF900BF80BD80B500AFB7
:10223000024800F0FFFB00BF80BD00BF98020020F5
:1022400080B500AF024803F083FA00BF80BD00BF35
:102250002403002080B400AF01231846BD4680BC93
:10226000704780B582B000AF7860396005F010F833
:10227000034616221A604FF0FF3318460837BD4652
:1022800080BD80B582B000AF78604FF0FF317868D4
:10229000FFF7E7FF00BFFDE780B586B000AFF8604D
:1022A000B9607A6000237B610AE0AFF300800146E9
:1022B000BB685A1CBA60CAB21A707B6901337B6171
:1022C0007A697B689A42F0DB7B6818461837BD460E
:1022D00080BD80B586B000AFF860B9607A60002339
:1022E0007B6109E0BB685A1CBA601B781846AFF3E3
:1022F00000807B6901337B617A697B689A42F1DBFC
:102300007B6818461837BD4680BD80B483B000AFE7
:1023100078604FF0FF3318460C37BD4680BC7047DD
:1023200080B483B000AF786039603B684FF40052EE
:102330005A60002318460C37BD4680BC704780B4F5
:1023400083B000AF7860012318460C37BD4680BCCF
:10235000704780B485B000AFF860B9607A60002340
:1023600018461437BD4680BC7047000080B586B063
:1023700000AF7860144A154BD31A7B617B693B61CF
:10238000134B1B68002B02D1114B124A1A60104BE1
:102390001A687B6813443A699A4207D204F078FFBE
:1023A00003460C221A604FF0FF3309E0084B1B680C
:1023B000FB60074B1A687B681344054A1360FB688F
:1023C00018461837BD4680BD0050002000040000AC
:1023D000540C0020A80D002080B400AF00BFBD4603
:1023E00080BC7047FFF7F8FF0B480C490C4A0023EC
:1023F00002E0D458C4500433C4188C42F9D3094ABB
:10240000094C002301E013600432A242FBD304F024
:1024100045FFFEF76DFC704700000020E001002042
:102420009CC60008E0010020A80D0020FEE7000087
:1024300080B500AF084B1B68074A43F010031360D8
:10244000032000F047F90F2000F008F8FFF744FDE3
:102450000023184680BD00BF0020024080B582B036
:1024600000AF7860124B1A68124B1B7819464FF474
:102470007A73B3FBF1F3B2FBF3F3184600F05FF9A4
:102480000346002B01D001230EE07B680F2B0AD8F6
:10249000002279684FF0FF3000F027F9064A7B6888
:1024A0001360002300E0012318460837BD4680BDB5
:1024B0000C000020140000201000002080B400AFA9
:1024C000054B1B781A46054B1B681344034A1360DF
:1024D00000BFBD4680BC704714000020580C00208F
:1024E00080B400AF024B1B681846BD4680BC7047E5
:1024F000580C002080B584B000AF7860FFF7F0FF83
:10250000B8607B68FB60FB68B3F1FF3F05D00A4B06
:102510001B781A46FB681344FB6000BFFFF7E0FF1F
:102520000246BB68D31AFA689A42F7D800BF00BFC8
:102530001037BD4680BD00BF1400002080B485B0B8
:1025400000AF78607B6803F00703FB600C4BDB682F
:10255000BB60BA684FF6FF031340BB60FB681A020A
:10256000BB68134343F0BF6343F40033BB60044ACA
:10257000BB68D36000BF1437BD4680BC704700BF46
:1025800000ED00E080B400AF044BDB681B0A03F0F1
:1025900007031846BD4680BC704700BF00ED00E051
:1025A00080B483B000AF0346FB7197F90730002B6E
:1025B0000BDBFB7903F01F02064997F907305B0933
:1025C000012000FA02F241F8232000BF0C37BD467B
:1025D00080BC704700E100E080B483B000AF0346E8
:1025E0003960FB7197F90730002B0ADB3B68DAB2E0
:1025F0000C4997F907301201D2B20B4483F800233B
:102600000AE03B68DAB20849FB7903F00F03043BA8
:102610001201D2B20B441A7600BF0C37BD4680BC03
:10262000704700BF00E100E000ED00E080B489B039
:1026300000AFF860B9607A60FB6803F00703FB61E4
:10264000FB69C3F10703042B28BF0423BB61FB69AB
:102650000433062B02D9FB69033B00E000237B61B6
:102660004FF0FF32BB6902FA03F3DA43BB681A404A
:102670007B699A404FF0FF317B6901FA03F3D9433C
:102680007B680B40134318462437BD4680BC704717
:1026900080B582B000AF78607B68013BB3F1807F8A
:1026A00001D301230FE00A4A7B68013B53600F21ED
:1026B0004FF0FF30FFF790FF054B00229A60044B6C
:1026C00007221A60002318460837BD4680BD00BFA8
:1026D00010E000E080B582B000AF78607868FFF766
:1026E0002DFF00BF0837BD4680BD80B586B000AF66
:1026F0000346B9607A60FB7300237B61FFF742FFFA
:1027000078617A68B9687869FFF790FF024697F9AF
:102710000F3011461846FFF75FFF00BF1837BD4660
:1027200080BD80B582B000AF0346FB7197F90730DA
:102730001846FFF735FF00BF0837BD4680BD80B59E
:1027400082B000AF78607868FFF7A2FF03461846B2
:102750000837BD4680BD000080B485B000AF78600A
:102760000023FB607B68002B01D1012343E07B68E1
:102770001B681A46224B1344224AA2FB03231B095F
:102780009A007B681A647B681F4ADA637B680222BE
:1027900083F821207B681B681B68FB60FB6823F4BF
:1027A0007F5323F03003FB607B685A687B689B682B
:1027B0001A437B68DB681A437B681B691A437B6892
:1027C0005B691A437B689B691A437B68DB69134327
:1027D000FA681343FB607B681B68FA681A607B68C1
:1027E00000229A637B68012283F821207B68002203
:1027F00083F82020002318461437BD4680BC70475C
:10280000F8FFFDBFCDCCCCCC0000024080B586B037
:1028100000AFF860B9607A603B600023FB75FB682D
:1028200093F82030012B01D102234BE0FB680122F9
:1028300083F82020FB6893F82130DBB2012B3AD1DA
:10284000FB68022283F82120FB6800229A63FB6860
:102850001B681A68FB681B6822F001021A603B685B
:102860007A68B968F86800F0EBF9FB68DB6A002B5E
:1028700008D0FB681B681A68FB681B6842F00E02F0
:102880001A600FE0FB681B681A68FB681B6822F07F
:1028900004021A60FB681B681A68FB681B6842F038
:1028A0000A021A60FB681B681A68FB681B6842F022
:1028B00001021A6005E0FB68002283F82020022351
:1028C000FB75FB7D18461837BD4680BD80B485B0CA
:1028D00000AF78600023FB737B6893F82130DBB294
:1028E000022B08D07B6804229A637B68002283F85D
:1028F0002020012320E07B681B681A687B681B6826
:1029000022F00E021A607B681B681A687B681B68DD
:1029100022F001021A607B681A6C7B68DB6B012174
:1029200001FA02F25A607B68012283F821207B6859
:10293000002283F82020FB7B18461437BD4680BC5C
:102940007047000080B584B000AF78600023FB734F
:102950007B6893F82130DBB2022B05D07B68042220
:102960009A630123FB7351E07B681B681A687B68DC
:102970001B6822F00E021A607B681B681A687B686D
:102980001B6822F001021A607B681B68224A93428E
:1029900029D07B681B68214A934222D07B681B6840
:1029A0001F4A93421AD07B681B681E4A934212D07A
:1029B0007B681B681C4A93420AD07B681B681B4AD1
:1029C000934202D14FF480130EE04FF080730BE07E
:1029D0004FF4803308E04FF4805305E04FF48073E8
:1029E00002E0102300E00123114A53607B680122BA
:1029F00083F821207B68002283F820207B685B6BB2
:102A0000002B03D07B685B6B78689847FB7B18468C
:102A10001037BD4680BD00BF080002401C000240C8
:102A20003000024044000240580002406C00024066
:102A30000000024080B584B000AF78607B68DB6B3B
:102A40001B68FB607B681B681B68BB607B681B6C3A
:102A500004229A40FB681340002B4FD0BB6803F060
:102A60000403002B4AD07B681B681B6803F020031B
:102A7000002B07D17B681B681A687B681B6822F0F3
:102A800004021A607B681B68664A934229D07B68FF
:102A90001B68654A934222D07B681B68634A934255
:102AA0001AD07B681B68624A934212D07B681B680D
:102AB000604A93420AD07B681B685F4A934202D106
:102AC0004FF480030EE04FF080630BE04FF480235F
:102AD00008E04FF4804305E04FF4806302E04023B8
:102AE00000E00423554A53607B68DB6A002B00F04A
:102AF00094807B68DB6A786898478EE07B681B6C03
:102B000002229A40FB681340002B56D0BB6803F0AA
:102B10000203002B51D07B681B681B6803F0200365
:102B2000002B0BD17B681B681A687B681B6822F03E
:102B30000A021A607B68012283F821207B681B68E7
:102B4000384A934229D07B681B68374A934222D087
:102B50007B681B68354A93421AD07B681B68344AED
:102B6000934212D07B681B68324A93420AD07B683A
:102B70001B68314A934202D14FF400130EE04FF02C
:102B800000730BE04FF4003308E04FF4005305E00E
:102B90004FF4007302E0202300E00223274A536031
:102BA0007B68002283F820207B689B6A002B34D04E
:102BB0007B689B6A786898472FE07B681B6C0822CB
:102BC0009A40FB681340002B28D0BB6803F0080331
:102BD000002B23D07B681B681A687B681B6822F077
:102BE0000E021A607B681A6C7B68DB6B012101FAAC
:102BF00002F25A607B6801229A637B68012283F8A3
:102C000021207B68002283F820207B681B6B002B2F
:102C100004D07B681B6B7868984700BF00BF1037F3
:102C2000BD4680BD080002401C000240300002404A
:102C300044000240580002406C0002400000024084
:102C400080B485B000AFF860B9607A603B60FB6823
:102C50001A6CFB68DB6B012101FA02F25A60FB6817
:102C60001B683A685A60FB685B68102B08D1FB68E8
:102C70001B687A689A60FB681B68BA68DA6007E0CC
:102C8000FB681B68BA689A60FB681B687A68DA6040
:102C900000BF1437BD4680BC7047000080B48BB0C5
:102CA00000AF7860396000237B6200233B6269E1FA
:102CB00001227B6A02FA03F3FB613B681B68FA6935
:102CC0001340BB61BA69FB699A4240F058813B6886
:102CD0005B689A4A93425ED0984A934275D8984A64
:102CE000934258D0964A93426FD8964A934252D014
:102CF000944A934269D8944A93424CD0924A934260
:102D000063D8924A934246D0904A93425DD8122BA0
:102D10002AD8122B59D801A252F823F0972D000877
:102D2000712D0008832D0008C52D0008CB2D00084B
:102D3000CB2D0008CB2D0008CB2D0008CB2D000893
:102D4000CB2D0008CB2D0008CB2D0008CB2D000883
:102D5000CB2D0008CB2D0008CB2D0008CB2D000873
:102D6000792D00088D2D0008794A934213D02CE06C
:102D70003B68DB683B6229E03B68DB6804333B620D
:102D800024E03B68DB6808333B621FE03B68DB689C
:102D90000C333B621AE03B689B68002B02D1042392
:102DA0003B6213E03B689B68012B05D108233B6223
:102DB0007B68FA691A6109E008233B627B68FA695B
:102DC0005A6103E000233B6200E000BFBB69FF2BB8
:102DD00001D87B6801E07B6804337B61BB69FF2B12
:102DE00002D87B6A9B0002E07B6A083B9B003B6148
:102DF0007B691A680F213B6901FA03F3DB431A4030
:102E0000396A3B6901FA03F31A437B691A603B682C
:102E10005B6803F08053002B00F0B1804D4B9B6941
:102E20004C4A43F0010393614A4B9B6903F0010351
:102E3000BB60BB68484A7B6A9B08023352F8233068
:102E4000FB607B6A03F003039B000F2202FA03F38B
:102E5000DB43FA681340FB607B68404A934213D01F
:102E60007B683F4A93420DD07B683E4A934207D02D
:102E70007B683D4A934201D1032306E0042304E02A
:102E8000022302E0012300E000237A6A02F0030239
:102E900092009340FA681343FB602F497B6A9B08BA
:102EA0000233FA6841F823203B685B6803F480131F
:102EB000002B06D02D4B9A682C49BB6913438B60BD
:102EC00006E02A4B9A68BB69DB43284913408B60B4
:102ED0003B685B6803F40013002B06D0234BDA68D1
:102EE0002249BB691343CB6006E0204BDA68BB691B
:102EF000DB431E491340CB603B685B6803F400333F
:102F0000002B06D0194B5A681849BB6913434B6014
:102F100006E0164B5A68BB69DB43144913404B600B
:102F20003B685B6803F48033002B21D00F4B1A6899
:102F30000E49BB6913430B6021E000BF0000321053
:102F400000003110000022100000211000001210BB
:102F50000000111000100240000001400008014074
:102F6000000C014000100140001401400004014029
:102F70000B4B1A68BB69DB43094913400B607B6A42
:102F800001337B623B681A687B6A22FA03F3002BE9
:102F90007FF48EAE00BF00BF2C37BD4680BC7047AB
:102FA0000004014080B584B000AF78607B68002BDE
:102FB00001D101232BE17B6893F83D30DBB2002B7C
:102FC00006D17B68002283F83C207868FEF7B6FFC4
:102FD0007B68242283F83D207B681B681A687B6825
:102FE0001B6822F001021A607B681B681A687B6804
:102FF0001B6842F400421A607B681B681A687B6891
:103000001B6822F400421A6001F060F9F8607B68E6
:103010005B68814A934207D8FB68804A934294BF19
:1030200001230023DBB206E0FB687D4A934294BF94
:1030300001230023DBB2002B01D00123E7E0FB6872
:10304000784AA2FB03239B0CBB607B681B685B6810
:1030500023F03F017B681B68BA680A435A607B68AB
:103060001B681B6A23F03F017B685B686A4A9342D6
:1030700002D8BB68013309E0BB684FF4967202FBCB
:1030800003F3694AA2FB03239B0901337A681268A0
:103090000B4313627B681B68DB6923F44F4222F009
:1030A000FF027B685B685C498B4219D8FB68591E3C
:1030B0007B685B685B00B1FBF3F3591C40F6FC7363
:1030C0000B40002B0AD0FB68591E7B685B685B00D5
:1030D000B1FBF3F30133C3F30B0351E004234FE0DF
:1030E0007B689B68002B11D1FB68581E7B68596870
:1030F0000B465B000B44B0FBF3F30133C3F30B034C
:10310000002B0CBF01230023DBB212E0FB68581E2A
:103110007B6859680B469B000B4499000B44B0FB3D
:10312000F3F30133C3F30B03002B0CBF0123002384
:10313000DBB2002B01D0012322E07B689B68002BCF
:103140000ED1FB68581E7B6859680B465B000B4428
:10315000B0FBF3F30133C3F30B0343F400430FE07D
:10316000FB68581E7B6859680B469B000B4499000E
:103170000B44B0FBF3F30133C3F30B0343F44043BD
:10318000796809681343CB617B681B681B6823F06F
:10319000C0017B68DA697B681B6A1A437B681B681D
:1031A0000A431A607B681B689B6823F4034323F07F
:1031B000FF037A6811697A68D26811437A681268E5
:1031C0000B4393607B681B68DB6823F0FF017B681F
:1031D0005A697B689B691A437B681B680A43DA60FB
:1031E0007B681B681A687B681B6842F001021A60E2
:1031F0007B6800221A647B68202283F83D207B686C
:1032000000221A637B68002283F83E2000231846C0
:103210001037BD4680BD00BFA08601007F841E0020
:10322000FF083D0083DE1B43D34D621080B588B09C
:1032300002AFF8607A601A460B467B8113463B81E9
:10324000FFF74EF97861FB6893F83D30DBB2202B35
:1032500040F0E0807B690093192301227049F868EF
:1032600000F092FA0346002B01D00223D3E0FB6862
:1032700093F83C30012B01D10223CCE0FB68012202
:1032800083F83C20FB681B681B6803F00103012BDB
:1032900007D0FB681B681A68FB681B6842F00102D4
:1032A0001A60FB681B681A68FB681B6822F40062DE
:1032B0001A60FB68212283F83D20FB68102283F806
:1032C0003E20FB6800221A64FB687A685A62FB6839
:1032D0003A895A85FB685B8D9AB2FB681A85FB6850
:1032E000504ADA6279897B693A6AF86800F0CAF96B
:1032F0000346002B01D001238DE000233B61FB68D6
:103300001B685B693B61FB681B689B693B613B69B0
:1033100066E07A69396AF86800F050FB0346002BD2
:103320000DD0FB681B6C042B07D1FB681B681A6867
:10333000FB681B6842F400721A6001236BE0FB68B3
:103340005B6A1A78FB681B681A61FB685B6A5A1C27
:10335000FB685A62FB685B8D9BB2013B9AB2FB68CB
:103360005A85FB681B8D013B9AB2FB681A85FB6886
:103370001B685B6903F00403042B1BD1FB681B8DE6
:10338000002B17D0FB685B6A1A78FB681B681A6110
:10339000FB685B6A5A1CFB685A62FB685B8D9BB2D8
:1033A000013B9AB2FB685A85FB681B8D013B9AB2C0
:1033B000FB681A857A69396AF86800F047FB0346AA
:1033C000002B0DD0FB681B6C042B07D1FB681B681E
:1033D0001A68FB681B6842F400721A6001231AE045
:1033E000FB681B8D002B94D1FB681B681A68FB6877
:1033F0001B6842F400721A60FB68202283F83D20AB
:10340000FB68002283F83E20FB68002283F83C2002
:10341000002300E0022318461837BD4680BD00BFD8
:10342000020010000000FFFF80B58AB002AFF86014
:103430007A603B600B467B81FFF752F8F86100230E
:10344000BB61FB6893F83D30DBB2202B40F011816B
:10345000FB690093192301228849F86800F094F968
:103460000346002B01D0022304E1FB6893F83C30B3
:10347000012B01D10223FDE0FB68012283F83C20EF
:10348000FB681B681B6803F00103012B07D0FB6876
:103490001B681A68FB681B6842F001021A60FB682F
:1034A0001B681A68FB681B6822F400621A60FB68DC
:1034B000242283F83D20FB6800221A64FB68704ACE
:1034C000DA62FB681B681A68FB681B6842F480724A
:1034D0001A60FB6900933B6800224FF00111F86805
:1034E00000F052F90346002B0DD0FB681B681B68E7
:1034F00003F48073B3F5807F03D1FB684FF400724F
:103500001A640323B6E07B89DBB21A46FB681B68AA
:1035100002F0FE021A61FEF7E3FFF861FB681B6828
:103520005B6903F00203022B0CBF01230023DBB213
:10353000FB75FB681B685B6903F48063B3F5806F00
:103540000CBF01230023DBB2BB7525E0FEF7C8FFEB
:103550000246FB69D31A3A689A4202D33B68002BB1
:1035600003D1FB68A02283F83D20FB681B685B69E0
:1035700003F00203022B0CBF01230023DBB2FB7517
:10358000FB681B685B6903F48063B3F5806F0CBF55
:1035900001230023DBB2BB75FB6893F83D30DBB23F
:1035A000A02B05D0FB7D002B02D1BB7D002BCDD005
:1035B000FB68202283F83D20FB681B685B6903F0F1
:1035C0000203022B29D1FB681B681A68FB681B6881
:1035D00042F400721A6000233B61FB681B685B6960
:1035E0003B61FB681B689B693B613B69FB6900931E
:1035F000192301222149F86800F0C6F80346002B80
:1036000001D0012336E0FB68202283F83D20FB68CF
:10361000002283F83C2000232CE0FB681B681A681A
:10362000FB681B6842F400721A60FB681B686FF449
:1036300080625A61FB690093192301220F49F868DF
:1036400000F0A2F80346002B01D0012312E0BB6971
:103650000133BB61BA697B689A42FFF432AFFB6801
:10366000202283F83D20FB68002283F83C200123C0
:1036700000E0022318462037BD4680BD020010003E
:103680000000FFFF80B588B002AFF8607A603B6051
:103690000B467B81FB68DB6A7B617B69082B06D06C
:1036A0007B69012B03D07B6913F5803F08D1FB6850
:1036B0001B681A68FB681B6842F480721A600BE092
:1036C000FB681B6B122B07D1FB681B681A68FB6831
:1036D0001B6842F480721A603B6800937B6800228A
:1036E0004FF00111F86800F04FF80346002B0DD0A1
:1036F000FB681B681B6803F48073B3F5807F03D1FC
:10370000FB684FF400721A64032335E0FB681B6901
:10371000B3F5804F08D17B89DBB21A46FB681B6882
:1037200002F0FE021A611BE07B89DB11DBB203F0C1
:103730000603DBB263F00F03DAB2FB681B681A61A1
:103740003B687A680E49F86800F098F80346002B49
:1037500001D0012310E07B89DAB2FB681B681A6193
:103760003B687A680749F86800F088F80346002B40
:1037700001D0012300E0002318461837BD4680BD64
:10378000080001000200010080B584B000AFF860BD
:10379000B9603B601346FB7148E03B68B3F1FF3F03
:1037A00044D0FEF79DFE0246BB69D31A3A689A429E
:1037B00002D33B68002B39D1BB681B0CDBB2012B59
:1037C0000DD1FB681B685B69DA43BB6813409BB291
:1037D000002B0CBF01230023DBB21A460CE0FB6870
:1037E0001B689B69DA43BB6813409BB2002B0CBF7C
:1037F00001230023DBB21A46FB799A4216D1FB68FB
:1038000000221A63FB68202283F83D20FB68002217
:1038100083F83E20FB681B6C43F02002FB681A64AF
:10382000FB68002283F83C20012323E0BB681B0CCB
:10383000DBB2012B0DD1FB681B685B69DA43BB6807
:1038400013409BB2002B0CBF01230023DBB21A46AE
:103850000CE0FB681B689B69DA43BB6813409BB2B2
:10386000002B0CBF01230023DBB21A46FB799A42DE
:1038700093D0002318461037BD4680BD80B584B074
:1038800000AFF860B9607A603B6071E0FB681B686C
:103890005B6903F48063B3F5806F23D1FB681B6819
:1038A0001A68FB681B6842F400721A60FB681B68A8
:1038B0006FF480625A61FB6800221A63FB68202261
:1038C00083F83D20FB68002283F83E20FB681B6CD8
:1038D00043F00402FB681A64FB68002283F83C2072
:1038E000012367E07B68B3F1FF3F41D0FEF7F8FDAD
:1038F00002463B68D31A7A689A4202D37B68002B4F
:1039000036D1BB681B0CDBB2012B0CD1FB681B68EA
:103910005B69DA43BB6813409BB2002B14BF0123E1
:103920000023DBB20BE0FB681B689B69DA43BB68D2
:1039300013409BB2002B14BF01230023DBB2002BEA
:1039400016D0FB6800221A63FB68202283F83D2012
:10395000FB68002283F83E20FB681B6C43F02002CA
:10396000FB681A64FB68002283F83C20012321E0F5
:10397000BB681B0CDBB2012B0CD1FB681B685B69BD
:10398000DA43BB6813409BB2002B14BF0123002312
:10399000DBB20BE0FB681B689B69DA43BB68134032
:1039A0009BB2002B14BF01230023DBB2002B7FF45A
:1039B0006DAF002318461037BD4680BD80B584B07A
:1039C00000AFF860B9607A6034E0F86800F086F81B
:1039D0000346002B01D0012334E0BB68B3F1FF3F65
:1039E00028D0FEF77DFD02467B68D31ABA689A425A
:1039F00002D3BB68002B1DD1FB681B685B6903F019
:103A00008003802B16D0FB6800221A63FB682022FB
:103A100083F83D20FB68002283F83E20FB681B6C86
:103A200043F02002FB681A64FB68002283F83C2004
:103A3000012307E0FB681B685B6903F08003802BB0
:103A4000C3D1002318461037BD4680BD80B584B071
:103A500000AFF860B9607A6034E0F86800F03EF8D2
:103A60000346002B01D0012334E0BB68B3F1FF3FD4
:103A700028D0FEF735FD02467B68D31ABA689A4211
:103A800002D3BB68002B1DD1FB681B685B6903F088
:103A90000403042B16D0FB6800221A63FB68202263
:103AA00083F83D20FB68002283F83E20FB681B6CF6
:103AB00043F02002FB681A64FB68002283F83C2074
:103AC000012307E0FB681B685B6903F00403042B18
:103AD000C3D1002318461037BD4680BD80B483B0E3
:103AE00000AF78607B681B685B6903F48063B3F5A3
:103AF000806F1BD17B681B686FF480625A617B68A2
:103B000000221A637B68202283F83D207B68002214
:103B100083F83E207B681B6C43F004027B681A64C8
:103B20007B68002283F83C20012300E00023184634
:103B30000C37BD4680BC704780B586B000AF78605A
:103B40007B68002B01D1012372E27B681B6803F0C4
:103B50000103002B00F08780924B5B6803F00C039D
:103B6000042B0CD08F4B5B6803F00C03082B12D195
:103B70008C4B5B6803F48033B3F5803F0BD1894BEA
:103B80001B6803F40033002B6CD07B685B68002B50
:103B900068D101234CE27B685B68B3F5803F06D1B6
:103BA000804B1B687F4A43F4803313602EE07B68B0
:103BB0005B68002B0CD17B4B1B687A4A23F4803363
:103BC0001360784B1B68774A23F4802313601DE051
:103BD0007B685B68B3F5A02F0CD1724B1B68714AF0
:103BE00043F4802313606F4B1B686E4A43F48033A9
:103BF00013600BE06B4B1B686A4A23F4803313603D
:103C0000684B1B68674A23F4802313607B685B68FA
:103C1000002B13D0FEF764FC386108E0FEF760FC6F
:103C200002463B69D31A642B01D9032300E25D4BA2
:103C30001B6803F40033002BF0D014E0FEF750FCB7
:103C4000386108E0FEF74CFC02463B69D31A642B4E
:103C500001D90323ECE1534B1B6803F40033002B21
:103C6000F0D100E000BF7B681B6803F00203002B6B
:103C700063D04C4B5B6803F00C03002B0BD0494B1B
:103C80005B6803F00C03082B1CD1464B5B6803F404
:103C90008033002B16D1434B1B6803F00203002B2B
:103CA00005D07B681B69012B01D00123C0E13D4B8E
:103CB0001B6823F0F8027B685B69DB00394913431A
:103CC0000B603AE07B681B69002B20D0364B012249
:103CD0001A60FEF705FC386108E0FEF701FC0246B9
:103CE0003B69D31A022B01D90323A1E12D4B1B6899
:103CF00003F00203002BF0D02A4B1B6823F0F802DC
:103D00007B685B69DB00274913430B6015E0264B9A
:103D100000221A60FEF7E4FB386108E0FEF7E0FBE2
:103D200002463B69D31A022B01D9032380E11D4BC4
:103D30001B6803F00203002BF0D17B681B6803F0C3
:103D40000803002B3AD07B689B69002B19D0174BD6
:103D500001221A60FEF7C4FB386108E0FEF7C0FBE1
:103D600002463B69D31A022B01D9032360E10D4BB4
:103D70005B6A03F00203002BF0D0012000F0CEFAC2
:103D80001CE00A4B00221A60FEF7AAFB38610FE024
:103D9000FEF7A6FB02463B69D31A022B08D9032380
:103DA00046E100BF0010024000004242800442424F
:103DB000924B5B6A03F00203002BE9D17B681B681E
:103DC00003F00403002B00F0A6800023FB758B4B4F
:103DD000DB6903F08053002B0DD1884BDB69874AE8
:103DE00043F08053D361854BDB6903F08053BB60A4
:103DF000BB680123FB75824B1B6803F48073002BA7
:103E000018D17F4B1B687E4A43F480731360FEF722
:103E100067FB386108E0FEF763FB02463B69D31A93
:103E2000642B01D9032303E1754B1B6803F48073F2
:103E3000002BF0D07B68DB68012B06D16F4B1B6A2F
:103E40006E4A43F0010313622DE07B68DB68002BB0
:103E50000CD16A4B1B6A694A23F001031362674B5A
:103E60001B6A664A23F0040313621CE07B68DB686C
:103E7000052B0CD1614B1B6A604A43F004031362AB
:103E80005E4B1B6A5D4A43F0010313620BE05B4B20
:103E90001B6A5A4A23F001031362584B1B6A574AA4
:103EA00023F0040313627B68DB68002B15D0FEF758
:103EB00017FB38610AE0FEF713FB02463B69D31A91
:103EC00041F28832934201D90323B1E04B4B1B6A84
:103ED00003F00203002BEED014E0FEF701FB386183
:103EE0000AE0FEF7FDFA02463B69D31A41F2883236
:103EF000934201D903239BE0404B1B6A03F002036A
:103F0000002BEED1FB7D012B05D13C4BDB693B4AFD
:103F100023F08053D3617B68DB69002B00F087803E
:103F2000364B5B6803F00C03082B61D07B68DB69C0
:103F3000022B46D1334B00221A60FEF7D1FA3861CA
:103F400008E0FEF7CDFA02463B69D31A022B01D9ED
:103F500003236DE0294B1B6803F00073002BF0D1A5
:103F60007B681B6AB3F5803F08D1244B5B6823F460
:103F700000327B689B68214913434B601F4B5B6891
:103F800023F474127B68196A7B685B6A0B431B49D4
:103F900013434B601B4B01221A60FEF7A1FA3861F4
:103FA00008E0FEF79DFA02463B69D31A022B01D9BD
:103FB00003233DE0114B1B6803F00073002BF0D08E
:103FC00035E0104B00221A60FEF78AFA386108E0EB
:103FD000FEF786FA02463B69D31A022B01D9032366
:103FE00026E0064B1B6803F00073002BF0D11EE0A7
:103FF0007B68DB69012B07D1012319E00010024027
:1040000000700040600042420B4B5B68FB60FB6845
:1040100003F480327B681B6A9A4206D1FB6803F482
:1040200070127B685B6A9A4201D0012300E0002392
:1040300018461837BD4680BD0010024080B584B0D8
:1040400000AF786039607B68002B01D10123D0E09C
:104050006A4B1B6803F007033A689A4210D9674B12
:104060001B6823F0070265493B6813430B60634BF1
:104070001B6803F007033A689A4201D00123B8E0B5
:104080007B681B6803F00203002B20D07B681B6851
:1040900003F00403002B05D0594B5B68584A43F4E6
:1040A000E06353607B681B6803F00803002B05D0B6
:1040B000534B5B68524A43F460535360504B5B6808
:1040C00023F0F0027B689B684D4913434B607B688B
:1040D0001B6803F00103002B40D07B685B68012B59
:1040E00007D1474B1B6803F40033002B15D1012384
:1040F0007FE07B685B68022B07D1414B1B6803F0B4
:104100000073002B09D1012373E03D4B1B6803F0C2
:104110000203002B01D101236BE0394B5B6823F0D4
:1041200003027B685B68364913434B60FEF7D8F99E
:10413000F8600AE0FEF7D4F90246FB68D31A41F2B0
:104140008832934201D9032353E02D4B5B6803F07F
:104150000C027B685B689B009A42EBD1274B1B6883
:1041600003F007033A689A4210D2244B1B6823F0ED
:10417000070222493B6813430B60204B1B6803F086
:1041800007033A689A4201D0012332E07B681B683A
:1041900003F00403002B08D0194B5B6823F4E062A2
:1041A0007B68DB68164913434B607B681B6803F030
:1041B0000803002B09D0124B5B6823F460527B6824
:1041C0001B69DB000E4913434B6000F021F80246E7
:1041D0000B4B5B681B0903F00F030A49CB5C22FA07
:1041E00003F3094A1360094B1B681846FEF736F9BA
:1041F000002318461037BD4680BD00BF0020024096
:104200000010024018C200080C000020100000201E
:1042100080B487B000AF0023FB600023BB600023A5
:104220007B6100237B6000233B611E4B5B68FB606E
:10423000FB6803F00C03042B02D0082B03D027E00B
:10424000194B3B6127E0FB689B0C03F00F03174AF7
:10425000D35C7B60FB6803F48033002B10D0114BE0
:104260005B685B0C03F00103114AD35CBB607B68A5
:104270000D4A03FB02F2BB68B2FBF3F37B6104E07F
:104280007B680C4A02FB03F37B617B693B6102E0C4
:10429000054B3B6100BF3B6918461C37BD4680BCDF
:1042A000704700BF0010024000127A0030C20008C0
:1042B00040C2000800093D0080B400AF024B1B68FB
:1042C0001846BD4680BC70470C00002080B500AF8A
:1042D000FFF7F2FF0246054B5B681B0A03F007037A
:1042E0000349CB5C22FA03F3184680BD001002405C
:1042F00028C2000880B500AFFFF7DEFF0246054B7D
:104300005B68DB0A03F007030349CB5C22FA03F383
:10431000184680BD0010024028C2000880B485B055
:1043200000AF78600A4B1B680A4AA2FB03235B0AB2
:104330007A6802FB03F3FB6000BFFB685A1EFA6059
:10434000002BF9D100BF00BF1437BD4680BC7047B9
:104350000C000020D34D621080B582B000AF7860B1
:104360007B68002B01D1012341E07B6893F83D304D
:10437000DBB2002B06D17B68002283F83C207868F2
:10438000FDF71AFE7B68022283F83D207B681A68DD
:104390007B6804331946104600F05AFD7B68012201
:1043A00083F846207B68012283F83E207B68012247
:1043B00083F83F207B68012283F840207B6801223C
:1043C00083F841207B68012283F842207B68012228
:1043D00083F843207B68012283F844207B68012214
:1043E00083F845207B68012283F83D20002318468E
:1043F0000837BD4680BD80B582B000AF78607B686D
:10440000002B01D1012341E07B6893F83D30DBB202
:10441000002B06D17B68002283F83C20786800F0EE
:1044200039F87B68022283F83D207B681A687B6834
:1044300004331946104600F00BFD7B68012283F817
:1044400046207B68012283F83E207B68012283F8A6
:104450003F207B68012283F840207B68012283F89B
:1044600041207B68012283F842207B68012283F887
:1044700043207B68012283F844207B68012283F873
:1044800045207B68012283F83D2000231846083729
:10449000BD4680BD80B483B000AF786000BF0C37EC
:1044A000BD4680BC7047000080B586B000AFF860A4
:1044B000B9607A607B800023FB75BB68002B09D153
:1044C000FB6893F83E30DBB2022B0CBF01230023C4
:1044D000DBB222E0BB68042B09D1FB6893F83F30C4
:1044E000DBB2022B0CBF01230023DBB215E0BB685B
:1044F000082B09D1FB6893F84030DBB2022B0CBFCC
:1045000001230023DBB208E0FB6893F84130DBB203
:10451000022B0CBF01230023DBB2002B01D00223AE
:1045200053E1BB68002B09D1FB6893F83E30DBB246
:10453000012B0CBF01230023DBB222E0BB68042B5C
:1045400009D1FB6893F83F30DBB2012B0CBF01238C
:104550000023DBB215E0BB68082B09D1FB6893F898
:104560004030DBB2012B0CBF01230023DBB208E09B
:10457000FB6893F84130DBB2012B0CBF0123002311
:10458000DBB2002B24D07B68002B02D07B88002B71
:1045900001D1012319E1BB68002B04D1FB68022281
:1045A00083F83E2016E0BB68042B04D1FB6802228E
:1045B00083F83F200EE0BB68082B04D1FB68022281
:1045C00083F8402006E0FB68022283F8412001E0E6
:1045D0000123FAE0BB680C2B00F2AE8001A252F876
:1045E00023F000BF19460008394700083947000882
:1045F0003947000861460008394700083947000874
:1046000039470008A946000839470008394700081B
:1046100039470008F1460008FB685B6A6D4A9A62F8
:10462000FB685B6A6C4ADA62FB685B6A6B4A1A6316
:10463000FB68586A7968FB681B6834331A467B88C4
:10464000FEF7E4F80346002B01D00123BDE0FB6830
:104650001B68DA68FB681B6842F40072DA606EE07F
:10466000FB689B6A5B4A9A62FB689B6A5A4ADA62F9
:10467000FB689B6A594A1A63FB68986A7968FB6809
:104680001B6838331A467B88FEF7C0F80346002BB8
:1046900001D0012399E0FB681B68DA68FB681B689E
:1046A00042F48062DA604AE0FB68DB6A494A9A6257
:1046B000FB68DB6A484ADA62FB68DB6A474A1A63CE
:1046C000FB68D86A7968FB681B683C331A467B88AC
:1046D000FEF79CF80346002B01D0012375E0FB6830
:1046E0001B68DA68FB681B6842F40062DA6026E047
:1046F000FB681B6B374A9A62FB681B6B364ADA62AF
:10470000FB681B6B354A1A63FB68186B7968FB689A
:104710001B6840331A467B88FEF778F80346002B67
:1047200001D0012351E0FB681B68DA68FB681B6855
:1047300042F48052DA6002E00123FB7500BFFB7D8A
:10474000002B41D1FB681B680122B968184600F0B4
:104750000BFEFB681B68224A934207D1FB681B686B
:104760005A6CFB681B6842F400425A64FB681B6881
:104770001B4A93420ED0FB681B68B3F1804F09D0EF
:10478000FB681B68174A934204D0FB681B68164AF3
:10479000934211D1FB681B689B6803F007033B61E0
:1047A0003B69062B10D0FB681B681A68FB681B6806
:1047B00042F001021A6007E0FB681B681A68FB6898
:1047C0001B6842F001021A60FB7D18461837BD468F
:1047D00080BD00BF414D0008E94D0008AF4C000806
:1047E000002C0140000400400008004080B584B067
:1047F00000AF786039600023FB733B680C2B55D801
:1048000001A252F823F000BF3D480008AD4800085F
:10481000AD480008AD48000859480008AD480008F8
:10482000AD480008AD48000875480008AD480008CC
:10483000AD480008AD480008914800087B681B6837
:10484000DA687B681B6822F40072DA607B685B6A56
:104850001846FEF777F82CE07B681B68DA687B68FF
:104860001B6822F48062DA607B689B6A1846FEF758
:1048700069F81EE07B681B68DA687B681B6822F4B5
:104880000062DA607B68DB6A1846FEF75BF810E0CE
:104890007B681B68DA687B681B6822F48052DA60E8
:1048A0007B681B6B1846FEF74DF802E00123FB7393
:1048B00000BFFB7B002B57D17B681B680022396847
:1048C000184600F051FD7B681B682A4A934217D1B5
:1048D0007B681B681A6A41F211131340002B0FD139
:1048E0007B681B681A6A40F244431340002B07D1CF
:1048F0007B681B685A6C7B681B6822F400425A6410
:104900007B681B681A6A41F211131340002B0FD108
:104910007B681B681A6A40F244431340002B07D19E
:104920007B681B681A687B681B6822F001021A60AA
:104930003B68002B04D17B68012283F83E2013E002
:104940003B68042B04D17B68012283F83F200BE0F5
:104950003B68082B04D17B68012283F8402003E0E8
:104960007B68012283F84120FB7B18461037BD4647
:1049700080BD00BF002C014080B586B000AFF8605C
:10498000B9607A600023FB75FB6893F83C30012B1B
:1049900001D10223AEE0FB68012283F83C207B6852
:1049A0000C2B00F29F8001A252F823F0E14900088D
:1049B000E54A0008E54A0008E54A0008214A0008DF
:1049C000E54A0008E54A0008E54A0008634A00088D
:1049D000E54A0008E54A0008E54A0008A34A00083D
:1049E000FB681B68B968184600F0A0FAFB681B68F2
:1049F0009A69FB681B6842F008029A61FB681B68B1
:104A00009A69FB681B6822F004029A61FB681B68C4
:104A10009969BB681A69FB681B680A439A6164E07C
:104A2000FB681B68B968184600F0E6FAFB681B686B
:104A30009A69FB681B6842F400629A61FB681B6814
:104A40009A69FB681B6822F480629A61FB681B68A4
:104A50009969BB681B691A02FB681B680A439A6163
:104A600043E0FB681B68B968184600F02FFBFB6841
:104A70001B68DA69FB681B6842F00802DA61FB68B0
:104A80001B68DA69FB681B6822F00402DA61FB68C4
:104A90001B68D969BB681A69FB681B680A43DA613D
:104AA00023E0FB681B68B968184600F079FBFB68D7
:104AB0001B68DA69FB681B6842F40062DA61FB6814
:104AC0001B68DA69FB681B6822F48062DA61FB68A4
:104AD0001B68D969BB681B691A02FB681B680A431B
:104AE000DA6102E00123FB7500BFFB68002283F856
:104AF0003C20FB7D18461837BD4680BD80B584B08C
:104B000000AF786039600023FB737B6893F83C301A
:104B1000012B01D10223B4E07B68012283F83C2001
:104B20007B68022283F83D207B681B689B68BB6022
:104B3000BB6823F07703BB60BB6823F47F43BB6093
:104B40007B681B68BA689A603B681B68B3F5005FB6
:104B50003ED0B3F5005F00F28780B3F5805F00F0D0
:104B60008680B3F5805F7FD8702B1AD0702B7BD8EE
:104B7000602B50D0602B77D8502B3CD0502B73D863
:104B8000402B58D0402B6FD8302B64D0302B6BD8B3
:104B9000202B60D0202B67D8002B5CD0102B5AD054
:104BA00062E07B6818683B6899683B685A683B68B4
:104BB000DB6800F0BAFB7B681B689B68BB60BB6866
:104BC00043F07703BB607B681B68BA689A604FE06C
:104BD0007B6818683B6899683B685A683B68DB6883
:104BE00000F0A3FB7B681B689A687B681B6842F433
:104BF00080429A603CE07B6818683B6859683B6873
:104C0000DB681A4600F01AFB7B681B6850211846C7
:104C100000F071FB2CE07B6818683B6859683B68C2
:104C2000DB681A4600F038FB7B681B686021184679
:104C300000F061FB1CE07B6818683B6859683B68C2
:104C4000DB681A4600F0FAFA7B681B6840211846B8
:104C500000F051FB0CE07B681A683B681B68194642
:104C6000104600F048FB03E00123FB7300E000BFA7
:104C70007B68012283F83D207B68002283F83C207A
:104C8000FB7B18461037BD4680BD80B483B000AFB3
:104C9000786000BF0C37BD4680BC704780B483B0DD
:104CA00000AF786000BF0C37BD4680BC704780B550
:104CB00084B000AF78607B685B6AFB60FB685B6A0E
:104CC0007A689A4207D1FB6801221A77FB680122B1
:104CD00083F83E202AE0FB689B6A7A689A4207D1F3
:104CE000FB6802221A77FB68012283F83F201DE04F
:104CF000FB68DB6A7A689A4207D1FB6804221A775C
:104D0000FB68012283F8402010E0FB681B6B7A6887
:104D10009A4207D1FB6808221A77FB68012283F8C0
:104D2000412003E0FB68012283F83D20F868FFF78B
:104D3000B5FFFB6800221A7700BF1037BD4680BD63
:104D400080B584B000AF78607B685B6AFB60FB680D
:104D50005B6A7A689A420BD1FB6801221A777B68FA
:104D60009B69002B36D1FB68012283F83E2031E09D
:104D7000FB689B6A7A689A420BD1FB6802221A7719
:104D80007B689B69002B25D1FB68012283F83F20BB
:104D900020E0FB68DB6A7A689A420BD1FB68042248
:104DA0001A777B689B69002B14D1FB68012283F87A
:104DB00040200FE0FB681B6B7A689A420AD1FB68BF
:104DC00008221A777B689B69002B03D1FB680122BC
:104DD00083F84120F868FBF7FDFEFB6800221A7794
:104DE00000BF1037BD4680BD80B584B000AF78608D
:104DF0007B685B6AFB60FB685B6A7A689A4203D1F6
:104E0000FB6801221A7719E0FB689B6A7A689A426C
:104E100003D1FB6802221A7710E0FB68DB6A7A682C
:104E20009A4203D1FB6804221A7707E0FB681B6BE8
:104E30007A689A4202D1FB6808221A77F868FFF76D
:104E400024FFFB6800221A7700BF1037BD4680BDE3
:104E500080B485B000AF786039607B681B68FB6008
:104E60007B682F4A93420BD07B68B3F1804F07D009
:104E70007B682C4A934203D07B682B4A934208D12B
:104E8000FB6823F07003FB603B685B68FA681343C0
:104E9000FB607B68224A93420BD07B68B3F1804F62
:104EA00007D07B681F4A934203D07B681E4A934217
:104EB00008D1FB6823F44073FB603B68DB68FA6849
:104EC0001343FB60FB6823F080023B685B6913437C
:104ED000FB607B68FA681A603B689A687B68DA62F4
:104EE0003B681A687B689A627B680D4A934203D1DB
:104EF0003B681A697B681A637B6801225A617B6888
:104F00001B6903F00103002B05D07B681B6923F0AC
:104F100001027B681A6100BF1437BD4680BC704730
:104F2000002C0140000400400008004080B487B01D
:104F300000AF786039607B681B6A7B617B681B6AA5
:104F400023F001027B681A627B685B683B617B68C7
:104F50009B69FB60FB6823F07003FB60FB6823F038
:104F60000303FB603B681B68FA681343FB607B69C3
:104F700023F002037B613B689B687A6913437B6182
:104F80007B681C4A93420CD17B6923F008037B6148
:104F90003B68DB687A6913437B617B6923F0040318
:104FA0007B617B68134A934211D13B6923F4807380
:104FB0003B613B6923F400733B613B685B693A6981
:104FC00013433B613B689B693A6913433B617B68D0
:104FD0003A695A607B68FA689A613B685A687B68EC
:104FE0005A637B687A691A6200BF1C37BD4680BC71
:104FF000704700BF002C014080B487B000AF7860DC
:1050000039607B681B6A7B617B681B6A23F0100236
:105010007B681A627B685B683B617B689B69FB60AD
:10502000FB6823F4E043FB60FB6823F44073FB6000
:105030003B681B681B02FA681343FB607B6923F023
:1050400020037B613B689B681B017A6913437B618A
:105050007B681D4A93420DD17B6923F080037B61FD
:105060003B68DB681B017A6913437B617B6923F032
:1050700040037B617B68144A934213D13B6923F45C
:1050800080633B613B6923F400633B613B685B6980
:105090009B003A6913433B613B689B699B003A69FB
:1050A00013433B617B683A695A607B68FA689A618E
:1050B0003B685A687B689A637B687A691A6200BFAA
:1050C0001C37BD4680BC7047002C014080B487B0BF
:1050D00000AF786039607B681B6A7B617B681B6A04
:1050E00023F480727B681A627B685B683B617B6833
:1050F000DB69FB60FB6823F07003FB60FB6823F057
:105100000303FB603B681B68FA681343FB607B6921
:1051100023F400737B613B689B681B027A6913432D
:105120007B617B681D4A93420DD17B6923F4006348
:105130007B613B68DB681B027A6913437B617B6997
:1051400023F480637B617B68144A934213D13B69EB
:1051500023F480533B613B6923F400533B613B687C
:105160005B691B013A6913433B613B689B691B0107
:105170003A6913433B617B683A695A607B68FA6815
:10518000DA613B685A687B68DA637B687A691A621D
:1051900000BF1C37BD4680BC704700BF002C0140DB
:1051A00080B487B000AF786039607B681B6A3B6170
:1051B0007B681B6A23F480527B681A627B685B6899
:1051C0007B617B68DB69FB60FB6823F4E043FB6089
:1051D000FB6823F44073FB603B681B681B02FA68A2
:1051E0001343FB603B6923F400533B613B689B68BE
:1051F0001B033A6913433B617B680F4A934209D111
:105200007B6923F480437B613B685B699B017A691E
:1052100013437B617B687A695A607B68FA68DA615C
:105220003B685A687B681A647B683A691A6200BFF7
:105230001C37BD4680BC7047002C014080B487B04D
:1052400000AFF860B9607A60FB681B6A7B61FB683D
:105250001B6A23F00102FB681A62FB689B693B61D1
:105260003B6923F0F0033B617B681B013A69134300
:105270003B617B6923F00A037B617A69BB68134356
:105280007B61FB683A699A61FB687A691A6200BFC0
:105290001C37BD4680BC704780B487B000AFF86053
:1052A000B9607A60FB681B6A7B61FB681B6A23F04C
:1052B0001002FB681A62FB689B693B613B6923F43F
:1052C00070433B617B681B033A6913433B617B6915
:1052D00023F0A0037B61BB681B017A6913437B61E8
:1052E000FB683A699A61FB687A691A6200BF1C37E9
:1052F000BD4680BC704780B485B000AF786039602F
:105300007B689B68FB60FB6823F07003FB603A6876
:10531000FB68134343F00703FB607B68FA689A60FD
:1053200000BF1437BD4680BC704780B487B000AF63
:10533000F860B9607A603B60FB689B687B617B6961
:1053400023F47F437B613B681A027B681A43BB6886
:1053500013437A6913437B61FB687A699A6000BFE3
:105360001C37BD4680BC704780B487B000AFF86082
:10537000B9607A60BB6803F01F03012202FA03F3ED
:105380007B61FB681A6A7B69DB431A40FB681A621F
:10539000FB681A6ABB6803F01F03796801FA03F31C
:1053A0001A43FB681A6200BF1C37BD4680BC7047B9
:1053B00080B485B000AF786039607B6893F83C308A
:1053C000012B01D1022346E07B68012283F83C20B7
:1053D0007B68022283F83D207B681B685B68FB606A
:1053E0007B681B689B68BB60FB6823F07003FB60F5
:1053F0003B681B68FA681343FB607B681B68FA68AC
:105400005A607B681B68164A93420ED07B681B6803
:10541000B3F1804F09D07B681B68124A934204D0D5
:105420007B681B68104A93420CD1BB6823F0800351
:10543000BB603B685B68BA681343BB607B681B68F2
:10544000BA689A607B68012283F83D207B6800225D
:1054500083F83C20002318461437BD4680BC7047B3
:10546000002C0140000400400008004080B582B0DC
:1054700000AF78607B68002B01D1012342E07B689C
:1054800093F84130DBB2002B06D17B68002283F811
:1054900040207868FCF712FE7B68242283F84120C4
:1054A0007B681B68DA687B681B6822F40052DA604C
:1054B000786800F0F9FD7B681B681A697B681B68D7
:1054C00022F490421A617B681B685A697B681B68EA
:1054D00022F02A025A617B681B68DA687B681B68C5
:1054E00042F40052DA607B6800225A647B68202212
:1054F00083F841207B68202283F842207B680022C9
:105500005A63002318460837BD4680BD80B58AB06F
:1055100002AFF860B9603B601346FB8000237B61FB
:10552000FB6893F84130DBB2202B75D1BB68002BB0
:1055300002D0FB88002B01D101236EE0FB68002222
:105540005A64FB68212283F84120FCF7C9FF786187
:10555000FB68FA889A84FB68FA88DA84FB689B689F
:10556000B3F5805F08D1FB681B69002B04D10023D1
:10557000FB61BB68BB6103E0BB68FB610023BB61EF
:105580002EE03B6800937B6900228021F86800F0E0
:1055900097FB0346002B05D0FB68202283F84120AF
:1055A00003233AE0FB69002B0BD1BB691B881A4629
:1055B000FB681B68C2F308025A60BB690233BB6117
:1055C00007E0FB691A78FB681B685A60FB690133C6
:1055D000FB61FB68DB8C9BB2013B9AB2FB68DA840F
:1055E000FB68DB8C9BB2002BCBD13B6800937B69C3
:1055F00000224021F86800F063FB0346002B05D031
:10560000FB68202283F84120032306E0FB68202268
:1056100083F84120002300E0022318462037BD46CE
:1056200080BD80B58AB002AFF860B9603B601346B8
:10563000FB8000237B61FB6893F84230DBB2202BB8
:1056400040F08180BB68002B02D0FB88002B01D189
:10565000012379E0FB6800225A64FB68222283F868
:105660004220FB6800221A63FCF73AFF7861FB686E
:10567000FA889A85FB68FA88DA85FB689B68B3F537
:10568000805F08D1FB681B69002B04D10023FB61FC
:10569000BB68BB6103E0BB68FB610023BB6147E003
:1056A0003B6800937B6900222021F86800F008FB2A
:1056B0000346002B05D0FB68202283F842200323F9
:1056C00042E0FB69002B0CD1FB681B685B689BB256
:1056D000C3F308039AB2BB691A80BB690233BB618A
:1056E0001FE0FB689B68B3F5805F07D0FB689B6891
:1056F000002B0AD1FB681B69002B06D1FB681B68D5
:105700005B68DAB2FB691A7008E0FB681B685B68CB
:10571000DBB203F07F03DAB2FB691A70FB69013375
:10572000FB61FB68DB8D9BB2013B9AB2FB68DA85BB
:10573000FB68DB8D9BB2002BB2D1FB68202283F883
:105740004220002300E0022318462037BD4680BDDA
:1057500080B5BAB000AF78607B681B681B68C7F87B
:10576000E4307B681B68DB68C7F8E0307B681B6847
:105770005B69C7F8DC300023C7F8D8300023C7F8CE
:10578000D430D7F8E43003F00F03C7F8D830D7F897
:10579000D830002B0FD1D7F8E43003F02003002BD2
:1057A00009D0D7F8E03003F02003002B03D078684D
:1057B00000F0BCFB5BE2D7F8D830002B00F0DE80B5
:1057C000D7F8DC3003F00103002B06D1D7F8E03026
:1057D00003F49073002B00F0D180D7F8E43003F08D
:1057E0000103002B0BD0D7F8E03003F48073002BBB
:1057F00005D07B685B6C43F001027B685A64D7F884
:10580000E43003F00403002B0BD0D7F8DC3003F0B6
:105810000103002B05D07B685B6C43F002027B68C0
:105820005A64D7F8E43003F00203002B0BD0D7F80A
:10583000DC3003F00103002B05D07B685B6C43F088
:1058400004027B685A64D7F8E43003F00803002BA5
:1058500011D0D7F8E03003F02003002B05D1D7F8A2
:10586000DC3003F00103002B05D07B685B6C43F058
:1058700008027B685A647B685B6C002B00F0F28145
:10588000D7F8E43003F02003002B08D0D7F8E0303D
:1058900003F02003002B02D0786800F047FB7B6800
:1058A0001B685B6903F04003002B14BF0123002336
:1058B000DBB2C7F8D4307B685B6C03F00803002BC5
:1058C00003D1D7F8D430002B4FD0786800F051FACC
:1058D0007B681B685B6903F04003002B41D07B6849
:1058E0001B681433C7F89C30D7F89C3053E8003F4E
:1058F000C7F89830D7F8983023F04003C7F8D03075
:105900007B681B681433D7F8D020C7F8A820C7F8E5
:10591000A430D7F8A410D7F8A82041E80023C7F88E
:10592000A030D7F8A030002BD9D17B68DB6B002BDF
:1059300013D07B68DB6B7E4A5A637B68DB6B18464F
:10594000FDF700F80346002B16D07B68DB6B5B6B22
:105950007A68D26B104698470EE0786800F09CF9A0
:105960000AE0786800F098F906E0786800F094F9A9
:105970007B6800225A6475E100BF73E17B681B6B92
:10598000012B40F04F81D7F8E43003F01003002BD7
:1059900000F04881D7F8E03003F01003002B00F04E
:1059A00041810023BB607B681B681B68BB607B6810
:1059B0001B685B68BB60BB687B681B685B6903F046
:1059C0004003002B00F0B6807B68DB6B1B685B68D4
:1059D000A7F8BE30B7F8BE30002B00F045817B68D9
:1059E0009B8DB7F8BE209A4280F03E817B68B7F865
:1059F000BE20DA857B68DB6B9B69202B00F08880FA
:105A00007B681B680C33C7F88830D7F8883053E8B8
:105A1000003FC7F88430D7F8843023F48073C7F888
:105A2000B8307B681B680C33D7F8B820C7F89420CF
:105A3000C7F89030D7F89010D7F8942041E80023A9
:105A4000C7F88C30D7F88C30002BD9D17B681B6815
:105A500014337B677B6F53E8003F3B673B6F23F05A
:105A60000103C7F8B4307B681B681433D7F8B4203F
:105A7000C7F88020FB67F96FD7F8802041E8002342
:105A8000BB67BB6F002BE1D17B681B6814333B669F
:105A90003B6E53E8003FFB65FB6D23F04003C7F806
:105AA000B0307B681B681433D7F8B020FA66BB6649
:105AB000B96EFA6E41E800237B667B6E002BE3D162
:105AC0007B68202283F842207B6800221A637B686F
:105AD0001B680C33FB64FB6C53E8003FBB64BB6C7E
