:020000040800F2
:100000000050002081050008B1040008B904000870
:10001000C1040008C9040008D10400080000000061
:10002000000000000000000000000000D9040008EB
:10003000E504000800000000F1040008FD040008C9
:10004000C9050008C9050008C9050008C905000858
:10005000C9050008C9050008C9050008C905000848
:10006000C9050008C9050008C9050008C905000838
:10007000C9050008C9050008C9050008C905000828
:10008000C9050008C9050008C9050008C905000818
:10009000C9050008C9050008C9050008C905000808
:1000A000C9050008C9050008C9050008C9050008F8
:1000B000C9050008C9050008C9050008C9050008E8
:1000C000C9050008C9050008C9050008C9050008D8
:1000D000C9050008C9050008C9050008C9050008C8
:1000E000C9050008C9050008C9050008000000008E
:1000F0000000000000000000000000000000000000
:0C01000000000000000000005FF808F1A3
:10010C0010B5054C237833B9044B13B10448AFF345
:10011C0000800123237010BD5C0000200000000053
:10012C00F024000808B5034B1BB103490348AFF397
:10013C00008008BD0000000060000020F0240008D2
:10014C00034613F8012B002AFBD1181A013870470B
:10015C0080B58AB004AF00F033FA00F087F800F0F5
:10016C00EBF800F0BFF8642301223849384801F05D
:10017C00A7F90346002BF6D10221364800F026FDE4
:10018C00322000F07FFA0221324800F01FFD2F4B85
:10019C001B780A2B45D1304B1B881A462F4B00215C
:1001AC0099542D4B00221A8007F1100107F114020B
:1001BC003B1D029307F10803019307F10C03009315
:1001CC000B462749254801F05BFB0346052B24D140
:1001DC007B699BB21A465201D21A92001344DB007F
:1001EC009AB23B699BB213449AB21E4B1A80FB68BD
:1001FC009BB21A465201D21A92001344DB009AB2F7
:10020C00BB689BB213449AB2164B5A807B68154A52
:10021C005360154B01221A70A5E7134B00221A707C
:10022C00A1E70D4B1B883E2B0BD80B4B1B885A1C84
:10023C0091B2094A11801A46044B1978074B99540C
:10024C0091E7054B00221A808DE700BFC00000200B
:10025C00780000200008014004010020C4000020A8
:10026C0008250008080100201001002080B590B07E
:10027C0000AF07F1180328220021184601F02EFBCD
:10028C003B1D00221A605A609A60DA601A610223E0
:10029C00BB610123BB621023FB6200237B6307F16C
:1002AC001803184600F0ACFC0346002B01D000F0FC
:1002BC0075F80F237B600023BB600023FB600023D9
:1002CC003B6100237B613B1D0021184600F01AFFA7
:1002DC000346002B01D000F061F800BF4037BD464B
:1002EC0080BD000080B500AF114B124A1A60104B54
:1002FC004FF416525A600E4B00229A600C4B00229F
:10030C00DA600B4B00221A61094B0C225A61084B24
:10031C0000229A61064B0022DA61054801F080F850
:10032C000346002B01D000F039F800BF80BD00BFA0
:10033C00780000200038014080B586B000AF07F18E
:10034C00080300221A605A609A60DA60114B9B69AC
:10035C00104A43F0040393610E4B9B6903F00403B2
:10036C007B607B68002202210B4800F017FC022303
:10037C00BB600123FB6000233B6102237B6107F11F
:10038C0008031946044800F085FA00BF1837BD462B
:10039C0080BD00BF001002400008014080B400AFD7
:1003AC0072B600BF00BFFDE780B485B000AF154B3F
:1003BC009B69144A43F001039361124B9B6903F050
:1003CC000103BB60BB680F4BDB690E4A43F08053E3
:1003DC00D3610C4BDB6903F080537B607B680A4B69
:1003EC005B68FB60FB6823F0E063FB60FB6843F039
:1003FC000073FB60044AFB68536000BF1437BD46B2
:10040C0080BC7047001002400000014080B588B0ED
:10041C0000AF786007F1100300221A605A609A60EE
:10042C00DA607B681B681C4A934231D11B4B9B6979
:10043C001A4A43F480439361184B9B6903F480433D
:10044C00FB60FB68154B9B69144A43F004039361F2
:10045C00124B9B6903F00403BB60BB684FF4007341
:10046C003B6102237B610323FB6107F110031946F7
:10047C000B4800F00FFA4FF480633B6100237B6163
:10048C000023BB6107F110031946054800F002FA7E
:10049C0000BF2037BD4680BD00380140001002402F
:1004AC000008014080B400AF00BFFDE780B400AF8E
:1004BC0000BFFDE780B400AF00BFFDE780B400AF24
:1004CC0000BFFDE780B400AF00BFFDE780B400AF14
:1004DC0000BFBD4680BC704780B400AF00BFBD46B6
:1004EC0080BC704780B400AF00BFBD4680BC704775
:1004FC0080B500AF00F0AAF800BF80BD80B586B013
:10050C0000AF7860144A154BD31A7B617B693B6151
:10051C00134B1B68002B02D1114B124A1A60104B63
:10052C001A687B6813443A699A4207D201F0DEF9E3
:10053C0003460C221A604FF0FF3309E0084B1B688E
:10054C00FB60074B1A687B681344054A1360FB6811
:10055C0018461837BD4680BD00500020000400002E
:10056C00140100206802002080B400AF00BFBD461B
:10057C0080BC7047FFF7F8FF0B480C490C4A00236E
:10058C0002E0D458C4500433C4188C42F9D3094A3D
:10059C00094C002301E013600432A242FBD301F0AA
:1005AC00ABF9FFF7D5FD7047000000205C00002080
:1005BC00882600085C00002064020020FEE7000092
:1005CC0080B500AF084B1B68074A43F0100313605B
:1005DC00032000F02BF90F2000F008F8FFF7E4FEE1
:1005EC000023184680BD00BF0020024080B582B0B9
:1005FC0000AF7860124B1A68124B1B7819464FF4F7
:10060C007A73B3FBF1F3B2FBF3F3184600F035F950
:10061C000346002B01D001230EE07B680F2B0AD878
:10062C00002279684FF0FF3000F00BF9064A7B6826
:10063C001360002300E0012318460837BD4680BD37
:10064C0000000020080000200400002080B400AF4F
:10065C00054B1B781A46054B1B681344034A136061
:10066C0000BFBD4680BC7047080000201801002068
:10067C0080B400AF024B1B681846BD4680BC704767
:10068C001801002080B584B000AF7860FFF7F0FF50
:10069C00B8607B68FB60FB68B3F1FF3F05D00A4B89
:1006AC001B781A46FB681344FB6000BFFFF7E0FFA2
:1006BC000246BB68D31AFA689A42F7D800BF00BF4B
:1006CC001037BD4680BD00BF0800002080B485B047
:1006DC0000AF78607B6803F00703FB600C4BDB68B2
:1006EC00BB60BA684FF6FF031340BB60FB681A028D
:1006FC00BB68134343F0BF6343F40033BB60044A4D
:10070C00BB68D36000BF1437BD4680BC704700BFC8
:10071C0000ED00E080B400AF044BDB681B0A03F073
:10072C0007031846BD4680BC704700BF00ED00E0D3
:10073C0080B483B000AF03463960FB7197F9073082
:10074C00002B0ADB3B68DAB20C4997F9073012012F
:10075C00D2B20B4483F800230AE03B68DAB20849B2
:10076C00FB7903F00F03043B1201D2B20B441A764F
:10077C0000BF0C37BD4680BC704700BF00E100E0F5
:10078C0000ED00E080B489B000AFF860B9607A6029
:10079C00FB6803F00703FB61FB69C3F10703042B40
:1007AC0028BF0423BB61FB690433062B02D9FB6908
:1007BC00033B00E000237B614FF0FF32BB6902FA80
:1007CC0003F3DA43BB681A407B699A404FF0FF3160
:1007DC007B6901FA03F3D9437B680B40134318463A
:1007EC002437BD4680BC704780B582B000AF7860BE
:1007FC007B68013BB3F1807F01D301230FE00A4AF0
:10080C007B68013B53600F214FF0FF30FFF790FFE7
:10081C00054B00229A60044B07221A6000231846ED
:10082C000837BD4680BD00BF10E000E080B582B047
:10083C0000AF78607868FFF749FF00BF0837BD4606
:10084C0080BD80B586B000AF0346B9607A60FB739B
:10085C0000237B61FFF75EFF78617A68B96878697D
:10086C00FFF790FF024697F90F3011461846FFF735
:10087C005FFF00BF1837BD4680BD80B582B000AFAA
:10088C0078607868FFF7B0FF034618460837BD4616
:10089C0080BD000080B48BB000AF7860396000235D
:1008AC007B6200233B6269E101227B6A02FA03F35B
:1008BC00FB613B681B68FA691340BB61BA69FB6951
:1008CC009A4240F058813B685B689A4A93425ED0EA
:1008DC00984A934275D8984A934258D0964A934274
:1008EC006FD8964A934252D0944A934269D8944A0C
:1008FC0093424CD0924A934263D8924A934246D048
:10090C00904A93425DD8122B2AD8122B59D801A2A7
:10091C0052F823F09B0900087509000887090008A4
:10092C00C9090008CF090008CF090008CF09000841
:10093C00CF090008CF090008CF090008CF0900082B
:10094C00CF090008CF090008CF090008CF0900081B
:10095C00CF090008CF0900087D090008910900089B
:10096C00794A934213D02CE03B68DB683B6229E068
:10097C003B68DB6804333B6224E03B68DB6808338C
:10098C003B621FE03B68DB680C333B621AE03B6860
:10099C009B68002B02D104233B6213E03B689B68ED
:1009AC00012B05D108233B627B68FA691A6109E0C7
:1009BC0008233B627B68FA695A6103E000233B62BF
:1009CC0000E000BFBB69FF2B01D87B6801E07B68AE
:1009DC0004337B61BB69FF2B02D87B6A9B0002E06E
:1009EC007B6A083B9B003B617B691A680F213B6962
:1009FC0001FA03F3DB431A40396A3B6901FA03F34A
:100A0C001A437B691A603B685B6803F08053002BC8
:100A1C0000F0B1804D4B9B694C4A43F0010393614C
:100A2C004A4B9B6903F00103BB60BB68484A7B6A75
:100A3C009B08023352F82330FB607B6A03F00303FC
:100A4C009B000F2202FA03F3DB43FA681340FB60AE
:100A5C007B68404A934213D07B683F4A93420DD047
:100A6C007B683E4A934207D07B683D4A934201D152
:100A7C00032306E0042304E0022302E0012300E048
:100A8C0000237A6A02F0030292009340FA6813433F
:100A9C00FB602F497B6A9B080233FA6841F82320DC
:100AAC003B685B6803F48013002B06D02D4B9A68CF
:100ABC002C49BB6913438B6006E02A4B9A68BB69CF
:100ACC00DB43284913408B603B685B6803F40013DD
:100ADC00002B06D0234BDA682249BB691343CB6049
:100AEC0006E0204BDA68BB69DB431E491340CB6040
:100AFC003B685B6803F40033002B06D0194B5A6833
:100B0C001849BB6913434B6006E0164B5A68BB6926
:100B1C00DB43144913404B603B685B6803F4803340
:100B2C00002B21D00F4B1A680E49BB6913430B6085
:100B3C0021E000BF00003210000031100000221034
:100B4C0000002110000012100000111000100240D3
:100B5C000000014000080140000C01400010014061
:100B6C0000140140000401400B4B1A68BB69DB43C5
:100B7C00094913400B607B6A01337B623B681A683E
:100B8C007B6A22FA03F3002B7FF48EAE00BF00BF0A
:100B9C002C37BD4680BC70470004014080B483B044
:100BAC0000AF78600B467B8013467B707B78002B04
:100BBC0003D07A887B681A6103E07B881A047B680F
:100BCC001A6100BF0C37BD4680BC704780B485B03D
:100BDC0000AF78600B467B807B68DB68FB607A88B3
:100BEC00FB6813401A04FB68D9437B880B401A43FB
:100BFC007B681A6100BF1437BD4680BC704700008B
:100C0C0080B586B000AF78607B68002B01D10123E2
:100C1C0072E27B681B6803F00103002B00F08780F5
:100C2C00924B5B6803F00C03042B0CD08F4B5B686E
:100C3C0003F00C03082B12D18C4B5B6803F480334C
:100C4C00B3F5803F0BD1894B1B6803F40033002BA9
:100C5C006CD07B685B68002B68D101234CE27B680D
:100C6C005B68B3F5803F06D1804B1B687F4A43F429
:100C7C00803313602EE07B685B68002B0CD17B4BC0
:100C8C001B687A4A23F480331360784B1B68774ACD
:100C9C0023F4802313601DE07B685B68B3F5A02F01
:100CAC000CD1724B1B68714A43F4802313606F4B59
:100CBC001B686E4A43F4803313600BE06B4B1B686C
:100CCC006A4A23F480331360684B1B68674A23F429
:100CDC00802313607B685B68002B13D0FFF7C8FC84
:100CEC00386108E0FFF7C4FC02463B69D31A642B59
:100CFC0001D9032300E25D4B1B6803F40033002B86
:100D0C00F0D014E0FFF7B4FC386108E0FFF7B0FC5A
:100D1C0002463B69D31A642B01D90323ECE1534BF4
:100D2C001B6803F40033002BF0D100E000BF7B689C
:100D3C001B6803F00203002B63D04C4B5B6803F081
:100D4C000C03002B0BD0494B5B6803F00C03082BF6
:100D5C001CD1464B5B6803F48033002B16D1434BFC
:100D6C001B6803F00203002B05D07B681B69012B69
:100D7C0001D00123C0E13D4B1B6823F0F8027B68D6
:100D8C005B69DB00394913430B603AE07B681B69F4
:100D9C00002B20D0364B01221A60FFF769FC38611A
:100DAC0008E0FFF765FC02463B69D31A022B01D918
:100DBC000323A1E12D4B1B6803F00203002BF0D0A1
:100DCC002A4B1B6823F0F8027B685B69DB00274920
:100DDC0013430B6015E0264B00221A60FFF748FC0A
:100DEC00386108E0FFF744FC02463B69D31A022B3A
:100DFC0001D9032380E11D4B1B6803F00203002B78
:100E0C00F0D17B681B6803F00803002B3AD07B6899
:100E1C009B69002B19D0174B01221A60FFF728FC95
:100E2C00386108E0FFF724FC02463B69D31A022B19
:100E3C0001D9032360E10D4B5B6A03F00203002B25
:100E4C00F0D0012000F0CEFA1CE00A4B00221A6010
:100E5C00FFF70EFC38610FE0FFF70AFC02463B6916
:100E6C00D31A022B08D9032346E100BF001002401D
:100E7C000000424280044242924B5B6A03F0020340
:100E8C00002BE9D17B681B6803F00403002B00F0F6
:100E9C00A6800023FB758B4BDB6903F08053002B82
:100EAC000DD1884BDB69874A43F08053D361854B66
:100EBC00DB6903F08053BB60BB680123FB75824B7D
:100ECC001B6803F48073002B18D17F4B1B687E4A80
:100EDC0043F480731360FFF7CBFB386108E0FFF736
:100EEC00C7FB02463B69D31A642B01D9032303E1E8
:100EFC00754B1B6803F48073002BF0D07B68DB68A8
:100F0C00012B06D16F4B1B6A6E4A43F0010313622F
:100F1C002DE07B68DB68002B0CD16A4B1B6A694A9D
:100F2C0023F001031362674B1B6A664A23F0040328
:100F3C0013621CE07B68DB68052B0CD1614B1B6AD0
:100F4C00604A43F0040313625E4B1B6A5D4A43F034
:100F5C00010313620BE05B4B1B6A5A4A23F001033B
:100F6C001362584B1B6A574A23F0040313627B68C5
:100F7C00DB68002B15D0FFF77BFB38610AE0FFF72D
:100F8C0077FB02463B69D31A41F28832934201D96E
:100F9C000323B1E04B4B1B6A03F00203002BEED092
:100FAC0014E0FFF765FB38610AE0FFF761FB0246CE
:100FBC003B69D31A41F28832934201D903239BE057
:100FCC00404B1B6A03F00203002BEED1FB7D012B7F
:100FDC0005D13C4BDB693B4A23F08053D3617B68E2
:100FEC00DB69002B00F08780364B5B6803F00C0349
:100FFC00082B61D07B68DB69022B46D1334B002276
:10100C001A60FFF735FB386108E0FFF731FB024649
:10101C003B69D31A022B01D903236DE0294B1B68C2
:10102C0003F00073002BF0D17B681B6AB3F5803F93
:10103C0008D1244B5B6823F400327B689B68214900
:10104C0013434B601F4B5B6823F474127B68196A63
:10105C007B685B6A0B431B4913434B601B4B0122A0
:10106C001A60FFF705FB386108E0FFF701FB024649
:10107C003B69D31A022B01D903233DE0114B1B68AA
:10108C0003F00073002BF0D035E0104B00221A60F7
:10109C00FFF7EEFA386108E0FFF7EAFA02463B691F
:1010AC00D31A022B01D9032326E0064B1B6803F04D
:1010BC000073002BF0D11EE07B68DB69012B07D19C
:1010CC00012319E000100240007000406000424211
:1010DC000B4B5B68FB60FB6803F480327B681B6A1C
:1010EC009A4206D1FB6803F470127B685B6A9A42E1
:1010FC0001D0012300E0002318461837BD4680BDFF
:10110C000010024080B584B000AF786039607B6815
:10111C00002B01D10123D0E06A4B1B6803F00703BD
:10112C003A689A4210D9674B1B6823F0070265494D
:10113C003B6813430B60634B1B6803F007033A686F
:10114C009A4201D00123B8E07B681B6803F00203CC
:10115C00002B20D07B681B6803F00403002B05D008
:10116C00594B5B68584A43F4E06353607B681B68D7
:10117C0003F00803002B05D0534B5B68524A43F431
:10118C0060535360504B5B6823F0F0027B689B68A4
:10119C004D4913434B607B681B6803F00103002B24
:1011AC0040D07B685B68012B07D1474B1B6803F46D
:1011BC000033002B15D101237FE07B685B68022B89
:1011CC0007D1414B1B6803F00073002B09D101239D
:1011DC0073E03D4B1B6803F00203002B01D101238C
:1011EC006BE0394B5B6823F003027B685B68364924
:1011FC0013434B60FFF73CFAF8600AE0FFF738FA4C
:10120C000246FB68D31A41F28832934201D9032378
:10121C0053E02D4B5B6803F00C027B685B689B0012
:10122C009A42EBD1274B1B6803F007033A689A42AA
:10123C0010D2244B1B6823F0070222493B6813434E
:10124C000B60204B1B6803F007033A689A4201D0ED
:10125C00012332E07B681B6803F00403002B08D0E9
:10126C00194B5B6823F4E0627B68DB681649134317
:10127C004B607B681B6803F00803002B09D0124BF2
:10128C005B6823F460527B681B69DB000E491343D7
:10129C004B6000F021F802460B4B5B681B0903F016
:1012AC000F030A49CB5C22FA03F3094A1360094B7A
:1012BC001B681846FFF79AF9002318461037BD46ED
:1012CC0080BD00BF00200240001002402C25000809
:1012DC00000000200400002080B487B000AF002381
:1012EC00FB600023BB6000237B6100237B60002339
:1012FC003B611E4B5B68FB60FB6803F00C03042B2B
:10130C0002D0082B03D027E0194B3B6127E0FB6888
:10131C009B0C03F00F03174AD35C7B60FB6803F450
:10132C008033002B10D0114B5B685B0C03F0010376
:10133C00114AD35CBB607B680D4A03FB02F2BB68AD
:10134C00B2FBF3F37B6104E07B680C4A02FB03F312
:10135C007B617B693B6102E0054B3B6100BF3B69F4
:10136C0018461C37BD4680BC704700BF00100240B9
:10137C0000127A00442500085425000800093D009D
:10138C0080B400AF024B1B681846BD4680BC70474A
:10139C000000002080B500AFFFF7F2FF0246054BBE
:1013AC005B681B0A03F007030349CB5C22FA03F3C7
:1013BC00184680BD001002403C25000880B500AFE7
:1013CC00FFF7DEFF0246054B5B68DB0A03F0070301
:1013DC000349CB5C22FA03F3184680BD001002408F
:1013EC003C25000880B485B000AF78600A4B1B68C0
:1013FC000A4AA2FB03235B0A7A6802FB03F3FB6035
:10140C0000BFFB685A1EFA60002BF9D100BF00BF69
:10141C001437BD4680BC704700000020D34D6210CD
:10142C0080B582B000AF78607B68002B01D10123BE
:10143C0042E07B6893F84130DBB2002B06D17B682D
:10144C00002283F840207868FEF7E0FF7B682422B6
:10145C0083F841207B681B68DA687B681B6822F480
:10146C000052DA60786800F07DF97B681B681A69B5
:10147C007B681B6822F490421A617B681B685A696E
:10148C007B681B6822F02A025A617B681B68DA6849
:10149C007B681B6842F40052DA607B6800225A6455
:1014AC007B68202283F841207B68202283F842202D
:1014BC007B6800225A63002318460837BD4680BD5E
:1014CC0080B58AB002AFF860B9603B601346FB8010
:1014DC0000237B61FB6893F84230DBB2202B40F099
:1014EC008180BB68002B02D0FB88002B01D101232B
:1014FC0079E0FB6800225A64FB68222283F84220C0
:10150C00FB6800221A63FFF7B3F87861FB68FA886E
:10151C009A85FB68FA88DA85FB689B68B3F5805F6F
:10152C0008D1FB681B69002B04D10023FB61BB684D
:10153C00BB6103E0BB68FB610023BB6147E03B6818
:10154C0000937B6900222021F86800F050F80346D4
:10155C00002B05D0FB68202283F84220032342E0B5
:10156C00FB69002B0CD1FB681B685B689BB2C3F357
:10157C0008039AB2BB691A80BB690233BB611FE0D6
:10158C00FB689B68B3F5805F07D0FB689B68002BFA
:10159C000AD1FB681B69002B06D1FB681B685B68D2
:1015AC00DAB2FB691A7008E0FB681B685B68DBB297
:1015BC0003F07F03DAB2FB691A70FB690133FB613C
:1015CC00FB68DB8D9BB2013B9AB2FB68DA85FB684A
:1015DC00DB8D9BB2002BB2D1FB68202283F842201A
:1015EC00002300E0022318462037BD4680BD80B59D
:1015FC0086B000AFF860B9603B601346FB713BE00E
:10160C003B6AB3F1FF3F37D0FFF732F802463B6835
:10161C00D31A3A6A9A4202D33B6A002B01D10323B4
:10162C003AE0FB681B68DB6803F00403002B23D053
:10163C00BB68802B20D0BB68402B1DD0FB681B687F
:10164C001B6803F00803082B16D100237B61FB6891
:10165C001B681B687B61FB681B685B687B617B6933
:10166C00F86800F01DF8FB6808225A64FB68002239
:10167C0083F8402001230FE0FB681B681A68BB68E5
:10168C001340BA689A420CBF01230023DBB21A46FE
:10169C00FB799A42B4D0002318461837BD4680BD5A
:1016AC0080B495B000AF78607B681B680C337B63AB
:1016BC007B6B53E8003F3B633B6B23F49073FB6401
:1016CC007B681B680C33FA6C3A64FB63F96B3A6CFD
:1016DC0041E80023BB63BB6B002BE5D17B681B6827
:1016EC0014333B623B6A53E8003FFB61FB6923F018
:1016FC000103BB647B681B681433BA6CFA62BB626F
:10170C00B96AFA6A41E800237B627B6A002BE5D157
:10171C007B681B6B012B19D17B681B680C33FB603E
:10172C00FB6853E8003FBB60BB6823F010037B648D
:10173C007B681B680C337A6CBA617B617969BA6916
:10174C0041E800233B613B69002BE5D17B682022FB
:10175C0083F842207B6800221A6300BF5437BD46D1
:10176C0080BC704780B584B000AF78607B681B6824
:10177C001B6923F440517B68DA687B681B680A4359
:10178C001A617B689A687B681B691A437B685B6982
:10179C001343BB607B681B68DB6823F4B05323F0F6
:1017AC000C037A681268B9680B43D3607B681B68BA
:1017BC005B6923F440717B689A697B681B680A43F8
:1017CC005A617B681B682C4A934203D1FFF7F6FDE4
:1017DC00F86002E0FFF7DEFDF860FA6813469B0044
:1017EC0013449A001A447B685B689B00B2FBF3F3CA
:1017FC00224AA2FB03235B091901FA6813469B00DA
:10180C0013449A001A447B685B689B00B2FBF3F2AA
:10181C001A4BA3FB02035B09642000FB03F3D31AEE
:10182C001B013233154AA2FB03235B0903F0F003BF
:10183C001944FA6813469B0013449A001A447B68B7
:10184C005B689B00B2FBF3F20C4BA3FB02035B093E
:10185C00642000FB03F3D31A1B013233074AA2FBAB
:10186C0003235B0903F00F027B681B680A449A6030
:10187C0000BF1037BD4680BD003801401F85EB51BD
:10188C000EB44FF4017270B500259DB021AC54F824
:10189C00046BADF814201B9502900690FEF750FCDB
:1018AC000B4B03900B934FF6FF7307900948ADF861
:1018BC0016303246234602A900680F951495019400
:1018CC0000F090F91DB0BDE8704003B0704700BF48
:1018DC00E51800080C000020002070470346024465
:1018EC00934200D1704703F8011BF9E7014B1868CC
:1018FC00704700BF0C00002070B500260C4D0D4C3D
:10190C00641BA410A64209D100F0ECFD00260A4D80
:10191C000A4C641BA410A64205D170BD55F8043BBB
:10192C0098470136EEE755F8043B98470136F2E745
:10193C0080260008802600088026000884260008DF
:10194C007047704738B50546002940D051F8043C23
:10195C000C1F002BB8BFE41800F0DEF81C4A13680B
:10196C0033B9636014602846BDE8384000F0DAB83B
:10197C00A34208D9206821188B4201BF19685B6803
:10198C0009182160EDE71A465B680BB1A342FAD93E
:10199C0011685018A0420BD12068014450188342A2
:1019AC001160E0D118685B68084410605360DAE796
:1019BC0002D90C232B60D6E7206821188B4201BF7B
:1019CC0019685B680918216063605460CBE738BD07
:1019DC006002002070B50F4E0C463168054611B9F7
:1019EC0000F032FC30602146284600F02DFC431CF0
:1019FC0003D14FF0FF34204670BDC41C24F0030407
:101A0C00A042F8D0211A284600F01EFC0130F2D179
:101A1C00EFE700BF5C0200202DE9F843CD1C25F058
:101A2C00030508350C2D38BF0C25002D064601DBAF
:101A3C00A94204D90C2333600020BDE8F883DFF8F9
:101A4C00D48000F069F8D8F800301C4644BB294615
:101A5C003046FFF7BFFF431C044658D1D8F800406E
:101A6C002746002F43D1002C4BD0236839463046F3
:101A7C0004EB030900F0E8FB814542D121683046B4
:101A8C006D1A2946FFF7A6FF01303AD023682B4484
:101A9C002360D8F800305A6862BBC8F800700FE0B9
:101AAC002268521B20D40B2A17D96119A342256036
:101ABC0018BF5960636808BFC8F8001062514B60CA
:101ACC00304600F02FF804F10B00231D20F0070026
:101ADC00C21A1CBF1B1AA350AFE76268A3420CBF0B
:101AEC00C8F800205A60EBE723466468AEE73C4632
:101AFC007F68B6E71A465B68A342FBD100235360AC
:101B0C00DEE70C233046336000F00CF894E70560F8
:101B1C00D6E700BF600200200148FFF711BF00BFED
:101B2C00580200200148FFF70CBF00BF58020020EC
:101B3C0038B54B1C144603D14FF0FF35284638BD41
:101B4C009389CDB223F020039381636B52688BB1E0
:101B5C00A36B934208DD23685A1E226003F8015CD4
:101B6C00636801336360E9E7214600F034FB002829
:101B7C00F1D0E1E72169236851B1994208D213F8F9
:101B8C00011CA94204D1013B013223606260D5E7FC
:101B9C00C4E90F3204F1440363630323A3632346B4
:101BAC0003F8465F23600123DCE710B50C46496B54
:101BBC0069B104F14403994201D0FFF7C3FE002040
:101BCC00236C6063636013B1E36B236010BD236906
:101BDC004FF0FF30236000236360A38943F02003A0
:101BEC00A381F3E72DE9F04F0C4600210646ADF535
:101BFC00237DCDE94411AB490DF10408A091AA490C
:101C0C00AA4FCDF81881A191009392F80090B9F1E8
:101C1C00000F00F0598117F80930551C13F0080318
:101C2C0019D06368002B0FDD23681A78BA5C120791
:101C3C0001D42A46E9E7459A01330132459262689C
:101C4C002360013A6260ECE721463046A19B98473D
:101C5C000028E9D0EDE7B9F1250F40F086804193DB
:101C6C00439353782A2B04BF1023951C4FF00A0280
:101C7C0008BF4193AA461AF8011BA1F13003092BA6
:101C8C001ED9DFF82CB20322584600F0EDFA38B119
:101C9C0001235546419AA0EB0B008340134341931B
:101CAC0015F8013B782B06D8572B10D8252B5CD078
:101CBC0056D8002B74D0032347930A23429387E012
:101CCC00439B554602FB031130394391D2E7A3F1F4
:101CDC005802202AEFD801A151F822F0BB1D0008B0
:101CEC00C31C0008C31C0008151E0008C31C0008F8
:101CFC00C31C0008C31C0008C31C0008C31C00083C
:101D0C00C31C0008C31C00082B1E0008111E000871
:101D1C00731D0008731D0008731D0008C31C000808
:101D2C00CD1D0008C31C0008C31C0008C31C000800
:101D3C00C31C00083B1E0008D51D0008B31D00087D
:101D4C00C31C0008C31C0008371E0008C31C000875
:101D5C00111E0008C31C0008C31C0008BB1D000892
:101D6C00453B022BA7D8052331E06368002B0DDD22
:101D7C0023681A784A4540F0A780013362682360D3
:101D8C00459B013A01336260459352E72146304648
:101D9C00A19B98470028EBD04498002840F08C80F9
:101DAC004FF0FF308CE0419A42F020024192419A70
:101DBC0042F40072419210226E2B429202D905E03D
:101DCC0000234293032302E0082342930423479306
:101DDC006368002B39DD419B590604D423681A78BB
:101DEC00BA5C120738D4479B022B47DC6B46224661
:101DFC00304641A900F06AF8012865D002287FF42A
:101E0C0018AFC9E70A22D7E72946404600F0AAF9DD
:101E1C00419B054643F0400341930123D7E7419B87
:101E2C0043F0400341930023D1E70223CFE74198CD
:101E3C00C3063FF5FEAE009B459A191D00911B6829
:101E4C00C0074CBF1A801A60F3E621463046A19BAE
:101E5C0098470028BFD09FE7459A013245926268A7
:101E6C00013A002A626002DD01332360B6E72146A5
:101E7C003046A19B98470028B0D08DE7042B06DC98
:101E8C006B462246304641A900F07AF8B4E7094B7C
:101E9C00002B3FF4CEAE6B462246304641A9AFF341
:101EAC000080A9E73D1B0008B71B00087625000839
:101EBC005625000800000000A3895B063FF570AFB3
:101ECC000DF5237DBDE8F08F4498F9E72DE9F84333
:101EDC0015468A6880460C4632B98A69002A14BFB6
:101EEC004FF0FF3201228A6000272268DFF88C90C5
:101EFC00D1065FBF1A68111D19601668A06988B1F8
:101F0C00012807D12B681A7863699B5C53B9002FA1
:101F1C0031D022E0022820D12B681B7819F803302D
:101F2C001B071AD423680137DA065EBF2B681B78AF
:101F3C0006F8013B2A686B6801322A60A268013BF3
:101F4C00013A6B60A26042B1002BD7DC29464046B7
:101F5C00D4F8803198470028D0D0236813F01003B0
:101F6C0005D1E2680132E260A26902B1337000204F
:101F7C0023693B442361BDE8F88300BF7625000844
:101F8C002DE9F04F0C469846724B87B082461646A8
:101F9C0093E8070003AB83E807006F4BA1696F4A16
:101FAC002746032908BF1A46A36801925A1EB2F5A8
:101FBC00AE7F81BF6FF4AE7503EB050940F25D1384
:101FCC00A36057F81C3B98BF4FF000093D464FF0FB
:101FDC00000B43F450632360316803AB0222097891
:101FEC0053F82B0000F040F928B3BBF1010F59D185
:101FFC0062682AB908212268616042F4007222608A
:10200C00226822F4A0622260A268511EA16092B1E3
:10201C003268511C3160127805F8012B7268013A54
:10202C00002A726007DC31465046D4F88021904774
:10203C00002840F085800BF1010BBBF1030FCBD1D5
:10204C0063680BB90A236360636845496069C91A00
:10205C0000F088F84FF0000BA3682268002B3DD0ED
:10206C003168606991F800C010F80C00002835D078
:10207C00BCF1300F24D1100522D50BF1010BB9F1B5
:10208C00000F03D0013309F1FF39A3607368013BE2
:10209C00002B73601BDD336801333360A368013B95
:1020AC00A360D9E7BBF1020FAED1226802F4C06184
:1020BC00B1F5007FC4D1102142F480726160A2E7B7
:1020CC0022F4106222600B7805F8013BDEE7314602
:1020DC005046D4F8803198470028DFD02368D905C2
:1020EC000DD5BD4209D915F8011C32465046D4F81D
:1020FC007C3105F1FF3998474D46BD4228D0226806
:10210C0012F0100213D12A70394663685046019EB2
:10211C00B047D8F8003021681A1DC8F8002011F01B
:10212C00200F1B680FD01860E3680133E3600020B8
:10213C002369ED1B5D442B44236107B0BDE8F08F90
:10214C004FF0000BCAE7CA074CBF18801860EBE7CA
:10215C000120F2E720250008FD230008DD240008FB
:10216C006A25000870B50B7804465E2B0BBF4B78C4
:10217C004A1C8A1C002108BF0121013804F1FF050B
:10218C0000F8011FA842FBD10BB9501E70BD81F0A5
:10219C0001011046E154024612F8015B2D2D05D0C9
:1021AC005D2D16D0002DF1D02B46F2E746785D2E32
:1021BC00FAD0B342F8DC1A46023001329642A154EE
:1021CC00FBDCF21A013AB342A8BF00225D1CAB182B
:1021DC00E1E71046DAE72DE9F0410C46496B04F1D2
:1021EC00440399421BD14FF48061FFF715FC18B9D9
:1021FC004FF0FF30BDE8F0814FF48063A36394F897
:10220C004630606380F8FF3394F8453000F2FD30BF
:10221C00437094F84430037020600020EAE7A66B0A
:10222C0077003A4600F03CF805460028E0D000EB79
:10223C00060801463246404600F024F8C4E90D5722
:10224C00C4F80080E9E7000038B50023054D0446CA
:10225C0008462B60FEF752F9431C02D12B6803B1E0
:10226C00236038BD54020020034610B5C9B20244A5
:10227C009342184601D1002003E0047801338C42CC
:10228C00F6D110BD0A44914200F1FF3300D17047E2
:10229C0010B511F8014B914203F8014FF9D110BD63
:1022AC002DE9F041074614460D4621B91146BDE80B
:1022BC00F041FFF7B1BB2AB9FFF744FB254628468E
:1022CC00BDE8F08100F006F98442064602D8B4EB72
:1022DC00500FF4D821463846FFF79EFB804608B9CC
:1022EC004546ECE7B4422246294628BF3246FFF762
:1022FC00C9FF29463846FFF725FBF1E7242B2DE9CA
:10230C00F0478646904601D8012B06D1FFF7EEFA2E
:10231C00162303600020BDE8F0870D4633482A469B
:10232C0015F8014B065D16F00806F8D12D2C10D1CE
:10233C0001262C78951C33F0100215D1302C0DD1C0
:10234C002A7802F0DF02582A08D16C780235102363
:10235C000AE02B2C04BF2C78951CECE7002BF6D153
:10236C00302C14BF0A230823002206F1004C0CF178
:10237C00FF3CBCFBF3F9104603FB19CAA4F1300770
:10238C00092F0FD83C46A3421BDD571C07D08145B3
:10239C0014D301D1A24511DB012200FB034015F837
:1023AC00014BEBE7A4F14107192F01D8373CEAE7C1
:1023BC00A4F16107192F04D8573CE4E74FF0FF3222
:1023CC00EDE7531C08D122236046CEF80030B8F15B
:1023DC00000FA0D0691E06E006B14042B8F1000F14
:1023EC0099D0002AF6D1C8F8001094E77625000899
:1023FC00FFF784BF2DE9F04386460D46334E284641
:10240C0015F8014B375D17F00807F8D12D2C10D1BA
:10241C0001272C78851C33F0100015D1302C0DD1F0
:10242C00287800F0DF00582808D16C78023510238A
:10243C000AE02B2C04BF2C78851CECE7002BF6D182
:10244C00302C14BF0A2308234FF0FF38B8FBF3F8E5
:10245C00002603FB08F930466FEA0909A4F1300C99
:10246C00BCF1090F10D86446A3421EDDB6F1FF3F44
:10247C0007D0804516D301D1A14513DB012600FB03
:10248C00034015F8014BE9E7A4F1410CBCF1190F1D
:10249C0001D8373CE8E7A4F1610CBCF1190F04D862
:1024AC00573CE1E74FF0FF36EBE7731C06D12223D4
:1024BC003046CEF8003032B9BDE8F08307B1404267
:1024CC00002AF9D006B1691E1160F5E776250008DF
:1024DC00FFF790BF51F8043C181F002BBCBF0B58E2
:1024EC00C0187047F8B500BFF8BC08BC9E467047D2
:0C24FC00F8B500BFF8BC08BC9E46704755
:10250800563D25752E25752C493D25752E25752C8E
:10251800503D256C750000006C2500086F250008EB
:1025280072250008000000000000000001020304FA
:10253800060708090000000001020304020304055D
:10254800060708090A0B0C0D0E0F10100102686C23
:102558004C00412D46612D663839303132333435DF
:1025680036375D002B2D00303000785800002020D1
:10257800202020202020202828282828202020202B
:1025880020202020202020202020202020208810EB
:10259800101010101010101010101010101004044B
:1025A8000404040404040404101010101010104152
:1025B80041414141410101010101010101010101C3
:1025C8000101010101010101011010101010104258
:1025D8004242424242020202020202020202020293
:1025E8000202020202020202021010101020000071
:1025F80000000000000000000000000000000000D3
:1026080000000000000000000000000000000000C2
:1026180000000000000000000000000000000000B2
:1026280000000000000000000000000000000000A2
:102638000000000000000000000000000000000092
:102648000000000000000000000000000000000082
:102658000000000000000000000000000000000072
:102668000000000000000000000000000000000062
:08267800D4DAFF7F010000002D
:04268000310100081C
:042684000D0100083C
:1026880000127A0010000000010000001000002075
:10269800000000001C01002084010020EC01002043
:1026A8000000000000000000000000000000000022
:1026B8000000000000000000000000000000000012
:1026C8000000000000000000000000000000000002
:0C26D800000000000000000000000000F6
:040000050800058169
:00000001FF
