:020000040800F2
:100000000050002015090008450800084D080008A8
:10001000550800085D080008650800080000000099
:100020000000000000000000000000006D08000853
:100030007908000800000000850800089108000801
:100040005D0900085D0900085D0900085D090008F8
:100050005D0900085D0900085D0900085D090008E8
:100060005D0900085D0900085D0900085D090008D8
:100070005D0900085D0900085D0900085D090008C8
:100080005D0900085D0900085D0900085D090008B8
:100090005D0900085D0900085D0900085D090008A8
:1000A0005D0900085D0900085D0900085D09000898
:1000B0005D0900085D0900085D0900085D09000888
:1000C0005D0900085D0900085D0900085D09000878
:1000D0005D0900085D0900085D0900085D09000868
:1000E0005D0900085D0900085D09000800000000C6
:1000F0000000000000000000000000000000000000
:0C01000000000000000000005FF808F1A3
:10010C0010B5054C237833B9044B13B10448AFF345
:10011C0000800123237010BD5C0000200000000053
:10012C00603D000808B5034B1BB103490348AFF30E
:10013C00008008BD0000000060000020603D000849
:10014C00034613F8012B002AFBD1181A013870470B
:10015C00F0B59DB008AFF860B96007F1100340220C
:10016C000021184603F066F9BB681B889C46BB68E7
:10017C005B881A46BB689B881946BB68DB881C46A3
:10018C00BB681B891D46BB685B891E46BB689B8987
:10019C007B60BB689B7B07F1100006937B68059323
:1001AC000496039502940191009263460A4A4021F9
:1001BC0003F00CF907F110031846FFF7C1FF0346D3
:1001CC009AB207F110014FF47A73F86802F02AFF23
:1001DC0000BF5437BD46F0BD783D000880B588B0EF
:1001EC0004AF786042F26173BB81642302930223F3
:1001FC00019307F10C0300930123002280217868FE
:10020C0001F0D8FA034618461037BD4680BD0000F1
:10021C0080B5B8B004AF00F09DFB00F0E1F800F041
:10022C00C5F900F02DF900F097F900F067F90023FB
:10023C00C7F8CC300023C7F8C8300023C7F8C43047
:10024C006448FFF7CBFF0023A7F8C2300023A7F8C0
:10025C00C0300023A7F8BE3064230293022301931D
:10026C0007F194030093012302228021594801F0E5
:10027C009BFB0346002B40F09F8097F894301B02A9
:10028C001AB297F895301BB213431BB2A7F8C230C1
:10029C00642302930223019307F194030093012337
:1002AC00012280214B4801F07FFB97F894301B0210
:1002BC001AB297F895301BB21343A7F8BE306423DB
:1002CC0002930223019307F1940300930123032269
:1002DC008021404801F068FB97F894301B021AB259
:1002EC0097F895301BB213431BB2A7F8C030B7F880
:1002FC00C22013469B001344002B00DA03339B10DF
:10030C00C7F8B830B7F9BE2013469B001344002B36
:10031C0000DA03339B10C7F8B430B7F8C02013468B
:10032C009B0013445B00C7F8B030D7F8B8302A4AAA
:10033C00A2FB03235B099BB2A7F88430D7F8B43037
:10034C00002B0FDAD7F8B4305B42234A82FB03123E
:10035C005211DB17D31A9BB2A7F88630432387F8C8
:10036C0092300DE0D7F8B4301B4A82FB03125211C5
:10037C00DB17D31A9BB2A7F88630442387F8923048
:10038C00D7F8B030144AA2FB03235B099BB2A7F841
:10039C0088300023A7F88A300023A7F88C3000237C
:1003AC00A7F88E305523A7F8903007F1840319462F
:1003BC000A48FFF7CDFE08E0064801F0CBF905200E
:1003CC0000F02AFB034801F081F84FF47A7000F03A
:1003DC0023FB38E7A80000201F85EB51FC00002010
:1003EC0080B594B000AF07F12803282200211846ED
:1003FC0003F020F807F1140300221A605A609A6087
:10040C00DA601A613B1D00221A605A609A60DA6049
:10041C000223BB620123BB631023FB6300237B64B9
:10042C0007F12803184602F0E7F80346002B01D029
:10043C0000F0DEF80F237B610023BB610023FB611E
:10044C0000233B6200237B6207F114030021184652
:10045C0002F054FB0346002B01D000F0C9F8022334
:10046C007B600023FB603B1D184602F0D5FC034665
:10047C00002B01D000F0BCF800BF5037BD4680BD4A
:10048C0080B584B000AF3B1D00221A605A609A60A0
:10049C00184B194A1A60174B00229A60154B002210
:1004AC001A73144B00221A75124B4FF46022DA6146
:1004BC00104B00225A600F4B01221A610D4800F0BC
:1004CC00CFFA0346002B01D000F092F800237B609A
:1004DC000123BB600023FB603B1D1946054800F05F
:1004EC0097FB0346002B01D000F082F800BF1037B9
:1004FC00BD4680BD780000200024014080B500AFCF
:10050C00124B134A1A60114B124A5A600F4B0022BD
:10051C009A600E4B0022DA600C4B4FF480421A6149
:10052C000A4B00225A61094B00229A61074B0022A8
:10053C00DA61064B00221A62044800F0C7FF03463A
:10054C00002B01D000F054F800BF80BDA8000020A3
:10055C0000580040A086010080B500AF114B124A34
:10056C001A60104B4FF4E1325A600E4B00229A6025
:10057C000C4B0022DA600B4B00221A61094B0C2247
:10058C005A61084B00229A61064B0022DA61054839
:10059C0002F0F8FC0346002B01D000F029F800BF54
:1005AC0080BD00BFFC0000200038014080B483B047
:1005BC0000AF0E4B9B690D4A43F0040393610B4B48
:1005CC009B6903F004037B607B68084B9B69074ABB
:1005DC0043F008039361054B9B6903F008033B60F0
:1005EC003B6800BF0C37BD4680BC70470010024012
:1005FC0080B400AF72B600BF00BFFDE780B485B019
:10060C0000AF154B9B69144A43F001039361124BE5
:10061C009B6903F00103BB60BB680F4BDB690E4A9F
:10062C0043F08053D3610C4BDB6903F080537B6048
:10063C007B680A4B5B68FB60FB6823F0E063FB6044
:10064C00FB6843F08063FB60044AFB68536000BFA7
:10065C001437BD4680BC70470010024000000140BA
:10066C0080B588B000AF786007F1100300221A60E3
:10067C005A609A60DA607B681B68144A934221D1F5
:10068C00134B9B69124A43F400739361104B9B69A3
:10069C0003F40073FB60FB680D4B9B690C4A43F041
:1006AC00040393610A4B9B6903F00403BB60BB68B2
:1006BC0003233B6103237B6107F1100319460548B3
:1006CC0000F0C4FC00BF2037BD4680BD00240140B3
:1006DC00001002400008014080B588B000AF78607F
:1006EC0007F1100300221A605A609A60DA607B6886
:1006FC001B68164A934224D1154B9B69144A43F04C
:10070C0008039361124B9B6903F00803FB60FB68C1
:10071C004FF440633B6112237B610323FB6107F1C0
:10072C00100319460B4800F091FC094BDB69084A91
:10073C0043F48003D361064BDB6903F48003BB6095
:10074C00BB6800BF2037BD4680BD00BF00580040CD
:10075C0000100240000C014080B582B000AF786000
:10076C007B681B680B4A93420FD10B4BDB690A4A1F
:10077C0023F48003D3614FF48061084800F0EAFD54
:10078C004FF40061054800F0E5FD00BF0837BD4699
:10079C0080BD00BF0058004000100240000C01401A
:1007AC0080B588B000AF786007F1100300221A60A2
:1007BC005A609A60DA607B681B681C4A934231D19C
:1007CC001B4B9B691A4A43F480439361184B9B69FA
:1007DC0003F48043FB60FB68154B9B69144A43F0A0
:1007EC0004039361124B9B6903F00403BB60BB6869
:1007FC004FF400733B6102237B610323FB6107F120
:10080C00100319460B4800F021FC4FF480633B6148
:10081C0000237B610023BB6107F1100319460548D7
:10082C0000F014FC00BF2037BD4680BD00380140ED
:10083C00001002400008014080B400AF00BFFDE78B
:10084C0080B400AF00BFFDE780B400AF00BFFDE790
:10085C0080B400AF00BFFDE780B400AF00BFFDE780
:10086C0080B400AF00BFBD4680BC704780B400AF01
:10087C0000BFBD4680BC704780B400AF00BFBD4612
:10088C0080BC704780B500AF00F0AAF800BF80BDF7
:10089C0080B586B000AF7860144A154BD31A7B61D3
:1008AC007B693B61134B1B68002B02D1114B124A25
:1008BC001A60104B1A687B6813443A699A4207D243
:1008CC0002F0C0FD03460C221A604FF0FF3309E022
:1008DC00084B1B68FB60074B1A687B681344054A7E
:1008EC001360FB6818461837BD4680BD00500020C9
:1008FC0000040000440100209802002080B400AFE6
:10090C0000BFBD4680BC7047FFF7F8FF0B480C4991
:10091C000C4A002302E0D458C4500433C4188C424F
:10092C00F9D3094A094C002301E013600432A242B6
:10093C00FBD302F08DFDFFF76BFC7047000000202D
:10094C005C0000201C3E00085C000020940200208B
:10095C00FEE7000080B500AF084B1B68074A43F068
:10096C0010031360032000F03DFB0F2000F008F88B
:10097C00FFF744FE0023184680BD00BF0020024054
:10098C0080B582B000AF7860124B1A68124B1B789E
:10099C0019464FF47A73B3FBF1F3B2FBF3F3184639
:1009AC0000F047FB0346002B01D001230EE07B68CF
:1009BC000F2B0AD8002279684FF0FF3000F01DFB96
:1009CC00064A7B681360002300E0012318460837B1
:1009DC00BD4680BD0000002008000020040000205F
:1009EC0080B400AF054B1B781A46054B1B681344AB
:1009FC00034A136000BFBD4680BC7047080000204E
:100A0C004801002080B400AF024B1B681846BD465D
:100A1C0080BC70474801002080B584B000AF78607E
:100A2C00FFF7F0FFB8607B68FB60FB68B3F1FF3F3A
:100A3C0005D00A4B1B781A46FB681344FB6000BFB9
:100A4C00FFF7E0FF0246BB68D31AFA689A42F7D860
:100A5C0000BF00BF1037BD4680BD00BF080000209E
:100A6C0080B586B000AF78600023FB7500233B6136
:100A7C000023BB600023FB607B68002B01D10123AA
:100A8C00BEE07B689B68002B7B689B6A002B09D1BE
:100A9C007B680022DA627B68002283F82420786865
:100AAC00FFF7DEFD786800F0ABF90346FB757B6859
:100ABC009B6A03F01003002B40F09980FB7D002B08
:100ACC0040F095807B689B6A23F4885323F00203E3
:100ADC0043F002027B689A627B685A687B68DB6928
:100AEC001A437B681B7B5B001343BA681343BB60E0
:100AFC007B689B68B3F5807F03D07B689B68012B78
:100B0C0002D14FF4807300E000233A6913433B6138
:100B1C007B681B7D012B19D17B681B7B002B09D1BA
:100B2C007B689B69013B5A033B69134343F40063A5
:100B3C003B610BE07B689B6A43F020027B689A6206
:100B4C007B68DB6A43F001027B68DA627B681B68B6
:100B5C005B6823F469417B681B683A690A435A60F5
:100B6C007B681B689A68284B13407A681268B968CE
:100B7C000B4393607B689B68B3F5807F03D07B68E5
:100B8C009B68012B04D17B681B69013B1B05FB6037
:100B9C007B681B68DB6A23F470017B681B68FA684E
:100BAC000A43DA627B681B689A68184B1340BA6870
:100BBC009A420BD17B680022DA627B689B6A23F035
:100BCC00030343F001027B689A6218E07B689B6A1E
:100BDC0023F0120343F010027B689A627B68DB6A95
:100BEC0043F001027B68DA620123FB7507E07B6846
:100BFC009B6A43F010027B689A620123FB75FB7DB4
:100C0C0018461837BD4680BDFDF7E1FFFE0E1FFFED
:100C1C0080B485B000AF786039600023FB7300238B
:100C2C00BB607B6893F82430012B01D10223DCE0FC
:100C3C007B68012283F824203B685B68062B1CD858
:100C4C007B681B68596B3B685A6813469B001344BE
:100C5C00053B1F2202FA03F3DB4319403B6818687B
:100C6C003B685A6813469B001344053B00FA03F299
:100C7C007B681B680A435A633CE03B685B680C2B3F
:100C8C001CD87B681B68196B3B685A6813469B0021
:100C9C001344233B1F2202FA03F3DB4319403B6846
:100CAC0018683B685A6813469B001344233B00FAB0
:100CBC0003F27B681B680A431A631BE07B681B68A2
:100CCC00D96A3B685A6813469B001344413B1F2268
:100CDC0002FA03F3DB4319403B6818683B685A6817
:100CEC0013469B001344413B00FA03F27B681B68DC
:100CFC000A43DA623B681B68092B1CD97B681B68AA
:100D0C00D9683B681A6813465B0013441E3B0722E4
:100D1C0002FA03F3DB4319403B6898683B681A6896
:100D2C0013465B0013441E3B00FA03F27B681B68FE
:100D3C000A43DA6019E07B681B6819693B681A681A
:100D4C0013465B001344072202FA03F3DB431940FA
:100D5C003B6898683B681A6813465B00134400FABA
:100D6C0003F27B681B680A431A613B681B68102BF3
:100D7C0003D03B681B68112B32D17B681B681D4A62
:100D8C00934225D17B681B689B6803F40003002BFE
:100D9C0026D17B681B689A687B681B6842F400024A
:100DAC009A603B681B68102B1AD1134B1B68134AB3
:100DBC00A2FB03239A0C13469B0013445B00BB60FD
:100DCC0002E0BB68013BBB60BB68002BF9D107E0BC
:100DDC007B689B6A43F020027B689A620123FB7359
:100DEC007B68002283F82420FB7B18461437BD4611
:100DFC0080BC7047002401400000002083DE1B43B0
:100E0C0080B584B000AF78600023FB607B681B6802
:100E1C009B6803F00103012B2ED17B681B689A6839
:100E2C007B681B6822F001029A60FFF7EBFDF8600B
:100E3C001BE0FFF7E7FD0246FB68D31A022B14D91F
:100E4C007B681B689B6803F00103012B0DD17B6849
:100E5C009B6A43F010027B689A627B68DB6A43F002
:100E6C0001027B68DA62012307E07B681B689B68E0
:100E7C0003F00103012BDCD0002318461037BD46CC
:100E8C0080BD000080B485B000AF78607B6803F053
:100E9C000703FB600C4BDB68BB60BA684FF6FF03C3
:100EAC001340BB60FB681A02BB68134343F0BF637B
:100EBC0043F40033BB60044ABB68D36000BF1437F3
:100ECC00BD4680BC704700BF00ED00E080B400AFB1
:100EDC00044BDB681B0A03F007031846BD4680BCB5
:100EEC00704700BF00ED00E080B483B000AF034654
:100EFC003960FB7197F90730002B0ADB3B68DAB2DB
:100F0C000C4997F907301201D2B20B4483F8002335
:100F1C000AE03B68DAB20849FB7903F00F03043BA3
:100F2C001201D2B20B441A7600BF0C37BD4680BCFE
:100F3C00704700BF00E100E000ED00E080B489B034
:100F4C0000AFF860B9607A60FB6803F00703FB61DF
:100F5C00FB69C3F10703042B28BF0423BB61FB69A6
:100F6C000433062B02D9FB69033B00E000237B61B1
:100F7C004FF0FF32BB6902FA03F3DA43BB681A4045
:100F8C007B699A404FF0FF317B6901FA03F3D94337
:100F9C007B680B40134318462437BD4680BC704712
:100FAC0080B582B000AF78607B68013BB3F1807F85
:100FBC0001D301230FE00A4A7B68013B53600F21E8
:100FCC004FF0FF30FFF790FF054B00229A60044B67
:100FDC0007221A60002318460837BD4680BD00BFA3
:100FEC0010E000E080B582B000AF78607868FFF761
:100FFC0049FF00BF0837BD4680BD80B586B000AF45
:10100C000346B9607A60FB7300237B61FFF75EFFD8
:10101C0078617A68B9687869FFF790FF024697F9AA
:10102C000F3011461846FFF75FFF00BF1837BD465B
:10103C0080BD80B582B000AF78607868FFF7B0FFF4
:10104C00034618460837BD4680BD000080B48BB0FF
:10105C0000AF7860396000237B6200233B6269E15A
:10106C0001227B6A02FA03F3FB613B681B68FA6995
:10107C001340BB61BA69FB699A4240F058813B68E6
:10108C005B689A4A93425ED0984A934275D8984AC4
:10109C00934258D0964A93426FD8964A934252D074
:1010AC00944A934269D8944A93424CD0924A9342C0
:1010BC0063D8924A934246D0904A93425DD8122B01
:1010CC002AD8122B59D801A252F823F05311000838
:1010DC002D1100083F11000881110008871100082C
:1010EC008711000887110008871100088711000874
:1010FC008711000887110008871100088711000864
:10110C008711000887110008871100088711000853
:10111C003511000849110008794A934213D02CE08C
:10112C003B68DB683B6229E03B68DB6804333B626D
:10113C0024E03B68DB6808333B621FE03B68DB68FC
:10114C000C333B621AE03B689B68002B02D10423F2
:10115C003B6213E03B689B68012B05D108233B6283
:10116C007B68FA691A6109E008233B627B68FA69BB
:10117C005A6103E000233B6200E000BFBB69FF2B18
:10118C0001D87B6801E07B6804337B61BB69FF2B72
:10119C0002D87B6A9B0002E07B6A083B9B003B61A8
:1011AC007B691A680F213B6901FA03F3DB431A4090
:1011BC00396A3B6901FA03F31A437B691A603B688D
:1011CC005B6803F08053002B00F0B1804D4B9B69A2
:1011DC004C4A43F0010393614A4B9B6903F00103B2
:1011EC00BB60BB68484A7B6A9B08023352F82330C9
:1011FC00FB607B6A03F003039B000F2202FA03F3EC
:10120C00DB43FA681340FB607B68404A934213D07F
:10121C007B683F4A93420DD07B683E4A934207D08D
:10122C007B683D4A934201D1032306E0042304E08A
:10123C00022302E0012300E000237A6A02F0030299
:10124C0092009340FA681343FB602F497B6A9B081A
:10125C000233FA6841F823203B685B6803F480137F
:10126C00002B06D02D4B9A682C49BB6913438B601D
:10127C0006E02A4B9A68BB69DB43284913408B6014
:10128C003B685B6803F40013002B06D0234BDA6831
:10129C002249BB691343CB6006E0204BDA68BB697B
:1012AC00DB431E491340CB603B685B6803F400339F
:1012BC00002B06D0194B5A681849BB6913434B6075
:1012CC0006E0164B5A68BB69DB43144913404B606C
:1012DC003B685B6803F48033002B21D00F4B1A68FA
:1012EC000E49BB6913430B6021E000BF00003210B4
:1012FC00000031100000221000002110000012101C
:10130C0000001110001002400000014000080140D4
:10131C00000C014000100140001401400004014089
:10132C000B4B1A68BB69DB43094913400B607B6AA2
:10133C0001337B623B681A687B6A22FA03F3002B49
:10134C007FF48EAE00BF00BF2C37BD4680BC70470B
:10135C000004014080B489B000AF7860396000238C
:10136C00FB619AE00122FB6902FA03F33A6813402D
:10137C00BB61BB69002B00F08D804E4AFB699B085A
:10138C00023352F823307B61FB6903F003039B00AB
:10139C000F2202FA03F37A6913407B617B68464A99
:1013AC00934213D07B68454A93420DD07B68444AE4
:1013BC00934207D07B68434A934201D1032306E052
:1013CC00042304E0022302E0012300E00023FA6975
:1013DC0002F00302920093407A699A4232D13A4B5E
:1013EC001A68BB69DB43384913400B60364B5A68AB
:1013FC00BB69DB43344913404B60334BDA68BB6940
:10140C00DB4331491340CB602F4B9A68BB69DB43FC
:10141C002D4913408B60FB6903F003039B000F22E3
:10142C0002FA03F37B61234AFB699B08023352F8EF
:10143C0023107B69DA431F48FB699B080A4002337F
:10144C0040F82320BB69FF2B01D87B6801E07B6847
:10145C0004333B61BB69FF2B02D8FB699B0002E0A4
:10146C00FB69083B9B00FB603B691A680F21FB681A
:10147C0001FA03F3DB431A400421FB6801FA03F37E
:10148C001A433B691A607B68DA68BB69DB431A4014
:10149C007B68DA60FB690133FB613A68FB6922FA0D
:1014AC0003F3002B7FF45EAF00BF00BF2437BD46B3
:1014BC0080BC70470000014000080140000C014056
:1014CC0000100140001401400004014080B584B0BC
:1014DC0000AF78607B68002B01D101232BE17B6886
:1014EC0093F83D30DBB2002B06D17B68002283F8E9
:1014FC003C207868FFF7F0F87B68242283F83D20C5
:10150C007B681B681A687B681B6822F001021A60F2
:10151C007B681B681A687B681B6842F400421A607F
:10152C007B681B681A687B681B6822F400421A608F
:10153C0001F02CFCF8607B685B68814A934207D809
:10154C00FB68804A934294BF01230023DBB206E080
:10155C00FB687D4A934294BF01230023DBB2002B2E
:10156C0001D00123E7E0FB68784AA2FB03239B0C24
:10157C00BB607B681B685B6823F03F017B681B6862
:10158C00BA680A435A607B681B681B6A23F03F01E8
:10159C007B685B686A4A934202D8BB68013309E0F6
:1015AC00BB684FF4967202FB03F3694AA2FB032358
:1015BC009B0901337A6812680B4313627B681B68C2
:1015CC00DB6923F44F4222F0FF027B685B685C49C5
:1015DC008B4219D8FB68591E7B685B685B00B1FBBA
:1015EC00F3F3591C40F6FC730B40002B0AD0FB683C
:1015FC00591E7B685B685B00B1FBF3F30133C3F3EB
:10160C000B0351E004234FE07B689B68002B11D146
:10161C00FB68581E7B6859680B465B000B44B0FB9B
:10162C00F3F30133C3F30B03002B0CBF0123002393
:10163C00DBB212E0FB68581E7B6859680B469B00B6
:10164C000B4499000B44B0FBF3F30133C3F30B03CE
:10165C00002B0CBF01230023DBB2002B01D0012394
:10166C0022E07B689B68002B0ED1FB68581E7B68C0
:10167C0059680B465B000B44B0FBF3F30133C3F327
:10168C000B0343F400430FE0FB68581E7B6859685A
:10169C000B469B000B4499000B44B0FBF3F3013356
:1016AC00C3F30B0343F44043796809681343CB61DC
:1016BC007B681B681B6823F0C0017B68DA697B6858
:1016CC001B6A1A437B681B680A431A607B681B6899
:1016DC009B6823F4034323F0FF037A6811697A684B
:1016EC00D26811437A6812680B4393607B681B685D
:1016FC00DB6823F0FF017B685A697B689B691A439E
:10170C007B681B680A43DA607B681B681A687B6815
:10171C001B6842F001021A607B6800221A647B6825
:10172C00202283F83D207B6800221A637B6800220C
:10173C0083F83E20002318461037BD4680BD00BFFD
:10174C00A08601007F841E00FF083D0083DE1B4342
:10175C00D34D621080B582B000AF78607B68002BEF
:10176C0001D1012321E07B68242283F83D207B6892
:10177C001B681A687B681B6822F001021A60786883
:10178C00FEF7EAFF7B6800221A647B68002283F86C
:10179C003D207B6800221A637B68002283F83E2080
:1017AC007B68002283F83C20002318460837BD468E
:1017BC0080BD000080B588B002AFF86008461146C5
:1017CC001A4603467B810B463B811346FB80FFF791
:1017DC0019F97861FB6893F83D30DBB2202B40F0AF
:1017EC00D9807B690093192301226D49F86800F0B8
:1017FC00CDFC0346002B01D00223CCE0FB6893F810
:10180C003C30012B01D10223C5E0FB68012283F897
:10181C003C20FB681B681B6803F00103012B07D0FD
:10182C00FB681B681A68FB681B6842F001021A60AF
:10183C00FB681B681A68FB681B6822F400621A605C
:10184C00FB68212283F83D20FB68402283F83E2070
:10185C00FB6800221A64FB683A6A5A62FB68BA8C0D
:10186C005A85FB685B8D9AB2FB681A85FB684D4AFA
:10187C00DA62F8883A8979897B690193BB6A0093AB
:10188C000346F86800F004FB0346002B52D00123FA
:10189C0081E07A69B96AF86800F092FD0346002B82
:1018AC000DD0FB681B6C042B07D1FB681B681A68F6
:1018BC00FB681B6842F400721A6001236BE0FB6842
:1018CC005B6A1A78FB681B681A61FB685B6A5A1CB6
:1018DC00FB685A62FB681B8D013B9AB2FB681A8548
:1018EC00FB685B8D9BB2013B9AB2FB685A85FB6827
:1018FC001B685B6903F00403042B1BD1FB681B8D75
:10190C00002B17D0FB685B6A1A78FB681B681A619E
:10191C00FB685B6A5A1CFB685A62FB681B8D013BB7
:10192C009AB2FB681A85FB685B8D9BB2013B9AB23D
:10193C00FB685A85FB681B8D002BAAD17A69B96AA2
:10194C00F86800F085FD0346002B0DD0FB681B6C7E
:10195C00042B07D1FB681B681A68FB681B6842F4F0
:10196C0000721A60012316E0FB681B681A68FB689A
:10197C001B6842F400721A60FB68202283F83D2039
:10198C00FB68002283F83E20FB68002283F83C2091
:10199C00002300E0022318461837BD4680BD00BF67
:1019AC00020010000000FFFF80B58CB002AFF860A1
:1019BC00084611461A4603467B810B463B8113466B
:1019CC00FB8000233B62FFF71DF87862FB6893F8FD
:1019DC003D30DBB2202B40F050827B6A0093192300
:1019EC0001228249F86800F0D1FB0346002B01D09C
:1019FC00022343E2FB6893F83C30012B01D1022314
:101A0C003CE2FB68012283F83C20FB681B681B68E6
:101A1C0003F00103012B07D0FB681B681A68FB68F5
:101A2C001B6842F001021A60FB681B681A68FB68AD
:101A3C001B6822F400621A60FB68222283F83D20A6
:101A4C00FB68402283F83E20FB6800221A64FB6886
:101A5C003A6B5A62FB68BA8E5A85FB685B8D9AB2F8
:101A6C00FB681A85FB68624ADA62F8883A897989D8
:101A7C007B6A0193BB6B00930346F86800F09EFAF7
:101A8C000346002B01D00123F8E1FB681B8D002BD2
:101A9C0013D10023FB61FB681B685B69FB61FB686E
:101AAC001B689B69FB61FB69FB681B681A68FB6818
:101ABC001B6842F400721A60CCE1FB681B8D012B91
:101ACC001ED1FB681B681A68FB681B6822F48062D5
:101ADC001A6072B600BF0023BB61FB681B685B69B0
:101AEC00BB61FB681B689B69BB61BB69FB681B68BE
:101AFC001A68FB681B6842F400721A6062B635E023
:101B0C00FB681B8D022B1ED1FB681B681A68FB68D7
:101B1C001B6842F400621A6072B600BF00237B613E
:101B2C00FB681B685B697B61FB681B689B697B615D
:101B3C007B69FB681B681A68FB681B6822F480626F
:101B4C001A6062B612E0FB681B681A68FB681B68B7
:101B5C0042F480621A6000233B61FB681B685B697E
:101B6C003B61FB681B689B693B613B6972E1FB68ED
:101B7C001B8D032B00F21F81FB681B8D012B23D1C6
:101B8C007A6AB96BF86800F0ABFC0346002B01D005
:101B9C00012373E1FB681B681A69FB685B6AD2B2AC
:101BAC001A70FB685B6A5A1CFB685A62FB681B8DD7
:101BBC00013B9AB2FB681A85FB685B8D9BB2013BBB
:101BCC009AB2FB685A8545E1FB681B8D022B52D1FA
:101BDC007B6A0093BB6B00220649F86800F0D6FACA
:101BEC000346002B08D0012348E100BF020010007F
:101BFC000000FFFF0400010072B600BFFB681B6809
:101C0C001A68FB681B6842F400721A60FB681B6858
:101C1C001A69FB685B6AD2B21A70FB685B6A5A1C61
:101C2C00FB685A62FB681B8D013B9AB2FB681A85F4
:101C3C00FB685B8D9BB2013B9AB2FB685A8562B61E
:101C4C0000BFFB681B681A69FB685B6AD2B21A702A
:101C5C00FB685B6A5A1CFB685A62FB681B8D013B74
:101C6C009AB2FB681A85FB685B8D9BB2013B9AB2FA
:101C7C00FB685A85EEE07B6A0093BB6B00228149BE
:101C8C00F86800F083FA0346002B01D00123F5E03D
:101C9C00FB681B681A68FB681B6822F480621A6078
:101CAC0072B600BFFB681B681A69FB685B6AD2B22C
:101CBC001A70FB685B6A5A1CFB685A62FB681B8DC6
:101CCC00013B9AB2FB681A85FB685B8D9BB2013BAA
:101CDC009AB2FB685A856C4B1B68DB086B4AA2FBFB
:101CEC0003231A0A13469B001344DA00D31A3B62EF
:101CFC003B6A013B3B623B6A002B18D1FB6800221C
:101D0C001A63FB68202283F83D20FB68002283F8CD
:101D1C003E20FB681B6C43F02002FB681A6462B621
:101D2C0000BFFB68002283F83C200123A6E0FB687F
:101D3C001B685B6903F00403042BD9D1FB681B6897
:101D4C001A68FB681B6842F400721A60FB681B6817
:101D5C001A69FB685B6AD2B21A70FB685B6A5A1C20
:101D6C00FB685A62FB681B8D013B9AB2FB681A85B3
:101D7C00FB685B8D9BB2013B9AB2FB685A8562B6DD
:101D8C0000BFFB681B681A69FB685B6AD2B21A70E9
:101D9C00FB685B6A5A1CFB685A62FB681B8D013B33
:101DAC009AB2FB681A85FB685B8D9BB2013B9AB2B9
:101DBC00FB685A854EE07A6AB96BF86800F090FBC4
:101DCC000346002B01D0012358E0FB681B681A69FD
:101DDC00FB685B6AD2B21A70FB685B6A5A1CFB68C0
:101DEC005A62FB681B8D013B9AB2FB681A85FB6833
:101DFC005B8D9BB2013B9AB2FB685A85FB681B68F2
:101E0C005B6903F00403042B24D1FB681B8D032BAB
:101E1C0007D1FB681B681A68FB681B6822F4806298
:101E2C001A60FB681B681A69FB685B6AD2B21A708D
:101E3C00FB685B6A5A1CFB685A62FB681B8D013B92
:101E4C009AB2FB681A85FB685B8D9BB2013B9AB218
:101E5C00FB685A85FB681B8D002B7FF488AEFB68F2
:101E6C00202283F83D20FB68002283F83E20FB688B
:101E7C00002283F83C20002300E002231846283778
:101E8C00BD4680BD040001000000002089B5F81497
:101E9C0080B588B002AFF860084611461A46034672
:101EAC007B810B463B811346FB80FB681B681A68E1
:101EBC00FB681B6842F480721A607B6A00933B6A71
:101ECC0000224FF00111F86800F060F90346002B76
:101EDC000DD0FB681B681B6803F48073B3F5807F1F
:101EEC0003D1FB684FF400721A6403235FE07B8913
:101EFC00DBB21A46FB681B6802F0FE021A617B6AB1
:101F0C003A6A2D49F86800F0BBF90346002B01D062
:101F1C0001234CE000237B61FB681B685B697B61E0
:101F2C00FB681B689B697B617B697A6A396AF86814
:101F3C0000F046FA0346002B0DD0FB681B6C042BFB
:101F4C0007D1FB681B681A68FB681B6842F40072B7
:101F5C001A6001232BE0FB88012B05D13B89DAB2F7
:101F6C00FB681B681A6121E03B891B0A9BB2DAB241
:101F7C00FB681B681A617A6A396AF86800F020FA03
:101F8C000346002B0DD0FB681B6C042B07D1FB68A0
:101F9C001B681A68FB681B6842F400721A60012304
:101FAC0005E03B89DAB2FB681B681A61002318460E
:101FBC001837BD4680BD00BF0200010080B588B057
:101FCC0002AFF860084611461A4603467B810B4661
:101FDC003B811346FB80FB681B681A68FB681B6817
:101FEC0042F480621A60FB681B681A68FB681B6805
:101FFC0042F480721A607B6A00933B6A00224FF0B5
:10200C000111F86800F0C2F80346002B0DD0FB68F4
:10201C001B681B6803F48073B3F5807F03D1FB68E6
:10202C004FF400721A640323AAE07B89DBB21A46D0
:10203C00FB681B6802F0FE021A617B6A3A6A52491D
:10204C00F86800F01DF90346002B01D0012397E03E
:10205C0000237B61FB681B685B697B61FB681B6809
:10206C009B697B617B697A6A396AF86800F0A8F928
:10207C000346002B0DD0FB681B6C042B07D1FB68AF
:10208C001B681A68FB681B6842F400721A60012313
:10209C0076E0FB88012B05D13B89DAB2FB681B6823
:1020AC001A6121E03B891B0A9BB2DAB2FB681B6800
:1020BC001A617A6A396AF86800F082F90346002BD3
:1020CC000DD0FB681B6C042B07D1FB681B681A68CE
:1020DC00FB681B6842F400721A60012350E03B89D4
:1020EC00DAB2FB681B681A617A6A396AF86800F020
:1020FC0067F90346002B0DD0FB681B6C042B07D132
:10210C00FB681B681A68FB681B6842F400721A6053
:10211C00012335E0FB681B681A68FB681B6842F4F6
:10212C0080721A607B6A00933B6A00224FF00111A7
:10213C00F86800F02BF80346002B0DD0FB681B68E9
:10214C001B6803F48073B3F5807F03D1FB684FF4F5
:10215C0000721A64032313E07B89DBB243F00103A2
:10216C00DAB2FB681B681A617B6A3A6A0649F8683E
:10217C0000F086F80346002B01D0012300E0002379
:10218C0018461837BD4680BD0200010080B584B0EA
:10219C0000AFF860B9603B601346FB7148E03B68E8
:1021AC00B3F1FF3F44D0FEF72DFC0246BB69D31AB6
:1021BC003A689A4202D33B68002B39D1BB681B0C9E
:1021CC00DBB2012B0DD1FB681B685B69DA43BB6882
:1021DC0013409BB2002B0CBF01230023DBB21A4629
:1021EC000CE0FB681B689B69DA43BB6813409BB22D
:1021FC00002B0CBF01230023DBB21A46FB799A4259
:10220C0016D1FB6800221A63FB68202283F83D205C
:10221C00FB68002283F83E20FB681B6C43F0200215
:10222C00FB681A64FB68002283F83C20012323E03E
:10223C00BB681B0CDBB2012B0DD1FB681B685B6907
:10224C00DA43BB6813409BB2002B0CBF0123002365
:10225C00DBB21A460CE0FB681B689B69DA43BB686F
:10226C0013409BB2002B0CBF01230023DBB21A4698
:10227C00FB799A4293D0002318461037BD4680BD97
:10228C0080B584B000AFF860B9607A603B6071E0F3
:10229C00FB681B685B6903F48063B3F5806F23D123
:1022AC00FB681B681A68FB681B6842F400721A60B2
:1022BC00FB681B686FF480625A61FB6800221A632A
:1022CC00FB68202283F83D20FB68002283F83E2027
:1022DC00FB681B6C43F00402FB681A64FB68002269
:1022EC0083F83C20012367E07B68B3F1FF3F41D0CA
:1022FC00FEF788FB02463B68D31A7A689A4202D3EF
:10230C007B68002B36D1BB681B0CDBB2012B0CD1CC
:10231C00FB681B685B69DA43BB6813409BB2002BFC
:10232C0014BF01230023DBB20BE0FB681B689B6925
:10233C00DA43BB6813409BB2002B14BF012300236C
:10234C00DBB2002B16D0FB6800221A63FB6820223C
:10235C0083F83D20FB68002283F83E20FB681B6C51
:10236C0043F02002FB681A64FB68002283F83C20CF
:10237C00012321E0BB681B0CDBB2012B0CD1FB68E9
:10238C001B685B69DA43BB6813409BB2002B14BF1C
:10239C0001230023DBB20BE0FB681B689B69DA436B
:1023AC00BB6813409BB2002B14BF01230023DBB28C
:1023BC00002B7FF46DAF002318461037BD4680BD4F
:1023CC0080B584B000AFF860B9607A6034E0F8682A
:1023DC0000F0E3F80346002B01D0012334E0BB6886
:1023EC00B3F1FF3F28D0FEF70DFB02467B68D31AF2
:1023FC00BA689A4202D3BB68002B1DD1FB681B68DC
:10240C005B6903F08003802B16D0FB6800221A63F3
:10241C00FB68202283F83D20FB68002283F83E20D5
:10242C00FB681B6C43F02002FB681A64FB680022FB
:10243C0083F83C20012307E0FB681B685B6903F011
:10244C008003802BC3D1002318461037BD4680BDB6
:10245C0080B584B000AFF860B9607A6034E0F86899
:10246C0000F09BF80346002B01D0012334E0BB683D
:10247C00B3F1FF3F28D0FEF7C5FA02467B68D31AAA
:10248C00BA689A4202D3BB68002B1DD1FB681B684B
:10249C005B6903F00403042B16D0FB6800221A635B
:1024AC00FB68202283F83D20FB68002283F83E2045
:1024BC00FB681B6C43F02002FB681A64FB6800226B
:1024CC0083F83C20012307E0FB681B685B6903F081
:1024DC000403042BC3D1002318461037BD4680BD1E
:1024EC0080B584B000AFF860B9607A6049E0FB68F1
:1024FC001B685B6903F01003102B19D1FB681B6878
:10250C006FF010025A61FB6800221A63FB682022EC
:10251C0083F83D20FB68002283F83E20FB681A6C90
:10252C00FB681A64FB68002283F83C20012330E02E
:10253C00FEF768FA02467B68D31ABA689A4202D34D
:10254C00BB68002B1DD1FB681B685B6903F0400363
:10255C00402B16D0FB6800221A63FB68202283F8FC
:10256C003D20FB68002283F83E20FB681B6C43F087
:10257C002002FB681A64FB68002283F83C200123CC
:10258C0007E0FB681B685B6903F04003402BAED18E
:10259C00002318461037BD4680BD80B483B000AF11
:1025AC0078607B681B685B6903F48063B3F5806FAC
:1025BC001BD17B681B686FF480625A617B680022B8
:1025CC001A637B68202283F83D207B68002283F805
:1025DC003E207B681B6C43F004027B681A647B68AA
:1025EC00002283F83C20012300E0002318460C371E
:1025FC00BD4680BC7047000080B586B000AF7860E7
:10260C007B68002B01D1012372E27B681B6803F00D
:10261C000103002B00F08780924B5B6803F00C03E6
:10262C00042B0CD08F4B5B6803F00C03082B12D1DE
:10263C008C4B5B6803F48033B3F5803F0BD1894B33
:10264C001B6803F40033002B6CD07B685B68002B99
:10265C0068D101234CE27B685B68B3F5803F06D1FF
:10266C00804B1B687F4A43F4803313602EE07B68F9
:10267C005B68002B0CD17B4B1B687A4A23F48033AC
:10268C001360784B1B68774A23F4802313601DE09A
:10269C007B685B68B3F5A02F0CD1724B1B68714A39
:1026AC0043F4802313606F4B1B686E4A43F48033F2
:1026BC0013600BE06B4B1B686A4A23F48033136086
:1026CC00684B1B68674A23F4802313607B685B6844
:1026DC00002B13D0FEF796F9386108E0FEF792F95B
:1026EC0002463B69D31A642B01D9032300E25D4BEC
:1026FC001B6803F40033002BF0D014E0FEF782F9D2
:10270C00386108E0FEF77EF902463B69D31A642B68
:10271C0001D90323ECE1534B1B6803F40033002B6A
:10272C00F0D100E000BF7B681B6803F00203002BB4
:10273C0063D04C4B5B6803F00C03002B0BD0494B64
:10274C005B6803F00C03082B1CD1464B5B6803F44D
:10275C008033002B16D1434B1B6803F00203002B74
:10276C0005D07B681B69012B01D00123C0E13D4BD7
:10277C001B6823F0F8027B685B69DB003949134363
:10278C000B603AE07B681B69002B20D0364B012292
:10279C001A60FEF737F9386108E0FEF733F90246A4
:1027AC003B69D31A022B01D90323A1E12D4B1B68E2
:1027BC0003F00203002BF0D02A4B1B6823F0F80225
:1027CC007B685B69DB00274913430B6015E0264BE4
:1027DC0000221A60FEF716F9386108E0FEF712F9CC
:1027EC0002463B69D31A022B01D9032380E11D4B0E
:1027FC001B6803F00203002BF0D17B681B6803F00D
:10280C000803002B3AD07B689B69002B19D0174B1F
:10281C0001221A60FEF7F6F8386108E0FEF7F2F8CC
:10282C0002463B69D31A022B01D9032360E10D4BFD
:10283C005B6A03F00203002BF0D0012000F0CEFA0B
:10284C001CE00A4B00221A60FEF7DCF838610FE03E
:10285C00FEF7D8F802463B69D31A022B08D903239A
:10286C0046E100BF00100240000042428004424298
:10287C00924B5B6A03F00203002BE9D17B681B6867
:10288C0003F00403002B00F0A6800023FB758B4B98
:10289C00DB6903F08053002B0DD1884BDB69874A31
:1028AC0043F08053D361854BDB6903F08053BB60ED
:1028BC00BB680123FB75824B1B6803F48073002BF0
:1028CC0018D17F4B1B687E4A43F480731360FEF76C
:1028DC0099F8386108E0FEF795F802463B69D31A7F
:1028EC00642B01D9032303E1754B1B6803F480733C
:1028FC00002BF0D07B68DB68012B06D16F4B1B6A79
:10290C006E4A43F0010313622DE07B68DB68002BF9
:10291C000CD16A4B1B6A694A23F001031362674BA3
:10292C001B6A664A23F0040313621CE07B68DB68B5
:10293C00052B0CD1614B1B6A604A43F004031362F4
:10294C005E4B1B6A5D4A43F0010313620BE05B4B69
:10295C001B6A5A4A23F001031362584B1B6A574AED
:10296C0023F0040313627B68DB68002B15D0FEF7A1
:10297C0049F838610AE0FEF745F802463B69D31A7C
:10298C0041F28832934201D90323B1E04B4B1B6ACD
:10299C0003F00203002BEED014E0FEF733F838619D
:1029AC000AE0FEF72FF802463B69D31A41F288324F
:1029BC00934201D903239BE0404B1B6A03F00203B3
:1029CC00002BEED1FB7D012B05D13C4BDB693B4A47
:1029DC0023F08053D3617B68DB69002B00F0878088
:1029EC00364B5B6803F00C03082B61D07B68DB690A
:1029FC00022B46D1334B00221A60FEF703F83861E4
:102A0C0008E0FDF7FFFF02463B69D31A022B01D900
:102A1C0003236DE0294B1B6803F00073002BF0D1EE
:102A2C007B681B6AB3F5803F08D1244B5B6823F4A9
:102A3C0000327B689B68214913434B601F4B5B68DA
:102A4C0023F474127B68196A7B685B6A0B431B491D
:102A5C0013434B601B4B01221A60FDF7D3FF386107
:102A6C0008E0FDF7CFFF02463B69D31A022B01D9D0
:102A7C0003233DE0114B1B6803F00073002BF0D0D7
:102A8C0035E0104B00221A60FDF7BCFF386108E0FE
:102A9C00FDF7B8FF02463B69D31A022B01D9032379
:102AAC0026E0064B1B6803F00073002BF0D11EE0F0
:102ABC007B68DB69012B07D1012319E00010024070
:102ACC0000700040600042420B4B5B68FB60FB688F
:102ADC0003F480327B681B6A9A4206D1FB6803F4CC
:102AEC0070127B685B6A9A4201D0012300E00023DC
:102AFC0018461837BD4680BD0010024080B584B022
:102B0C0000AF786039607B68002B01D10123D0E0E5
:102B1C006A4B1B6803F007033A689A4210D9674B5B
:102B2C001B6823F0070265493B6813430B60634B3A
:102B3C001B6803F007033A689A4201D00123B8E0FE
:102B4C007B681B6803F00203002B20D07B681B689A
:102B5C0003F00403002B05D0594B5B68584A43F42F
:102B6C00E06353607B681B6803F00803002B05D0FF
:102B7C00534B5B68524A43F460535360504B5B6851
:102B8C0023F0F0027B689B684D4913434B607B68D4
:102B9C001B6803F00103002B40D07B685B68012BA2
:102BAC0007D1474B1B6803F40033002B15D10123CD
:102BBC007FE07B685B68022B07D1414B1B6803F0FD
:102BCC000073002B09D1012373E03D4B1B6803F00C
:102BDC000203002B01D101236BE0394B5B6823F01E
:102BEC0003027B685B68364913434B60FDF70AFFB1
:102BFC00F8600AE0FDF706FF0246FB68D31A41F2C3
:102C0C008832934201D9032353E02D4B5B6803F0C8
:102C1C000C027B685B689B009A42EBD1274B1B68CC
:102C2C0003F007033A689A4210D2244B1B6823F036
:102C3C00070222493B6813430B60204B1B6803F0CF
:102C4C0007033A689A4201D0012332E07B681B6883
:102C5C0003F00403002B08D0194B5B6823F4E062EB
:102C6C007B68DB68164913434B607B681B6803F079
:102C7C000803002B09D0124B5B6823F460527B686D
:102C8C001B69DB000E4913434B6000F021F8024630
:102C9C000B4B5B681B0903F00F030A49CB5C22FA50
:102CAC0003F3094A1360094B1B681846FDF768FECD
:102CBC00002318461037BD4680BD00BF00200240DF
:102CCC0000100240AC3D0008000000200400002071
:102CDC0080B487B000AF0023FB600023BB600023EF
:102CEC007B6100237B6000233B611E4B5B68FB60B8
:102CFC00FB6803F00C03042B02D0082B03D027E055
:102D0C00194B3B6127E0FB689B0C03F00F03174A40
:102D1C00D35C7B60FB6803F48033002B10D0114B29
:102D2C005B685B0C03F00103114AD35CBB607B68EE
:102D3C000D4A03FB02F2BB68B2FBF3F37B6104E0C8
:102D4C007B680C4A02FB03F37B617B693B6102E00D
:102D5C00054B3B6100BF3B6918461C37BD4680BC28
:102D6C00704700BF0010024000127A00C43D0008FA
:102D7C00D43D000800093D0080B400AF024B1B6835
:102D8C001846BD4680BC70470000002080B500AFDF
:102D9C00FFF7F2FF0246054B5B681B0A03F00703C3
:102DAC000349CB5C22FA03F3184680BD00100240A5
:102DBC00BC3D000880B500AFFFF7DEFF0246054BB7
:102DCC005B68DB0A03F007030349CB5C22FA03F3CD
:102DDC00184680BD00100240BC3D000880B485B090
:102DEC0000AF78600A4B1B680A4AA2FB03235B0AFC
:102DFC007A6802FB03F3FB6000BFFB685A1EFA60A3
:102E0C00002BF9D100BF00BF1437BD4680BC704702
:102E1C0000000020D34D621080B586B000AF786002
:102E2C0000233B610023FB607B681B6803F00103FC
:102E3C00002B7DD00023FB754F4BDB6903F08053D7
:102E4C00002B0DD14C4BDB694B4A43F08053D361C3
:102E5C00494BDB6903F08053BB60BB680123FB75F6
:102E6C00464B1B6803F48073002B18D1434B1B6833
:102E7C00424A43F480731360FDF7C4FD386108E0E7
:102E8C00FDF7C0FD02463B69D31A642B01D903231D
:102E9C006DE03A4B1B6803F48073002BF0D0364B7B
:102EAC001B6A03F44073FB60FB68002B2ED07B681D
:102EBC005B6803F44073FA689A4227D02E4B1B6A66
:102ECC0023F44073FB602E4B01221A602C4B002222
:102EDC001A60294AFB681362FB6803F00103002B9C
:102EEC0014D0FDF78FFD38610AE0FDF78BFD02462B
:102EFC003B69D31A41F28832934201D9032336E05D
:102F0C001D4B1B6A03F00203002BEED01A4B1B6AFD
:102F1C0023F440727B685B68174913430B62FB7D9B
:102F2C00012B05D1144BDB69134A23F08053D36179
:102F3C007B681B6803F00203002B08D00E4B5B6808
:102F4C0023F440427B689B680B4913434B607B68BE
:102F5C001B6803F01003002B08D0074B5B6823F4AD
:102F6C0080027B68DB68044913434B6000231846DE
:102F7C001837BD4680BD00BF0010024000700040F5
:102F8C004004424280B582B000AF78607B68002B71
:102F9C0001D1012342E07B6893F84130DBB2002B76
:102FAC0006D17B68002283F840207868FDF7F8FB97
:102FBC007B68242283F841207B681B68DA687B6875
:102FCC001B6822F40052DA60786800F071F97B68B3
:102FDC001B681A697B681B6822F490421A617B6833
:102FEC001B685A697B681B6822F02A025A617B684D
:102FFC001B68DA687B681B6842F40052DA607B68F5
:10300C0000225A647B68202283F841207B682022AE
:10301C0083F842207B6800225A6300231846083745
:10302C00BD4680BD80B58AB002AFF860B9603B6028
:10303C001346FB8000237B61FB6893F84130DBB2C5
:10304C00202B75D1BB68002B02D0FB88002B01D143
:10305C0001236EE0FB6800225A64FB68212283F88E
:10306C004120FDF7CFFC7861FB68FA889A84FB68F5
:10307C00FA88DA84FB689B68B3F5805F08D1FB683B
:10308C001B69002B04D10023FB61BB68BB6103E00F
:10309C00BB68FB610023BB612EE03B6800937B693E
:1030AC0000228021F86800F048F80346002B05D078
:1030BC00FB68202283F8412003233AE0FB69002BB4
:1030CC000BD1BB691B881A46FB681B68C2F308024C
:1030DC005A60BB690233BB6107E0FB691A78FB6875
:1030EC001B685A60FB690133FB61FB68DB8C9BB28C
:1030FC00013B9AB2FB68DA84FB68DB8C9BB2002B39
:10310C00CBD13B6800937B6900224021F86800F02A
:10311C0014F80346002B05D0FB68202283F84120CD
:10312C00032306E0FB68202283F84120002300E003
:10313C00022318462037BD4680BD80B586B000AF4F
:10314C00F860B9603B601346FB713BE03B6AB3F13E
:10315C00FF3F37D0FDF756FC02463B68D31A3A6A5C
:10316C009A4202D33B6A002B01D103233AE0FB685D
:10317C001B68DB6803F00403002B23D0BB68802B97
:10318C0020D0BB68402B1DD0FB681B681B6803F06C
:10319C000803082B16D100237B61FB681B681B6896
:1031AC007B61FB681B685B687B617B69F86800F07E
:1031BC001DF8FB6808225A64FB68002283F8402043
:1031CC0001230FE0FB681B681A68BB681340BA68E0
:1031DC009A420CBF01230023DBB21A46FB799A42B8
:1031EC00B4D0002318461837BD4680BD80B495B0C6
:1031FC0000AF78607B681B680C337B637B6B53E898
:10320C00003F3B633B6B23F49073FB647B681B6850
:10321C000C33FA6C3A64FB63F96B3A6C41E80023AB
:10322C00BB63BB6B002BE5D17B681B6814333B6223
:10323C003B6A53E8003FFB61FB6923F00103BB646D
:10324C007B681B681433BA6CFA62BB62B96AFA6A9F
:10325C0041E800237B627B6A002BE5D17B681B6B0A
:10326C00012B19D17B681B680C33FB60FB6853E89E
:10327C00003FBB60BB6823F010037B647B681B685A
:10328C000C337A6CBA617B617969BA6941E80023C5
:10329C003B613B69002BE5D17B68202283F84220FF
:1032AC007B6800221A6300BF5437BD4680BC704750
:1032BC0080B584B000AF78607B681B681B6923F411
:1032CC0040517B68DA687B681B680A431A617B682B
:1032DC009A687B681B691A437B685B691343BB6004
:1032EC007B681B68DB6823F4B05323F00C037A680B
:1032FC001268B9680B43D3607B681B685B6923F465
:10330C0040717B689A697B681B680A435A617B68C9
:10331C001B682C4A934203D1FFF74CFDF86002E086
:10332C00FFF734FDF860FA6813469B0013449A00CB
:10333C001A447B685B689B00B2FBF3F3224AA2FB46
:10334C0003235B091901FA6813469B0013449A0086
:10335C001A447B685B689B00B2FBF3F21A4BA3FB2D
:10336C0002035B09642000FB03F3D31A1B01323305
:10337C00154AA2FB03235B0903F0F0031944FA6816
:10338C0013469B0013449A001A447B685B689B00AD
:10339C00B2FBF3F20C4BA3FB02035B09642000FBB2
:1033AC0003F3D31A1B013233074AA2FB03235B0935
:1033BC0003F00F027B681B680A449A6000BF103749
:1033CC00BD4680BD003801401F85EB510CB430B5B3
:1033DC00174B0C1E1D689DB008DA8B234FF0FF3085
:1033EC002B601DB0BDE8304002B070474FF4027343
:1033FC00ADF814300CBF234604F1FF33049307934C
:10340C004FF6FF7302900690ADF81630284621ABAC
:10341C00209A02A9019300F093F9431CBCBF8B23A3
:10342C002B60002CDDD00022029B1A70D9E700BF64
:10343C000C00002003460244934200D1704703F86D
:10344C00011BF9E7014B1868704700BF0C00002006
:10345C0070B500260C4D0D4C641BA410A64209D16E
:10346C0000F078FC00260A4D0A4C641BA410A642FE
:10347C0005D170BD55F8043B98470136EEE755F879
:10348C00043B98470136F2E7143E0008143E00084E
:10349C00143E0008183E00087047704738B50546C2
:1034AC00002940D051F8043C0C1F002BB8BFE41885
:1034BC0000F0DEF81C4A136833B9636014602846C8
:1034CC00BDE8384000F0DAB8A34208D920682118CA
:1034DC008B4201BF19685B6809182160EDE71A4639
:1034EC005B680BB1A342FAD911685018A0420BD1FA
:1034FC0020680144501883421160E0D118685B6861
:10350C00084410605360DAE702D90C232B60D6E72D
:10351C00206821188B4201BF19685B68091821606B
:10352C0063605460CBE738BD9002002070B50F4E3D
:10353C000C463168054611B900F0AAFB30602146F3
:10354C00284600F0A5FB431C03D14FF0FF34204666
:10355C0070BDC41C24F00304A042F8D0211A2846E4
:10356C0000F096FB0130F2D1EFE700BF8C02002097
:10357C002DE9F843CD1C25F0030508350C2D38BF7B
:10358C000C25002D064601DBA94204D90C2333601F
:10359C000020BDE8F883DFF8D48000F069F8D8F893
:1035AC0000301C4644BB29463046FFF7BFFF431C86
:1035BC00044658D1D8F800402746002F43D1002CA0
:1035CC004BD023683946304604EB030900F060FB0E
:1035DC00814542D1216830466D1A2946FFF7A6FF76
:1035EC0001303AD023682B442360D8F800305A6855
:1035FC0062BBC8F800700FE02268521B20D40B2A63
:10360C0017D96119A342256018BF5960636808BFB8
:10361C00C8F8001062514B60304600F02FF804F1EE
:10362C000B00231D20F00700C21A1CBF1B1AA3504D
:10363C00AFE76268A3420CBFC8F800205A60EBE702
:10364C0023466468AEE73C467F68B6E71A465B687B
:10365C00A342FBD100235360DEE70C2330463360DA
:10366C0000F00CF894E70560D6E700BF900200204C
:10367C000148FFF711BF00BF880200200148FFF787
:10368C000CBF00BF880200202DE9F0471F468E6852
:10369C008246BE420C4690460B682DD8B1F90C20E0
:1036AC0012F4906F26D06569096905EB4505A3EB0B
:1036BC00010905EBD5757B1C4B446D109D4238BF41
:1036CC001D46530527D52946FFF752FF064660B322
:1036DC004A46216900F0FAFAA38923F4906343F077
:1036EC008003A38126614E4426603E466561A5EBAE
:1036FC000905A560BE4200D93E46324641462068C7
:10370C0000F0ACFA0020A3689B1BA3602368334431
:10371C002360BDE8F0872A4600F0E6FA064600284A
:10372C00E0D150462169FFF7B9FE0C23CAF80030EE
:10373C00A3894FF0FF3043F04003A381E9E7000079
:10374C002DE9F04F98468B8907461B060D4614460B
:10375C009DB010D50B6973B94021FFF709FF2860A4
:10376C00286130B90C233B604FF0FF301DB0BDE831
:10377C00F08F40236B610023099320238DF82930AF
:10378C0030234FF00109CDF80C80DFF898818DF8CB
:10379C002A3023469A4613F8012B0AB1252AF9D16F
:1037AC00BAEB040B0BD05B46224629463846FFF792
:1037BC006BFF013000F0A780099A5A4409929AF8DD
:1037CC000030002B00F09F8000234FF0FF32CDE93A
:1037DC0005230AF1010A049307938DF853301A93C9
:1037EC005446052214F8011B4E4800F061FA049A65
:1037FC00D8B9D00644BF20238DF85330110744BFED
:10380C002B238DF853309AF800302A2B15D05446C0
:10381C0000204FF00A0C079A214611F8013B303B6F
:10382C00092B4BD9B0B1079214E0A0EB080309FAAD
:10383C0003F31343A2460493D2E7039B191D1B68A1
:10384C000391002BBBBF5B4242F00202079307932C
:10385C00B8BF049223782E2B0AD163782A2B32D14D
:10386C00039B02341A1D1B68039243EAE37305930E
:10387C00DFF8B4A003225046217800F019FA38B1D1
:10388C004022049BA0EB0A008240134301340493B2
:10389C0014F8011B062225488DF8281000F008FAB0
:1038AC00002836D0224B1BBB039B073323F00703A6
:1038BC0008330393099B334409936AE70C460120B0
:1038CC000CFB0232A8E700234FF00A0C1946013416
:1038DC000593204610F8012B303A092A03D9002B06
:1038EC00C6D00591C4E7044601230CFB0121F0E787
:1038FC0003AB00932A4638460E4B04A9AFF3008065
:10390C00421C0646D6D1AB895B063FF52DAF099814
:10391C002CE703AB00932A463846064B04A900F06B
:10392C007DF8EDE7D63D0008DC3D0008E03D0008E1
:10393C0000000000953600082DE9F0471646984621
:10394C008A680B6907469342B8BF1346336091F8F7
:10395C0043200C46DDF820900AB101333360236814
:10396C00990642BF336802333360256815F00605AB
:10397C0006D104F1190AE36832689B1AAB422BDCBE
:10398C0094F843302268003B18BF0123920630D4D0
:10399C004146384604F14302C847013023D023681E
:1039AC00226903F00603042B14BF002533684FF083
:1039BC00000608BFE56804F11A0408BFED1A54F8B4
:1039CC00123C08BF25EAE5759342C4BF9B1AED185B
:1039DC00B5421AD1002008E0012352464146384630
:1039EC00C847013003D14FF0FF30BDE8F0870135F7
:1039FC00C1E73020E11881F843005A1C94F84510B7
:103A0C002244023382F84310C2E701232246414686
:103A1C003846C8470130E6D00136D9E72DE9FF47D3
:103A2C000F7E9146782F80460C469A460C9E01F1EB
:103A3C00430207D8622F0AD8002F00F0D380582FEA
:103A4C0000F0BA8004F1420684F842703AE0A7F123
:103A5C006303152BF6D801A151F823F0C13A0008E5
:103A6C00D53A0008513A0008513A0008513A00087A
:103A7C00513A0008D53A0008513A0008513A00086A
:103A8C00513A0008513A0008D73B0008FF3A0008A9
:103A9C00913B0008513A0008513A0008F93B0008E4
:103AAC00513A0008FF3A0008513A0008513A000810
:103ABC00993B000833681A1D1B68326004F14206FA
:103ACC0084F8423001239EE033682068191D316070
:103ADC00060601D51D6803E04506FBD5B3F9005079
:103AEC00002D03DA2D236D4284F843300A23594804
:103AFC0011E021683368080653F8045B02D44906C8
:103B0C0048BFADB26F2F336014BF0A23082351484E
:103B1C00002184F843106668002EA8BF2168A660B7
:103B2C00A4BF21F0040121600DB9002E4BD0164624
:103B3C00B5FBF3F103FB1157C75D06F8017D2F466A
:103B4C00BB420D46F4D9082B0BD12368DF0708D5EF
:103B5C00236961689942DEBF302306F8013C06F107
:103B6C00FF36921B22614B4621464046CDF800A001
:103B7C0003AAFFF7E1FE01304AD14FF0FF3004B049
:103B8C00BDE8F087236843F0200323607827324890
:103B9C0084F84570236831681F0651F8045B02D421
:103BAC005F0648BFADB23160D90744BF43F0200374
:103BBC0023601DB11023ABE72648E9E7236823F007
:103BCC0020032360F6E71646BDE733682568181D09
:103BDC00616930602E061B6801D5196002E0680629
:103BEC00FBD51980002316462361BCE733680021FE
:103BFC001A1D32601E686268304600F059F808B130
:103C0C00801B606063682361002384F84330AAE75B
:103C1C003246494640462369D0470130ADD023682F
:103C2C009B0713D4E068039B9842B8BF1846A6E7DD
:103C3C000123324649464046D04701309DD00135DC
:103C4C00E36803995B1AAB42F2DCEBE7002504F165
:103C5C001906F5E7E73D0008F83D0008884210B565
:103C6C0001EB020402D98442234607D8431EA14229
:103C7C0008D011F8012B03F8012FF8E70146024494
:103C8C008A4200D110BD13F8014D02F8014DF7E73F
:103C9C0038B50023054D044608462B60FCF7F8FDAB
:103CAC00431C02D12B6803B1236038BD8402002071
:103CBC00034610B5C9B202449342184601D1002004
:103CCC0003E0047801338C42F6D110BD0A449142D2
:103CDC0000F1FF3300D1704710B511F8014B914240
:103CEC0003F8014FF9D110BD2DE9F041804615467E
:103CFC000C4621B91146BDE8F041FFF739BC2AB991
:103D0C00FFF7CCFB00242046BDE8F08100F01AF848
:103D1C008542064602D8B5EB500FF4D829464046EA
:103D2C00FFF726FC07460028ECD0B5422A46214670
:103D3C0028BF3246FFF7CAFF21464046FFF7AEFBCD
:103D4C003C46E0E751F8043C181F002BBCBF0B5855
:103D5C00C0187047F8B500BFF8BC08BC9E46704749
:0C3D6C00F8B500BFF8BC08BC9E467047CC
:103D7800563D25687520493D25687520503D2568C4
:103D88007520413D25687520423D25687520433DD5
:103D980025687520443D25687520453D25630D0A35
:103DA8000000000000000000000000000102030401
:103DB80006070809000000000102030402030405C5
:103DC800060708090A0B0C0D0E0F10100102232D0F
:103DD800302B2000686C4C0065666745464700300C
:103DE8003132333435363738394142434445460059
:103DF8003031323334353637383961626364656659
:043E080000000000B6
:083E0C0040C3FF7F010000002C
:043E14003101000870
:043E18000D01000890
:103E1C0000127A00100000000100000010000020C9
:103E2C00000000004C010020B40100201C02002006
:103E3C000000000000000000000000000000000076
:103E4C000000000000000000000000000000000066
:103E5C000000000000000000000000000000000056
:0C3E6C000000000000000000000000004A
:0400000508000915D1
:00000001FF
